:020000040000FA
:1000000098022020A5010000A9010000AB0100001A
:1000100000000000000000000000000000000000E0
:10002000000000000000000000000000AD01000022
:100030000000000000000000AF010000B10100005E
:10004000B3010000B3010000B3010000B3010000E0
:10005000B3010000B3010000B3010000B3010000D0
:1000600000000000B3010000B30100000000000028
:1000700000000000B3010000B3010000311C0000CB
:10008000B3010000B3010000051C0000B301000033
:10009000B3010000B30100000000000000000000F8
:1000A000B3010000F5160000000000000000000091
:1000B000B301000000000000B3010000B301000024
:1000C00000F002F800F042F812A030C808382418F6
:1000D0002D18AC4201D100F039F80FCCA246AB4646
:1000E0000CA730CF2D1B083F3F197C427F1E544484
:1000F0002D090426F441641EAC4201D300F026F819
:100100000126334200D0FB1A3343984754465D46DC
:10011000DFE700007C1D00008C1D000000000000D7
:100120007047000000000000002300240025002686
:10013000103A01D378C1FBD8520700D330C100D5A3
:100140000B6070471FB51FBD10B510BD00F004FC5B
:100150001146FFF7F7FF01F0DBFD00F01CFC03B4D4
:10016000FFF7F2FF03BC00F023FC000070B505466A
:100170000C46164602E00FCC0FC5103E102EFAD2E8
:10018000082E02D303CC03C5083E042E07D301CCAE
:1001900001C5361F03E021782970641C6D1C761E92
:1001A000F9D270BD06480047FEE7FEE7FEE7FEE72E
:1001B000FEE7FEE703480449024A044B704700008B
:1001C000C1000000980120209802202098012020E2
:1001D000F8B5042A2CD3830712D00B78491C03707E
:1001E000401C521E83070BD00B78491C0370401C27
:1001F000521E830704D00B78491C0370401C521E0A
:100200008B079B0F05D0C91ADF002023DE1B08C90E
:100210000AE0FFF7ABFFF8BD1D4608C9FD401C46CC
:10022000B4402C4310C0121F042AF5D2F308C91A97
:10023000521EF0D40B78491C0370401C521EEAD4A5
:100240000B78491C0370401C012AE4D40978017022
:10025000F8BD01E004C0091F0429FBD28B0701D5BA
:100260000280801CC90700D00270704700290BD0A3
:10027000C30702D00270401C491E022904D3830721
:1002800002D50280801C891EE3E70022EEE70022EF
:10029000DFE77047704770470246C80FC0078143C9
:1002A0004B0030B54B405B009B0D20D01923DB0683
:1002B000C91801231B05994220DB0324A407042548
:1002C0001346AB400BD3002B04D1EB0613409B002D
:1002D000E34204D401246407002312195941FF2387
:1002E0001B0599420BD2C9000143500F09E0CB0214
:1002F00004D501430803024305D0054830BDFF2162
:10030000C905084330BD084607210905884330BDAB
:100310000000C07FF0B50C46871A9C410D46861A36
:100320009D4103D2C01BA141D21963410D0D1F0D88
:10033000C94EEC1BAE435CD07F057F0D0026002F1D
:1003400051D02D05AC46A943DD020123ED0A1B0562
:100350001D4320231B1B24D41746E7403818714146
:100360002F46E740CC199D402818314661410C0DBD
:1003700027D161449A4013D50023401C59415200B3
:100380000ED14008400001224B005205D34207D352
:1003900005204007C14201D5B04900E0B0493046D0
:1003A000F0BD6B00002A00D001229A181F23203CC8
:1003B0001B1B01D5002302E0E540281871410C0DFC
:1003C000D7D0012424050919C407CD0740084908DE
:1003D000E40F28436144002CD5D00024401C614127
:1003E0009A40D0D1CDE76A05520DD9D1C90FC907BE
:1003F000D5E79C4D4E00002801D0012400E00024E8
:1004000034195F00002A01D0012600E00026BE1941
:10041000954FAC420CD8AE420AD8B44206D0012562
:100420006D05EC42BCD010461946F0BD9942FCD097
:1004300000203946F0BDF0B51FB40C460F46811AB6
:100440009F412546861A9D4106D20125ED076F4042
:10045000401ABC4152187B41210D1E0D8D1BAC462C
:100460007D4D8D437ED075056D0D7CD00D05AE465E
:10047000AC431B031B0B794D52429D412023664622
:100480009B1B14D31746F740381800260090744180
:1004900060462F460741E41900989D4028186641A0
:1004A00016D4714671189A4025D5012320E093187F
:1004B0002A466A415200002B00D0521C1E23203EC7
:1004C0009B1B002B61DD3541EE1728186641E8D5EE
:1004D000001876415B1C9A4000D3401C4B05F31872
:1004E0001524E34010D3002B52D071467118D30F5E
:1004F000C01802D3491C05B0F0BD0123DB079A42A6
:10050000F9D140084000F6E701225205B21801D1A6
:10051000002853D00123CC0ADB029943891E002A0C
:1005200008D1020C03D0020C0004103902E002468C
:10053000002020390023550B05D112020823550B4A
:1005400001D152010D23550C01D112011B1DD50CF7
:1005500001D192009B1C150D01D152005B1C20257E
:10056000EE1A01E02CE022E00546F54015439840E4
:10057000CA1AE10769181305C918002ABBDA032053
:1005800040070818C10FC9070FE071466118B2E7AC
:10059000F10740080843711071444A000CD0012350
:1005A0005B059A42A7D2C90FC9070020A3E74905F6
:1005B000490D26D1002001E00028F4D100219AE75E
:1005C000284D6600002801D0012100E000217118AB
:1005D0005F00002A01D0012600E00026BE19224F4C
:1005E000A94210D8AE420ED8B14208D001256D05FF
:1005F000E94206D01946A802414010467BE79C42DA
:1006000001D0214677E70020394674E710B50C4643
:100610005C4005D50124E4076340FFF70CFF10BDE3
:10062000FFF778FE10BD30B40C465C4004D50124C1
:10063000E407634030BC6DE630BCFCE670B50124D5
:10064000E40761400D465D4002D4FFF763FE70BDD4
:100650006340FFF7F0FE70BDFF0700000000F0FFF1
:100660000000F07F0000E0FF0000F87F1F22030C75
:1006700002D10F22000402D0030E03D004E00020B8
:10068000014670470002083A030F01D10001121F12
:10069000830F01D18000921E002801DB4000521E12
:1006A000120551184205C012411810467047C10F7B
:1006B000C90700D04042012292071143D6E7012129
:1006C0008907D3E7F0B58B4C0F09254689B0BD43A8
:1006D0007BD01D092646AE43FAD00E465E40274029
:1006E000F60F3E43254071D024012142FBD0FF2468
:1006F000AD19A4042D1B039501252D05DB02DB0A92
:10070000C9022B43C90A29431E010901040F130F13
:10071000050121431701880B820391432D098C4663
:10072000A90B1E438A039543B30B9A0396433F09D3
:10073000BA0B9403A74302962E467E430497B6460F
:100740004E19D7190C460196544305977E43371B23
:100750007646BF1B3601B646BE0B36190096764666
:10076000BC043719009C01D3641C00946400002F62
:1007700001D001263443029E049F754366467E43A2
:100780000496760034196E0034190094029C019E80
:100790001C196643751BAE46069465464519059CB3
:1007A00005956C43594375460891691A0191049E59
:1007B00001465143A41B0491611A009C0791E10674
:1007C00005D061090122114302E072E06EE0610987
:1007D000089D00272C0A2D066918049D7C412A0AD1
:1007E0002D066918019D6241AC0DAD026D18544192
:1007F000079A910D920255196141029A6446584335
:100800005443069B059A5A43121A131B9A0E9B01D6
:100810005B187A41010B0005C3185141220A2006DA
:1008200044195A419A4200D2491C01204002814297
:1008300003D315230226F64302E014230326F643CE
:100840002020C51AA9401746AF40DA400A43204687
:100850000399D8400914731819055118039A38439D
:10086000D2075140AC4009D00122944006D3002267
:10087000401C5141002C01D1400840001E4A9342C7
:1008800012D3012203989206904207DB052040070D
:1008900009181A480143C012414004E003204007F0
:1008A0000818C10FC907002009B0F0BD0020F107EA
:1008B000FAE705180C464C4111486D42A04115D38A
:1008C00094181A465A410E48644290410ED30120B2
:1008D0004A004005824209D35A00824206D3594059
:1008E000C90F084AC90700201143DDE70020064967
:1008F000DAE700000000FF07FE070000FFFFFF7FB0
:100900000000E0FF0000F07F0000F87F10B5014616
:100910009E240002CA15A307002A02D01843002A09
:1009200004DBA21A002A0CDDD04010BD1206120E04
:1009300001D140004008A21A03D4D0404042002810
:10094000F3DDFF2248001206904201D9002010BDBD
:10095000C817C043584010BD754600F025F8AE4694
:10096000050069465346C008C000854618B020B54A
:10097000FFF720FC60BCB64600260027C0C5C0C5F6
:10098000C0C5C0C5C0C5C0C5C0C5C0C5403D49087B
:1009900049008D46704710B50446C046C046204603
:1009A000FFF7DDFB10BD000000487047000020206D
:1009B00001491820ABBEFEE7260002007047F0B5E3
:1009C0008FB00CA900254D70122008703E2702241C
:1009D0003846224600F01CFF204601F07DF93C20FD
:1009E00001F07AF90CA94D709020087038460A97EA
:1009F000224600F00DFF204601F06EF9082003901A
:100A000001F06AF90CAE757135712D20F0708020FF
:100A10000190B070922008907070342030700422E1
:100A200004923846314600F0F3FE204601F054F9B6
:100A30000EA906200690487070780C9A8018B2783B
:100A40008018F2788018C043087060200990224610
:100A500000F0DEFE204601F03FF90CAF7D713D71E4
:100A6000FD7001200290B8700898787037203870B7
:100A700003220B920A9E3046394600F0C9FE2046FA
:100A800001F02AF90EA905200790487078780C9A91
:100A90008018BA788018C04308700998224600F080
:100AA000B7FE204601F018F90CAF7D713D71FD7065
:100AB0000D20B87008987870362038703046394666
:100AC0000B9A00F0A5FE204601F006F90EA9079842
:100AD000487078780C9A8018BA788018C0430870EB
:100AE000099E3046224600F093FE204601F0F4F8BD
:100AF0000CAF7D713D71FD704220B8700898787020
:100B0000FB2038700A9839460B9A00F081FE204687
:100B100001F0E2F80EA90798487078780C9A8018CE
:100B2000BA788018C04308703046224600F070FE44
:100B3000204601F0D1F80CAF7D713D71FD700720AA
:100B40000590B87008987870FC2038700A9E30467E
:100B500039460B9A00F05CFE204601F0BDF80EA964
:100B60000798487078780C9A8018BA788018C04333
:100B700008700998224600F04BFE204601F0ACF8C0
:100B80000CAF7D713D71FD700598B8700898787054
:100B9000FA203870304639460B9A00F039FE20466C
:100BA00001F09AF80EA90798487078780C9A801886
:100BB000BA788018C0430870099E3046224600F07B
:100BC00027FE204601F088F80CAF7D713D71FD7065
:100BD0000598B87008987870FF2038700A983946E0
:100BE0000B9A00F015FE204601F076F80EA9079842
:100BF000487078780C9A8018BA788018C0430870CA
:100C00003046224600F004FE204601F065F80CAFA5
:100C10007D713D71FD700598B870932005907870D6
:100C20003D700A9E304639460B9A00F0F1FD204691
:100C300001F052F80EA90798487078780C9A80183D
:100C4000BA788018C04308700998224600F0E0FD89
:100C5000204601F041F80CAF7D713D71C020F87065
:100C60003F20B87005987870049A3A70304639463B
:100C700000F0CEFD204601F02FF80EA9069848702E
:100C800078780C9A8018BA788018FA788018C0435F
:100C900008700998224600F0BBFD204601F01CF8C0
:100CA0000CAF7D713D71FD70BC20B870089E7E70E8
:100CB000612038700A9839460B9A00F0A9FD204649
:100CC00001F00AF80EA90798487078780C9A8018F5
:100CD000BA788018C04308700998224600F098FD41
:100CE000204600F0F9FF0CAF7D713D71FD70F720DB
:100CF000B8707E70622038700A9839460B9A00F0FE
:100D000087FD204600F0E8FF0EA907984870787824
:100D10000C9A8018BA788018C0430870099E304633
:100D2000224600F075FD204600F0D6FF0CAF7D7125
:100D30003D71F820F87082200090B87008987870A3
:100D40006D2038700A983946049A00F061FD2046FB
:100D500000F0C2FF0EA90698487078780C9A8018A7
:100D6000BA788018FA788018C04308703046224656
:100D700000F04EFD204600F0AFFF0CAF7D713D71DD
:100D8000FD700B9ABA7005987870352038700A9EFD
:100D90003046394600F03CFD204600F09DFF0EA98C
:100DA0000798487078780C9A8018BA788018C043F1
:100DB00008700998224600F02BFD204600F08CFFB9
:100DC0000CAF7D713D71FD703120B870089878705E
:100DD00075203870304639460B9A00F019FD2046D0
:100DE00000F07AFF0EA90798487078780C9A80185E
:100DF000BA788018C0430870099E3046224600F039
:100E000007FD204600F068FF0CAF7D713D71FD705D
:100E10004B20B87008987870782038700A98394656
:100E20000B9A00F0F5FC204600F056FF0EA907983B
:100E3000487078780C9A8018BA788018C043087087
:100E40003046224600F0E4FC204600F045FF0CAF9F
:100E50007D713D71FD700698B870059878700B9A99
:100E60003A700A98394600F0D3FC204600F034FF6F
:100E70000EA9079E4E7078780C9A8018BA78801860
:100E8000C04308700998224600F0C2FC204600F0DA
:100E900023FF0CAF7D713D71FD70BE7008987870B6
:100EA000019838700A9839460B9A00F0B1FC204638
:100EB00000F012FF0EA94E7078780C9A8018BA785C
:100EC0008018C04308700998224600F0A1FC204613
:100ED00000F002FF0CAF7D713D71FD700A20B8700B
:100EE00008987870009838700A9839460B9A00F084
:100EF0008FFC204600F0F0FE0EA94E7078780C9A18
:100F00008018BA788018C04308700998224600F00B
:100F10007FFC204600F0E0FE0CAF7D713D71FD705E
:100F2000BE7008987870862038700A9839460B9AF7
:100F300000F06EFC204600F0CFFE0EA94E707878CF
:100F40000C9A8018BA788018C04308700998224615
:100F500000F05EFC204600F0BFFE0CAF7D713D71DD
:100F6000FD700B9ABA70089E7E70872038700A98C0
:100F7000394600F04DFC204600F0AEFE0EA9079861
:100F8000487078780C9A8018BA788018C043087036
:100F90000998224600F03CFC204600F09DFE0CAF74
:100FA0007D713D71FD700298B8707E70952038702B
:100FB0000A9E304639460B9A00F02AFC204600F083
:100FC0008BFE0EA90798487078780C9A8018BA782A
:100FD0008018C04308700998224600F019FC20468A
:100FE00000F07AFE039F384600F076FE0CA94D70A3
:100FF000089808703046224600F00AFC204600F0AF
:101000006BFE384600F068FE0CA94D702220087077
:101010003046224600F0FCFB204600F05DFE3846DC
:1010200000F05AFE0CA94D709620087030462246FA
:1010300000F0EEFB204600F04FFE384600F04CFE7C
:101040000CA94D709A2008703046224600F0E0FB53
:10105000204600F041FE384600F03EFE0FB0F0BDE5
:10106000B0B562208E4C022521462A4600F04EFB88
:10107000284600F031FE60782178000240180149CE
:101080000880B0BD60002020F0B581B06A20844C9B
:10109000022521462A4600F039FB284600F01CFEB6
:1010A0006078217800024018FFF701FB2C4F2D4B90
:1010B0003A46FFF707FB2C4A2C4BFFF7A7FAFFF73E
:1010C000EBF8B54E30606E2021462A4600F01EFB3C
:1010D000284600F001FE6078217800024018FFF7F2
:1010E000E6FA3A461F4BFFF7EDFA1F4A1F4BFFF790
:1010F0008DFAFFF7D1F87060742021462A4600F07F
:1011000005FB284600F0E8FD6078217800024018D1
:10111000FFF7CDFA3A46134BFFF7D4FA124A134BB6
:10112000FFF774FAFFF7B8F8B060762021462A4638
:1011300000F0ECFA284600F0CFFD6078217800023C
:101140004018FFF7B4FA3A46064BFFF7BBFA064AD7
:10115000064BFFF75BFAFFF79FF8F06001B0F0BDB8
:101160009A9999999999B93F66666666661271C0AF
:10117000B0B53A204A4C022521462A4600F0C6FA6C
:10118000284600F0A9FD60782178000240188549C2
:101190000880B0BDB0B57F20414C022521462A46CB
:1011A00000F0B4FA284600F097FD607820780149F5
:1011B0000870B0BD62002020F0B581B00320384C2B
:1011C000022521462A4600F0A1FA284600F084FDB7
:1011D000607820781D4E307020784007C00F1C4981
:1011E000087020780007C00F1A490870607800075F
:1011F000C00F1949087060788007C00F1749087040
:10120000052021462A4600F081FA284600F064FDB8
:1012100060782078124F3870072021462A4600F067
:1012200075FA284600F058FD607820780D4908705E
:101230003178081839784018012801D8002000E0DA
:1012400001200949087001B0F0BDC0468E01202080
:10125000CD00202065002020B00020206400202048
:101260008F01202090012020A400202070B504468A
:101270000B4D02262946324600F048FA304600F06F
:101280002BFD6878297800024018143CE1B21F2930
:1012900003D30A21414388B270BD80B270BDC046FD
:1012A000A500202070B53A4800F0CCF81420FFF7D4
:1012B000DDFF384D28801620FFF7D8FF6880182002
:1012C000FFF7D4FFA8801A20FFF7D0FFE8801C208A
:1012D000FFF7CCFF28811E20FFF7C8FF6881202080
:1012E000FFF7C4FFA8812220FFF7C0FFE881242078
:1012F000FFF7BCFF28822620FFF7B8FF688228206E
:10130000FFF7B4FFA8822A20FFF7B0FFE8822C2065
:10131000FFF7ACFF28832E20FFF7A8FF688330205B
:10132000FFF7A4FFA8833220FFF7A0FFE883342053
:10133000FFF79CFF28843820FFF798FF6884FFF7A9
:10134000A3FE154E3068154C214600F029FDFFF72D
:10135000DDFAE8857068214600F022FDFFF7D6FA35
:101360002886B068214600F01BFDFFF7CFFA68869B
:10137000F068214600F014FDFFF7C8FAA886FFF7D1
:10138000F7FE07480221018006480088E88670BD04
:1013900000200F4068002020BC00202000002041D9
:1013A0008C0120206600202010B582B001A90870B1
:1013B000000A48703E200224224600F029FA204606
:1013C00000F08AFC02B010BD811E091F00BFFCD2D4
:1013D0007047000070B50B01C31854689568254329
:1013E00094892C43156956692543D48924012C43DB
:1013F00035012543092464021D51137852781A439C
:10140000BF231A4089004018024944589C43A2183F
:10141000425070BD1011000010B5002A0FD091236A
:101420005B01C3180020DC692405240F05D00C5C87
:101430001C60401C8242F6D1104680B210BD0020D4
:1014400080B210BD0F4A83580121C9030B4383505A
:10145000801842681207FCD102688A430260704714
:10146000084A835880210B43835080180F221202B0
:10147000436813400122D2029342F7D102688A43A3
:10148000026070473812000070B50A780C231A40C9
:101490000124240305196E689E43B2186A604978D6
:1014A00007221140035993435918015170BD0000A0
:1014B000B0B5FF2204320E490B68934382780324AF
:1014C00014400278120212191A430A60094A0A4BA0
:1014D00013600A4C25686D05FCD54078002803D0C0
:1014E0000868102404430C60581C1060B0BDC0464E
:1014F00014010B4014030B400100009104020B4047
:10150000B0B54A68364BC250364A80180A78222A4B
:1015100058D8930001A4E3589F46C046BB1500006D
:10152000C5150000BB150000C5150000C51500005D
:10153000C5150000C5150000C5150000C515000043
:10154000C5150000C5150000C5150000C515000033
:10155000C5150000C5150000C5150000A91500003F
:10156000C5150000A9150000C5150000C51500002F
:10157000C5150000C5150000C5150000C515000003
:10158000C5150000C5150000C5150000C5150000F3
:10159000C5150000C5150000C5150000A9150000FF
:1015A000C5150000A915000003231B0704689C4310
:1015B00001235B07E318036004E003231B070468AF
:1015C0009C4304600B69C360CB68074C1C40C36A32
:1015D000064D1D402B19C362097A11430160B0BD4D
:1015E0000818000004180000777702008888FDFFC3
:1015F00010B50122120383180C789C604B7883503D
:101600008978014A815010BD0C11000010B5002AE4
:101610000CD0074BC31800201C68240605D40C5CB2
:101620009C61401C8242F7D1104610BD002010BDC5
:1016300008110000B0B51122120283580124A343FF
:1016400083500B888C781C438B882343094C1C40A7
:101650008358094D1D40631983508B79CC791C4305
:10166000097A21437E231940801842689A43511811
:101670004160B0BD18670000E798FDFF10B501227A
:10168000120383180C789C604978815010BD0000CB
:1016900080B55E480078012805D1AB48012141871B
:1016A000FFF78DF902E0A84800214187FFF7D8FC39
:1016B000FFF782FDFFF76EFD08480088A249888485
:1016C00007480078C88407480078088506480078ED
:1016D000488506480078888580BDC0466000202087
:1016E0008E0120208F0120209001202062002020E8
:1016F0007047000004480068C0B2082802D143487F
:10170000012101707047C04620300F40F0B583B012
:10171000144602AF3870019108461146FEF7B5FD38
:10172000C14839462246FFF777FE614F3868800688
:1017300008D43868800605D43868800602D4386832
:101740008006F3D53E46083E30685A4908401030BE
:1017500030603A1F1068584908402B494018154618
:1017600010603868400612D5386840060FD53868D2
:1017700040060CD538684006F3D408E03868800687
:1017800008D43868800605D43868800602D43868E2
:101790008006F3D5A448FFF763FE3068454908404A
:1017A0001121014331602868434908402104014365
:1017B000072008432860002C01991ED00025134AF9
:1017C0000BE0282C34460199104A18D200201070E2
:1017D000786848556D1CA5420FD0786A0007F5D18E
:1017E000264600200446502000F084FA786A00075C
:1017F000E7D1601C282CF5D3E3E703B0F0BD01204E
:10180000107003B0F0BDC046070001006300202047
:10181000B0B582B01446002200926B461870019257
:10182000002C04D06846401C2246FEF7D1FC651C03
:101830007D4C694620462A46FFF7EEFD1C480168AC
:10184000890608D40168890605D40168890602D48E
:1018500001688906F3D5014608390A68154B13401B
:1018600010330B60011F0A68134B13402A049A18A7
:10187000D21D0A600168490612D5016849060FD5D4
:10188000016849060CD501684906F3D408E00168EF
:10189000890608D40168890605D40168890602D43E
:1018A00001688906F3D52046FFF7DAFD02B0B0BD26
:1018B00018320F4000F8FFFFF8FF00F0B0B5F14C10
:1018C0002078072819D1E0790A2816D1A078E17884
:1018D000000240181D282DD86278002A11D06178A6
:1018E00001290AD121796279090289184000CE4A7A
:1018F000115211480021017019E00F4801210170B7
:10190000B0BD0E48C17000258570112242700722BB
:1019100002700A22C27185714900C34A515A41714D
:10192000090A0171082100F0B1F90348057000208F
:1019300020606060B0BDC046CC002020B1002020F7
:10194000B9487B21818170476800202080B5034819
:101950000021034AFFF73EFD80BDC04600A0424083
:10196000501E000080B5FFF7F1FF80BD0F48014613
:101970001C3900220A60014618390A600C4941608E
:10198000016001214A06436813434360036813431F
:10199000036082228261074AC26107488122026095
:1019A00088050649086008637047C0463C8042408D
:1019B00084000C0082000400C8804240A0320A402B
:1019C000B0B519481949FFF75FFD03214A021848CD
:1019D0000368134303600122130204681C4304607C
:1019E000002343611F234362836B13430624A343F5
:1019F000836307231B02846B9C438463836A0424F0
:101A00001C4384620B4B1C68802525431D60FF230B
:101A10001B02094C25689D43890369182160816A6E
:101A200011438162B0BDC04600200F40681E000017
:101A300000320F4028300F4018E400E001208002FF
:101A400006490A68024208D10A68024205D10A68BA
:101A5000024202D10A680242F3D0704704020B40EE
:101A6000B0B50E48002101600320C0430C4C214654
:101A700008390A6802400A6020680125A8432060EE
:101A800028022168814321600648FFF711FD2803E1
:101A9000211F0A6802430A60B0BDC04608030B401C
:101AA00008010B406A1E000010B50B4C0B49204684
:101AB000FFF79EFD0A492046FFF722FD094801680D
:101AC000012211430160FF20000407490B68834392
:101AD0000B600648026010BD000086406D1E0000CD
:101AE000701E00002810864010E400E008118640B7
:101AF000B0B5784C20492046FFF7C0FD1F4920466D
:101B0000FFF798FD0320C1035F4802688A43026023
:101B100001691B4A0A4011320261416917220A43D6
:101B200028218A434261426801210A4043688B436D
:101B30009A184260CA03134B1C6814431C60FF22AE
:101B40001206114C256895438A07AA1822608A025A
:101B50001A634A04036813430360C2687023134383
:101B6000C360C2680223134305229343C360026823
:101B70000A430260B0BDC046841E0000861E0000FD
:101B80000000FFFF289010400CE400E080B500F05A
:101B900015F8FFF7EBFEFFF763FFFFF785FFFFF791
:101BA0000FFFFFF7A5FFFFF7DDFEFFF747FFB820A8
:101BB000014900220A5480BDD0002020B0B50A4857
:101BC0000A4941600A4A51600A4B59600A4C6160F7
:101BD0000A4D69600A49016011601960216029603D
:101BE0001020FFF7F1FBB0BD00080A40030000B170
:101BF00000280A400008864000280F400088104056
:101C00000100002607480068C0B2012808D1064834
:101C1000018F064A914201D0491C00E00121018751
:101C20007047C0462010864068002020FFFF00005B
:101C300080B504480068C0B2102801D1FFF73EFE0D
:101C400080BDC0462090104010B5504B0020186059
:101C500058604C4801680222914301600A490C46D1
:101C60002434446083600823C36001235B040C6850
:101C70009C430C60046814430460086818430860BF
:101C800010BDC046A800202000911040F0B581B0E2
:101C900000291AD00C46054600260D4F03E0801996
:101CA000C6B2A64211D2A919A21B0A48FFF7AEFC80
:101CB0003968C907F3D03968C907F0D03968C9074E
:101CC000EDD03968C907F3D1E9E7012001B0F0BDD3
:101CD0000891104000801040B0B5002809D004469B
:101CE00000257D200002FFF76FFB6D1CE8B2A042CB
:101CF000F7D3B0BDB0B5002808D004460025202099
:101D0000FFF762FB6D1CE8B2A042F8D3B0BD000043
:101D1000FFF73CFF1B481C4941601C4981600821BA
:101D2000C160016802220A4302600124A00418492C
:101D30000860E003086060060860FEF740FE204689
:101D4000FFF7CAFF2220FFF72FFB2046FFF7C4FF53
:101D50009A20FFF729FBFFF7F3FDFFF7C9FC0D48B9
:101D60000168214301600C4D0C4EA0052860FFF76F
:101D700099FAFFF78DFC30780028F6D0FFF764FF62
:101D8000F3E7C04600B2424024911040A800202052
:101D900000E100E004188640B0320A40CC00202068
:101DA00070B5420064414B005C41120E39D01B0EED
:101DB00038D0FF2A3CD0FF2B3AD0D2187F3A4002CD
:101DC0004902400A490A4518ED0106004E43000A3F
:101DD000090A48430104731A4019190C4318990F52
:101DE00004D05B08012149075B1A521CD80904D3AF
:101DF000401CF50301D19D0607D0FF2A08D2D50566
:101E000006D0E4072043401970BD0125A843F4E73C
:101E1000002A01DCE00770BD2402FF202043C0053A
:101E200070BD1B0EFF2A03D0FF2B01D0E00770BD51
:101E3000FF2636064500B54206D84D00B54203D808
:101E4000D218FF2A00D0E7E7004870BD0000C07F2D
:101E50001100000000000020000000000000000051
:101E6000000000000000030008000000030207005B
:101E700002000000FF07000000000000000000005A
:101E80000000000008000000180000000030000002
:101E9000A01E000000002020980200002801000081
:04000005000000C136
:00000001FF
