:020000040000FA
:10000000A0072020C5010000C9010000CB010000AD
:1000100000000000000000000000000000000000E0
:10002000000000000000000000000000CD01000002
:100030000000000000000000CF010000D10100001E
:10004000D3010000D3010000D3010000D301000060
:10005000D3010000D3010000D3010000D301000050
:1000600000000000D3010000D301000000000000E8
:1000700000000000D3010000D3010000E53F0000B4
:10008000D3010000D3010000453F0000D301000070
:10009000D3010000D30100000000000000000000B8
:1000A000D301000045320000000000000000000005
:1000B000D301000000000000D3010000D3010000C4
:1000C00000F002F800F052F812A030C808382418E6
:1000D0002D18AC4201D100F049F80FCCA246AB4636
:1000E0000CA730CF2D1B083F3F197C427F1E544484
:1000F0002D090426F441641EAC4201D300F036F809
:100100000126334200D0FB1A3343984754465D46DC
:10011000DFE70000EC4800001C4900000000000080
:10012000103A02D378C878C1FAD8520701D330C840
:1001300030C101D504680C60704700000000000069
:100140007047000000000000002300240025002666
:10015000103A01D378C1FBD8520700D330C100D583
:100160000B6070471FB51FBD10B510BD00F0F9FD45
:100170001146FFF7F7FF04F095F800F011FE03B405
:10018000FFF7F2FF03BC00F017FE000070B5054654
:100190000C46164602E00FCC0FC5103E102EFAD2C8
:1001A000082E02D303CC03C5083E042E07D301CC8E
:1001B00001C5361F03E021782970641C6D1C761E72
:1001C000F9D270BD06480047FEE7FEE7FEE7FEE70E
:1001D000FEE7FEE703480449024A044B704700006B
:1001E000C1000000A0032020A0072020A0032020A1
:1001F000F8B5042A2CD3830712D00B78491C03705E
:10020000401C521E83070BD00B78491C0370401C06
:10021000521E830704D00B78491C0370401C521EE9
:100220008B079B0F05D0C91ADF002023DE1B08C9EE
:100230000AE0FFF7ABFFF8BD1D4608C9FD401C46AC
:10024000B4402C4310C0121F042AF5D2F308C91A77
:10025000521EF0D40B78491C0370401C521EEAD485
:100260000B78491C0370401C012AE4D40978017002
:10027000F8BD01E004C0091F0429FBD28B0701D59A
:100280000280801CC90700D00270704700290BD083
:10029000C30702D00270401C491E022904D3830701
:1002A00002D50280801C891EE3E70022EEE70022CF
:1002B000DFE70000002203098B4273D3030A8B425D
:1002C00058D3030B8B423CD3030C8B4221D312E057
:1002D00003460B437FD4002243088B4274D30309A7
:1002E0008B425FD3030A8B4244D3030B8B4228D348
:1002F000030C8B420DD30902FF2212BA030C8B426E
:1003000002D31212090265D0030B8B4219D300E00D
:10031000090AC30B8B4201D3CB03C01A5241830B92
:100320008B4201D38B03C01A5241430B8B4201D342
:100330004B03C01A5241030B8B4201D30B03C01A6B
:100340005241C30A8B4201D3CB02C01A5241830AE5
:100350008B4201D38B02C01A5241430A8B4201D314
:100360004B02C01A5241030A8B4201D30B02C01A3E
:100370005241CDD2C3098B4201D3CB01C01A5241A5
:1003800083098B4201D38B01C01A524143098B422E
:1003900001D34B01C01A524103098B4201D30B0117
:1003A000C01A5241C3088B4201D3CB00C01A52413C
:1003B00083088B4201D38B00C01A524143088B4201
:1003C00001D34B00C01A5241411A00D2014652419A
:1003D000104670475DE0CA0F00D04942031000D3B9
:1003E000404253409C46002203098B422DD3030A0E
:1003F0008B4212D38901FC2212BA030A8B420CD31E
:10040000890192118B4208D3890192118B4204D346
:1004100089013AD0921100E08909C3098B4201D3C6
:10042000CB01C01A524183098B4201D38B01C01A00
:10043000524143098B4201D34B01C01A5241030977
:100440008B4201D30B01C01A5241C3088B4201D326
:10045000CB00C01A524183088B4201D38B00C01AD3
:100460005241D9D243088B4201D34B00C01A5241AA
:10047000411A00D201465241104663465B1001D337
:100480004042002B00D54942704763465B1000D3C1
:10049000404201B50449002802DC491C084000E044
:1004A0000846C046C04602BDFFFFFF7F7047704749
:1004B000704700000246C80FC00781434B0030B5AB
:1004C0004B405B009B0D20D01923DB06C91801238C
:1004D0001B05994220DB0324A40704251346AB40E7
:1004E0000BD3002B04D1EB0613409B00E34204D452
:1004F00001246407002312195941FF231B05994267
:100500000BD2C9000143500F09E0CB0204D50143CF
:100510000803024305D0054830BDFF21C905084343
:1005200030BD084607210905884330BD0000C07F63
:10053000F0B50C46871A9C410D46861A9D4103D2A0
:10054000C01BA141D21963410D0D1F0DC94EEC1BFB
:10055000AE435CD07F057F0D0026002F51D02D05C6
:10056000AC46A943DD020123ED0A1B051D432023F0
:100570001B1B24D41746E740381871412F46E7402B
:10058000CC199D402818314661410C0D27D161449A
:100590009A4013D50023401C594152000ED1400807
:1005A000400001224B005205D34207D305204007EB
:1005B000C14201D5B04900E0B0493046F0BD6B0002
:1005C000002A00D001229A181F23203C1B1B01D5B2
:1005D000002302E0E540281871410C0DD7D001241A
:1005E00024050919C407CD0740084908E40F28432A
:1005F0006144002CD5D00024401C61419A40D0D1E8
:10060000CDE76A05520DD9D1C90FC907D5E79C4D71
:100610004E00002801D0012400E0002434195F00BE
:10062000002A01D0012600E00026BE19954FAC42F9
:100630000CD8AE420AD8B44206D001256D05EC4272
:10064000BCD010461946F0BD9942FCD00020394676
:10065000F0BDF0B51FB40C460F46811A9F412546E8
:10066000861A9D4106D20125ED076F40401ABC4114
:1006700052187B41210D1E0D8D1BAC467D4D8D43C7
:100680007ED075056D0D7CD00D05AE46AC431B03C9
:100690001B0B794D52429D41202366469B1B14D370
:1006A0001746F740381800260090744160462F46E0
:1006B0000741E41900989D402818664116D47146F8
:1006C00071189A4025D5012320E093182A466A41E3
:1006D0005200002B00D0521C1E23203E9B1B002BDF
:1006E00061DD3541EE1728186641E8D500187641DE
:1006F0005B1C9A4000D3401C4B05F3181524E340C3
:1007000010D3002B52D071467118D30FC01802D3EA
:10071000491C05B0F0BD0123DB079A42F9D140081E
:100720004000F6E701225205B21801D1002853D04B
:100730000123CC0ADB029943891E002A08D1020C4E
:1007400003D0020C0004103902E0024600202039D8
:100750000023550B05D112020823550B01D152017C
:100760000D23550C01D112011B1DD50C01D1920096
:100770009B1C150D01D152005B1C2025EE1A01E0D7
:100780002CE022E00546F54015439840CA1AE107DF
:1007900069181305C918002ABBDA03204007081896
:1007A000C10FC9070FE071466118B2E7F1074008B1
:1007B0000843711071444A000CD001235B059A4232
:1007C000A7D2C90FC9070020A3E74905490D26D1C3
:1007D000002001E00028F4D100219AE7284D6600AE
:1007E000002801D0012100E0002171185F00002ADB
:1007F00001D0012600E00026BE19224FA94210D8E0
:10080000AE420ED8B14208D001256D05E94206D0AE
:100810001946A802414010467BE79C4201D0214680
:1008200077E70020394674E710B50C465C4005D5E3
:100830000124E4076340FFF70CFF10BDFFF778FECB
:1008400010BD30B40C465C4004D50124E40763407D
:1008500030BC6DE630BCFCE670B50124E4076140B5
:100860000D465D4002D4FFF763FE70BD6340FFF7A5
:10087000F0FE70BDFF0700000000F0FF0000F07FF9
:100880000000E0FF0000F87F1F22030C02D10F22BE
:10089000000402D0030E03D004E00020014670479C
:1008A0000002083A030F01D10001121F830F01D18A
:1008B0008000921E002801DB4000521E12055118D4
:1008C0004205C012411810467047C10FC90700D039
:1008D0004042012292071143D6E701218907D3E75D
:1008E000F0B58B4C0F09254689B0BD437BD01D095F
:1008F0002646AE43FAD00E465E402740F60F3E43F2
:10090000254071D024012142FBD0FF24AD19A4045D
:100910002D1B039501252D05DB02DB0AC9022B43A4
:10092000C90A29431E010901040F130F05012143C0
:100930001701880B820391432D098C46A90B1E4396
:100940008A039543B30B9A0396433F09BA0B94036A
:10095000A74302962E467E430497B6464E19D719F2
:100960000C460196544305977E43371B7646BF1BC2
:100970003601B646BE0B361900967646BC043719CA
:10098000009C01D3641C00946400002F01D0012658
:100990003443029E049F754366467E430496760068
:1009A00034196E0034190094029C019E1C19664390
:1009B000751BAE46069465464519059C05956C4326
:1009C000594375460891691A0191049E01465143A5
:1009D000A41B0491611A009C0791E10605D06109EE
:1009E0000122114302E072E06EE06109089D0027D8
:1009F0002C0A2D066918049D7C412A0A2D066918C7
:100A0000019D6241AC0DAD026D185441079A910DE4
:100A1000920255196141029A644658435443069B19
:100A2000059A5A43121A131B9A0E9B015B187A41BE
:100A3000010B0005C3185141220A200644195A41EE
:100A40009A4200D2491C01204002814203D315235F
:100A50000226F64302E014230326F6432020C51A9B
:100A6000A9401746AF40DA400A4320460399D840D0
:100A70000914731819055118039A3843D2075140C5
:100A8000AC4009D00122944006D30022401C5141C1
:100A9000002C01D1400840001E4A934212D301228B
:100AA00003989206904207DB0520400709181A4870
:100AB0000143C012414004E0032040070818C10F61
:100AC000C907002009B0F0BD0020F107FAE70518BA
:100AD0000C464C4111486D42A04115D394181A465A
:100AE0005A410E48644290410ED301204A0040050D
:100AF000824209D35A00824206D35940C90F084A9C
:100B0000C90700201143DDE700200649DAE70000AD
:100B10000000FF07FE070000FFFFFF7F0000E0FF6F
:100B20000000F07F0000F87FF0B5FF252D04C60916
:100B3000C209FF2704462E400137CB093E434840F7
:100B40002A402B400746002A6BD0002B69D0AA42CE
:100B500067D0AB4265D0002800DA32460125ED05AA
:100B600029432C4309022002090AD21A4B0C7F2484
:100B7000E31A434C000A7C44E35C7D2424041219EC
:100B800014145B00A218884201D3521C00E04000FC
:100B900049420C465C4324115C43DB016415E318B5
:100BA000040A5C43C502200D0C4644436419250A1F
:100BB0005D432303EC0C0D46654300030019EB185D
:100BC0004C42A34201D35B18401CD4052018002BD3
:100BD00007D05B00C91804D3401C002901D140088C
:100BE00040003F2189048A4209D3002A08DC11060B
:100BF000090F04D0032149074018C00FC007F0BDFA
:100C000001224100120689187F2252069142F6D233
:100C100005214907C84201D59010F0BDFF20C0054D
:100C2000F0BD002F00DA32461648AA4207D2AB4286
:100C300005D21902090E17D0F80FC007F0BDFF2525
:100C400063002D06AB42F9D84900A942F6D8AB4261
:100C500001D1A942F2D0A94201D1002101E06100F5
:100C60004908D0050843F0BD1102090EFBD0FF2052
:100C70000243D005F0BD0A460146104654E7000085
:100C80000E3C00000000C07F10B501469E2400020B
:100C9000CA15A307002A02D01843002A04DBA21AAF
:100CA000002A0CDDD04010BD1206120E01D140000A
:100CB0004008A21A03D4D04040420028F3DDFF22AE
:100CC00048001206904201D9002010BDC817C04349
:100CD000584010BD0102C21504D00123DB0719439F
:100CE000002A0ADB9E239A1A02D40846D040704795
:100CF000FF2241001206914201D900207047C0171F
:100D0000C04370471F22030C02D10F2200041CD0E5
:100D1000030E01D10002083A030F01D10001121F96
:100D2000830F01D18000921E002801DB4000521E7B
:100D3000D2055118021251181922904004D3491CAF
:100D4000002801D14908490008467047C10FC9076A
:100D500000D04042012292071143D3E701218907C5
:100D6000D0E7754600F024F8AE46050069465346C4
:100D7000C008C000854618B020B5FFF72BFA60BC4C
:100D8000B64600260027C0C5C0C5C0C5C0C5C0C581
:100D9000C0C5C0C5C0C5403D490849008D46704723
:100DA00010B50446C046C0462046FFF7E8F910BD1E
:100DB000004870477000202001491820ABBEFEE7B4
:100DC0002600020070470000F0B58CB0F649088894
:100DD0007B4B188048881881888818827948827FE0
:100DE00052008A5E06925A80C27F52008A5E059245
:100DF0005A811E30827852008A5E04925A82EB4AEF
:100E0000528803925A690092DA680892E84A166991
:100E10005A68CC881C83C47864000C5F02945C839D
:100E20000C891C84047964000C5F01945C844C89F7
:100E30001C85447964000C5F0B945C858C891C864E
:100E4000847964000C5F0A945C86DC6A07945C6AAF
:100E5000DD69CF891F87D64FC0794000085E0990B1
:100E600058874220085A38804420085A7880964291
:100E700000D316460898864200D30646009FBE421D
:100E800000D33E46AE42079878D2A64279D2864237
:100E900000D30646596B8E4200D30E46DB6B9E4252
:100EA00000D31E46E748C6600898824200D8024632
:100EB000BA42019E079868D9AA4269D9A24200D8CD
:100EC00022468242029D00D802468A42049C00D8F3
:100ED0000A469A4200D81A46DA488260069A059B6A
:100EE0009A42104658DDA04259DDA8425ADDB04270
:100EF00000DC30460B99884200DC0B980A99884246
:100F000000DC0A980999884200DC09982E49884239
:100F100000DC0846E64988809A42104646DAA0423C
:100F200047DAA84248DAB04200DB30460B998842E3
:100F300000DB0B980A99884200DB0A9809998842DD
:100F400000DB09987D210901884200DB0846D84969
:100F5000C88003988018C0180019401980190B998F
:100F600040180A9940180999401801B2490F4018D1
:100F700000B2C008E24948800CB0F0BD2E46A6423F
:100F800085D32646864284D284E73A46AA4295D83B
:100F90002A46A24294D994E71846A042A5DC2046EE
:100FA000A842A4DC2846B042A3DDA3E71846A0422D
:100FB000B7DB2046A842B6DB2846B042B5DAB5E733
:100FC000F8012020C049000030F8FFFFF0B581B0E3
:100FD0002620C9490C5E0420C64330466043B94907
:100FE0000860002C01D4012000E00220611D89B2BC
:100FF0000B2900D20020B1490870204602F01EFCE7
:1010000001F058F8BE4FF868002813D039698842BB
:1010100021D1B969322903DB3A88102313433B807D
:101020000022BA610818F8603861A14802695118B5
:10103000016114E0B869322803DB398810220A43C1
:101040003A800021B96139690918396198490A69FA
:101050001018086103E0388810218843388055480B
:101060000025056045608560C56005614561856155
:10107000C5612846214602F035FE0120214602F0D6
:1010800031FE0220214602F02DFE0320214602F00F
:1010900029FE0420214602F025FE0520214602F00B
:1010A00021FE0620214602F01DFE0720214602F007
:1010B00019FE01F033F87869FFF750FE04463869ED
:1010C000FFF74CFE01462046FFF72EFD3A4903F09C
:1010D0009BFAFFF7D9FDB988421A13B2DB135A40C5
:1010E000D21A12B20B2A09DB884201D90A3104E074
:1010F000092901D8284601E00A39084680B22F495B
:10110000884200D308466C21D74A5052B88001F07B
:1011100037FC6C480468E01721464140081AD94959
:101120000A6812180A604868D54B9A4203D3002215
:10113000401C0A604860B11C414361480818FFF731
:101140000DFE1F49FFF7F0FC1B4903F05DFAFFF7A6
:101150009BFD1C498842024600D80A461A4988422B
:10116000CB4E01D8114600E032314020BE4A115228
:10117000012C05DB6000B1680D1A07D2002505E0DF
:10118000C24D6119B068884200D2051B0A2068432D
:10119000BE4903F0F1F80A304621B34A505270605C
:1011A000B56001B0F0BDC046E0002020380220202C
:1011B00054022020B401202000401C4610270000CB
:1011C00000C00F49581B0000DE260000F0B5A24801
:1011D00001880A0734D506220B46134030D04B074E
:1011E00014D5C36804698569EE18F94F3E61A24FB2
:1011F000FE637E63FE627E62FE617E61FE607E60F3
:101200001B1B5B19C6600661466183618B0713D5A2
:1012100000234361984CE3636363E3626362E361C9
:101220006361E3606360C468C36083691B1B046916
:10123000E3180361E64C236100238361914301803D
:10124000F0BDC0465402202070B5E2480025164982
:10125000C160016141618561144A426009220280D6
:10126000DB488560C5600161456185800560824815
:101270004021FFF71CF80F4C26212046FFF717F8F6
:10128000012626700C4C28212046FFF710F8CD4887
:101290002670056045608560CC4809490560456059
:1012A00081600848056070BD80BE140710271027B4
:1012B00054022020A002202078022020C8022020F2
:1012C00000FC0800D402202042216748415A0B4A02
:1012D000914204D3BF490A88042313430B8044215D
:1012E000405A401E0749884204D8BA480188022261
:1012F0000A4302807047C046E0002020FC0D000039
:10130000380220208B0A0000F0B585B0B148008873
:10131000C00700D19EE01920800201900069AC490D
:10132000002204928A604D4941184D4C4D4AA14219
:1013300000D30246A648C260039202614A4CE08C88
:1013400001B2C9134840401A00B200903F20C74381
:10135000464D1E35464E09E0049181600298426474
:101360006D1CA41C0837361D002F26D04248C31917
:10137000208840215852297849003B4A515A42223C
:10138000029399520199C919896D3160009A042A12
:10139000384A06DC00F0D8FD38498842354A00D882
:1013A00002460399914200D3114689480391C160D6
:1013B00004999142D0D81146CEE701990868854C2E
:1013C000206189686161254940182549884201D218
:1013D0002448206100F068FF254800210160416039
:1013E0008160C160016141618161C161019B986D52
:1013F000234A904200D8014674480160196E41604A
:10140000214A8B185B1C934203D273214902019A33
:1014100003E0491C019A01D100214160208801218B
:1014200088432080906E194A0F2801D3154600E0AA
:1014300000250A21CB430446153C9C4200D32A4692
:10144000604DAA6014220F2800D311469C4200D39D
:101450000A466A6005B0F0BD380220207F647DF83E
:101460001F9442FA40785F06E0002020C049000047
:1014700094012020A02FC501F8012020809B820725
:10148000005125026C022020FE19FFFFC0C36C0032
:10149000C802202080B5FFF737FFFFF795FCFFF764
:1014A00095FDFFF793FE00F001F880BD70B544484C
:1014B0000188491C01800188772916D119208402EE
:1014C00001204602404D28462146324601F0D8FC14
:1014D00040222846214601F0B9FC0834284621461E
:1014E000324601F0CDFC3F4A34E00188782914D31C
:1014F00001887F2911D806880088C0003649441821
:1015000001204202304D2846214601F0B9FCB000CE
:1015100032494018324942181CE0018880290AD11A
:101520001920840201204202274D2846214601F05D
:10153000A7FC284A0DE00188812910D10120420230
:10154000192084021034204D2846214601F098FCD1
:101550001F4A10322846214601F084FC70BD0188E4
:1015600082290BD101204202192084025834164DE1
:101570002846214601F084FC144AEBE701888329C0
:101580000CD1012042021920840260340E4D2846FD
:10159000214601F075FC0D48021DDBE70188842916
:1015A00007D10848001D19218902683102F0EAFDBF
:1015B00070BD0188852901D30021018070BDC0461E
:1015C00098032020C802202000D00C406C0220206C
:1015D000540220203802202058600000B40120204E
:1015E00020FEFFFFD4002020F0B58FB003900CA99F
:1015F00000254D70122008703E26022430460B96BE
:10160000224601F0ADFE204602F030FE3C2002F002
:101610002DFE0CA94D7090270F703046224601F028
:101620009FFE204602F022FE0820069002F01EFED9
:101630000CAE757135712D20F070B77092200A9044
:10164000707034203070042204920B98314601F0FF
:1016500087FE204602F00AFE0EA90620059048707B
:1016600070780C9A8018B2788018F2788018C0438D
:10167000087060200890224601F072FE204602F0B9
:10168000F5FD0CAF7D713D71FD7001200290B870C9
:101690000A98787037203870032209920B9E3046E2
:1016A000394601F05DFE204602F0E0FD0EA905205E
:1016B0000790487078780C9A8018BA788018C043E0
:1016C00008700898224601F04BFE204602F0CEFD3D
:1016D0000CAF7D713D71FD700D20B8700A98787067
:1016E0003620387030463946099A01F039FE2046D6
:1016F00002F0BCFD0EA9079E4E7078780C9A8018F7
:10170000BA788018C04308700898224601F028FE75
:10171000204602F0ABFD039F38461030314601F001
:10172000D5FF38460830049902F024FC3846069963
:1017300002F0AAFC0CAF7D713D71FD70BC20B87049
:101740000A9E7E70612038700B983946099A01F024
:1017500007FE204602F08AFD0EA9079848707878A7
:101760000C9A8018BA788018C043087008982246EE
:1017700001F0F6FD204602F079FD0CAF7D713D7160
:10178000FD70F720B8707E70622038700B98394673
:10179000099A01F0E5FD204602F068FD0EA90798C0
:1017A000487078780C9A8018BA788018C04308700E
:1017B000089E3046224601F0D3FD204602F056FD39
:1017C0000CAF7D713D71F820F87082200190B870E7
:1017D0000A9878706D2038700B983946049A01F099
:1017E000BFFD204602F042FD0EA9059848707878AA
:1017F0000C9A8018BA788018FA788018C04308705C
:101800003046224601F0ACFD204602F02FFD039E3B
:10181000304600F0CFFE2620305C0CAF7D713D716C
:10182000FD70B8700A987870752038700B9839463A
:10183000099A01F095FD204602F018FD0EA90798BF
:10184000487078780C9A8018BA788018C04308706D
:101850000898224601F084FD204602F007FD263656
:1018600070780CAF7D713D71FD70B8700A9878701A
:10187000782038700B983946099A01F071FD20469E
:1018800002F0F4FC0EA9079E4E7078780C9A80182E
:10189000BA788018C04308700898224601F060FDAD
:1018A000204602F0E3FC0CAF7D713D71FD70072016
:1018B000B87093207870099A3A700B98394601F005
:1018C0004FFD204602F0D2FC0EA94E7078780C9A9B
:1018D0008018BA788018C0430870089E30462246A7
:1018E00001F03EFD204602F0C1FC0CAF40207871B3
:1018F000F22038711A20F870D220B87091207870D8
:10190000A82038700B983946059A01F029FD204629
:1019100002F0ACFC0EA90698487078780C9A8018F2
:10192000BA788018FA7880180D9A80187A79801819
:10193000C04308703046224601F012FD204602F0F6
:1019400095FC0CAF7D713D71FD70079EBE700A98CD
:101950007870802038700B983946099A01F000FDA4
:10196000204602F083FC0EA94E7078780C9A8018FD
:10197000BA788018C04308700898224601F0F0FC3D
:10198000204602F073FC0CAF7D713D71FD700A20A2
:10199000B8700A987870019838700B983946099A8F
:1019A00001F0DEFC204602F061FC0EA94E70787852
:1019B0000C9A8018BA788018C0430870089E304688
:1019C000224601F0CDFC204602F050FC0CAF009501
:1019D0007D713D71FD70079DBD700A9878708620FD
:1019E00038700B983946099A01F0BAFC204602F08B
:1019F0003DFC0EA94D7078780C9A8018BA78801842
:101A0000C04308703046224601F0AAFC204602F08E
:101A10002DFC0CAF009D7D713D71FD70099ABA706F
:101A20000A987870872038700B9E3046394601F04E
:101A300097FC204602F01AFC0EA9079848707878A7
:101A40000C9A8018BA788018C0430870089822460B
:101A500001F086FC204602F009FC0CAF7D713D715F
:101A6000FD700298B8700A987870952038703046EA
:101A70003946099A01F074FC204602F0F7FB0EA9E2
:101A80000798487078780C9A8018BA788018C04304
:101A900008700898224601F063FC204602F0E6FB3D
:101AA000069F384602F0E2FB0CA94D700A980870B8
:101AB0003046224601F054FC204602F0D7FB38465F
:101AC00002F0D4FB0CA94D7022200870304622464B
:101AD00001F046FC204602F0C9FB384602F0C6FB86
:101AE0000CA94D70962008703046224601F038FC53
:101AF000204602F0BBFB384602F0B8FB0CA94D7043
:101B00009A2008703046224601F02AFC204602F056
:101B1000ADFB384602F0AAFB0FB0F0BDB0B56220B5
:101B2000A04C022521462A4601F098FB284602F0E7
:101B30009DFB284602F09AFB60782178000240184D
:101B400001490880B0BDC046D0002020F0B581B06A
:101B50006A20944C022521462A4601F07FFB284644
:101B600002F084FB284602F081FB607821780002B5
:101B70004018FEF7AAFE314F314B3A46FEF7B0FE51
:101B8000304A314BFEF750FEFEF794FCEA4E3060CF
:101B90006E2021462A4601F061FB284602F066FBD2
:101BA000284602F063FB6078217800024018FEF7B7
:101BB0008CFE3A46224BFEF793FE224A224BFEF75A
:101BC00033FEFEF777FC7060742021462A4601F050
:101BD00045FB284602F04AFB284602F047FB6078A6
:101BE000217800024018FEF770FE3A46144BFEF7CB
:101BF00077FE144A144BFEF717FEFEF75BFCB0604D
:101C0000762021462A4601F029FB284602F02EFBC9
:101C1000284602F02BFB6078217800024018FEF77E
:101C200054FE3A46064BFEF75BFE064A064BFEF7AD
:101C3000FBFDFEF73FFCF06001B0F0BD9A99999969
:101C40009999B93F66666666661271C0B0B53A206A
:101C5000544C022521462A4601F000FB284602F09A
:101C600005FB284602F002FB60782178000240184C
:101C700001490880B0BDC046DE002020B0B57F20FD
:101C8000484C022521462A4601F0E8FA284602F08F
:101C9000EDFA284602F0EAFA6078207801490870E7
:101CA000B0BDC046DA002020F0B581B003203D4C25
:101CB000022521462A4601F0D1FA284602F0D6FA3A
:101CC000284602F0D3FA60782078204E30702078D1
:101CD0004007C00F1E49087020780007C00F1D493B
:101CE000087060780007C00F1B4908706078800793
:101CF000C00F1A490870052021462A4601F0AEFAA5
:101D0000284602F0B3FA284602F0B0FA607820784C
:101D1000134F3870072021462A4601F09FFA2846C3
:101D200002F0A4FA284602F0A1FA607820780D4962
:101D300008703178081839784018012801D8002037
:101D400000E001200849087001B0F0BD9403202094
:101D5000F5012020DD00202088012020DC0020204B
:101D600095032020960320205601202070B50446BC
:101D70000C4D02262946324601F070FA304602F038
:101D800075FA304602F072FA687829780002401835
:101D9000143CE1B21F2903D30A21414388B270BD2C
:101DA00080B270BD77012020F0B581B0614801F0AC
:101DB000F5F83020FFF7DAFF4425D74E705342275D
:101DC000F053B08114242046FFF7D0FFF15B81422D
:101DD00000D80146F153715B814200D30146715333
:101DE00030801620FFF7C2FFF15B814200D8014628
:101DF000F153715B814200D301467153708018200A
:101E0000FFF7B4FFF15B814200D80146F153715BEB
:101E1000814200D301467153B0801A20FFF7A6FF1C
:101E2000F15B814200D80146F153715B814200D3DE
:101E300001467153F0801C20FFF798FFF15B81424F
:101E400000D80146F153715B814200D301467153C2
:101E500030811E20FFF78AFFF15B814200D80146E6
:101E6000F153715B814200D301467153708132207E
:101E7000FFF77CFFF15B814200D80146F153715BB3
:101E8000814200D301467153F0813420FFF76EFF89
:101E900030823820FFF76AFF7082FFF757FE264F27
:101EA0003868264D294602F0AFFBFEF7EDFEF083C1
:101EB0007868294602F0A8FBFEF7E6FE3084B86891
:101EC000294602F0A1FBFEF7DFFE7084F868294680
:101ED00002F09AFBFEF7D8FEB084FFF7B7FE00F0E1
:101EE0002FFD66217052411E8841154D2978102220
:101EF000914301437420305CC007C00E081828705D
:101F0000C1B2C2070AD11222114002290DD10D48D7
:101F100001F012FC29780120084306E0214204D098
:101F200000F034FF287801218843F921014029700D
:101F300001B0F0BD00200F40E4012020000020414E
:101F400078022020C0490000F0B585B00546039115
:101F50000846FEF703FF0746CB480069FEF7FEFE82
:101F6000014638460091FEF7DFFD4F4902F04CFB79
:101F7000FEF78AFE02900920C0434D494968143992
:101F8000814206D249490A460C320C4608340B1DE0
:101F900007E0464B194610311A461C321C461834CD
:101FA0001433206804901068019009781C68228816
:101FB000AA4226D84B1E002703E0DEB2F8B2B04298
:101FC0000DD8DAB2FEB2B218012056088243A25AE6
:101FD000AA4200D9731EAA42EFD8771CEDE7002E63
:101FE0000FD048002018801E0088A8420AD0700038
:101FF000205A281A731C5A00A25A521B904201DD23
:1020000001E0002633460498C75C0298381A02B2F1
:10201000D2135040801A00B2019A925D9042039808
:102020003FDB481EB04229DD701C0390049F385CE2
:10203000FEF794FE0290B85DFEF790FE0146049014
:10204000029802F039FB07467000265A03984000B8
:10205000205A801BFEF77AFE01463846FEF764FDE3
:102060000746A81BFEF772FE0146384602F0CCFA7E
:10207000049902F083FAFEF707FE0746F817874334
:10208000CC490098FEF750FD0446642F00D3642726
:102090003846FEF763FE0146204602F0B5FAFEF729
:1020A00019FE05B0F0BDC0460000C8424C0020201B
:1020B000C8022020B0B5C049CA6875480368012B22
:1020C00007DB9A4209D8981A8A698018886100202B
:1020D00009E00869C418A24201D2D01A03E0121B19
:1020E0008B69D2188A61C8600C69002C0FD0FEF78A
:1020F00035FE05462046FEF731FE01462846FEF72E
:1021000013FDAE4902F080FAFEF7BEFD00E0644820
:102110005C49C885B0BDC046E0002020F0B581B064
:10212000A54B18896821574F7852002827D0A04C1A
:10213000A068FEF713FE064620690090FEF70EFE2B
:10214000054630462946FEF7EFFC9C4E314602F02C
:102150005BFAFEF799FD0746E068FEF7FFFD2946AA
:10216000FEF7E2FC314602F04FFAFEF78DFD391A18
:102170008EB2464CA64206D1002006463DE04448B9
:102180000568002054E0FEF7E9FD05463046FEF7FD
:10219000E5FD0146284602F037FA0746A01BFEF788
:1021A000D5FD01463846FEF7BFFC294602F0E6F9A8
:1021B000FEF76AFD0646804C6069FEF7CFFD0546D6
:1021C0002069FEF7CBFD01462846FEF7ADFCF0493D
:1021D00002F01AFAFEF758FDB0420ED92C490D68EC
:1021E000012D284F0EDB841B2849009802F0C4F80B
:1021F00060432949884217DA17E0224F24490D68C5
:10220000012D08DB2846FEF7A1FD224902F0FCF96A
:10221000FEF73AFD09E0841B1C49009802F0ACF877
:1022200060431E49884200DC0846634B0021198147
:1022300059692818012D03DB0C1A06D2002404E08A
:102240001C690219914200D20C1A5C611D69002DB3
:1022500010D02046FEF782FD06462846FEF77EFD9A
:1022600001463046FEF760FCC94902F0CDF9FEF7A1
:102270000BFD00E00A486A2178520A48046001B068
:10228000F0BDC046E00020205402202010270000AE
:10229000D4022020333373BFC04B030040B4FCFF93
:1022A000D2040000D4002020F0B583B0B74EB0684F
:1022B000FEF754FD05463069FEF750FD04462846FA
:1022C0002146FEF731FC3B4D294602F09DF9FEF711
:1022D000DBFC0290F068FEF741FD2146FEF724FC8E
:1022E000294602F091F9FEF7CFFC0746324D6C69A2
:1022F0002046FEF733FD06462869FEF72FFD05460A
:1023000030462946FEF710FC06462A4902F07CF9C1
:10231000FEF7BAFC0299884207D8B84205D326488E
:10232000C46004469A4930463BE00195C81B85B21B
:10233000642D04D10020204CE060606135E0384617
:10234000FEF70CFD04462846FEF708FD0146204630
:1023500002F05AF906466420401BFEF7F7FC0146DE
:102360003046FEF7E1FB214602F008F9FEF78CFC4F
:1023700004461049019E3046FEF7D6FB054620462E
:10238000FEF7ECFC0146284602F03EF9FEF7A2FCFF
:10239000094CE0606061FEF7E1FC3146FEF7C4FBEA
:1023A0007B4902F031F9FEF76FFCA08003B0F0BD6D
:1023B000540220200000C8423802202000401C4661
:1023C000F0B583B014460E46054601F0EBFE00283A
:1023D00002D0012003B0F0BD01940295E9006A48E3
:1023E000415A32888A4221D90022029BDB00C01860
:1023F0000224035F4B20850005200095AB42074671
:1024000029DDD4B26500755B281A884209DA78198B
:10241000884206D9D1B20298019A00F079F803B047
:10242000F0BD0A20032C20D103B0F0BD002303220D
:1024300003E0D4B2DDB2A542D7D8D4B2DDB22D19B3
:1024400001276C08BD43775B8F4200D9621E8F4223
:10245000EFD8631CEDE7C92B16DB29480527019C43
:1024600084423846CDDC0320CBE70525009A934211
:102470002F4613DD621C5300F35A5C1B8C42D3DAE7
:10248000FB188B42C6D8CFE7652B11DB1F48052709
:10249000019D85423846B4DC2046B2E7C92B16DBE5
:1024A000174A0527019B93423D46E3DC0325E1E7FC
:1024B0001348019C2018401C84B20320114DAC42EB
:1024C00007469ED8D0B2104C205C074699E7652B92
:1024D00007DB0E4A0527019B93423D46CADC0225D5
:1024E000C8E7074A019B9A18521C92B20325054B74
:1024F0009A422F46BED8044A155D2F46BAE7C04619
:1025000051FCFFFFA4F800007A490000C5FEFFFF60
:1025100070B515460C46C0001B4908184068FEF708
:102520001DFC064619480069FEF718FC01463046B6
:10253000FEF7FAFA164902F067F8FEF7A5FB62000B
:10254000012D09DB1749895E174B9A5A801A00B290
:1025500088420BDD154812E00E49895E0E4B9A5AEF
:10256000801A00B2884206DD0C4808E049428842E1
:1025700008DA0F4803E04942884203DA084861005C
:10258000405A70BD0A2070BDF8012020540220205E
:1025900000401C4602490000F2480000E0470000ED
:1025A000E8470000FA480000EA480000D047000071
:1025B000D8470000F0B58DB02821415C0546039056
:1025C0000AAF00267E713E71FE70B97093200890AC
:1025D0007870352038703E200990032206923946E3
:1025E00000F0BEFE0224204601F040FE0CA90520AA
:1025F0000790487078780A9A8018BA788018C04393
:10260000087060200490224600F0AAFE204601F0E7
:102610002DFE28462830059040780AAD6E712E7147
:10262000EE70A870089F6F703620287009982946B0
:10263000069A00F095FE204601F018FE0CA90798B6
:10264000487068780A9A8018AA788018C043087081
:102650000498224600F084FE204601F007FE05980B
:1026600080780AAD6E712E71EE70A8706F70372091
:10267000287009982946069F3A4600F071FE2046C8
:1026800001F0F4FD0CA90798487068780A9A801840
:10269000AA788018C04308700498224600F060FEB3
:1026A000204601F0E3FD0598C0780AAD6E712E71E9
:1026B000EE70A8700898687038202870099829462C
:1026C0003A4600F04DFE204601F0D0FD0CA9079FD0
:1026D0004F7068780A9A8018AA788018C0430870EA
:1026E0000498224600F03CFE204601F0BFFD05980C
:1026F00000790AAD6E712E71EE70A870089868703E
:102700003920287009982946069A00F029FE2046AB
:1027100001F0ACFD0CA94F7068780A9A8018AA786D
:102720008018C0430870049F3846224600F018FE07
:10273000204601F09BFD059840790AAD6E712E711F
:10274000EE70A870089868703A2028700998294699
:10275000069A00F005FE204601F088FD0CA90798B6
:10276000487068780A9A8018AA788018C043087060
:102770003846224600F0F4FD204601F077FD03982C
:10278000C08D0AAD6E712E71010AE970A8700898AB
:1027900068703B202870042202920998294600F0B4
:1027A000DFFD204601F062FD0CA906200190487073
:1027B00068780A9A8018AA788018EA788018C04346
:1027C00008703846224600F0CBFD204601F04EFD51
:1027D000059F387A0AAD6E712E71EE70A870089858
:1027E00068703D20287009982946069A00F0B8FDC7
:1027F000204601F03BFD0CA90798487068780A9ABA
:102800008018AA788018C04308700498224600F007
:10281000A7FD204601F02AFD787A0AAD6E712E716F
:10282000EE70A870089F6F70099828702946069A64
:1028300000F096FD204601F019FD0CA9079848709C
:1028400068780A9A8018AA788018C043087004989B
:10285000224600F085FD204601F008FD0398408ED9
:102860000AAD6E712E71010AE970A8706F703F2079
:10287000287009982946029A00F072FD204601F05E
:10288000F5FC0CA90198487068780A9A8018AA7813
:102890008018EA788018C0430870049F38462246A2
:1028A00000F05EFD204601F0E1FC0598007B0AADDA
:1028B0006E712E71EE70A8700898687041202870B3
:1028C00009982946069A00F04BFD204601F0CEFCFF
:1028D0000CA90798487068780A9A8018AA78801816
:1028E000C04308703846224600F03AFD204601F009
:1028F000BDFC0598407B0AAD6E712E71EE70A8701C
:10290000089868704220287009982946069A00F0B5
:1029100027FD204601F0AAFC0CA9079848706878AA
:102920000A9A8018AA788018C04308703846224650
:1029300000F016FD204601F099FC0DB0F0BD00003E
:1029400010B582B0832001903E2001A902242246C6
:1029500000F006FD204601F089FC4020064C2022B4
:10296000214600F07BFC20786178090208180349B1
:10297000088080B202B010BD57012020D80020206E
:10298000F0B587B0F948006801461831302906D8FB
:10299000F7480178002900D1D6E007B0F0BDF44C2B
:1029A0006178002900D1D3E0491C61706268151874
:1029B0006560C8B20A28F0D100266670E81729467B
:1029C0004140081A01463239EA4A914200D3E7E011
:1029D0000596FEF7C3F90690E94806882789012D78
:1029E00000DAFEE0B81BFEF7B1F9E64901F00CFE93
:1029F0000025BE42294600D8014608460699FEF742
:102A000093F8FEF741F95622DB4903908852DC48DF
:102A100006896789B81BFEF799F9DA4901F0F4FDD8
:102A20000146B742284600D308460699FEF77CF8CF
:102A3000FEF72AF95822D04902908852D048068AD7
:102A4000A789B81BFEF782F9CE4901F0DDFD0146EA
:102A5000B742284600D308460699FEF765F8FEF708
:102A600013F95A22C44901908852C548068BE78958
:102A7000B81BFEF76BF9C34901F0C6FD0146B7422A
:102A80000495284600D308460699FEF74DF8FEF750
:102A9000FBF806465C20B8490E52B948078C258AD7
:102AA000E81BFEF753F9B74901F0AEFD0146BD4200
:102AB000049800D308460699FEF736F8FEF7E4F8C6
:102AC0005E21AD4A50520399218302996183019995
:102AD000A183E6832084AA48058D668A701BFEF7D1
:102AE00035F9A84901F090FD0146AE42049800D3A3
:102AF00008460699FEF718F8FEF7C6F80646602065
:102B00009D490E529E48058EA78A781BFEF71EF936
:102B10009C4901F079FD0146AF42049D284600D34F
:102B200008460699FEF700F8FEF7AEF86221924AD1
:102B300050526684A084E08A9149098F8142059EA3
:102B400000D901E1401AFCE00221017007B0F0BD9C
:102B50008B490A8822810A8962810A8AA2810A8BAA
:102B6000E2810A8C22820A8D62820A8EA282098FF9
:102B7000E1823621844A515C64234B437E49CD8DEA
:102B8000AB4201D9217805E04223CB5A2178528FFC
:102B900093421BD2CA071DD004221143217019E0B1
:102BA0005621754A01205052582150525A215052F4
:102BB0005C2150525E21505260215052622150528D
:102BC0006E49A161E1612162A084C6E01122114237
:102BD00000D1C9E00121617061680818606007B028
:102BE000F0BDF01BFEF7B2F8664901F00DFD01469D
:102BF000BE42059F384600D308460699FDF794FF6C
:102C0000FEF742F856225C490490885265895C4878
:102C10000689701BFEF79AF85A4901F0F5FC014647
:102C2000AE42384600D308460699FDF77DFFFEF711
:102C30002BF85822504903908852A5895048068A9B
:102C4000701BFEF783F84F4901F0DEFC0146AE42EF
:102C5000384600D308460699FDF766FFFEF714F8DC
:102C60005A22454902908852E6894548078BB81B8D
:102C7000FEF76CF8434901F0C7FC0146B7420598DE
:102C800000D308460699FDF74FFFFDF7FDFF064606
:102C90005C2039490E52278A3948058CE81BFEF71B
:102CA00055F8384901F0B0FC0146BD42059F384651
:102CB00000D308460699FDF737FFFDF7E5FF5E21D3
:102CC0002D4A505204992183039961830299A1836B
:102CD000E6832084658A2A48068D701BFEF736F845
:102CE000284901F091FC0146AE42384600D308461F
:102CF0000699FDF719FFFDF7C7FF054660201E493D
:102D00000D52A68A1E48078EB81BFEF71FF81D49F4
:102D100001F07AFC0146B742059E304600D30846D2
:102D20000699FDF701FFFDF7AFFF6221124A5052ED
:102D30006584A084E08A1249098F8142354603D315
:102D4000081AFEF703F805460E49284601F05CFC18
:102D50000699FDF7E9FEFDF797FF6421064A5052F8
:102D6000E084666007B0F0BD022216E7D40220209E
:102D7000780220200F0D0300E00020200100010058
:102D8000F801202000247449C0490000B0B584B087
:102D900001AC002060712071E070A0709320607021
:102DA000352020703E200322214600F0D9FA02256A
:102DB000284601F05BFA03A9052048706078019A63
:102DC0008018A2788018C043087060202A4600F05E
:102DD000C7FA284601F04AFA04B0B0BD10B582B077
:102DE00001A90870000A48703E200224224600F023
:102DF000B7FA204601F03AFA02B010BD811E091F51
:102E000000BFFCD27047000070B50B01C3185468B6
:102E10009568254394892C43156956692543D489BF
:102E200024012C4335012543092464021D511378E4
:102E300052781A43BF231A40890040180249445867
:102E40009C43A218425070BD1011000080B50223AF
:102E50001343034A83508218D16101F089FB80BD7E
:102E60000411000070B511231B02C4180125656010
:102E7000FF2610366662216211682163C55070BD5D
:102E8000F0B583B002920E460190354C20680527BC
:102E9000276007252840334B196820602268276087
:102EA0002A4018682260304B0096B60A89048A0FBF
:102EB000314609D02D490840511C01F05DFA014608
:102EC0003046FDF7F7F9284B0198C01801902268A9
:102ED0002760244803682A4022602268276003682C
:102EE0002A40226001229302029898420CD0530299
:102EF000984210D10098C30B0FD1B24001980168DD
:102F00009143016003B0F0BD1F210E40B240019813
:102F1000016C9143016403B0F0BDFF2911D823680F
:102F200027602B400F4D2D682360AB049B0F00D111
:102F30002039C9088A40019841689143416003B033
:102F4000F0BD1302FF339942E5D2FF23DB43C918DA
:102F5000C9088A40019881689143816003B0F0BD3F
:102F6000001340401800C441D0110000FF0F0000C2
:102F700010B5002A0FD091235B01C3180020DC6933
:102F80002405240F05D00C5C1C60401C8242F6D145
:102F9000104680B210BD002080B210BD0F4A835889
:102FA0000121C9030B438350801842681207FCD1EA
:102FB00002688A4302607047084A835880210B43A5
:102FC000835080180F221202436813400122D2025C
:102FD0009342F7D102688A430260704738120000BA
:102FE00070B50A780C231A400124240305196E6871
:102FF0009E43B2186A6049780722114003599343EF
:103000005918015170BD0000B0B5FF2204320E49BD
:103010000B68934382780324144002781202121939
:103020001A430A60094A0A4B13600A4C25686D0569
:10303000FCD54078002803D00868102404430C60B5
:10304000581C1060B0BDC04614010B4014030B4067
:103050000100009104020B40B0B54A68364BC250E3
:10306000364A80180A78222A58D8930001A4E358D7
:103070009F46C046133100001D310000133100008F
:103080001D3100001D3100001D3100001D31000008
:103090001D3100001D3100001D3100001D310000F8
:1030A0001D3100001D3100001D3100001D310000E8
:1030B0001D310000013100001D3100000131000010
:1030C0001D3100001D3100001D3100001D310000C8
:1030D0001D3100001D3100001D3100001D310000B8
:1030E0001D3100001D3100001D3100001D310000A8
:1030F0001D310000013100001D31000001310000D0
:1031000003231B0704689C4301235B07E318036048
:1031100004E003231B0704689C4304600B69C3603D
:10312000CB68074C1C40C36A064D1D402B19C36277
:10313000097A11430160B0BD0818000004180000AE
:10314000777702008888FDFF10B5012212038318EB
:103150000C789C604B7883508978014A815010BD6F
:103160000C11000010B5002A0CD0074BC31800202A
:103170001C68240605D40C5C9C61401C8242F7D17B
:10318000104610BD002010BD08110000B0B511227E
:10319000120283580124A34383500B888C781C436C
:1031A0008B882343094C1C408358094D1D406319EB
:1031B00083508B79CC791C43097A21437E231940B3
:1031C000801842689A4351184160B0BD18670000EA
:1031D000E798FDFF10B50122120383180C789C605C
:1031E0004978815010BD000010B55C480078401E41
:1031F000414241416E200C4C2152FEF78FFCFEF7FC
:1032000053FDFEF73BFD09480088A082084800787E
:10321000E0820848007820830748007860830748E8
:103220000078A08310BDC046E0002020D000202000
:10323000940320209503202096032020DA002020EC
:103240007047000004480068C0B2082802D1434813
:10325000012101707047C04620300F40F0B583B0A7
:10326000144602AF3870019108461146FDF71DF86B
:10327000634839462246FFF77BFE624F3868800676
:1032800008D43868800605D43868800602D43868C7
:103290008006F3D53E46083E30685B490840103052
:1032A00030603A1F1068594908402B4940181546AC
:1032B00010603868400612D5386840060FD5386867
:1032C00040060CD538684006F3D408E0386880061C
:1032D00008D43868800605D43868800602D4386877
:1032E0008006F3D54648FFF767FE30684649084038
:1032F00011210143316028684449084021040143F9
:10330000072008432860002C01991ED00025134A8D
:103310000BE0282C34460199104A18D20020107076
:10332000786848556D1CA5420FD0786A0007F5D122
:10333000264600200446502000F0A6FF786A0007C9
:10334000E7D1601C282CF5D3E3E703B0F0BD0120E2
:10335000107003B0F0BDC04607000100DB00202064
:10336000B0B582B01446002200926B4618700192EC
:10337000002C04D06846401C2246FCF739FF651C2F
:103380001F4C694620462A46FFF7F2FD1D4801689A
:10339000890608D40168890605D40168890602D423
:1033A00001688906F3D5014608390A68164B1340AF
:1033B00010330B60011F0A68144B13402A049A183B
:1033C000D21D0A600168490612D5016849060FD569
:1033D000016849060CD501684906F3D408E0016884
:1033E000890608D40168890605D40168890602D4D3
:1033F00001688906F3D52046FFF7DEFD02B0B0BDB7
:1034000000200F4018320F4000F8FFFFF8FF00F0D7
:10341000F0B581B00446A54B012A1CDB9A4239D98C
:103420008800A3490D58A8481018FDF78FFCA4493F
:1034300001F0EAF8A349FDF777FBFDF725FC2988A1
:1034400009182180698809186180A9880918A18054
:10345000E9880D18F9E0504280B298423AD98900C3
:10346000934A555898494018FDF770FC944901F06B
:10347000CBF89449FDF758FBFDF706FC298D091A96
:103480002180698D091A6180A98D091AA180E98DB1
:103490000D1ADAE090B243089C2B3AD88800844990
:1034A0000D589D204000801AFDF750FC844901F022
:1034B000ABF88449FDF738FBFDF7E6FB298A091ACA
:1034C0002180698A091A6180A98A091AA180E98A7A
:1034D0000D1ABAE0420889009C2A4ED8744A555801
:1034E0009D214900081AFDF731FC754901F08CF85F
:1034F0007449FDF719FBFDF7C7FB298B09182180DB
:10350000698B09186180A98B0918A180E98B0D18B6
:103510009BE08900664B5D5866498A4260D96749DD
:10352000461828882F89B84207D0C01B00B27043C4
:103530009D21890000F042FF3F18278068886F892D
:10354000B84207D0C01B00B270439D21890000F033
:1035500035FF3F186780A888AF89B84207D0C01BE5
:1035600000B270439D21890000F028FF3F18A7801A
:10357000E888ED89A84260D167E04D4A55584D4929
:10358000884265D94D494618288D2F8CB84207D0FE
:10359000C01B00B270439D21890000F00FFF3F184F
:1035A0002780688D6F8CB84207D0C01B00B2704373
:1035B0009D21890000F002FF3F186780A88DAF8C25
:1035C000B84207D0C01B00B270439D21890000F0B3
:1035D000F5FE3F18A780E88DED8CA8422DD134E090
:1035E0003549461828892F8AB84207D0C01B00B237
:1035F00070439D21890000F0E1FE3F182780688913
:103600006F8AB84207D0C01B00B270439D21890069
:1036100000F0D4FE3F186780A889AF8AB84207D06F
:10362000C01B00B270439D21890000F0C7FE3F1807
:10363000A780E889ED8AA84207D0401B00B27043FA
:103640009D21890000F0BAFE2D18E58001B0F0BD83
:1036500019494618288C2F8BB84207D0C01B00B2DE
:1036600070439D21890000F0A9FE3F182780688CD7
:103670006F8BB84207D0C01B00B270439D218900F8
:1036800000F09CFE3F186780A88CAF8BB84207D033
:10369000C01B00B270439D21890000F08FFE3F18CF
:1036A000A780E88CED8BA842C7D1CEE722060000A8
:1036B00034002020AE030000C6FEFFFF52FCFFFFD7
:1036C000000040400000C842DEF9FFFFF0B585B0C1
:1036D00000292FD0054602A8C01C0090019128881F
:1036E00004AE00213180009A91705170117002AFC8
:1036F000B970010A797038703E2003223946FFF70D
:103700002FFE0224204600F0B1FD0520707078786D
:1037100002994018B9784018C04330706020314693
:103720002246FFF71DFE204600F0A0FD0199AD1CCA
:10373000491ED3D105B0F0BDB0B584B02821405C9E
:1037400001AC002161712171E170A0709320607063
:10375000352020703E2003222146FFF701FE02257E
:10376000284600F083FD03A9052048706078019A7F
:103770008018A2788018C043087060202A46FFF79E
:10378000EFFD284600F072FD04B0B0BDB0B5254C89
:103790002078072827D1E0790A2824D1A078E17879
:1037A000000240183A283BD86278002A1FD062787D
:1037B000012A18D1227963791202D21843001E48D7
:1037C000C252194A002313703E221140382924D1D5
:1037D0007221415A7022825A120451180968818557
:1037E000090C418519E0104801210170B0BD0F4856
:1037F000C1700025857011224270072202700A22D2
:10380000C271857149000C4A515A4171090A01710E
:10381000082100F013FC044805700020206060605F
:10382000B0BDC04680012020F40120208901202065
:1038300001487B2181817047E0002020F0B581B0F4
:103840007C497D4A53888B4200D2F1E04631128890
:103850008A4200D9ECE0794F3978042916D0022940
:1038600006D0012900D0E3E0788002203880CAE049
:103870007988411A0AB2D2135140891A09B2322901
:1038800000DABFE07880B9800420D0E07988401A5F
:1038900001B2C9134840401A00B2022800DDC5E059
:1038A0007878401C7870C0B20A2800D0C0E0F88850
:1038B00063490988081A01B2C9134840461A04200E
:1038C0003D5E2846FDF742FA044630B2FDF73EFA67
:1038D0005C4E314600F098FE2146FDF725F9FDF7D4
:1038E000D3F9F882388956490989081A01B2C913EF
:1038F0004840401A00B2FDF729FA314600F084FE34
:103900002146FDF711F9FDF7BFF93883312D01DCB0
:103910000120387078894A4E318A081A01B2C913D9
:103920004840401A00B2FDF711FA464D294600F012
:103930006BFE2146FDF7F8F8FDF7A6F97883B88904
:10394000318B081A01B2C9134840401A00B2FDF782
:10395000FDF9294600F058FE2146FDF7E5F8FDF790
:1039600093F9B883F889318C081A01B2C913484019
:10397000401A00B2FDF7EAF9294600F045FE21465B
:10398000FDF7D2F8FDF780F9F883388A318D081AEF
:1039900001B2C9134840401A00B2FDF7D7F92946D1
:1039A00000F032FE2146FDF7BFF8FDF76DF93884CF
:1039B000788A318E081A01B2C9134840401A00B201
:1039C000FDF7C4F9294600F01FFE2146FDF7ACF8CB
:1039D000FDF75AF97884308FB98A01223A70401A7B
:1039E00001B2C9134840401A00B2FDF7AFF92946A9
:1039F00000F00AFE2146FDF797F8FDF745F9B88477
:103A000001B0F0BD78800E480188F98001893981C4
:103A1000018A7981018BB981018CF981018D39820B
:103A2000018E7982008FB88201B0F0BD012038701C
:103A300001B0F0BD160D000054022020A00220208D
:103A4000F801202000401C4680B503480021034AAD
:103A5000FFF7DAF980BDC04600A04240804900006F
:103A600080B5FFF7F1FF80BD0F4801461C390022E9
:103A70000A60014618390A600C4941600160012161
:103A80004A0643681343436003681343036082227A
:103A90008261074AC261074881220260880506499F
:103AA000086008637047C0463C80424084000C00B8
:103AB00082000400C8804240A0320A4080B512480B
:103AC0001249FFF78DFA03204102114802680A43A8
:103AD000026001210A02036813430360002242616D
:103AE0001F224262826B0A4306239A4382630722A3
:103AF0001202836B93438363826A042313438362BA
:103B0000826A0A43826280BD00200F40984900000B
:103B100000320F400120800206490A68024208D1A3
:103B20000A68024205D10A68024202D10A680242CA
:103B3000F3D0704704020B40B0B50E48002101607D
:103B40000320C0430C4C214608390A6802400A6031
:103B500020680125A8432060280221688143216054
:103B60000648FFF751FA2803211F0A6802430A603A
:103B7000B0BDC04608030B4008010B409A49000045
:103B800010B50B4C0B492046FFF7DEFA0A492046D8
:103B9000FFF762FA09480168012211430160FF2022
:103BA000000407490B6883430B600648026010BDA0
:103BB000000086409D490000A04900002810864072
:103BC00010E400E008118640B0B5214C21492046A0
:103BD000FFF700FB20492046FFF7D8FA0320C10376
:103BE0001E4802688A43026001691D4A0A40113278
:103BF0000261416917220A4328218A4342614268CF
:103C000001210A4043688B439A184260CA03154B4E
:103C10001C6814431C60FF221206134C2568954350
:103C20008A07AA1822608A021A634A0403681343A7
:103C30000360C26870231343C360C2680223134346
:103C400005229343C36002680A430260B0BDC046C8
:103C500000801040B4490000B649000000911040B7
:103C60000000FFFF289010400CE400E080B500F059
:103C700015F8FFF7F9FEFFF75FFFFFF781FFFFF78A
:103C80001DFFFFF7A1FFFFF7EBFEFFF743FFB82093
:103C9000014900220A5480BDD8022020B0B50A484C
:103CA0000A4941600A4A51600A4B59600A4C6160F6
:103CB0000A4D69600A49016011601960216029603C
:103CC0001020FFF79BF8B0BD00080A40030000B1C8
:103CD00000280A400008864000280F400088104055
:103CE00001000026F0B58DB00746C000904A1018BC
:103CF00045887D20800085420AD85C48002902D48E
:103D00004218643A01E00A46633292B282420BD210
:103D10000120B84085490A8982430A810A21384630
:103D200000F0A8F80DB0F0BD059100200B900A90AE
:103D300009900890079006904D4C2188A94203D91C
:103D400004910197012623E00021042003E0C2B280
:103D5000CBB293420DD8C2B2CBB29B1801265A08FF
:103D6000B343E35AAB4200D9501EAB42EFD8511CCB
:103D7000EDE7042A07D10AA80421059C2246FFF793
:103D800047FB224663E001975100615A0491561C9B
:103D90000296C1B208A80090059F3A46FFF738FB8B
:103DA000F1B206AE30463A46FFF732FB0499681A84
:103DB000039002984000255A681A029000980488DF
:103DC0000AD03088A04207D0001B00B203994843B4
:103DD000029900F0F3FA2418019F049E0AA80480B7
:103DE00006A808A94C88AE420AD04088A04207D055
:103DF000001B00B203994843029900F0DFFA24182F
:103E00000AA8448006A808A98C88AE420AD08088F7
:103E1000A04207D0001B00B203994843029900F06A
:103E2000CDFA24180AA8848006A808A9CC88AE4236
:103E30000AD0C088A04207D0001B00B203994843B3
:103E4000029900F0BBFA24180AA8C480059A0AA9AE
:103E50003846FEF7B5FA01460A2800D15FE701208F
:103E6000B840324A13890343138158E707F9000029
:103E7000E0480000F0B581B004460846FCF76EFF4C
:103E80000646284805682846FCF760FF014630468C
:103E900000F0BAFB2449FCF747FEFCF7F5FE0128C9
:103EA00008DBE100E94A51184A68091D824210D82E
:103EB00000250FE01D490988C90600D54019E449CD
:103EC0000D694319E100E14A51184A68091D9A42F7
:103ED00000D2151A0D60DE480669002E10D0284663
:103EE000FCF73CFF07463046FCF738FF01463846F2
:103EF000FCF71AFED74900F087FBFCF7C5FE00E08F
:103F00000C48A1000C4A55500C49095D4900174A5C
:103F10005052E000CD49081840886100084A5052CC
:103F200001B0F0BDD4022020000020413802202042
:103F3000F8012020D2040000B4012020C84700006E
:103F4000D401202080B508480068C0B201280AD1F9
:103F50000648018D064A914201D0491C00E001212A
:103F60000185FDF797FA80BD20108640E0002020F3
:103F7000FFFF0000F0B585B0002930D0054602A84B
:103F8000C01C00900191288804AE00213180009A65
:103F900091705170117002AF0721B970010A7970E8
:103FA00038703E2003223946FFF7DAF90224204612
:103FB00000F05CF905207070787802994018B978A3
:103FC0004018C0433070602031462246FFF7C8F9E0
:103FD000204600F04BF90199AD1C491ED2D105B025
:103FE000F0BD000080B504480068C0B2102801D1BF
:103FF000FFF7CCFB80BDC0462090104010B5D64BDB
:10400000002018605860D248016802229143016084
:1040100009490C462434446083600823C3600123AB
:104020005B040C689C430C600468144304600868DB
:104030001843086010BDC04600911040F0B581B033
:1040400000291AD00C46054600260D4F03E08019C2
:10405000C6B2A64211D2A919A21B0A48FFF782F8DC
:104060003968C907F3D03968C907F0D03968C9077A
:10407000EDD03968C907F3D1E9E7012001B0F0BDFF
:104080000891104000801040F0B587B000220391E5
:104090000029134616464FD0032403990C400429E7
:1040A00005D2002635463346002C2CD144E001943D
:1040B0000292FC2303991940039100252B464719CE
:1040C0007E78143E7410012219461346A340445DC5
:1040D000143C64101646A6408C19E318BC78143CB6
:1040E00064101646A6409B19FC78143C6410A2404C
:1040F0009B182D1D0399A942E1D199B20E0A029A8B
:10410000019C002C18D0415D14394E1001210F463E
:10411000B740DB19012C0DD040194578143D6D10C6
:104120000E46AE409B19022C04D080781438401003
:1041300081405B1898B2060A04AC62712271E67085
:10414000A37093206070042222703E202146FFF766
:1041500007F90225284600F089F806A906204870CC
:104160006078049A8018A2788018E2788018C0439A
:10417000087060202A46FFF7F3F8284600F076F82A
:1041800007B0F0BD70B50C46054601204202744EE2
:104190003046FEF775FE304621462A46FEF762FE9F
:1041A00070BDC046F0B581B015460C46C700274823
:1041B000C0194068FCF7D2FD064625480069FCF7A7
:1041C000CDFD01463046FCF7AFFC224900F01CFA59
:1041D000FCF75AFD01461D48C25B0120012D05DB9D
:1041E000E3885B1F93421CDD00221BE023885D1DDA
:1041F0000123002495421A4600D22246164D2D88EE
:10420000164E368875198D4200D92346002901467D
:1042100000D019460029014600D11146012911D0CC
:1042200011E001220E4BDB880E4CE488E31A8B422E
:10423000034600DA13460C4A9142014600D819465B
:10424000002900D0002001B0F0BDC046F8012020B8
:104250005402202000401C46F248000002490000A1
:10426000FA480000EA4800000F270000B0B5002817
:1042700009D0044600257D200002FEF7BFFD6D1C1D
:10428000E8B2A042F7D3B0BDB0B5002808D00446CC
:1042900000252020FEF7B2FD6D1CE8B2A042F8D345
:1042A000B0BD0000FFF7E2FC29482A4941602A49D5
:1042B00081600821C160016802220A430260012472
:1042C000A00426490860E003086060060860032037
:1042D00045036702224E304629463A46FEF7D0FD96
:1042E000402230462946FEF7B1FD304629463A467F
:1042F000FEF7C6FD1B4A30462946FEF7B3FD1A48B5
:10430000FDF772F92046FFF7B1FF2220FEF766FDA8
:104310002046FFF7ABFF9A20FEF760FDFFF788FA13
:10432000FEF78EFF1148016821430160FCF78CFF06
:104330000F4D104EA0052860FDF736FDFCF7C4FFB9
:10434000FEF752FF30780028F4D0FFF757FEF1E770
:1043500000B24240249110408001202000E100E0A2
:1043600000D00C4048002020C049000004188640BE
:10437000B0320A40F401202043088B421AD30022B5
:1043800003098B4279D3030A8B425ED3030B8B4222
:1043900042D3030C8B4227D30902FF2212BA030C2B
:1043A0008B4202D31212090203D0030B8B4233D388
:1043B0001AE0D3E0411A8041401C704703460B438A
:1043C00071D443088B42F5D3002203098B4254D3A6
:1043D000030A8B4239D3030B8B421DD3030C8B4250
:1043E00002D394466EE0090AC30B8B4201D3CB0380
:1043F000C01A5241830B8B4201D38B03C01A524126
:10440000430B8B4201D34B03C01A5241030B8B4227
:1044100001D30B03C01A5241C30A8B4201D3CB0212
:10442000C01A5241830A8B4201D38B02C01A5241F7
:10443000430A8B4201D34B02C01A5241030A8B42FA
:1044400001D30B02C01A5241CDD2C3098B4201D312
:10445000CB01C01A524183098B4201D38B01C01A90
:10446000524143098B4201D34B01C01A5241030907
:104470008B4201D30B01C01A5241C3088B4201D3B6
:10448000CB00C01A524183088B4201D38B00C01A63
:10449000524143088B4201D34B00C01A5241411A8A
:1044A000524110007047CA0F00D04942031000D398
:1044B0004042534000229C4603098B422DD3030AFD
:1044C0008B4212D38901FC2212BA030A8B420CD30D
:1044D000890192118B4208D3890192118B4204D336
:1044E000890137D0921100E08909C3098B4201D3B9
:1044F000CB01C01A524183098B4201D38B01C01AF0
:10450000524143098B4201D34B01C01A5241030966
:104510008B4201D30B01C01A5241C3088B4201D315
:10452000CB00C01A524183088B4201D38B00C01AC2
:104530005241D9D243088B4201D34B00C01A524199
:10454000411A00D201465241104663465B1000D327
:104550004042704763465B1000D3404201B50021E2
:10456000004201D0C9430846C046C04602BD000013
:1045700003B40148019001BD0100202070B5012560
:10458000ED0704004C4020D4441A01D2001B091945
:10459000C60D4B00F2B2FF2A29D01B0E2CD0000210
:1045A0000C0228432C43D31ADC40051910D2280AE8
:1045B00002D3401C6D0611D0761EF6058019FF2A25
:1045C00000DA70BDC00DC00570BD694000F07AF81A
:1045D00001200543C541521C761CE8E764089C4055
:1045E000C90161408900E7D10124A043E4E71B0E23
:1045F000440200D0034870BD002AFCD1C00FC007A0
:1046000070BD00BF0000C07F70B5420064414B0028
:104610005C41120E39D01B0E38D0FF2A3CD0FF2B44
:104620003AD0D2187F3A40024902400A490A451856
:10463000ED0106004E43000A090A48430104731ABB
:104640004019190C4318990F04D05B080121490740
:104650005B1A521CD80904D3401CF50301D19D06F6
:1046600007D0FF2A08D2D50506D0E4072043401919
:1046700070BD0125A843F4E7002A01DCE00770BD06
:104680002402FF202043C00570BD1B0EFF2A03D06B
:10469000FF2B01D0E00770BDFF2636064500B5426E
:1046A00006D84D00B54203D8D218FF2A00D0E7E75C
:1046B000004870BD0000C07F70B50125ED07040003
:1046C0004C4022D4441A02D26C40001B0919C60D7A
:1046D0004B00F2B2FF2A4BD01B0E50D000020C024E
:1046E000A8432C43D31ADC40051B05D5AD0019D3D4
:1046F0006D08761E521E37D0F605280A01D28019A1
:1047000070BD70416D0603D070BD6940FFF73CFF7E
:104710009C4009026140490001D0401E70BD012447
:10472000A04370BD6D081DD001202B0C01D12D04BC
:1047300010302B0E01D12D0208302B0F01D12D018D
:10474000001DAB0F01D1AD00801CEB0F01D16D003E
:10475000401C361A121A6D00680AF5054019012A24
:1047600002DB70BD002070BDC036300AC00770BDCE
:104770001B0E440201D1FF2B00D1024870BD002A5C
:10478000F0D070BD0000C07F8182838485868788D9
:10479000898B8C8D8E8F919293959697999A9C9DEB
:1047A0009FA0A2A3A5A7A8AAACAEB0B2B3B5B7B953
:1047B000BCBEC0C2C5C7C9CCCED1D4D7D9DCDFE21C
:1047C000E6E9ECF0F3F7FAFE18191A1B1C1D1E1F80
:1047D00008000300020001000F001E003200C800A4
:1047E000C80032001E000F00010002000300080094
:1047F0003E0D6F0D770DD50D170D4A0D610DCB0DCB
:10480000D70C190D3D0DA70DB40B5B0CA80CCA0CF1
:10481000470B1A0C740C8B0C410B020C560C5E0CE3
:10482000D70C2B0D540DA60DD20C130D400D8B0D76
:10483000AE0CF10C210D5B0D230C860CCC0CEB0C9B
:10484000E80B5E0CA70CC10CCB0B450C8D0CA40C1B
:10485000BE0C180D480D8B0DBA0C030D350D700DE7
:10486000990CE80C1B0D470D340C910CD80C020D63
:104870000D0C730CB70CD70CF20B5B0CA00CBC0C22
:104880009D0C060D3D0D740D9A0CF40C290D580D60
:10489000810CDE0C130D360D370C960CE20C120D4C
:1048A000230C800CC70CF10C100C6B0CB10CD30C4E
:1048B000910CFD0C370D610D8F0CEC0C240D490D86
:1048C000790CDA0C100D2E0D390C980CE70C1C0D20
:1048D0002A0C850CCF0C000D1A0C730CBB0CE90CC8
:1048E00000009600FA005E01C201F401D0077017C3
:1048F000E425F401D0076419AC2664002C01BC0245
:10490000960064002C01BC0264000A0A0A0A0A0A22
:104910000A0A0A0A0A14141400050A0F14191E2898
:104920002D32373C5064F00A6D0C980CAF0CCD0C56
:10493000DE0CE70CE80CEA0CEC0CEF0CF80C0C0DA0
:104940004E0D0A0A0A0A0A0A0A0A0F0F0A00000094
:10495000000A141E28323C46505F64000000F00A32
:10496000850CB00CD20CDB0CDD0CE90C020D030D38
:104970000B0D3E0D000000000000050000050000CA
:1049800011000000000000200000000000000000F6
:104990000000000000000300080000000302070000
:1049A00002000000FF0700000000000000000000FF
:1049B00000000000080000001800000000300000A7
:1049C0001416181A1C1E3032FC92FA92FF920093B1
:1049D000FD92FE92FB92019302936A6E74760F0F22
:1049E000101011111212314B13F13C460604B80B92
:1049F0002814B80B28141E00B80B800C420E0000BF
:104A0000304A000000002020340000002001000097
:104A1000644A0000340020203C0000002001000017
:104A2000A04A00007000202030070000480100006C
:104A300081B0112109020122425009494018016840
:104A400007220A4000920099C9B2032903D00099B5
:104A5000C9B20129F3D10098C0B201B07047C04675
:104A6000D0130000F047000020480000504800002C
:104A700080480000B0480000012002250E00000020
:104A800026490000184900000A4900000E000000F5
:104A90005E4900005049000042490000000000004B
:04000005000000C136
:00000001FF
