:020000040000FA
:10000000F00F20208D0100009101000093010000FD
:1000100000000000000000000000000000000000E0
:10002000000000000000000000000000950100003A
:10003000000000000000000097010000990100008E
:100040009B0100009B0100009B0100009B01000040
:100050009B0100009B0100009B0100009B01000030
:10006000000000009B0100009B0100000000000058
:10007000000000009B0100009B0100009550000063
:100080009B0100009B010000515000009B010000FB
:100090009B0100009B010000000000000000000028
:1000A0009B010000B93900000000000000000000C2
:1000B0009B010000000000009B0100009B0100006C
:1000C00000F002F800F052F812A030C808382418E6
:1000D0002D18AC4201D100F049F80FCCA246AB4636
:1000E0000CA730CF2D1B083F3F197C427F1E544484
:1000F0002D090426F441641EAC4201D300F036F809
:100100000126334200D0FB1A3343984754465D46DC
:10011000DFE70000945F0000C45F00000000000003
:10012000103A02D378C878C1FAD8520701D330C840
:1001300030C101D504680C60704700000000000069
:100140007047000000000000002300240025002666
:10015000103A01D378C1FBD8520700D330C100D583
:100160000B6070471FB51FBD10B510BD00F099FDA5
:100170001146FFF7F7FF05F0A9FA00F0B1FD03B44F
:10018000FFF7F2FF03BC00F0B7FD00000648004790
:10019000FEE7FEE7FEE7FEE7FEE7FEE70348044969
:1001A000024A044B70470000C1000000F007202005
:1001B000F00F2020F007202001E004C0091F0429CF
:1001C000FBD28B0701D50280801CC90700D00270CA
:1001D000704700290BD0C30702D00270401C491E93
:1001E000022904D3830702D50280801C891EE3E71D
:1001F0000022EEE70022DFE7002203098B4273D3DF
:10020000030A8B4258D3030B8B423CD3030C8B4223
:1002100021D312E003460B437FD4002243088B42D4
:1002200074D303098B425FD3030A8B4244D3030B7D
:100230008B4228D3030C8B420DD30902FF2212BA42
:10024000030C8B4202D31212090265D0030B8B42BE
:1002500019D300E0090AC30B8B4201D3CB03C01AA8
:100260005241830B8B4201D38B03C01A5241430B83
:100270008B4201D34B03C01A5241030B8B4201D373
:100280000B03C01A5241C30A8B4201D3CB02C01ADE
:100290005241830A8B4201D38B02C01A5241430A56
:1002A0008B4201D34B02C01A5241030A8B4201D345
:1002B0000B02C01A5241CDD2C3098B4201D3CB01EC
:1002C000C01A524183098B4201D38B01C01A52419B
:1002D00043098B4201D34B01C01A524103098B429F
:1002E00001D30B01C01A5241C3088B4201D3CB008A
:1002F000C01A524183088B4201D38B00C01A52416D
:1003000043088B4201D34B00C01A5241411A00D21C
:1003100001465241104670475DE0CA0F00D0494285
:10032000031000D3404253409C46002203098B42F5
:100330002DD3030A8B4212D38901FC2212BA030A7D
:100340008B420CD3890192118B4208D389019211FF
:100350008B4204D389013AD0921100E08909C30984
:100360008B4201D3CB01C01A524183098B4201D386
:100370008B01C01A524143098B4201D34B01C01A71
:10038000524103098B4201D30B01C01A5241C308E9
:100390008B4201D3CB00C01A524183088B4201D358
:1003A0008B00C01A5241D9D243088B4201D34B0073
:1003B000C01A5241411A00D20146524110466346CA
:1003C0005B1001D34042002B00D549427047634681
:1003D0005B1000D3404201B50449002802DC491CEF
:1003E000084000E00846C046C04602BDFFFFFF7F50
:1003F00070477047704700000246C80FC00781432E
:100400004B0030B54B405B009B0D20D01923DB0621
:10041000C91801231B05994220DB0324A4070425E6
:100420001346AB400BD3002B04D1EB0613409B00CB
:10043000E34204D401246407002312195941FF2325
:100440001B0599420BD2C9000143500F09E0CB02B2
:1004500004D501430803024305D0054830BDFF2100
:10046000C905084330BD084607210905884330BD4A
:100470000000C07FF0B50C46871A9C410D46861AD5
:100480009D4103D2C01BA141D21963410D0D1F0D27
:10049000C94EEC1BAE435CD07F057F0D0026002FBC
:1004A00051D02D05AC46A943DD020123ED0A1B0501
:1004B0001D4320231B1B24D41746E74038187141E5
:1004C0002F46E740CC199D402818314661410C0D5C
:1004D00027D161449A4013D50023401C5941520052
:1004E0000ED14008400001224B005205D34207D3F1
:1004F00005204007C14201D5B04900E0B04930466F
:10050000F0BD6B00002A00D001229A181F23203C66
:100510001B1B01D5002302E0E540281871410C0D9A
:10052000D7D0012424050919C407CD07400849087C
:10053000E40F28436144002CD5D00024401C6141C5
:100540009A40D0D1CDE76A05520DD9D1C90FC9075C
:10055000D5E79C4D4E00002801D0012400E0002486
:1005600034195F00002A01D0012600E00026BE19E0
:10057000954FAC420CD8AE420AD8B44206D0012501
:100580006D05EC42BCD010461946F0BD9942FCD036
:1005900000203946F0BDF0B51FB40C460F46811A55
:1005A0009F412546861A9D4106D20125ED076F40E1
:1005B000401ABC4152187B41210D1E0D8D1BAC46CB
:1005C0007D4D8D437ED075056D0D7CD00D05AE46FD
:1005D000AC431B031B0B794D52429D4120236646C1
:1005E0009B1B14D31746F74038180026009074411F
:1005F00060462F460741E41900989D40281866413F
:1006000016D4714671189A4025D5012320E093181D
:100610002A466A415200002B00D0521C1E23203E65
:100620009B1B002B61DD3541EE1728186641E8D58C
:10063000001876415B1C9A4000D3401C4B05F31810
:100640001524E34010D3002B52D071467118D30FFC
:10065000C01802D3491C05B0F0BD0123DB079A4244
:10066000F9D140084000F6E701225205B21801D145
:10067000002853D00123CC0ADB029943891E002AAB
:1006800008D1020C03D0020C0004103902E002462B
:10069000002020390023550B05D112020823550BE9
:1006A00001D152010D23550C01D112011B1DD50C96
:1006B00001D192009B1C150D01D152005B1C20251D
:1006C000EE1A01E02CE022E00546F5401543984083
:1006D000CA1AE10769181305C918002ABBDA0320F2
:1006E00040070818C10FC9070FE071466118B2E74B
:1006F000F10740080843711071444A000CD00123EF
:100700005B059A42A7D2C90FC9070020A3E7490594
:10071000490D26D1002001E00028F4D100219AE7FC
:10072000284D6600002801D0012100E00021711849
:100730005F00002A01D0012600E00026BE19224FEA
:10074000A94210D8AE420ED8B14208D001256D059D
:10075000E94206D01946A802414010467BE79C4278
:1007600001D0214677E70020394674E710B50C46E2
:100770005C4005D50124E4076340FFF70CFF10BD82
:10078000FFF778FE10BD30B40C465C4004D5012460
:10079000E407634030BC6DE630BCFCE670B5012474
:1007A000E40761400D465D4002D4FFF763FE70BD73
:1007B0006340FFF7F0FE70BDFF0700000000F0FF90
:1007C0000000F07F0000E0FF0000F87FF0B58B4CE8
:1007D0000F09254689B0BD437BD01D092646AE438F
:1007E000FAD00E465E402740F60F3E43254071D0BA
:1007F00024012142FBD0FF24AD19A4042D1B039535
:1008000001252D05DB02DB0AC9022B43C90A294356
:100810001E010901040F130F050121431701880B65
:10082000820391432D098C46A90B1E438A039543ED
:10083000B30B9A0396433F09BA0B9403A74302965E
:100840002E467E430497B6464E19D7190C4601969C
:10085000544305977E43371B7646BF1B3601B64689
:10086000BE0B361900967646BC043719009C01D39E
:10087000641C00946400002F01D001263443029EC2
:10088000049F754366467E430496760034196E00D5
:1008900034190094029C019E1C196643751BAE46D8
:1008A000069465464519059C05956C435943754664
:1008B0000891691A0191049E01465143A41B0491B9
:1008C000611A009C0791E10605D0610901221143DC
:1008D00002E072E06EE06109089D00272C0A2D06F7
:1008E0006918049D7C412A0A2D066918019D624100
:1008F000AC0DAD026D185441079A910D9202551935
:100900006141029A644658435443069B059A5A43F0
:10091000121A131B9A0E9B015B187A41010B0005FA
:10092000C3185141220A200644195A419A4200D262
:10093000491C01204002814203D315230226F643BD
:1009400002E014230326F6432020C51AA9401746C7
:10095000AF40DA400A4320460399D840091473187F
:1009600019055118039A3843D2075140AC4009D0B9
:100970000122944006D30022401C5141002C01D199
:10098000400840001E4A934212D301220398920667
:10099000904207DB0520400709181A480143C0129E
:1009A000414004E0032040070818C10FC907002098
:1009B00009B0F0BD0020F107FAE705180C464C41DC
:1009C00011486D42A04115D394181A465A410E4859
:1009D000644290410ED301204A004005824209D36F
:1009E0005A00824206D35940C90F084AC90700205D
:1009F0001143DDE700200649DAE700000000FF07A9
:100A0000FE070000FFFFFF7F0000E0FF0000F07F17
:100A10000000F87F0121C9050123411842001B068F
:100A2000D3185B0E0AD0C1100722D20689184007DE
:100A30005242D14201D5520089187047090208D5A7
:100A40000146002A03D0C10FC90700207047104695
:100A50007047420202D00020024970470721090571
:100A60000143F4E70000F87FF0B5FF252D04C60927
:100A7000C209FF2704462E400137CB093E434840B8
:100A80002A402B400746002A6BD0002B69D0AA428F
:100A900067D0AB4265D0002800DA32460125ED056B
:100AA00029432C4309022002090AD21A4B0C7F2445
:100AB000E31A434C000A7C44E35C7D2424041219AD
:100AC00014145B00A218884201D3521C00E04000BD
:100AD00049420C465C4324115C43DB016415E31876
:100AE000040A5C43C502200D0C4644436419250AE0
:100AF0005D432303EC0C0D46654300030019EB181E
:100B00004C42A34201D35B18401CD4052018002B93
:100B100007D05B00C91804D3401C002901D140084C
:100B200040003F2189048A4209D3002A08DC1106CB
:100B3000090F04D0032149074018C00FC007F0BDBA
:100B400001224100120689187F2252069142F6D2F4
:100B500005214907C84201D59010F0BDFF20C0050E
:100B6000F0BD002F00DA32461648AA4207D2AB4247
:100B700005D21902090E17D0F80FC007F0BDFF25E6
:100B800063002D06AB42F9D84900A942F6D8AB4222
:100B900001D1A942F2D0A94201D1002101E06100B6
:100BA0004908D0050843F0BD1102090EFBD0FF2013
:100BB0000243D005F0BD0A460146104654E7000046
:100BC0000E5100000000C07F10B501469E240002B7
:100BD000CA15A307002A02D01843002A04DBA21A70
:100BE000002A0CDDD04010BD1206120E01D14000CB
:100BF0004008A21A03D4D04040420028F3DDFF226F
:100C000048001206904201D9002010BDC817C04309
:100C1000584010BD0102C21504D00123DB0719435F
:100C2000002A0ADB9E239A1A02D40846D040704755
:100C3000FF2241001206914201D900207047C017DF
:100C4000C04370471F22030C02D10F2200041CD0A6
:100C5000030E01D10002083A030F01D10001121F57
:100C6000830F01D18000921E002801DB4000521E3C
:100C7000D2055118021251181922904004D3491C70
:100C8000002801D14908490008467047C10FC9072B
:100C900000D04042012292071143D3E70121890786
:100CA000D0E7754600F024F8AE4605006946534685
:100CB000C008C000854618B020B5FFF76FFA60BCC9
:100CC000B64600260027C0C5C0C5C0C5C0C5C0C542
:100CD000C0C5C0C5C0C5403D490849008D467047E4
:100CE00010B50446C046C0462046FFF748FA10BD7E
:100CF000004870477000202001491820ABBEFEE775
:100D0000260002007047000080B582B000F0F0FBC2
:100D1000014601A801804078000600280DD5FFE7B4
:100D2000EA48007E02210840401C002804D0FFE76A
:100D30009A2001F059FEFFE70AE0E448007E8007B0
:100D4000002804D5FFE7992001F04EFEFFE7FFE7FA
:100D500002B080BDB0B585B004A900200880DB4B8F
:100D6000564A9A807D221201DA8098601A69DA6008
:100D70000880FFE704A80088072800DD8CE004AAAB
:100D800011884B007648C35ACC00F1490B531388A5
:100D90004B4CE4182125645D6400005BDB00CB183C
:100DA0005880EA480423C05E1288D20089180222C3
:100DB000895E884205DDFFE7E4480421405E039038
:100DC00008E004A80088C100E14840180221405E04
:100DD0000390FFE70399DD4881800621405E04A966
:100DE0000988CA00DA4989180222895E884205DA30
:100DF000FFE7D6480621405E029008E004A800887C
:100E0000C100D34840180221405E0290FFE70299DA
:100E1000CE48C180806804A90988CA00CC498918D5
:100E20004968884204D9FFE7C8488068019007E014
:100E300004A80088C100C648401840680190FFE738
:100E40000199C2488160C06804A90988CA00C049E4
:100E500089184968884204D2FFE7BC48C0680090FE
:100E600007E004A80088C100B94840184068009015
:100E7000FFE70098B549C86004A80088C100B448DD
:100E800040184288D549488880184880FFE7049870
:100E9000401C04A908806DE7D0490220085E420F7B
:100EA0008018C0084880C9484821425AA7490A808A
:100EB0004A22805A488005B0B0BDC04630F80000D4
:100EC0005860000080B584B0C048818D03A80180BF
:100ED0000021405E05280CDCFFE7002103A8405EEE
:100EE0000421C943884204DBFFE79C4900200870C5
:100EF0000EE0002103A8405E002804D5FFE79749D3
:100F00000220087003E0954901200870FFE7FFE721
:100F10000021019103A80290415E0420C043484390
:100F20009049086002F076FC01990298405E03F057
:100F300049FB04F0ADF800F061FE00F07DF8019986
:100F40000298405E03F0E6FF00F0BCFE01F0F0F80E
:100F500001F0E8FB03F006FC02F0E2FC04B080BD07
:100F60000A04202080B584B09C480088000700282F
:100F700001D4FFE759E0994800884007800F002816
:100F800001D1FFE751E0954800884007002821D5AE
:100F9000FFE7F9490869C968401A039003980128D6
:100FA0000BDBFFE703982249884206DCFFE7F249A2
:100FB0008A69086980180861FFE7EF4901910869AB
:100FC000EE4A10610869C86003F084FF019908695E
:100FD0004861FFE7E8480088800700281DD5FFE743
:100FE000E549C868404202900020C860486103F0AB
:100FF00057FF029800280BD5FFE702980D49884259
:1010000006DBFFE7DC498A69086980180861FFE7A9
:10101000D9480069D9490861FFE7D74908880622FD
:101020009043088000208861FFE704B080BDC0467F
:101030000019D50200E72AFD81B0CF48C06800281A
:1010400018D1FFE7CC488069322806DBFFE7CA49A0
:101050000888102210430880FFE7C7498A69086999
:10106000801808618B69C54A1069C018106100209A
:10107000886128E0C049C868096988421DD1FFE736
:10108000BD488069322806DBFFE7BB49088810228B
:1010900010430880FFE7B84900918A690869801801
:1010A00008618A69C8688018C8608B69B34A10698A
:1010B000C01810610020886105E0AF49088810223F
:1010C00090430880FFE701B07047C0465C062020CF
:1010D00080B584B0A849092008801A488880C88053
:1010E000194ACA600A614A61002003908861F74981
:1010F0000880488088808860C8600A614861A54887
:101100004021FFF777F8134800902621FFF770F889
:1011100000990120029008700F4801902821FFF7E4
:1011200069F8019A029903981170E3498860486050
:101130000860E34A106050600949916009490860FD
:1011400004B080BD1027000080BE14075C0620207C
:1011500000062020AC06202084062020D406202073
:1011600000FC0800E006202089484821405A184920
:10117000884201DBFFE728E085484A21405A1549AB
:10118000884201DCFFE720E081484821405A1249AB
:10119000884206DBFFE7CF49088804221043088015
:1011A000FFE77B484A21405A0D4988420CDCFFE7A3
:1011B00077484A21405A002806D0FFE7C5490888E9
:1011C000022210430880FFE7FFE770470A0420204F
:1011D000A10F0000CF070000FC0D000040062020FA
:1011E0008C0A0000B0B58AB0BA480088C007002851
:1011F00001D1FFE7BEE0B54808901030B44903F0D4
:1012000063F9089800695E49884206D8FFE7AF484D
:1012100000695C49884204D8FFE7AC495A48086134
:10122000FFE7AA4A002090601169D16009A90880EF
:101230000880FFE709A80088072867DCFFE709A8FE
:101240000690028853005249CB5AD400514A079263
:1012500013530388504CE4182125645D6400095B36
:10126000DB00D218518001888A0048480590801818
:10127000C9004A4A891803F027F9059A0699079880
:101280000B88DC000119005B49889B00D25800F0F4
:1012900031FC069A07991388DB00CB1858608B48FD
:1012A00080681288D20089184968884204D9FFE70B
:1012B00086488068049007E009A80088C100354886
:1012C000401840680490FFE7049980488160C06836
:1012D00009A90988CA002F4989184968884204D297
:1012E000FFE77A48C068039007E009A80088C100BA
:1012F0002848401840680390FFE703987349C86086
:10130000FFE70998401C09A9088093E771480290FB
:1013100010301921890203F0D7F80298143073496C
:1013200003F0D2F8029800691549884206D8FFE711
:10133000684800691349884204D8FFE765491248A4
:101340000861FFE700F020FE1049009100200190A5
:10135000C861886148610861C86088604860086049
:1013600000F04CFF02F0A8FA5A4908880122904385
:101370000880FFE70AB0B0BD400620205C062020B0
:10138000809B82079F2FC50140785F06240520209F
:101390000A04202000062020586000001864000085
:1013A00080B5FFF71FFFFFF7D5FCFFF78BFDFFF7B9
:1013B000D9FD00F001F880BD80B582B03D480188BC
:1013C000491C01800088772813D1FFE7192081028A
:1013D0000191012042024348009001F015FD009860
:1013E0000199402201F0F6FC3F48404903F0FAFE23
:1013F0005EE030480088782813DBFFE72D4800883E
:101400007F280EDCFFE72B4908888000324A8018CD
:10141000324A80180988C900314A891803F0E2FE6F
:1014200045E024480088802807D1FFE7294810308C
:101430001921890203F0D6FE38E01E480088812871
:1014400006D1FFE721481030214903F0CBFE2CE004
:1014500018480088822805D1FFE719481A4903F087
:10146000C1FE21E013480088832806D1FFE7144815
:10147000001D144903F0B6FE15E00E4800888428CC
:1014800006D1FFE70C48001D0C4903F0ABFE09E054
:1014900008480088852804DBFFE70649002008800B
:1014A000FFE7FFE7FFE7FFE7FFE7FFE7FFE7FFE70C
:1014B00002B080BDEA072020D40620206864000026
:1014C0007806202060640000586400005C0620203C
:1014D00010640000400620204405202020FEFFFF6D
:1014E0005860000000D00C40D000202008640000AC
:1014F00080B512200022114602F0A0F94849487830
:1015000000020978401880BD80B582B07A2000F0D2
:1015100033F8DF4901910860782000F02DF8019937
:1015200048606C2000F028F8019988606E2000F077
:1015300023F80199C860742000F01EF80199086131
:10154000702000F019F8019948616A2000F014F841
:101550000199886102B080BD80B53A200022114611
:1015600002F06CF92E4948780002097840180149C8
:10157000088080BD0804202080B582B0014601A803
:10158000017000780022114602F058F92449487889
:10159000000209784018FFF779FBFFF73BFA064A8B
:1015A000064BFFF713F9064A064BFFF7DFF8FEF785
:1015B00023FF02B080BDC0469A9999999999B93F85
:1015C00066666666661271C080B584B0014602A880
:1015D0000190017000780022114602F02FF9019865
:1015E000007814280DDBFFE702A80078322808DC19
:1015F000FFE70B49487800020978401803A90880E2
:1016000009E0074948780002097841180A20484350
:1016100003A90880FFE703A8008804B080BDC04686
:101620001205202080B592B00A9103460A9811A9AC
:101630000B8010900FA802700EAA002313800CAA32
:1016400093800C93119B137049785170109991708D
:1016500000780B90012808D0FFE70B9802281FD0D4
:10166000FFE70B98042839D05BE03E200CA90791D6
:101670000322089202F042FA0220099003F0F0FFE0
:101680000798089901F080F9099A0EA908700520B9
:101690004870602002F032FA099803F0E1FF40E060
:1016A0001098000A0CA90491C8703E2004220592EB
:1016B00002F024FA0220069003F0D2FF0498059964
:1016C00001F062F9069A0EA90870062048706020A1
:1016D00002F014FA069803F0C3FF22E01098000A03
:1016E0000CA90191C87010A842880A71C07848718D
:1016F0003E200622029202F001FA0220039003F03B
:10170000AFFF0198029901F03FF9039A0EA9087002
:1017100008204870602002F0F1F9039803F0A0FF60
:10172000FFE712B080BD000080B588B0564801F0D8
:10173000C5FCFFF7E9FA3020FFF746FF53498881DF
:1017400088894822885288894A2288520020079036
:10175000FFE7079805283DDCFFE7079840001430B5
:10176000C0B2FFF731FF07994A00FE49885248206E
:10177000085A079A5200895A884205DDFFE7F9485E
:101780004821405A059005E007984100F548405A25
:101790000590FFE70598F349482288524A20085AE5
:1017A000079A5200895A884205DAFFE7ED484A2134
:1017B000405A049005E007984100EA48405A0490D6
:1017C000FFE70498E7494A228852FFE70798401C40
:1017D0000790BEE73220FFF7F7FEE249C8814820B4
:1017E000085AC989884205DDFFE7DE484821405A8A
:1017F000039003E0DB48C0890390FFE70398D949D1
:10180000482288524A20085AC989884205DAFFE7E7
:10181000D4484A21405A029003E0D248C08902903D
:10182000FFE70298CF4901914A2288523420FFF7FE
:10183000CBFE019908823820FFF7C6FE0199488245
:10184000FFF762FE00200690FFE70698062814DCEA
:10185000FFE70698009081000D4840580D4904F0BC
:10186000F3F8FFF7B1F900994900BE4A8918C88317
:10187000FFE70698401C0690E7E7FFF76DFE00F0D3
:10188000DDFE08B080BDC04600200F400A042020C5
:10189000740520200000204180B59CB01AAA108059
:1018A00019919048416814394A42514118AA11705F
:1018B0004068142805D8FFE78A484068092804D8FA
:1018C000FFE718A901200870FFE717A9002008808A
:1018D0001998FFF7E3F90E9083480069FFF7DEF9E6
:1018E00001460E98FFF7C0F8804904F0ADF8FFF705
:1018F0006BF916A908807E48017815AA1170416815
:10190000149181681391C068129018A8007801287A
:101910000BD0FFE77648017C15AA1170416914913C
:1019200081691391C0691290FFE7149815A909788D
:101930001AAA128800F01CF9014611A8017000785B
:1019400000280CD0FFE71AA80088149A15A9097876
:1019500049008918891E0988884207D1FFE7139832
:1019600011A90978405C17A908801DE01AA802880F
:10197000149811A909784B00C118C05A101A498847
:10198000891A884207DCFFE7139811A90978405C9F
:1019900017A9088007E0139911A80078401840782B
:1019A00017A90880FFE7FFE717981699401A00B2B9
:1019B00003F024FD129911AA1278895C884200DA9A
:1019C00089E011A8007815A90978491E884248DAEB
:1019D000FFE71398049011A9099109780691491C11
:1019E0000791405CFFF75AF9069902460498059260
:1019F000405CFFF74BF90146059804F07DF8069A24
:101A000001460798089114994000085A5200895AD3
:101A1000401AFFF73BF901460898FFF725F8099AA5
:101A2000109010980C901AA80088149912780A92B5
:101A30005200895A401AFFF729F90A990B90139816
:101A4000405CFFF723F90B9902460C980D9203F0C6
:101A5000FBFF0D9903F0B2FFFFF7B6F817A9088056
:101A6000FFE7002117A8405E002803D5FFE700200C
:101A7000039004E0002117A8405E0390FFE703995C
:101A800017A801800021405E652803DBFFE7642082
:101A9000029004E0002117A8405E0290FFE7029840
:101AA00017A90091088010480069FFF7F7F80F495F
:101AB000FEF7DAFF0146009801910021405EFFF732
:101AC000E5F80146019803F0BFFFFFF7A3F80F9078
:101AD0000F981B9002E019981B90FFE71B981CB011
:101AE00080BDC046D40620205C0620200000C842ED
:101AF0005000202080B588B006AB188005A8018072
:101B000004926F48818D03A8018000210091405EFE
:101B100003F074FC0099024602A80280405E04288B
:101B200011DCFFE706A800880499FFF7B5FE0190D5
:101B300001980E49884203D3FFE70B4807900EE057
:101B4000019807900BE0002102A8405E132801DCF9
:101B5000FFE700E0FFE7FFE703480790FFE707988C
:101B600008B080BD0A042020A02FC501819B8207F8
:101B700087B0059004A8017003A802800088059929
:101B80000988884204DAFFE706A90020087030E0DF
:101B900002A9002008700499491E01AA1170694623
:101BA0000870FFE702A8007801A9097888421CDCC8
:101BB000FFE701A8007802A90978401840086946A3
:101BC0000870059809784900405A03A90988884295
:101BD00005DDFFE70098401E01A9087004E00098A9
:101BE000401C02A90870FFE7DCE7019806A908700D
:101BF000FFE706A8007807B07047000080B582B004
:101C0000D948006801281ADBFFE7D248C068D649E6
:101C10000968884207D9FFE7D3480268CD49C868F8
:101C2000801AC8600AE0D0480068CA49CA68821AA7
:101C30008869801888610020C860FFE71DE0C549F9
:101C4000C8680969C84A12688918884207D2FFE73C
:101C5000C5480268BF49C868801AC8600CE0BD4921
:101C6000C868C14A1268801A0A69821A886980188D
:101C700088610869C860FFE7FFE7B6480069002887
:101C800004D1FFE7B449BE48888616E0B148009009
:101C9000C068FFF703F80146009801910069FEF75C
:101CA000FDFF01460198FEF7DFFEAD4903F0CCFED3
:101CB000FEF78AFFA8498886FFE702B080BDC046CC
:101CC0000A04202080B598B000201790A14801890F
:101CD000A14A6E23D1520089002803D1FFE70020DA
:101CE0001790D9E09D480B908068FEF7D7FF01461A
:101CF0000B980A910069FEF7D1FF01460A98FEF79A
:101D0000B3FE97490F9103F09FFEFEF75DFF01467A
:101D10000B9816AA1180C068FEF7C0FF01460B9809
:101D20000C910069FEF7BAFF01460C98FEF79CFE85
:101D30000F9903F089FEFEF747FF15A90880FB48BD
:101D40000D904069FEF7AAFF01460D980E910069BB
:101D5000FEF7A4FF01460E98FEF786FE0F9903F0EA
:101D600073FEFEF731FF14A9088013A90020088034
:101D700016981599411A12A801800088794988425D
:101D800004D1FFE714A90020088020E015A80088EE
:101D9000FEF77CFF099012A800880790FEF77EFFEF
:101DA0000146099803F050FE079908906D48401AC3
:101DB000FEF76CFF01460898FEF756FE01460998AB
:101DC00003F0FCFDFEF700FF13A90880FFE714A84D
:101DD000008813A9098888422DDDFFE76248006862
:101DE00001281CDBFFE714A8008813A90988401A02
:101DF0000690CC4800695B4903F0DEFC0699484335
:101E0000119011985C49884203DCFFE71198059016
:101E100002E05A480590FFE7059817900AE05248FB
:101E20000068FEF733FF534903F00EFEFEF7CCFEC9
:101E30001790FFE72CE04C48006801280BDBFFE718
:101E400049480068FEF722FF4A4903F0FDFDFEF70E
:101E5000BBFE17901BE014A8008813A90988401A3C
:101E60000490B0480069E34903F0A6FC0499484394
:101E7000109010983D49884203DBFFE710980390CB
:101E800002E03B480390FFE703981790FFE7FFE766
:101E9000D54900200881FFE733480068012817DB97
:101EA000FFE7D148406930490968179A8918884284
:101EB00009D9FFE7CC4948692B4A1268801A179A5A
:101EC000801A486103E0C84900204861FFE718E034
:101ED000C54948690969244A12688918179A8918F6
:101EE000884209D2FFE7C04948691F4A1268801A30
:101EF000179A801A486103E0BB4908694861FFE707
:101F0000FFE7B9480069002805D1FFE7BA49702208
:101F10001B48885217E0B44801904069FEF7BEFEA6
:101F20000146019802910069FEF7B8FE0146029849
:101F3000FEF79AFDAD4903F087FDFEF745FEAE4979
:101F400070228852FFE7A84840690E49086018B01F
:101F500080BDC046400620200A0420205C062020C8
:101F600000401C4610270000E006202041B4FCFF82
:101F700040B4FCFF333373BFBF4B0300C04B0300BF
:101F8000D2040000D000202080B594B065480A90AB
:101F90008068FEF783FE01460A9809910069FEF702
:101FA0007DFE01460998FEF75FFD5F490E9103F043
:101FB0004BFDFEF709FE01460A9813AA0F92118005
:101FC000C068FEF76BFE01460A980B910069FEF7A8
:101FD00065FE01460B98FEF747FD0E9903F034FDB0
:101FE000FEF7F2FD12A908807F480C904069FEF7C9
:101FF00055FE01460C980D910069FEF74FFE014613
:102000000D98FEF731FD0E9903F01EFDFEF7DCFD85
:102010000F99024611A8028000880988884220DCB6
:10202000FFE711A8008812A90988884219DBFFE799
:102030006D4808904169C1604069FEF72FFE014676
:10204000089807910069FEF729FE01460798FEF7F8
:102050000BFD664903F0F8FCFEF7B6FD0899888091
:102060005DE013981299411A10A801800088642835
:1020700006D1FFE75C4900204861C86088804EE0D7
:1020800012A80088FEF702FE029010A800880090B7
:10209000FEF704FE0146029803F0D6FC0099019079
:1020A0006420401AFEF7F2FD01460198FEF7DCFCC1
:1020B0000146029803F082FCFEF786FD11A9039108
:1020C0000880494806900069FEF7E8FD1649FEF7CA
:1020D000CBFC0146039804910088FEF7D7FD01462A
:1020E000049803F0B1FCFEF795FD014606984161A6
:1020F0004169C1604069FEF7D1FD0146069805912E
:102100000069FEF7CBFD01460598FEF7ADFCFB49E3
:1021100003F09AFCFEF758FD06998880FFE714B09B
:1021200080BDC0465C0620200000C842400620203A
:1021300080B586B02C4803904069FEF7AFFD01469C
:10214000039802910069FEF7A9FD01460298FEF787
:102150008BFCEA4903F078FCFEF736FD039905AAEB
:10216000108005988988411A04A801800021405EEA
:1021700003F044F90A2804DCFFE705981A4988802F
:102180001BE005A8008818498988884205DDFFE71B
:10219000154988880A3088800EE0134880880A280C
:1021A00005DBFFE7104988880A38888003E00E497C
:1021B00000208880FFE7FFE7FFE70B4880880C4995
:1021C000884203DBFFE70B48019003E00648808864
:1021D0000190FFE7019904488180808806497222B6
:1021E000885206B080BDC0464006202000401C46F4
:1021F00011270000102700000A04202080B582B0BB
:1022000019480190194902F05FF9019800681849CE
:10221000884204D3FFE7144900200860FFE7124812
:102220000090001D134902F04FF9009840681249D0
:1022300088420BD3FFE70C484068401C002805D0BB
:10224000FFE709497320400248600AE006484068F9
:10225000401C002804D1FFE7034900204860FFE745
:10226000FFE702B080BDC046780620205864000019
:10227000015125026064000001E6000010B590B035
:1022800008920A46089903460EA803700D920CAAFC
:10229000118000780D990023D25E03F0C7F8002862
:1022A00004D0FFE70FA9012008808FE00D980EA948
:1022B00004910978CA00DD4905918A5A0421FFF783
:1022C00057FC024604980BA906910A700AAA0792C5
:1022D00000241480007809780CAB1B5F00F020F913
:1022E00004990598069B079A0978C900405A0D99E8
:1022F0001B785B00C95A1278891A884210DDFFE703
:102300000EA80078C100C948405A0D990BAA12784E
:102310005200895A0AAA5278891888424ADBFFE794
:102320000BA80078032804D1FFE70FA90A20088032
:102330004CE009AA0392002414800EA801900078B2
:102340000BA9029109780CAB1B5F00F0E9F801982A
:102350000299039A0078C300B448C05A0D9B0978CB
:102360004900C91849881278891A884211DDFFE7A7
:102370000EA80078C100AD48405A0D9A0BA9097803
:1023800049008918498809AA52788918884204DBCB
:10239000FFE70FA90A20088018E00EA800780B9923
:1023A000491C00230CAAD25EC9B200F013F80FA991
:1023B00008800BE00EA800780BA9097800230CAA6E
:1023C000D25E00F007F80FA90880FFE70FA8008889
:1023D00010B010BD80B58AB0034608A8037007ABE3
:1023E000197006A901910A800078C1008F48401831
:1023F0004068FEF753FC00903F480069FEF74EFC32
:1024000001460098FEF730FB3C4903F01DFBFEF748
:10241000DBFB0146019805AA118004AA0021118066
:1024200003AA1180405E01280EDBFFE707A80178B0
:102430004A003549895A04AA11800078410033487E
:10244000405A03A908800DE007A801784A002C49EA
:10245000895A04AA1180007841002A48405A03A9E9
:102460000880FFE705980499411A02A8018000221C
:10247000805E03A9895E884216DDFFE7002106A879
:10248000405E012808DBFFE707A8007841002348E9
:10249000405A09A908802BE007A8007841001E488F
:1024A000405A09A9088023E0002202A8805E03A9FF
:1024B000895E4942884216DAFFE7002106A8405E9D
:1024C000012808DBFFE707A8007841001148405ABF
:1024D00009A908800CE007A8007841000C48405A80
:1024E00009A9088004E0FFE709A90A200880FFE79E
:1024F00009A800880AB080BD5C06202000401C4668
:10250000525D0000625D00004A5D00005A5D0000FF
:10251000485C0000385C0000405C0000305C00005B
:1025200010B585B0044604A8047003AC2170029273
:1025300001A90B80029A00211170029A51703A4948
:1025400000910078C100394840180221405EFF2107
:102550002E31884206DBFFE70299052008700299B8
:1025600048705FE004A80078C1003048401802219C
:10257000405EC92815DBFFE7002101A8405E2D4918
:10258000884206DBFFE7029905200870029948702F
:1025900006E0029903200870029905204870FFE7C1
:1025A0003FE004A80078C100F54840180221405ED1
:1025B000652815DBFFE7002101A8405E1E4988421F
:1025C00006DBFFE70299052008700299487006E0D3
:1025D000029902200870029905204870FFE71FE069
:1025E000002101A8405E1249884207DCFFE7002174
:1025F00001A8405E0F4988420BDCFFE703A90A7877
:102600006846825C029B1A700978405C02994870A7
:1026100005E002990320087002994870FFE7FFE780
:10262000FFE7FFE705B010BD05000005000620200C
:10263000AD03000052FCFFFFC6FEFFFF80B500F0B7
:102640005DF80246CB486C214252405A002806D021
:10265000FFE7C7490878012210430870FFE7C54823
:102660007A21405AC007002806D0FFE7C049087801
:1026700010221043087005E0BD490878EF22104091
:102680000870FFE7BA480078C007002815D0FFE7B8
:10269000B7480078C006002806D4FFE7B4480078A1
:1026A0004007002808D5FFE700F094F9B049087802
:1026B000FE2210400870FFE715E0AD480078C00624
:1026C00000280FD4FFE7AA4800788007002809D522
:1026D000FFE7A94801F04CFEA54908780122104304
:1026E0000870FFE7FFE7A2490878FD221040087054
:1026F0000878FB221040087080BDC04680B583205A
:102700000022114602F030FC0449487800020978A2
:10271000411803480180008880BDC046F204202093
:10272000D400202080B588B090480068182813DCB9
:10273000FFE78E4800681721C94388420CDBFFE79A
:102740008B480078002806D1FFE7894908780222E3
:1027500010430870FFE707E185484078002855D10D
:10276000FFE700200790FFE7079807280DDCFFE749
:102770000799CA008248805A4A007D498918088111
:10278000FFE70798401C0790EEE77A48808E7A4969
:102790003A228A5C6421514388420DDAFFE774488B
:1027A0000078C007002806D0FFE7714908780422A6
:1027B00010430870FFE728E06E484821405A6E49F0
:1027C000C98F88420DDAFFE769480078C007002802
:1027D00006D0FFE766490878042210430870FFE737
:1027E00012E063480078C00700280CD1FFE760487A
:1027F0000078C006002806D4FFE75D490878022269
:1028000010430870FFE7FFE7FFE7FFE7584841780C
:10281000491C417055490A684168891841604078EF
:102820000A2800D09FE052480021417040680028EB
:1028300005D5FFE74E4840684042029003E04C480F
:1028400040680290FFE702980690069832286CD301
:10285000FFE706984949884267D8FFE700200590BE
:10286000FFE7059807285FDCFFE700200490404859
:10287000406801281CDBFFE70599CA004048805AE0
:102880004A003B4989180989884203DDFFE7002097
:1028900004900CE005994A00354880180089CA0068
:1028A0003749895A401AFEF7F1F90490FFE71BE017
:1028B0000599CA003248805A4A002D498918098969
:1028C000884203DAFFE7002004900CE00599CA0073
:1028D0002B48805A4A00264989180989401AFEF770
:1028E000D5F90490FFE7FFE70498264903F0ACF818
:1028F00001900698FEF7D2F901460198FEF7B4F868
:10290000FEF762F9014605984200194818308152D5
:1029100005994900405A174A89185C228852FFE7F6
:102920000598401C05909CE719E000200390FFE704
:102930000398072812DCFFE7039842000C48183080
:102940000121815203994900405A0A4A89185C22A0
:102950008852FFE70398401C0390E9E7FFE704492A
:1029600000204860FFE7FFE708B080BDE0062020B8
:10297000840620200A04202058600000400D030037
:10298000000620200024744984B0039002A801703E
:1029900069460020087001A90870FFE701A80078C7
:1029A00002A9097888420EDAFFE7039801A909789D
:1029B000415C0098401869460870FFE70198401C88
:1029C00001A90870EAE70098C143684601700078E1
:1029D00004B0704780B5034800210122FEF722FEB3
:1029E00080BDC0463593000080B584B0014603A881
:1029F000018002A900220A80039A0A704078487078
:102A00003E200222019201F079F8019802F028FE9E
:102A100004B080BD80B58AB005A90191014609A81E
:102A200002900170007801F089FA0298007802F0B3
:102A3000EDFB0220039002F013FE0298007801F0F3
:102A400051FD039802F00CFE06A900200870FFE774
:102A500006A8007809A90978884250DAFFE70198AA
:102A600007AA0021117001690C204843083805A904
:102A70000870FFE705A8007809A90A780C215143DE
:102A8000891E884234DAFFE705A8007809A90A7888
:102A90000C2151430839884213D1FFE705A8037878
:102AA0001948C05C052210401849C95C1140884291
:102AB00006D0FFE701988068401C07A90870FFE76F
:102AC0000FE005A802781048805C1049895C8842B4
:102AD00006D0FFE701988068401C07A90870FFE74F
:102AE000FFE7FFE701980068401C05A90870C1E7EF
:102AF000FFE701984068401C06A90870A8E708A8ED
:102B000000780AB080BDC0469105202086042020B0
:102B100080B58AB005A90191014609A8029001700B
:102B2000007801F00BFA0298007802F0BFFB022057
:102B3000039002F095FD0298007801F00BFD0398D8
:102B400002F08EFD06A900200870FFE706A80078B5
:102B500009A90978884232DAFFE7019807AA00211B
:102B6000117001690C204843083805A90870FFE777
:102B700005A8007809A90A780C215143891E8842CA
:102B800016DAFFE705A802780F48805C0F49895CD8
:102B9000884206D0FFE701988068401C07A90870AA
:102BA000FFE7FFE701980068401C05A90870DFE710
:102BB000FFE701984068401C06A90870C6E708A80E
:102BC00000780AB080BDC046B5052020AA042020A8
:102BD000811E091F00BFFCD2704784B00390029190
:102BE0000192039800680090009801998843009032
:102BF00000980299019A114008430399086004B0B3
:102C0000704784B00390029101920398006800908D
:102C1000009801998843009000980299019A114008
:102C200008430399086004B0704783B000910146DF
:102C30000098029101A908700298097809014118C9
:102C400009204202885802239843885003B07047F5
:102C500083B0009101460098029101A90870029882
:102C600009780901411809204202885802231843B3
:102C7000885003B0704783B00091014600980291DC
:102C800001A9087002980978090141180920420237
:102C9000885802231843885003B0704770B50B0161
:102CA000C31854689568254394892C43156956695F
:102CB0002543D48924012C4335012543092464028A
:102CC0001D51137852781A43BF231A4089004018C7
:102CD000024944589C43A218425070BD1011000094
:102CE00084B0009202460098039202AA11700190EB
:102CF000019803991278120189180B4A885004B080
:102D00007047C04684B0009202460098039202AA1F
:102D10001170019001980399127812018918024AE2
:102D2000885004B07047C0460812000084B000927A
:102D300002460098039202AA11700190019803992B
:102D40001278120189180B4A885004B07047C046A7
:102D500084B0009202460098039202AA117001907A
:102D600001980399127812018918024A885004B018
:102D70007047C0460412000085B000920A460099D0
:102D8000019202460198049203AA107002A80180E1
:102D9000008804991278120189180D4A885005B0EC
:102DA0007047C04685B000920A46009901920246DB
:102DB0000198049203AA107002A801800088049967
:102DC000127812018918024A885005B07047C0462F
:102DD0000C12000080B502231343034A835082186B
:102DE000D16102F0E5FD80BD0411000070B5112332
:102DF0001B02C41801256560FF2610366662216239
:102E000011682163C55070BDF0B583B002920E46C3
:102E10000190354C20680527276007252840334B53
:102E200019682060226827602A4018682260304BA9
:102E30000096B60A89048A0F314609D02D49084008
:102E4000511C02F0B9FC01463046FDF7D5F9284B7C
:102E50000198C018019022682760244803682A401E
:102E600022602268276003682A40226001229302C0
:102E7000029898420CD05302984210D10098C30B8C
:102E80000FD1B240019801689143016003B0F0BDD9
:102E90001F210E40B2400198016C9143016403B0C0
:102EA000F0BDFF2911D8236827602B400F4D2D68F6
:102EB0002360AB049B0F00D12039C9088A400198D8
:102EC00041689143416003B0F0BD1302FF33994262
:102ED000E5D2FF23DB43C918C9088A4001988168FD
:102EE0009143816003B0F0BD001340401800C4411D
:102EF000D0110000FF0F000082B0019000910098F7
:102F0000019995225201885002B0704782B0019019
:102F100000910098019995225201885002B07047A3
:102F200081B0009000988100324A885801235B06E6
:102F30001843885001B0704782B00190009100980A
:102F40000199024A885002B07047C046D012000072
:102F500081B0009000990120C202D148885001B090
:102F60007047C04681B0009000988100214A8120BE
:102F7000885001B07047C04681B000900098810031
:102F80001C4A0020885001B07047C04682B00190B2
:102F9000009100981049084301998900154A88500A
:102FA00002B0704710B584B0079C069C0390029154
:102FB00001920093029801990843009908430699E9
:102FC0000843079908430449084303998900094ABB
:102FD000885004B010BDC0468000040082B001904B
:102FE000009100988021084301998900014A885086
:102FF00002B070470480424081B000900099C84AF6
:10300000C848885001B0704782B001900091009884
:103010000199024A885002B07047C04690120000E1
:1030200082B00190009100980199024A885002B044
:103030007047C046B012000081B00090009909208E
:103040004202885801231B021843885001B0704780
:1030500081B000900099084A88580123184388508D
:1030600001B0704781B000900099034A885804234A
:103070001843885001B070472812000081B00090BA
:1030800000990120C2028648885001B07047C046AE
:1030900010B5002A0FD091235B01C3180020DC6912
:1030A0002405240F05D00C5C1C60401C8242F6D124
:1030B000104680B210BD002080B210BD524A835825
:1030C0000121C9030B438350801842681207FCD1C9
:1030D00002688A43026070474B4A835880210B4341
:1030E000835080180F221202436813400122D2023B
:1030F0009342F7D102688A430260704781B0009022
:1031000000980249405801B07047C04618120000AC
:1031100081B000900098812149014058C0B201B0AF
:103120007047000081B000900098044940580F217A
:1031300008404142484101B07047C0463C1200007F
:1031400081B00090009802494058C0B201B0704769
:103150001C12000081B000900099714A714888509B
:1031600001B0704781B000900099404A002088501B
:1031700001B0704780B584B0019101460198039178
:1031800002A90880039809225202801809880322A4
:103190005202FFF722FD04B080BD70B50A780C23FF
:1031A0001A400124240305196E689E43B2186A6010
:1031B000497807221140035993435918015170BDB2
:1031C00080B584B0019101460198039102A908805D
:1031D00003980D4A8018098807221202FFF7FDFCA8
:1031E00004B080BD80B584B001910146019803917F
:1031F00002A908700398044A801809780722FFF78B
:10320000ECFC04B080BDC0463812000082B00190D2
:103210006846017000780199014A885002B07047F1
:103220002412000010B586B0019202460198059262
:10323000049103AA107002A8038005980949401858
:103240000499490012781143074AFFF7DAFC059800
:103250000649401802990904C91D054AFFF7D1FC27
:1032600006B010BD10120000FF070000141200008D
:103270000700FF0F81B000900099034A885801238E
:103280001843885001B070470411000081B00090CD
:1032900000990120C2028148885001B07047C046A1
:1032A00001000026B0B51122120283580C4C1C40BC
:1032B0000B894D881D438B792B430A4D1D402B19DB
:1032C00083508B88CC791C43097821435D239B0074
:1032D0001940801842689A4389184160B0BDC046C1
:1032E00080CCFFFF7F33000081B000900098074939
:1032F000405804210840800801B070470349401835
:1033000001684907FCD4006AC0B270471011000080
:1033100081B000900099A64AA648885001B0704735
:1033200004080000030000B180B582B00190009154
:103330000198E24940180099024AFFF74EFC02B09A
:1033400080BDC046FF03000010B5012212038318A0
:103350000C785C604978815010BD000080B584B065
:1033600000920A4601460098039102A90A7001AA38
:1033700010700398964BC0180978127811433F22B9
:10338000FFF72BFC04B080BD82B00190684601704D
:103390000078019945229201885002B070470000E0
:1033A000064908680122904308607047034908688D
:1033B00001221202904308607047C04608010B408A
:1033C0000349086801221203104308607047C04691
:1033D00004010B401A4800687047C04681B001469E
:1033E0006846017000780249086001B07047C04625
:1033F00008030B40B0B5FF2204320E490B6893431B
:103400008278032414400278120212191A430A60C7
:10341000094A0A4B13600A4C25686D05FCD54078B3
:10342000002803D00868102404430C60581C106066
:10343000B0BDC04614010B4014030B4001000091C5
:1034400004020B4080B582B0014601A801700178EA
:1034500002480322FFF7C1FB02B080BD00010B4010
:1034600081B000900099B24A0120885001B07047A5
:1034700082B001900091009B0199804A88581843BE
:10348000885002B07047C04681B00090009901207A
:10349000C2028048885001B07047C0460100002633
:1034A00081B000900098812149014058C0B201B01C
:1034B00070470000B0B54A68364BC2504A4A80187F
:1034C0000A78222A58D8930001A4E3589F46C046A0
:1034D0006F350000793500006F3500007935000048
:1034E0007935000079350000793500007935000024
:1034F0007935000079350000793500007935000014
:103500007935000079350000793500007935000003
:103510005D350000793500005D350000793500002B
:1035200079350000793500007935000079350000E3
:1035300079350000793500007935000079350000D3
:1035400079350000793500007935000079350000C3
:103550005D350000793500005D35000003231B0751
:1035600004689C4301235B07E318036004E0032322
:103570001B0704689C4304600B69C360CB68064C5E
:103580001C40C36A054D1D402B19C362097A1143C3
:103590000160B0BD08180000777702008888FDFF41
:1035A00081B000900099674A6748885001B0704721
:1035B00004080000030000B110B5012212038318B3
:1035C0000C789C604B7883508978914A815010BD6B
:1035D0000C11000081B000900099034A8858012323
:1035E0001843885001B070470418000081B0009063
:1035F000009911200202885801235B0498438850E7
:1036000001B0704781B000900099112002028858E3
:1036100001231843885001B07047000082B0019028
:10362000009100980199024A885002B07047C04644
:103630005810000081B000900099112002028858B3
:1036400001235B041843885001B0704781B000909B
:10365000009911200202885801235B041843885006
:1036600001B0704782B001900091009B0199034A1C
:1036700088581843885002B07047C0462810000090
:1036800081B0009000990120C2020248885001B028
:103690007047C0460100002610B5002A0CD0244B0C
:1036A000C31800201C68240605D40C5C9C61401CD7
:1036B0008242F7D1104610BD002010BD0811000055
:1036C00081B000900098812149014058C0B201B0FA
:1036D00070470000B0B51122120283580124A343A1
:1036E00083500B888C781C438B882343094C1C40E7
:1036F0008358094D1D40631983508B79CC791C4345
:10370000097A21437E231940801842689A43511850
:103710004160B0BD18670000E798FDFF81B00090E0
:103720000098034940580121084001B07047C04645
:103730000811000081B000900099024A02488850A8
:1037400001B0704704080000030000B180B584B0E8
:1037500003900291019203980B49401802990B4A79
:10376000FFF73BFA03980A49401801993F22FFF7F7
:1037700034FA0399074A8818895801221140FFF743
:103780002CFA04B080BDC04610110000FFFF0000FD
:10379000141100000411000010B501221203831857
:1037A0000C789C604978815010BD80B582B0019042
:1037B0000091019811210902401800990322D203B7
:1037C000FFF70BFA02B080BD80B584B001910146CD
:1037D0000198039102A9087003980D4A801809788E
:1037E0007022FFF7FAF904B080BDC04680B584B0FE
:1037F000019101460198039102A908700398044AB7
:10380000801809780722FFF7E8F904B080BDC046A8
:103810000C1100007047000081B066497620085AFC
:10382000000478228A5A8018009000984088088600
:1038300000980068488601B07047C04680B588B0DF
:1038400003910146039807AB197006A9088005A8E3
:10385000027004AA00231380069B137049785170EC
:10386000007800280ED1FFE707A80078104902224F
:10387000029200F0AFF8029801F0F2FE029801F017
:10388000EFFEFFE705A8007801280ED1FFE707A8A3
:10389000007804A90222019200F030F9019801F0A9
:1038A000DFFE019801F0DCFEFFE708B080BDC046F6
:1038B000120520207047000080B582B03B4801907F
:1038C000001D164900F000FE019840680A2805D343
:1038D000FFE736484068152806D3FFE73349142030
:1038E00048603348886016E0304840680A280BD3A7
:1038F000FFE72E4840680E2806D8FFE72B490A202C
:1039000048600020886005E0284914204860284865
:103910008860FFE7FFE702B080BDC0466864000032
:1039200080B582B020480068012815DBFFE71E48FB
:103930000068400001901D4880680199884206D9BE
:10394000FFE7019A19498868801A886003E01749DF
:1039500000208860FFE714E0144880681249096875
:10396000134A8918884207D2FFE70F4802680F49B7
:103970008868801A886003E00C490D488860FFE77A
:10398000FFE70A48009081680A204843084901F08F
:1039900013FF014600980A314160406805494C22F6
:1039A000885202B080BDC046E0062020D406202008
:1039B000C0C36C000A04202080B57D48FFF7A8FB37
:1039C000082804D1FFE74C490120087000E0FFE718
:1039D00080BDC04680B58CB00BAB069318700A91C1
:1039E00009A905910A700A980978FCF701FC059865
:1039F000069908AB00221A7002786D48FFF748FB61
:103A0000FFE76B48FFF77AFB8006002801D4FFE749
:103A1000F7E76748082100220123FFF703FCFFE7CF
:103A20006348FFF76BFB4006002801D5FFE7F7E787
:103A3000FFE75F48FFF762FB8006002801D4FFE73D
:103A4000F7E75B480490FFF747FB049809A90B7858
:103A500008210122FFF7E6FB07A900200870FFE715
:103A600007A8007809A90978884243DAFFE7FFE749
:103A70004F48FFF757FB01460020002903900DD067
:103A8000FFE708A80178012000220192292902906D
:103A900001DB0198029002980390FFE70398C007AA
:103AA000002808D0FFE7502001F0F5FD0898401CE1
:103AB00008A90870DCE708A80078292807DBFFE7D9
:103AC0000D490120087008A90020087012E008A91B
:103AD00000200870084908703548FFF731FB0A9943
:103AE00007AA12788854FFE7FFE70798401C07A948
:103AF0000870B5E70CB080BDD600202080B588B036
:103B000007AB1870069105A802700020049003907E
:103B1000079903AA117001AA0121117002A9087066
:103B2000FFE702A8007805A90978884211DAFFE7C3
:103B3000069802A90978405C01A90B7803AAD05421
:103B40000198401C0870FFE70298401C02A9087009
:103B5000E7E705A80078421C154803A9FFF798FA83
:103B6000FFE71348FFF7CAFA8006002801D4FFE7F1
:103B7000F7E705A80078431C0D4808210022FFF74D
:103B800051FBFFE70A48FFF7B9FA4006002801D5C4
:103B9000FFE7F7E7FFE70648FFF7B0FA80060028DF
:103BA00001D4FFE7F7E70248FFF796FA08B080BDB7
:103BB00000200F4080B596B0159014A8017013A88E
:103BC00002800021405E012800DAB7E0002113A83E
:103BD000405EB94988422CDBFFE700201290FFE7E6
:103BE0001298032824DCFFE714A800788100B44869
:103BF0004058129949000891405A0990002113A891
:103C0000405EB4494018FDF741F8B04901F01CFF8F
:103C1000AF49FCF729FFFCF7D7FF089A014609983E
:103C2000401815998852FFE71298401C1290D7E768
:103C300083E0002113A8405EFF213A3188422EDC48
:103C4000FFE700201190FFE71198032826DCFFE72B
:103C500014A8007881009A484058119949000691AB
:103C60004018008A0790002113A8415E9D20400063
:103C7000401AFDF70BF8954901F0E6FE9449FCF770
:103C8000F3FEFCF7A1FF069A01460798401A159922
:103C90008852FFE71198401C1190D5E74CE00021B5
:103CA00013A8405E8549884222DBFFE70020109080
:103CB000FFE7109803281ADCFFE713A8028814A86E
:103CC000007881007E4840581099490043181B89AC
:103CD000405A00907B487C4901F04AFA1599109AA5
:103CE00052008852FFE71098401C1090E1E722E054
:103CF00000200F90FFE70F9803281BDCFFE713A8B5
:103D0000028814A8007881006D4840580F99490036
:103D10004018038A008900909D204000694901F005
:103D200027FA15990F9A52008852FFE70F98401C06
:103D30000F90E0E7FFE7FFE7FFE7BAE0002113A8F5
:103D4000405E01F05BFB01460EA8018000885A49E5
:103D500088422CDBFFE700200D90FFE70D98032839
:103D600024DCFFE714A800788100554840580D99DD
:103D7000490004914018008D05900EA8008855490F
:103D80004018FCF783FF514901F05EFE5049FCF7F3
:103D90006BFEFCF719FF049A01460598401A159925
:103DA0008852FFE70D98401C0D90D7E780E00EA8E1
:103DB0000088FF213A3188422DDCFFE700200C907B
:103DC000FFE70C98032825DCFFE714A800788100A2
:103DD0003B4840580C99490002914018008B0390D1
:103DE0000EA801889D204000401AFCF74FFF37497C
:103DF00001F02AFE3649FCF737FEFCF7E5FE029A91
:103E000001460398401815998852FFE70C98401C0A
:103E10000C90D6E74BE00EA800882849884222DBA8
:103E2000FFE700200B90FFE70B9803281ADCFFE761
:103E30000EA8028814A800788100214840580B99E8
:103E400049004018038C008D00901E481E4901F067
:103E50008FF915990B9A52008852FFE70B98401C76
:103E60000B90E1E722E000200A90FFE70A98032880
:103E70001BDCFFE70EA8028814A800788100104818
:103E800040580A9949004018038B008C00909D20EF
:103E900040000C4901F06CF915990A9A52008852B9
:103EA000FFE70A98401C0A90E0E7FFE7FFE7FFE71B
:103EB000FFE716B080BDC04623060000AF03000038
:103EC00034002020AE030000220600000000404025
:103ED0000000C842DEF9FFFF85B0049003A801701E
:103EE00002A910200880694600200870FFE7684694
:103EF000007803A90978884219DAFFE702A908883F
:103F0000C009C0B2049A6B461B78D25C504001AA2B
:103F100010800298000212885300074AD25A50407B
:103F20000880FFE70098401C69460870DFE70298A8
:103F3000400080B205B07047065E000080B582B0D8
:103F400001A9087069460A20087000F085FCFFE7A7
:103F50006A461078411E1170002804D0FFE7FF2048
:103F600000F080FCF4E700F071FC02B080BD0000BE
:103F700080B584B003A90191002000900870E0484A
:103F800002900078FFF7DAFF0298007801F03EF91E
:103F90000298007801F08AF902980078FEF73AFD5D
:103FA00002980078FEF7B4FD009A01990298007813
:103FB00089568A000849895C00F0AAF902980078BD
:103FC000FFF7BCFF0298007801F020F90298007812
:103FD000FFF7B4FF04B080BD085C0000F0B587B007
:103FE00006A900200870B74B0593B74ADA61B74AB3
:103FF0009A61B74A5A61B74A1A61B74ADA60B74A52
:104000009A60B74A5A60B74A1A60B74A6E23D370AB
:104010003D239370012353701070B44A9E23D370D4
:10402000B1239370242353701070B14A0A23D370C4
:104030002B239370022353701070AE4AC823D370A1
:104040002C239370262353701070AB4C07222270E0
:1040500021236370A94B1A7022225A700870FFE75F
:1040600006A80078A6490978884200DB24E1A44C20
:10407000227806A902910B78D8438018C0009A4A8A
:104080008018001DCC2703973A465A43B74D049534
:10409000AA1890230093D0500A7838465043281825
:1040A000C2581078FE26304010700A7838465043C7
:1040B0002818C25810780226304310700A78384603
:1040C00050432818C25810780426304310700A78DC
:1040D000384650432818C2581078F82630431070DC
:1040E0000A78384650432818C258002050700A7881
:1040F000394651436918C9588E78F02216408E709F
:1041000002990E78394671436918C9588E7816435A
:104110008E7002990E78394671436918C958FF2686
:10412000CE70029909783E464E430299AE19F65870
:1041300030710E78394671436918CE587179114043
:10414000029A71711678394671436918CE5873799D
:104150000F210B40737123781678F243D218D200E6
:10416000624BD218131D3A467243AA189426019640
:104170009351029A13783A465A43AA1893591A78D7
:104180000A431A70029B1A785743039AED19AF59E4
:104190003D780D4004993D701F7815467D434919BF
:1041A0008F597D78FC210D4004997D701F7815464C
:1041B0007D4349198F597D78FB210D4004997D700D
:1041C0001F7815467D4349198F597D78F7210D4099
:1041D00004997D701F7815467D4349198F597D7864
:1041E000CF210D4004997D701F7815467D434919F4
:1041F0008F597D78BF210D4004997D701F78154639
:104200007D4349198F597D787F210D4004997D7038
:104210001F7815467D434D19AD59A8701F78154676
:104220007D434D19AD59E8701F7815467D434D19F2
:10423000AD5928711F7815467D434D19AD596871E8
:1042400026781F78FD43AD19ED00C14EAD192D1D27
:1042500016467E438E199827F55126781F78FD4320
:10426000AD19ED00D64EAD192D1D16467E438E19A3
:104270009C27F55125781E78F4436419E4001E4DFF
:104280006419241D154675434D19A026AC511E789E
:10429000F4001A4D6419241D154675434D19A426C2
:1042A000AC511B785A438918B9228854FFE7069805
:1042B000401C06A90870D3E60A2001F0D1F907B026
:1042C000F0BDC046C8072020755D00008A5D000073
:1042D000705D0000805D0000855D0000905D000065
:1042E0006A5D00007A5D000091052020B505202060
:1042F00086042020AA042020D9052020CE042020D6
:104300004C00202080B5FFF769FEFFF731FE80BD2D
:1043100083B002AA107001A801700078022801DBA6
:10432000FFE721E0694600200870FFE76846007853
:1043300002A90978884217DAFFE701A802786846DF
:104340000078CC2141430948401890214158087811
:1043500001231A40FE23184080180870FFE70098D8
:10436000401C69460870E1E703B07047D800202080
:1043700080B582B0019001982B21415C0248012256
:10438000FDF750F902B080BD3593000080B586B0CE
:1043900037480078072805D1FFE73548C0790A2853
:1043A00004D0FFE73349012008705FE0304A91787C
:1043B00005A8018005990902D27889180180008832
:1043C000002805D4FFE705A800883E2801DBFFE7A9
:1043D0004CE027484078002813D1FFE705A8007873
:1043E00000F04AF823490020029008702049039108
:1043F000C871887148710871C870887048700870F9
:1044000034E01B48407801282BD1FFE719490020F0
:104410000870174A107904A908800498000252799C
:1044200080180880049905A802885300254AD152B3
:1044300000883B2805D0FFE705A800883C2803D169
:10444000FFE7FFF7E9F9FFE7094900910020019034
:10445000C871887148710871C87088704870087098
:1044600003E004490120087000E0FFE706B080BDCA
:10447000140520209005202010B582B001AB1870E3
:104480000D48072101701121417000218170019AAE
:10449000C2701A785400EA4A1419647804711B78BF
:1044A0005B00D25A427181710A21C171082100F06A
:1044B00031FE02B010BDC0461C052020E0497B2023
:1044C000888170470A04202083B002900191002067
:1044D000009001980090009800680299086003B06D
:1044E0007047000080B584B003A9087000F0B4F9EB
:1044F00017480190007800F0B5F90198407800F075
:10450000B1F90198807800F0ADF90198C07800F019
:10451000A9F902A904200870FFE702A8007803A9FE
:104520000978C900091D88420DDAFFE7FF2000F075
:1045300099F902A90A7806498854FFE70298401CB5
:1045400002A90870E9E700F081F904B080BDC04617
:104550008604202080B584B003A9087000F07CF99F
:1045600017480190007800F07DF90198407800F03C
:1045700079F90198807800F075F90198C07800F019
:1045800071F902A904200870FFE702A8007803A9C6
:104590000978C900091D88420DDAFFE7FF2000F005
:1045A00061F902A90A7806498854FFE70298401C7D
:1045B00002A90870E9E700F049F904B080BDC046DF
:1045C000AA04202080B588B007A9088060484088E8
:1045D0006049884206DBFFE75D4800885E49884203
:1045E00001DBFFE7B2E05D48007801281CD1FFE75E
:1045F0005A4A00205070079951800690FFE70698AC
:1046000007280DDCFFE70699CA005548805A4A0082
:1046100052498918C880FFE70698401C0690EEE7CB
:104620004E490220087091E04C480078022830D1B1
:10463000FFE7079849494988401A00B200F0DEFEBA
:10464000014605A801800021405E322808DBFFE713
:10465000059842498880079848800420087017E030
:1046600007983E49488000200490FFE704980728F7
:104670000DDCFFE70499CA003948805A4A003749DF
:104680008918C880FFE70498401C0490EEE7FFE714
:104690005CE032480078042858D1FFE707982F499A
:1046A0004988401A00B200F0A9FE022849DCFFE761
:1046B0002A484178491C417040780A2840D1FFE7D8
:1046C00000200390FFE70398072835DCFFE7234825
:1046D0000421405E312804DCFFE7204901200870F6
:1046E000FFE70399CA001E48805A4A001B490191FE
:1046F0008918C988401A00B200F080FEFCF7C6FA9B
:104700004C4901F0A1F90146019800910421405E55
:10471000FCF7BCFA01460098FCF7A6F90290029853
:10472000FCF752FA0199039A52008918C882FFE7F0
:104730000398401C0390C6E7084901200870FFE772
:1047400003E0064901200870FFE7FFE708B080BDDD
:104750005C062020160D00005D0D0000AC06202038
:104760000006202080B584B003A9002008800290B4
:104770002C4801902C480068002807D5FFE72A48FC
:1047800002682A490868801A086006E0264802681C
:104790002649086880180860FFE724480068244913
:1047A000884207D3FFE72149002008604868401C81
:1047B0004860FFE71D484068032141431948401AFB
:1047C00002900298FCF76AFA00900198FCF766FAEA
:1047D00001460098FCF748F9164901F035F9FCF755
:1047E000F3F9014603A8018000881349884205DBDC
:1047F000FFE7134946221448885210E003A80088B6
:104800000E49884205DCFFE70D4946220D488852D3
:1048100004E003980A4946228852FFE7FFE704B004
:1048200080BDC04600FC0800E0062020780620205D
:104830000051250200401C46DF260000571B0000E7
:104840000A042020581B00001027000080B5DF4814
:104850004021FEF7D9FB80BD80B5DC484021FEF742
:1048600055FB80BD80B586B0014604A8017002AA40
:104870000021019111800178D848FEF785FD01984B
:1048800003A90880FFE703A80088312806DCFFE7BA
:10489000FFE70398401C03A90880F4E702A9002061
:1048A0000880FFE7CD48FEF71FFD00280DD0FFE789
:1048B0000298411C02A801800088332804DBFFE72E
:1048C00005A9002008700AE0ECE7C448FEF716FDD1
:1048D000014605480170007805A90870FFE705A8A2
:1048E000007806B080BDC046E807202080B5034AA6
:1048F00003480021FEF7D2F980BDC04608600000E1
:1049000000A0424080B5FFF7F1FF80BD80B58CB0BC
:104910000720FEF731FB0820FEF72EFB002305934E
:1049200001930120C004039000900F200690042101
:1049300004911A46FEF736FB03980499059B0193F0
:1049400000900E2007901A46FEF72CFB0698FEF703
:10495000E7FA0798FEF7E4FA142002210891FEF71F
:104960003DFB08991520FEF711FB19200321099141
:10497000FEF734FB09991820FEF730FB0999172040
:10498000FEF704FB3120FEF7EDFA1620FEF7EAFAF7
:104990008E480A9004490B91FEF7AEFA0A980B99DB
:1049A000FEF7CAFA0CB080BD4000400080B582B06E
:1049B000114988480190FEF7F0FB01980321490254
:1049C000FEF7D8FB0198FEF737FB0198FEF7CAFB0C
:1049D00001981F21FEF71AFC01980121FEF702FC45
:1049E00001980021FEF7ECFB0198FEF73BFB0198D4
:1049F000FEF72EFB02B080BD2060000080B582B0C3
:104A00000B4976480190FEF79FFC01980949FEF793
:104A100049FC01981321FEF787FC0198102102221E
:104A2000FEF79CFC0198FEF725FC02B080BDC04655
:104A3000256000002860000080B5FFE7FEF7CAFC93
:104A4000012189020840884201D0FFE7F6E780BDD6
:104A500080B582B000200190FEF7C0FC0198FEF7FF
:104A6000F1FCFEF79DFCFEF7A1FC0348FEF7C2FC3B
:104A7000FEF7A6FC02B080BD2260000080B582B0C7
:104A80000A4953480190FEF797FD01980849FEF73F
:104A900011FD01980121FEF7EBFC1220002100F02E
:104AA0006BFC0198FEF7DCFC02B080BD32600000B8
:104AB0003860000080B582B0184947480190FEF781
:104AC0006BFE01981649FEF705FE01980021FEF7DE
:104AD0006CFE019811211722FEF738FE0198012182
:104AE0000091C903FEF7BEFD00990F2000F044FCC1
:104AF000009901988902FEF791FD0198FEF79AFD51
:104B000001987021FEF760FE01980221FEF76EFE0B
:104B10000198FEF777FD02B080BDC0464C600000F2
:104B20004E60000080B500F01DF8FFF7EFFEFFF7C4
:104B30008FFFFFF7A3FFFFF739FFFFF7BBFFFFF77B
:104B40005DFFFFF7DFFEFFF777FF0449B822002083
:104B5000885403492422885480BDC0460C07202075
:104B6000E406202080B586B017480090FEF744FA8E
:104B700016480190FEF740FA15480290FEF710FD26
:104B800014480390FEF7E6FA13480490FEF7D2FDAE
:104B900012480590FEF7BCFB0098FEF7D9F9019882
:104BA000FEF7D6F90298FEF76FFC0398FEF766FA57
:104BB0000498FEF765FD0598FEF768FB1020FEF7E8
:104BC00007F806B080BDC04600000A4000200A4039
:104BD0000000864000200F400080104000A04640AA
:104BE000B0B58EB00A4601460DA801700CA90A8026
:104BF0000BAB0A221A8000780022895E00F0D6FCF6
:104C0000002874D0FFE700200A90099008900790D0
:104C1000069005900DA80078C100BD484018428854
:104C20003D480521FCF7A4FF014604A80170007867
:104C3000042809D1FFE704A8017800220CA8825EAD
:104C400009A8FEF7B7FF39E004A801780022029214
:104C50000CA80190825E07A8FEF7ACFF0199029AAA
:104C60000498401C8A5EC1B205A8FEF7A3FF029813
:104C70000390FFE7039803281FDCFFE704A80078F0
:104C8000420025488118805A49880DAA1278D3001D
:104C90009F4AD2185288039B5D0007AB5B5B05AC53
:104CA000645B009400F064FA03994A0009A98852F1
:104CB000FFE70398401C0390DCE7FFE70DA80078AE
:104CC00000220CA98A5E09A9FDF7D8FA01460BA8B3
:104CD000018000880A2809D0FFE70DA8007801228A
:104CE00082406A49088910430881FFE70BE00DA85C
:104CF00000780122824065490889904308810BA908
:104D00000A200880FFE70DA800780BA9098800F0A9
:104D100005F80EB0B0BDC046405D000010B588B0CB
:104D200007AA107006A801800088FBF7B7FF039060
:104D300054480068FBF7AAFF0146039800F084FE80
:104D40005149FBF791FEFBF73FFF059000200490CF
:104D50004E480088C006002804D5FFE7494800688F
:104D60000490FFE7059801281DDBFFE707A80078FE
:104D7000C100674840184068059988420AD9FFE792
:104D8000059A07A80078C100614841184868801A50
:104D9000486007E007A80078C1005D48411800207E
:104DA0004860FFE724E007A80078C1005848401891
:104DB000406856490969059A8918049A89188842F1
:104DC0000CD2FFE705980499421807A80078C100A3
:104DD0004F4841184868801A486008E04B4800690D
:104DE00007A90978CA004A4989184860FFE7FFE720
:104DF0004648006900280BD0FFE707A80078C100EB
:104E000043484018406841490969884209D9FFE789
:104E100007A801781F48405C42009B491E48885201
:104E20001DE007A800780290C1003948401840688A
:104E3000FBF734FF019035480069FBF72FFF01466F
:104E40000198FBF711FE124900F0FEFDFBF7BCFED6
:104E5000029A1049895C4A008B498852FFE707A9EA
:104E60000B78DA002A48821852689C003D4B1A5190
:104E70000978CA00801840884A000849885208B05A
:104E800010BDC046E0062020000020414006202042
:104E900000401C46285C0000D2040000640520206D
:104EA00081B06946002008700870FFE76846007806
:104EB00007280DDCFFE768460078C1001448411858
:104EC00000204860FFE70098401C69460870EDE745
:104ED00001B0704781B06946002008700870FFE794
:104EE0006846007807280EDCFFE708480069694635
:104EF0000978CA00064989184860FFE70098401CF5
:104F000069460870ECE701B07047C0465C06202097
:104F10000006202080B584B003A9088002A90020E3
:104F2000009008700F4A0192D06190615061106149
:104F3000D0609060506010600870FFE702A80078B1
:104F400007280DDCFFE702A80078002203A9895E8C
:104F5000FFF746FEFFE70298401C02A90870EDE744
:104F600004B080BD4405202080B58EB00891034672
:104F700008980DA90B800CAB18800BA802700022BA
:104F80000A9209AB1A800D9B0AAA137049785170D6
:104F9000007800280FD1FFE73E200AA902220792DD
:104FA000FEF7ACFD079800F05BFB2849402020226B
:104FB000FEF710FD48E00BA8007801281DD1FFE79F
:104FC0000C980AA9049188703E2003220592FEF7EE
:104FD00095FD0120069000F043FB04980599FDF72C
:104FE000D3FC09A908700520487060200222FEF752
:104FF00085FD069800F034FB25E00BA80078022818
:1050000020D1FFE70C980AA9019188700CA840787C
:10501000C8703E2004220292FEF770FD012003902A
:1050200000F01EFB01980299FDF7AEFC09A908707B
:105030000620487060200222FEF760FD039800F011
:105040000FFBFFE7FFE7FFE70EB080BDF204202073
:1050500080B50C48FEF724FA012811D1FFE70A4871
:10506000C08D0A49884204D1FFE707490020C8855E
:10507000FFE70549C88D401CC885FCF791F900E0A1
:10508000FFE780BD000086400A042020FFFF0000EB
:105090007047000080B53548FEF712FB102803D199
:1050A000FFE7FFF773F900E0FFE780BD80B584B04C
:1050B0001548009000210291C17181714171017107
:1050C000C17081704170017010480190FDF7ADFD15
:1050D000019802990E4AFDF73BFE009A0198029949
:1050E000FDF710FE019802990822FDF75BFE1F48AC
:1050F0000390FEF77BFA01980299FDF7BCFD039837
:10510000FEF7A4FA04B080BD1405202000A04240A0
:105110002491104080B584B0039002A8017001A9C9
:1051200000200870FFE701A8007802A909788842EA
:1051300019DAFFE7039801A900910A78811802A8FB
:105140000078821A0948FEF7A7FA009902460198EA
:1051500080180870FFE70548FEF7E0FA002801D044
:10516000FFE7F8E7DFE7012004B080BD00801040D2
:10517000B0B588B014460D4601460C9A06A80180C9
:1051800005A90D8004AD2C8003AC238002AB1A80EE
:1051900000880988884207D0FFE703A8008802A991
:1051A0000988884204D1FFE7039807A9088015E021
:1051B000029803A909880191401A01B204A8008845
:1051C00006AA1288801A484305A90988891A00F09E
:1051D00015FB0199401807A90880FFE707A8008878
:1051E00008B0B0BD80B584B003900291029901204F
:1051F000420205480190FDF707FE01980299039AC3
:10520000FDF7F4FD04B080BD00D00C4080B586B041
:1052100005A9087004A900200870FFE704A8007819
:1052200005A90978884220DAFFE704A800900078F1
:10523000C0001D4901914018001D0621FEF74CFEDB
:105240000099019A034602A8038040780B78DB009E
:105250009B18987202980978C9008918C872FFE7EC
:105260000498401C04A90870D8E7FFF7F5FA03A9D1
:1052700000200870FFE703A8007805A90978C90095
:10528000091D88420CDAFFE703A801780648405C54
:10529000FFF7E8FAFFE70398401C03A90870EAE764
:1052A000FFF7D4FA06B080BD9105202080B586B006
:1052B00005A9087004A900200870FFE704A8007879
:1052C00005A90978884220DAFFE704A80090007851
:1052D000C0001D4901914018001D0621FEF7FCFD8C
:1052E0000099019A034602A8038040780B78DB00FE
:1052F0009B18987202980978C9008918C872FFE74C
:105300000498401C04A90870D8E7FFF7A5FA03A980
:1053100000200870FFE703A8007805A90978C900F4
:10532000091D88420CDAFFE703A801780648405CB3
:10533000FFF798FAFFE70398401C03A90870EAE713
:10534000FFF784FA06B080BDB505202081B0014684
:105350006846017000214056002809D4FFE76846DE
:1053600001781F2001400120884002490860FFE7C2
:1053700001B0704700E100E070B582B0024601A8BC
:105380000270009100214056002816D4FFE7002447
:1053900001A908570322D3431840174A80580957D8
:1053A0008C07E50EFF24AC40A043009CA401E4B2AE
:1053B000AC402043194088501AE001A908780F2416
:1053C000204008380322D34318400A4A8058002559
:1053D00049578D07EE0EFF25B540A843009DAD014E
:1053E000EDB2B54028432140083919408850FFE705
:1053F00002B070BD1CED00E000E400E082B00146A8
:1054000001A801800021405E002806D5FFE70021A9
:1054100001A8405E4042009004E0002101A8405EE7
:105420000090FFE7009800B202B0704710B596B048
:10543000034614A80370139112A90A800078C100D2
:10544000844840184068FBF729FC0B9050480069DD
:10545000FBF724FC01460B98FBF706FB4D4900F0D7
:10546000F3FAFBF7B1FB014611A801800188002087
:1054700001290C9012DBFFE711A80188464800883B
:10548000464A1288821801200023099391420A900B
:1054900001DB09980A900A980C90FFE70C9801210B
:1054A000084010A9087011A801883D48C0883D4AED
:1054B000D288821A0020914208900EDDFFE711A8E1
:1054C0000188394A0120002306939142079001DBAD
:1054D0000698079007980890FFE708990120019027
:1054E00001400FAA117014A902910978CA00594904
:1054F0000391895A139A1288521D002304939142F2
:10550000059001DC0498059001980399029A059B87
:105510000EAC23701278D200895A139AD288521F87
:105520009142009001DB04980090049900980DAA24
:10553000107012A8405E012811DBFFE70FA8007869
:10554000C00700280AD0FFE70DA80078C007002890
:1055500004D0FFE715A90120087015E010E010A89D
:105560000078C00700280AD0FFE70EA80078C0071F
:10557000002804D0FFE715A90120087004E0FFE728
:1055800015A900200870FFE715A8007816B010BD17
:105590005C06202000401C46525D0000625D000059
:1055A0004A5D00005A5D00001027000083B00246EB
:1055B00001A802706A4611800078C1002548401891
:1055C0000221405E7D21890088420ADCFFE701A8B4
:1055D0000078C1001F4840180221405E002804D511
:1055E000FFE702A9002008702FE000216846405E16
:1055F000002812D4FFE700216846405E1749884220
:1056000006DCFFE700216846405E632804DCFFE714
:1056100002A90020087018E013E000216846405EEF
:105620000D49884208DBFFE700216846405E6221A1
:10563000C943884204DBFFE702A90020087004E0A8
:10564000FFE702A901200870FFE702A8007803B075
:105650007047C04600062020A4F8FFFF5C0700004A
:1056600080B582B001A90880694600200870FFE774
:105670006846007801A9098888420ADAFFE77D2098
:105680000002FDF7A5FAFFE70098401C6946087084
:10569000EEE702B080BD80B582B001A908806946FE
:1056A00000200870FFE76846007801A90988884251
:1056B00009DAFFE72020FDF78BFAFFE70098401C8E
:1056C00069460870EFE702B080BD000080B588B081
:1056D000002002900790FFF725FA02992E480190CA
:1056E0002E4AFDF723FB019802992D4AFDF7F8FA9F
:1056F000019802990822FDF73FFB01980299FDF7F6
:10570000A7FA1220FFF722FE0F20FFF71FFE192035
:10571000FFF71CFE03204103059101200690420281
:10572000039220480490FDF76FFB049805994022EE
:10573000FDF750FB039A05990498FDF765FB049863
:105740000599194AFDF752FBFEF7DCFD0698FFF7B5
:1057500087FF0698FFF784FFFEF7B0FEFEF7AAF872
:105760001248FDF737FFFBF7B3FCFFF76FF8FFE7D1
:10577000012081050E48FDF753FCFBF7D5FFFBF731
:10578000F3FC0C480078C007002803D0FFE7FFF7C0
:105790008DFCFFE7ECE7C04600A04240249110409A
:1057A0001405202000D00C40480020200000864036
:1057B00000200A409005202043088B421AD3002283
:1057C00003098B4279D3030A8B425ED3030B8B42CE
:1057D00042D3030C8B4227D30902FF2212BA030CD7
:1057E0008B4202D31212090203D0030B8B4233D334
:1057F0001AE0D3E0411A8041401C704703460B4336
:1058000071D443088B42F5D3002203098B4254D351
:10581000030A8B4239D3030B8B421DD3030C8B42FB
:1058200002D394466EE0090AC30B8B4201D3CB032B
:10583000C01A5241830B8B4201D38B03C01A5241D1
:10584000430B8B4201D34B03C01A5241030B8B42D3
:1058500001D30B03C01A5241C30A8B4201D3CB02BE
:10586000C01A5241830A8B4201D38B02C01A5241A3
:10587000430A8B4201D34B02C01A5241030A8B42A6
:1058800001D30B02C01A5241CDD2C3098B4201D3BE
:10589000CB01C01A524183098B4201D38B01C01A3C
:1058A000524143098B4201D34B01C01A52410309B3
:1058B0008B4201D30B01C01A5241C3088B4201D362
:1058C000CB00C01A524183088B4201D38B00C01A0F
:1058D000524143088B4201D34B00C01A5241411A36
:1058E000524110007047CA0F00D04942031000D344
:1058F0004042534000229C4603098B422DD3030AA9
:105900008B4212D38901FC2212BA030A8B420CD3B8
:10591000890192118B4208D3890192118B4204D3E1
:10592000890137D0921100E08909C3098B4201D364
:10593000CB01C01A524183098B4201D38B01C01A9B
:10594000524143098B4201D34B01C01A5241030912
:105950008B4201D30B01C01A5241C3088B4201D3C1
:10596000CB00C01A524183088B4201D38B00C01A6E
:105970005241D9D243088B4201D34B00C01A524145
:10598000411A00D201465241104663465B1000D3D3
:105990004042704763465B1000D3404201B500218E
:1059A000004201D0C9430846C046C04602BD0000BF
:1059B00003B40148019001BD0100202070B501250C
:1059C000ED0704004C4020D4441A01D2001B0919F1
:1059D000C60D4B00F2B2FF2A29D01B0E2CD00002BC
:1059E0000C0228432C43D31ADC40051910D2280A94
:1059F00002D3401C6D0611D0761EF6058019FF2AD1
:105A000000DA70BDC00DC00570BD694000F07AF8C5
:105A100001200543C541521C761CE8E764089C4000
:105A2000C90161408900E7D10124A043E4E71B0ECE
:105A3000440200D0034870BD002AFCD1C00FC0074B
:105A400070BD00BF0000C07F70B5420064414B00D4
:105A50005C41120E39D01B0E38D0FF2A3CD0FF2BF0
:105A60003AD0D2187F3A40024902400A490A451802
:105A7000ED0106004E43000A090A48430104731A67
:105A80004019190C4318990F04D05B0801214907EC
:105A90005B1A521CD80904D3401CF50301D19D06A2
:105AA00007D0FF2A08D2D50506D0E40720434019C5
:105AB00070BD0125A843F4E7002A01DCE00770BDB2
:105AC0002402FF202043C00570BD1B0EFF2A03D017
:105AD000FF2B01D0E00770BDFF2636064500B5421A
