:020000040000FA
:10000000D80F20208D010000910100009301000015
:1000100000000000000000000000000000000000E0
:10002000000000000000000000000000950100003A
:10003000000000000000000097010000990100008E
:100040009B0100009B0100009B0100009B01000040
:100050009B0100009B0100009B0100009B01000030
:10006000000000009B0100009B0100000000000058
:10007000000000009B0100009B010000E14C00001B
:100080009B0100009B0100009D4C00009B010000B3
:100090009B0100009B010000000000000000000028
:1000A0009B010000CD2C00000000000000000000BB
:1000B0009B010000000000009B0100009B0100006C
:1000C00000F002F800F052F812A030C808382418E6
:1000D0002D18AC4201D100F049F80FCCA246AB4636
:1000E0000CA730CF2D1B083F3F197C427F1E544484
:1000F0002D090426F441641EAC4201D300F036F809
:100100000126334200D0FB1A3343984754465D46DC
:10011000DFE700001C5E00004C5E000000000000F5
:10012000103A02D378C878C1FAD8520701D330C840
:1001300030C101D504680C60704700000000000069
:100140007047000000000000002300240025002666
:10015000103A01D378C1FBD8520700D330C100D583
:100160000B6070471FB51FBD10B510BD00F061FAE0
:100170001146FFF7F7FF05F0B5F800F079FA03B480
:10018000FFF7F2FF03BC00F07FFA000006480047CB
:10019000FEE7FEE7FEE7FEE7FEE7FEE70348044969
:1001A000024A044B70470000C1000000D80720201D
:1001B000D80F2020D807202001E004C0091F0429FF
:1001C000FBD28B0701D50280801CC90700D00270CA
:1001D000704700290BD0C30702D00270401C491E93
:1001E000022904D3830702D50280801C891EE3E71D
:1001F0000022EEE70022DFE7002203098B4273D3DF
:10020000030A8B4258D3030B8B423CD3030C8B4223
:1002100021D312E003460B437FD4002243088B42D4
:1002200074D303098B425FD3030A8B4244D3030B7D
:100230008B4228D3030C8B420DD30902FF2212BA42
:10024000030C8B4202D31212090265D0030B8B42BE
:1002500019D300E0090AC30B8B4201D3CB03C01AA8
:100260005241830B8B4201D38B03C01A5241430B83
:100270008B4201D34B03C01A5241030B8B4201D373
:100280000B03C01A5241C30A8B4201D3CB02C01ADE
:100290005241830A8B4201D38B02C01A5241430A56
:1002A0008B4201D34B02C01A5241030A8B4201D345
:1002B0000B02C01A5241CDD2C3098B4201D3CB01EC
:1002C000C01A524183098B4201D38B01C01A52419B
:1002D00043098B4201D34B01C01A524103098B429F
:1002E00001D30B01C01A5241C3088B4201D3CB008A
:1002F000C01A524183088B4201D38B00C01A52416D
:1003000043088B4201D34B00C01A5241411A00D21C
:1003100001465241104670475DE0CA0F00D0494285
:10032000031000D3404253409C46002203098B42F5
:100330002DD3030A8B4212D38901FC2212BA030A7D
:100340008B420CD3890192118B4208D389019211FF
:100350008B4204D389013AD0921100E08909C30984
:100360008B4201D3CB01C01A524183098B4201D386
:100370008B01C01A524143098B4201D34B01C01A71
:10038000524103098B4201D30B01C01A5241C308E9
:100390008B4201D3CB00C01A524183088B4201D358
:1003A0008B00C01A5241D9D243088B4201D34B0073
:1003B000C01A5241411A00D20146524110466346CA
:1003C0005B1001D34042002B00D549427047634681
:1003D0005B1000D3404201B50449002802DC491CEF
:1003E000084000E00846C046C04602BDFFFFFF7F50
:1003F0007047704770470000F0B5FF252D04C6090F
:10040000C209FF2704462E400137CB093E4348402E
:100410002A402B400746002A6BD0002B69D0AA4205
:1004200067D0AB4265D0002800DA32460125ED05E1
:1004300029432C4309022002090AD21A4B0C7F24BB
:10044000E31A434C000A7C44E35C7D242404121923
:1004500014145B00A218884201D3521C00E0400033
:1004600049420C465C4324115C43DB016415E318EC
:10047000040A5C43C502200D0C4644436419250A56
:100480005D432303EC0C0D46654300030019EB1894
:100490004C42A34201D35B18401CD4052018002B0A
:1004A00007D05B00C91804D3401C002901D14008C3
:1004B00040003F2189048A4209D3002A08DC110642
:1004C000090F04D0032149074018C00FC007F0BD31
:1004D00001224100120689187F2252069142F6D26B
:1004E00005214907C84201D59010F0BDFF20C00585
:1004F000F0BD002F00DA32461648AA4207D2AB42BE
:1005000005D21902090E17D0F80FC007F0BDFF255C
:1005100063002D06AB42F9D84900A942F6D8AB4298
:1005200001D1A942F2D0A94201D1002101E061002C
:100530004908D0050843F0BD1102090EFBD0FF2089
:100540000243D005F0BD0A460146104654E70000BC
:100550000E5600000000C07F10B501469E24000228
:10056000CA15A307002A02D01843002A04DBA21AE6
:10057000002A0CDDD04010BD1206120E01D1400041
:100580004008A21A03D4D04040420028F3DDFF22E5
:1005900048001206904201D9002010BDC817C04380
:1005A000584010BD0102C21504D00123DB071943D6
:1005B000002A0ADB9E239A1A02D40846D0407047CC
:1005C000FF2241001206914201D900207047C01756
:1005D000C04370471F22030C02D10F2200041CD01D
:1005E000030E01D10002083A030F01D10001121FCE
:1005F000830F01D18000921E002801DB4000521EB3
:10060000D2055118021251181922904004D3491CE6
:10061000002801D14908490008467047C10FC907A1
:1006200000D04042012292071143D3E701218907FC
:10063000D0E7754600F024F8AE46050069465346FB
:10064000C008C000854618B020B5FFF7A7FD60BC04
:10065000B64600260027C0C5C0C5C0C5C0C5C0C5B8
:10066000C0C5C0C5C0C5403D490849008D4670475A
:1006700010B50446C046C0462046FFF780FD10BDB9
:10068000004870477000202001491820ABBEFEE7EB
:10069000260002007047000010B585B004A90020B4
:1006A0000880DA4B554A9A807D221201DA809860E0
:1006B0001A69DA600880FFE704A80088072800DDCF
:1006C0008BE004AA11884B007548C35ACC00F0494E
:1006D0000B5313884A4CE418A47F6400005BDB00D2
:1006E000CB185880E9480423C05E1288D2008918CC
:1006F0000222895E884205DDFFE7E4480421405E6E
:10070000039008E004A80088C100E14840180221D5
:10071000405E0390FFE70399DC4881800621405E3C
:1007200004A90988CA00DA4989180222895E884228
:1007300005DAFFE7D5480621405E029008E004A8EC
:100740000088C100D24840180221405E0290FFE7B5
:100750000299CE48C180806804A90988CA00CC49A2
:1007600089184968884204D9FFE7C8488068019021
:1007700007E004A80088C100C548401840680190FF
:10078000FFE70199C1488160C06804A90988CA00CF
:10079000BF4989184968884204D2FFE7BB48C0684E
:1007A000009007E004A80088C100B94840184068DC
:1007B0000090FFE70098B549C86004A80088C10010
:1007C000B34840184288D549488880184880FFE7D8
:1007D0000498401C04A908806EE7D0490220085EF6
:1007E000420F8018C0084880C8484221425AA74991
:1007F0000A804422805A488005B010BD30F80000BD
:10080000EC5E000080B584B0C048C18C03A80180B4
:100810000021405E05280CDCFFE7002103A8405EB4
:100820000421C943884204DBFFE79C49002008708B
:100830000EE0002103A8405E002804D5FFE7974999
:100840000220087003E0954901200870FFE7FFE7E8
:100850000021019103A80290415E0420C043484357
:100860009049086002F052F901990298405E03F045
:1008700043FD04F033FA00F08BFC00F07DF80199A1
:100880000298405E04F0E0F900F0E6FC00F01AFF88
:1008900001F09EF903F000FE02F0CCF904B080BD37
:1008A0001804202080B584B09C48008800070028E8
:1008B00001D4FFE759E0994800884007800F0028DD
:1008C00001D1FFE751E0954800884007002821D575
:1008D000FFE7F9490869C968401A0390039801289D
:1008E0000BDBFFE703982249884206DCFFE7F24969
:1008F0008A69086980180861FFE7EF490191086972
:10090000EE4A10610869C86004F07EF9019908692F
:100910004861FFE7E8480088800700281DD5FFE709
:10092000E549C868404202900020C860486104F070
:1009300051F9029800280BD5FFE702980D4988422B
:1009400006DBFFE7DC498A69086980180861FFE770
:10095000D9480069D9490861FFE7D74908880622C4
:100960009043088000208861FFE704B080BDC04646
:100970000019D50200E72AFD81B0CF48C0680028E1
:1009800018D1FFE7CC488069322806DBFFE7CA4967
:100990000888102210430880FFE7C7498A69086960
:1009A000801808618B69C54A1069C0181061002061
:1009B000886128E0C049C868096988421DD1FFE7FD
:1009C000BD488069322806DBFFE7BB490888102252
:1009D00010430880FFE7B84900918A6908698018C8
:1009E00008618A69C8688018C8608B69B34A106951
:1009F000C01810610020886105E0AF490888102206
:100A000090430880FFE701B07047C0464C062020A5
:100A100080B584B0A849092008801A488880C88019
:100A2000194ACA600A614A61002003908861F74947
:100A30000880488088808860C8600A614861A5484D
:100A40004021FFF7D7FB134800902621FFF7D0FB8A
:100A500000990120029008700F4801902821FFF7AB
:100A6000C9FB019A029903981170E34988604860B4
:100A70000860E34A106050600949916009490860C4
:100A800004B080BD1027000080BE14074C06202053
:100A9000F00520209806202070062020C006202087
:100AA00000FC0800CC06202089484221405A184901
:100AB000884201DBFFE728E085484421405A154978
:100AC000884201DCFFE720E081484221405A124978
:100AD000884206DBFFE7CF490888042210430880DC
:100AE000FFE77B484421405A0D4988420CDCFFE770
:100AF00077484421405A002806D0FFE7C5490888B6
:100B0000022210430880FFE7FFE770471804202007
:100B1000A10F0000CF070000FC0D000030062020D0
:100B20008C0A000010B58AB0BA480088C0070028B7
:100B300001D1FFE7BDE0B54808901030B44902F09C
:100B4000FFFE089800695E49884206D8FFE7AF4873
:100B500000695C49884204D8FFE7AC495A480861FB
:100B6000FFE7AA4A002090601169D16009A90880B6
:100B70000880FFE709A80088072866DCFFE709A8C6
:100B80000690028853005249CB5AD400514A07922A
:100B900013530388504CE418A47F6400095BDB0006
:100BA000D218518001888A00484805908018C900F1
:100BB0004A4A891802F0C4FE059A069907980B88DC
:100BC000DC000119005B49889B00D25800F05EFAF6
:100BD000069A07991388DB00CB1858608B48806809
:100BE0001288D20089184968884204D9FFE78748EB
:100BF0008068049007E009A80088C10035484018C3
:100C000040680490FFE7049980488160C06809A9A2
:100C10000988CA002F4989184968884204D2FFE729
:100C20007A48C068039007E009A80088C1002948F5
:100C3000401840680390FFE703987449C860FFE7D5
:100C40000998401C09A9088094E772480290103066
:100C50001921890202F074FE02981430734902F0DF
:100C60006FFE029800691649884206D8FFE7694876
:100C700000691449884204D8FFE7664912480861B0
:100C8000FFE700F04BFC1149009100200190C86182
:100C9000886148610861C86088604860086000F049
:100CA00077FD01F093FF5B4908880122904308809B
:100CB000FFE70AB010BDC046300620204C062020B9
:100CC000809B82079F2FC50140785F06300520205A
:100CD00018042020F0052020EC5E000018640000BD
:100CE00080B5FFF71FFFFFF7D7FCFFF78BFDFFF77E
:100CF000D9FD00F001F880BD80B582B03D48018883
:100D0000491C01800088772813D1FFE71920810250
:100D10000191012042024348009001F06FFA0098CF
:100D20000199402201F052FA3F48404904F080F80E
:100D30005EE030480088782813DBFFE72D48008804
:100D40007F280EDCFFE72B4908888000324A801894
:100D5000324A80180988C900314A891804F068F8B5
:100D600045E024480088802807D1FFE72948103053
:100D70001921890204F05CF838E01E4800888128B7
:100D800006D1FFE7BE481030214904F051F82CE0AD
:100D900018480088822805D1FFE719481A4904F04D
:100DA00047F821E013480088832806D1FFE714485C
:100DB000001D144904F03CF815E00E480088842812
:100DC00006D1FFE7AD48001D0C4904F031F809E0F9
:100DD00008480088852804DBFFE7064900200880D2
:100DE000FFE7FFE7FFE7FFE7FFE7FFE7FFE7FFE7D3
:100DF00002B080BDD6072020C00620206864000015
:100E00006406202060640000586400004C06202026
:100E100010640000300620205005202020FEFFFF37
:100E20005860000000D00C40D00020200864000072
:100E300080B59CB01AAA1080199190484168143965
:100E40004A42514118AA11704068142805D8FFE79A
:100E50008A484068092804D8FFE718A901200870CB
:100E6000FFE717A9002008801998FFF7DFFB0E9015
:100E700083480069FFF7DAFB01460E98FFF7BCFADA
:100E8000804904F029FDFFF767FB16A908807E481A
:100E9000017815AA11704168149181681391C06896
:100EA000129018A8007801280BD0FFE77648017C43
:100EB00015AA11704169149181691391C06912904A
:100EC000FFE7149815A909781AAA128800F01AF9F0
:100ED000014611A80170007800280CD0FFE71AA87D
:100EE0000088149A15A9097849008918891E09886B
:100EF000884207D1FFE7139811A90978405C17A928
:100F000008801DE01AA80288149811A909784B00DE
:100F1000C118C05A101A4988891A884207DCFFE7AD
:100F2000139811A90978405C17A9088007E0139964
:100F300011A800784018407817A90880FFE7FFE75C
:100F400017981699401A00B204F07EF8129911AA67
:100F50001278895C884200DA89E011A8007815A926
:100F60000978491E884248DAFFE71398049011A9CE
:100F7000099109780691491C0791405CFFF756FBDF
:100F80000699024604980592405CFFF747FB01462C
:100F9000059804F0F9FC069A0146079808911499FF
:100FA0004000085A5200895A401AFFF737FB0146A1
:100FB0000898FFF721FA099A109010980C901AA837
:100FC0000088149912780A925200895A401AFFF741
:100FD00025FB0A990B901398405CFFF71FFB0B99B8
:100FE00002460C980D9204F077FC0D9904F02EFC4B
:100FF000FFF7B2FA17A90880FFE7002117A8405EA3
:10100000002803D5FFE70020039004E0002117A883
:10101000405E0390FFE7039917A801800021405E1E
:10102000652803DBFFE76420029004E0002117A895
:10103000405E0290FFE7029817A9009108801048CF
:101040000069FFF7F3FA0F49FFF7D6F90146009858
:1010500001910021405EFFF7E1FA0146019804F09A
:101060003BFCFFF79FFA0F900F981B9002E0199836
:101070001B90FFE71B981CB080BDC046C006202017
:101080004C0620200000C8425000202080B588B0C7
:1010900006AB188005A8018004926E48C18C03A895
:1010A000018000210091405E03F0CEFF00990246CE
:1010B00002A80280405E042811DCFFE706A8008831
:1010C0000499FFF7B5FE019001980D49884203D3BA
:1010D000FFE70A4807900EE0019807900BE0002117
:1010E00002A8405E132801DCFFE700E0FFE7FFE70E
:1010F00002480790FFE7079808B080BDA02FC50100
:10110000819B820787B0059004A8017003A8028024
:10111000008805990988884204DAFFE706A90020BB
:10112000087030E002A9002008700499491E01AA45
:10113000117069460870FFE702A8007801A90978D4
:1011400088421CDCFFE701A8007802A90978401852
:10115000400869460870059809784900405A03A973
:101160000988884205DDFFE70098401E01A9087044
:1011700004E00098401C02A90870FFE7DCE7019832
:1011800006A90870FFE706A8007807B070470000BE
:1011900080B582B0D948006801281ADBFFE7D24841
:1011A000C068D6490968884207D9FFE7D348026872
:1011B000CD49C868801AC8600AE0D0480068CA49AA
:1011C000CA68821A8869801888610020C860FFE7B1
:1011D0001DE0C549C8680969C84A1268891888426B
:1011E00007D2FFE7C5480268BF49C868801AC860CF
:1011F0000CE0BD49C868C14A1268801A0A69821A9F
:101200008869801888610869C860FFE7FFE7B64809
:101210000069002804D1FFE7B449BE48C88516E03C
:10122000B1480090C068FFF701FA014600980191AB
:101230000069FFF7FBF901460198FFF7DDF8AD49BA
:1012400004F04AFBFFF788F9A849C885FFE702B018
:1012500080BDC0461804202080B598B000201790AB
:10126000A1480189A14A6823D1520089002803D1ED
:10127000FFE700201790D9E09D480B908068FFF7AA
:10128000D5F901460B980A910069FFF7CFF901469D
:101290000A98FFF7B1F897490F9104F01DFBFFF78B
:1012A0005BF901460B9816AA1180C068FFF7BEF9DA
:1012B00001460B980C910069FFF7B8F901460C98AC
:1012C000FFF79AF80F9904F007FBFFF745F915A906
:1012D0000880FB480D904069FFF7A8F901460D987A
:1012E0000E910069FFF7A2F901460E98FFF784F806
:1012F0000F9904F0F1FAFFF72FF914A9088013A948
:101300000020088016981599411A12A801800088BB
:101310007949884204D1FFE714A90020088020E021
:1013200015A80088FFF77AF9099012A8008807909D
:10133000FFF77CF90146099804F0CEFA0799089066
:101340006D48401AFFF76AF901460898FFF754F80C
:101350000146099804F07AFAFFF7FEF813A908800D
:10136000FFE714A8008813A9098888422DDDFFE74C
:101370006248006801281CDBFFE714A8008813A955
:101380000988401A0690CC4800695B4904F05CF972
:1013900006994843119011985C49884203DCFFE7A5
:1013A0001198059002E05A480590FFE705981790BC
:1013B0000AE052480068FFF731F9534904F08CFA0B
:1013C000FFF7CAF81790FFE72CE04C4800680128A7
:1013D0000BDBFFE749480068FFF720F94A4904F0B2
:1013E0007BFAFFF7B9F817901BE014A8008813A93F
:1013F0000988401A0490B0480069E34904F024F9D0
:1014000004994843109010983D49884203DBFFE758
:101410001098039002E03B480390FFE70398179071
:10142000FFE7FFE7D54900200881FFE73348006860
:10143000012817DBFFE7D148406930490968179A4E
:101440008918884209D9FFE7CC4948692B4A1268B4
:10145000801A179A801A486103E0C8490020486141
:10146000FFE718E0C54948690969244A12688918E4
:10147000179A8918884209D2FFE7C04948691F4A6C
:101480001268801A179A801A486103E0BB490869FC
:101490004861FFE7FFE7B9480069002805D1FFE789
:1014A000BA496A221B48885217E0B4480190406943
:1014B000FFF7BCF80146019802910069FFF7B6F802
:1014C00001460298FEF798FFAD4904F005FAFFF7D0
:1014D00043F8AE496A228852FFE7A84840690E499E
:1014E000086018B080BDC0463006202018042020B7
:1014F0004C06202000401C4610270000CC0620206F
:1015000041B4FCFF40B4FCFF333373BFBF4B030057
:10151000C04B0300D2040000D000202080B594B05E
:1015200065480A908068FFF781F801460A9809919A
:101530000069FFF77BF801460998FEF75DFF5F49F8
:101540000E9104F0C9F9FFF707F801460A9813AAAB
:101550000F921180C068FFF769F801460A980B9155
:101560000069FFF763F801460B98FEF745FF0E99F7
:1015700004F0B2F9FEF7F0FF12A908807F480C9042
:101580004069FFF753F801460C980D910069FFF789
:101590004DF801460D98FEF72FFF0E9904F09CF9C7
:1015A000FEF7DAFF0F99024611A802800088098829
:1015B000884220DCFFE711A8008812A90988884228
:1015C00019DBFFE76D4808904169C1604069FFF78A
:1015D0002DF80146089807910069FFF727F80146A2
:1015E0000798FEF709FF664904F076F9FEF7B4FFA5
:1015F000089988805DE013981299411A10A801801B
:101600000088642806D1FFE75C4900204861C86073
:1016100088804EE012A80088FFF700F8029010A81A
:1016200000880090FFF702F80146029804F054F990
:10163000009901906420401AFEF7F0FF01460198DE
:10164000FEF7DAFE0146029804F000F9FEF784FF87
:1016500011A903910880494806900069FEF7E6FF4A
:101660001649FEF7C9FE0146039804910088FEF76B
:10167000D5FF0146049804F02FF9FEF793FF0146C9
:10168000069841614169C1604069FEF7CFFF01469C
:10169000069805910069FEF7C9FF01460598FEF717
:1016A000ABFEFB4904F018F9FEF756FF0699888057
:1016B000FFE714B080BDC0464C0620200000C842A1
:1016C0003006202080B586B02C4803904069FEF794
:1016D000ADFF0146039802910069FEF7A7FF01469E
:1016E0000298FEF789FEEA4904F0F6F8FEF734FFA7
:1016F000039905AA108005988988411A04A80180D9
:101700000021405E03F0A0FC0A2804DCFFE70598F6
:101710001A4988801BE005A80088184989888842F2
:1017200005DDFFE7154988880A3088800EE01348F8
:1017300080880A2805DBFFE7104988880A388880F6
:1017400003E00E4900208880FFE7FFE7FFE70B4832
:1017500080880C49884203DBFFE70B48019003E0D7
:10176000064880880190FFE70199044881808088BD
:1017700006496C22885206B080BDC0463006202043
:1017800000401C46112700001027000018042020EC
:1017900080B582B019480190194902F0D1F801983A
:1017A00000681849884204D3FFE714490020086004
:1017B000FFE712480090001D134902F0C1F800989D
:1017C0004068124988420BD3FFE70C484068401C30
:1017D000002805D0FFE709497320400248600AE06D
:1017E00006484068401C002804D1FFE70349002058
:1017F0004860FFE7FFE702B080BDC04664062020D6
:1018000058640000015125026064000001E60000F8
:1018100010B590B008920A46089903460EA80370C6
:101820000D920CAA118000780D990023D25E03F06E
:1018300023FC002804D0FFE70FA9012008808FE0D7
:101840000D980EA904910978CA00DD4905918A5ABC
:101850000421FFF757FC024604980BA906910A7071
:101860000AAA079200241480007809780CAB1B5F49
:1018700000F020F904990598069B079A0978C90099
:10188000405A0D991B785B00C95A1278891A884210
:1018900010DDFFE70EA80078C100C948405A0D9935
:1018A0000BAA12785200895A0AAA527889188842DB
:1018B0004ADBFFE70BA80078032804D1FFE70FA954
:1018C0000A2008804CE009AA0392002414800EA884
:1018D000019000780BA9029109780CAB1B5F00F016
:1018E000E9F801980299039A0078C300B448C05AF5
:1018F0000D9B09784900C91849881278891A8842CD
:1019000011DDFFE70EA80078C100AD48405A0D9ADE
:101910000BA9097849008918498809AA52788918B9
:10192000884204DBFFE70FA90A20088018E00EA810
:1019300000780B99491C00230CAAD25EC9B200F0B2
:1019400013F80FA908800BE00EA800780BA90978FE
:1019500000230CAAD25E00F007F80FA90880FFE769
:101960000FA8008810B010BD80B58AB0034608A843
:10197000037007AB197006A901910A800078C100B5
:101980008F4840184068FEF751FE00903F480069BC
:10199000FEF74CFE01460098FEF72EFD3C4903F091
:1019A0009BFFFEF7D9FD0146019805AA118004AA04
:1019B0000021118003AA1180405E01280EDBFFE7A1
:1019C00007A801784A003549895A04AA118000788D
:1019D00041003348405A03A908800DE007A8017868
:1019E0004A002C49895A04AA1180007841002A48EB
:1019F000405A03A90880FFE705980499411A02A8F4
:101A000001800022805E03A9895E884216DDFFE71F
:101A1000002106A8405E012808DBFFE707A8007840
:101A200041002348405A09A908802BE007A8007804
:101A300041001E48405A09A9088023E0002202A85C
:101A4000805E03A9895E4942884216DAFFE70021D9
:101A500006A8405E012808DBFFE707A800784100E0
:101A60001148405A09A908800CE007A800784100F5
:101A70000C48405A09A9088004E0FFE709A90A2098
:101A80000880FFE709A800880AB080BD4C06202026
:101A900000401C46E65B0000F65B0000DE5B0000D9
:101AA000EE5B0000DC5A0000CC5A0000D45A000063
:101AB000C45A000010B585B0044604A8047003ACF5
:101AC0002170029201A90B80029A00211170029AE2
:101AD00051703A4900910078C100D4484018022161
:101AE000405EFF212E31884206DBFFE70299052088
:101AF0000870029948705FE004A80078C100CB48E4
:101B000040180221405EC92815DBFFE7002101A82B
:101B1000405E2D49884206DBFFE7029905200870E8
:101B20000299487006E00299032008700299052086
:101B30004870FFE73FE004A80078C100BB484018A8
:101B40000221405E652815DBFFE7002101A8405E09
:101B50001E49884206DBFFE70299052008700299BA
:101B6000487006E00299022008700299052048702A
:101B7000FFE71FE0002101A8405E1249884207DC10
:101B8000FFE7002101A8405E0F4988420BDCFFE718
:101B900003A90A786846825C029B1A700978405C47
:101BA0000299487005E00299032008700299487074
:101BB000FFE7FFE7FFE7FFE705B010BD0500000501
:101BC000F0052020AD03000052FCFFFFC6FEFFFF22
:101BD00080B588B090480068182813DCFFE78E486D
:101BE00000681721C94388420CDBFFE78B48007867
:101BF000002806D1FFE789490878022210430870BF
:101C0000FFE707E185484078002855D1FFE700202D
:101C10000790FFE7079807280DDCFFE70799CA0040
:101C20008248805A4A007D4989180881FFE7079851
:101C3000401C0790EEE77A48C08D7A4936228A5CCC
:101C40006421514388420DDAFFE774480078C007E9
:101C5000002806D0FFE77149087804221043087075
:101C6000FFE728E06E484221405A6E49498F88427A
:101C70000DDAFFE769480078C007002806D0FFE7C3
:101C800066490878042210430870FFE712E06348B1
:101C90000078C00700280CD1FFE760480078C00634
:101CA000002806D4FFE75D49087802221043087037
:101CB000FFE7FFE7FFE7FFE758484178491C41701D
:101CC00055490A6841688918416040780A2800D05F
:101CD0009FE05248002141704068002805D5FFE789
:101CE0004E4840684042029003E04C4840680290F1
:101CF000FFE702980690069832286CD3FFE7069813
:101D00004949884267D8FFE700200590FFE705981A
:101D100007285FDCFFE70020049040484068012866
:101D20001CDBFFE70599CA004048805A4A003B493E
:101D300089180989884203DDFFE7002004900CE040
:101D400005994A00354880180089CA003749895AE0
:101D5000401AFEF763FC0490FFE71BE00599CA00F8
:101D60003248805A4A002D4989180989884203DA85
:101D7000FFE7002004900CE00599CA002B48805A28
:101D80004A00264989180989401AFEF747FC049041
:101D9000FFE7FFE70498264903F09EFD01900698AF
:101DA000FEF744FC01460198FEF726FBFEF7D4FB44
:101DB000014605984200194818308152059949009A
:101DC000405A174A891856228852FFE70598401C46
:101DD00005909CE719E000200390FFE7039807288F
:101DE00012DCFFE7039842000C48183001218152B1
:101DF00003994900405A0A4A891856228852FFE737
:101E00000398401C0390E9E7FFE70449002048607D
:101E1000FFE7FFE708B080BDCC0620207006202039
:101E200018042020EC5E0000400D0300F005202087
:101E30000024744980B58AB005A90191014609A81A
:101E400002900170007801F03BFA0298007803F0EC
:101E500003F80220039003F029FA0298007801F0B9
:101E6000B5FF039803F022FA06A900200870FFE7E7
:101E700006A8007809A90978884250DAFFE7019896
:101E800007AA0021117001690C204843083805A9F0
:101E90000870FFE705A8007809A90A780C215143CA
:101EA000891E884234DAFFE705A8007809A90A7874
:101EB0000C2151430839884213D1FFE705A8037864
:101EC0001948C05C052210401849C95C114088427D
:101ED00006D0FFE701988068401C07A90870FFE75B
:101EE0000FE005A802781048805C1049895C8842A0
:101EF00006D0FFE701988068401C07A90870FFE73B
:101F0000FFE7FFE701980068401C05A90870C1E7DA
:101F1000FFE701984068401C06A90870A8E708A8D8
:101F200000780AB080BDC046810520208E042020A4
:101F300080B58AB005A90191014609A802900170F7
:101F4000007801F0BDF90298007802F0D5FF022078
:101F5000039003F0ABF90298007801F06FFF03984B
:101F600003F0A4F906A900200870FFE706A800788E
:101F700009A90978884232DAFFE7019807AA002107
:101F8000117001690C204843083805A90870FFE763
:101F900005A8007809A90A780C215143891E8842B6
:101FA00016DAFFE705A802780F48805C0F49895CC4
:101FB000884206D0FFE701988068401C07A9087096
:101FC000FFE7FFE701980068401C05A90870DFE7FC
:101FD000FFE701984068401C06A90870C6E708A8FA
:101FE00000780AB080BDC046A5052020B20420209C
:101FF000811E091F00BFFCD2704784B0039002917C
:10200000019203980068009000980199884300901D
:1020100000980299019A114008430399086004B09E
:10202000704783B0009101460098029101A90870A1
:1020300002980978090141180920420288580223B0
:102040009843885003B0704783B0009101460098D0
:10205000029101A908700298097809014118092024
:102060004202885802231843885003B0704783B057
:10207000009101460098029101A908700298097820
:102080000901411809204202885802231843885048
:1020900003B0704770B50B01C318546895682543A9
:1020A00094892C43156956692543D48924012C430E
:1020B00035012543092464021D51137852781A43CF
:1020C000BF231A4089004018024944589C43A21873
:1020D000425070BD1011000084B00092024600987A
:1020E000039202AA117001900198039912781201CB
:1020F00089180B4A885004B07047C04684B00092DB
:1021000002460098039202AA117001900198039967
:10211000127812018918024A885004B07047C046EC
:102120000812000084B0009202460098039202AAAE
:1021300011700190019803991278120189180B4AC5
:10214000885004B07047C04684B0009202460098A0
:10215000039202AA1170019001980399127812015A
:102160008918024A885004B07047C0460412000023
:1021700085B000920A4600990192024601980492A5
:1021800003AA107002A80180008804991278120135
:1021900089180D4A885005B07047C04685B0009236
:1021A0000A460099019202460198049203AA10700F
:1021B00002A8018000880499127812018918024A45
:1021C000885005B07047C0460C12000080B502234D
:1021D0001343EB4A83508218D16103F031FB80BD79
:1021E00070B511231B02C41801256560FF26103647
:1021F0006662216211682163C55070BDF0B583B07D
:1022000002920E460190354C20680527276007256D
:102210002840334B19682060226827602A401868DC
:102220002260304B0096B60A89048A0F314609D0E5
:102230002D490840511C03F007FA01463046FDF7CE
:10224000DBFF284B0198C0180190226827602448C2
:1022500003682A4022602268276003682A402260BF
:1022600001229302029898420CD05302984210D156
:102270000098C30B0FD1B2400198016891430160EF
:1022800003B0F0BD1F210E40B2400198016C914394
:10229000016403B0F0BDFF2911D8236827602B40EB
:1022A0000F4D2D682360AB049B0F00D12039C90866
:1022B0008A40019841689143416003B0F0BD130228
:1022C000FF339942E5D2FF23DB43C918C9088A408E
:1022D000019881689143816003B0F0BD00134040D4
:1022E0001800C441D0110000FF0F000082B001901F
:1022F00000910098019995225201885002B07047D0
:1023000082B0019000910098019995225201885065
:1023100002B0704781B0009000988100324A88581E
:1023200001235B061843885001B0704782B00190CA
:10233000009100980199024A885002B07047C04647
:10234000D012000081B0009000990120C202924892
:10235000885001B07047C04681B00090009881005D
:10236000214A8120885001B07047C04681B000905A
:10237000009881001C4A0020885001B07047C04678
:1023800082B001900091009810490843019989009A
:10239000154A885002B0704710B584B0079C069C5F
:1023A00003900291019200930298019908430099C9
:1023B00008430699084307990843044908430399C9
:1023C0008900094A885004B010BDC046800004004E
:1023D00082B0019000910098802108430199890002
:1023E000014A885002B070470480424081B000909A
:1023F0000099894A8948885001B0704782B001909D
:10240000009100980199024A885002B07047C04676
:102410009012000082B00190009100980199024A48
:10242000885002B07047C046B012000081B00090E2
:10243000009909204202885801231B021843885042
:1024400001B0704781B000900099084A8858012374
:102450001843885001B0704781B000900099034A3A
:10246000885804231843885001B070472812000090
:1024700081B0009000990120C202C648885001B086
:102480007047C04681B000900098812149014058B2
:10249000C0B201B07047000081B0009000995E4A60
:1024A0005E48885001B0704781B000900099024AA0
:1024B0000020885001B070471412000080B584B02D
:1024C000019101460198039102A90880039809220D
:1024D00052028018098803225202FFF78EFD04B0D1
:1024E00080BD70B50A780C231A4001242403051915
:1024F0006E689E43B2186A604978072211400359FA
:1025000093435918015170BD80B584B001910146C3
:102510000198039102A9088003980D4A8018098840
:1025200007221202FFF769FD04B080BD80B584B0B8
:10253000019101460198039102A908700398044A89
:10254000801809780722FFF758FD04B080BDC04607
:102550003812000082B0019068460170007801993D
:10256000014A885002B070472412000081B00090E8
:102570000099034A885801231843885001B07047D6
:102580000411000081B0009000990120C20281482E
:10259000885001B07047C04601000026B0B5112236
:1025A000120283580C4C1C400B894D881D438B79BB
:1025B0002B430A4D1D402B1983508B88CC791C432B
:1025C000097821435D239B001940801842689A4393
:1025D00089184160B0BDC04680CCFFFF7F3300004A
:1025E00081B00090009807494058042108408008B5
:1025F00001B070470349401801684907FCD4006ADC
:10260000C0B270471011000081B000900099A64A36
:10261000A648885001B0704704080000030000B1CC
:1026200080B582B0019000910198E249401800996C
:10263000024AFFF7E2FC02B080BDC046FF03000083
:1026400010B50122120383180C785C604978815020
:1026500010BD000080B584B000920A460146009883
:10266000039102A90A7001AA10700398964BC01832
:102670000978127811433F22FFF7BFFC04B080BDF8
:1026800082B001906846017000780199452292015C
:10269000885002B070470000064908680122904344
:1026A00008607047034908680122120290430860DD
:1026B0007047C04608010B40034908680122120315
:1026C000104308607047C04604010B401A48006878
:1026D0007047C04681B001466846017000780249E3
:1026E000086001B07047C04608030B40B0B5FF2238
:1026F00004320E490B689343827803241440027815
:10270000120212191A430A60094A0A4B13600A4C52
:1027100025686D05FCD54078002803D00868102492
:1027200004430C60581C1060B0BDC04614010B403F
:1027300014030B400100009104020B4080B582B0ED
:10274000014601A80170017802480322FFF755FCF9
:1027500002B080BD00010B4081B000900099B24AE8
:102760000120885001B0704782B001900091009B19
:102770000199804A88581843885002B07047C04673
:1027800081B0009000990120C2028048885001B0B9
:102790007047C0460100002681B00090009881215A
:1027A00049014058C0B201B070470000B0B54A6856
:1027B000364BC2504A4A80180A78222A58D89300C9
:1027C00001A4E3589F46C046672800007128000016
:1027D000672800007128000071280000712800009F
:1027E0007128000071280000712800007128000085
:1027F0007128000071280000712800007128000075
:102800007128000071280000552800007128000080
:102810005528000071280000712800007128000070
:102820007128000071280000712800007128000044
:102830007128000071280000712800007128000034
:102840007128000071280000552800007128000040
:102850005528000003231B0704689C4301235B07E2
:10286000E318036004E003231B0704689C4304602F
:102870000B69C360CB68064C1C40C36A054D1D4004
:102880002B19C362097A11430160B0BD081800001A
:10289000777702008888FDFF81B000900099674A31
:1028A0006748885001B0704704080000030000B179
:1028B00010B50122120383180C789C604B7883506A
:1028C0008978914A815010BD0C11000081B00090B0
:1028D0000099034A885801231843885001B0704773
:1028E0000418000081B0009000991120020288585D
:1028F00001235B049843885001B0704781B0009079
:10290000009911200202885801231843885001B011
:102910007047000082B00190009100980199024A2E
:10292000885002B07047C0465810000081B0009037
:10293000009911200202885801235B041843885033
:1029400001B0704781B000900099112002028858B0
:1029500001235B041843885001B0704782B0019096
:102960000091009B0199034A88581843885002B08F
:102970007047C0462810000081B0009000990120E7
:10298000C2020248885001B07047C04601000026CC
:1029900010B5002A0CD0244BC31800201C68240654
:1029A00005D40C5C9C61401C8242F7D1104610BDDE
:1029B000002010BD0811000081B000900098812116
:1029C00049014058C0B201B070470000B0B51122B3
:1029D000120283580124A34383500B888C781C4334
:1029E0008B882343094C1C408358094D1D406319B3
:1029F00083508B79CC791C43097A21437E2319407B
:102A0000801842689A4351184160B0BD18670000B1
:102A1000E798FDFF81B000900098034940580121DC
:102A2000084001B07047C0460811000081B0009016
:102A30000099024A0248885001B07047040800001B
:102A4000030000B180B584B0039002910192039815
:102A50000B49401802990B4AFFF7CFFA03980A492D
:102A6000401801993F22FFF7C8FA0399074A8818CE
:102A7000895801221140FFF7C0FA04B080BDC0465A
:102A800010110000FFFF00001411000004110000ED
:102A900010B50122120383180C789C60497881508C
:102AA00010BD80B582B001900091019811210902FA
:102AB000401800990322D203FFF79FFA02B080BDAD
:102AC00080B584B0019101460198039102A9087074
:102AD00003980D4A801809787022FFF78EFA04B027
:102AE00080BDC04680B584B0019101460198039134
:102AF00002A908700398044A801809780722FFF792
:102B00007CFA04B080BDC0460C1100007047000084
:102B100081B06D497020085A000472228A5A8018C8
:102B2000009000984088488500980068888501B02A
:102B30007047C0467047000080B586B005A9029175
:102B40000020039008701E4800F0D3FB1D4804903D
:102B5000007800F0B5FB0298039BC05681001A482C
:102B6000401841880193009318461A4600F052FA23
:102B70000498007800F0A4FB0A2002F097FB039968
:102B80000498007801F092F904980078012101F08E
:102B90008DF904980078022101F088F904980078F2
:102BA000032101F083F904980078042101F07EF9F3
:102BB00004980078052101F079F906B080BDC0467F
:102BC000C05A00004C002020985A000080B582B006
:102BD0003B480190001D164900F0B2FE0198406884
:102BE0000A2805D3FFE736484068152806D3FFE7D3
:102BF0003349142048603348886016E03048406804
:102C00000A280BD3FFE72E4840680E2806D8FFE7B6
:102C10002B490A2048600020886005E028491420DC
:102C2000486028488860FFE7FFE702B080BDC046E3
:102C30006864000080B582B020480068012815DB78
:102C4000FFE71E480068400001901D488068019918
:102C5000884206D9FFE7019A19498868801A886076
:102C600003E0174900208860FFE714E014488068FB
:102C700012490968134A8918884207D2FFE70F48AA
:102C800002680F498868801A886003E00C490D4883
:102C90008860FFE7FFE70A48009081680A20484300
:102CA000084902F0D1FC014600980A3141604068B1
:102CB00005494622885202B080BDC046CC0620207D
:102CC000C0062020C0C36C001804202080B5064830
:102CD000FFF7D8FB082804D1FFE70449012008705A
:102CE00000E0FFE780BDC04600200F40E400202048
:102CF00080B596B0159014A8017013A80280002129
:102D0000405E012800DAB7E0002113A8405EB9490F
:102D100088422CDBFFE700201290FFE7129803287F
:102D200024DCFFE714A800788100B44840581299C9
:102D300049000891405A0990002113A8405EB44907
:102D40004018FDF76BFCB04902F0C6FDAF49FDF736
:102D500053FBFDF701FC089A0146099840181599A4
:102D60008852FFE71298401C1290D7E783E00021B9
:102D700013A8405EFF213A3188422EDCFFE7002095
:102D80001190FFE71198032826DCFFE714A80078CC
:102D900081009A4840581199490006914018008ACC
:102DA0000790002113A8415E9D204000401AFDF7C6
:102DB00035FC954902F090FD9449FDF71DFBFDF7A8
:102DC000CBFB069A01460798401A15998852FFE7EF
:102DD0001198401C1190D5E74CE0002113A8405EEB
:102DE0008549884222DBFFE700201090FFE710981A
:102DF00003281ADCFFE713A8028814A800788100D2
:102E00007E4840581099490043181B89405A009049
:102E10007B487C4901F0D2FF1599109A52008852E4
:102E2000FFE71098401C1090E1E722E000200F908F
:102E3000FFE70F9803281BDCFFE713A8028814A8FC
:102E4000007881006D4840580F9949004018038A66
:102E5000008900909D204000694901F0AFFF15995D
:102E60000F9A52008852FFE70F98401C0F90E0E73E
:102E7000FFE7FFE7FFE7BAE0002113A8405E02F09A
:102E8000E3F801460EA8018000885A4988422CDBED
:102E9000FFE700200D90FFE70D98032824DCFFE7F3
:102EA00014A800788100554840580D9949000491B4
:102EB0004018008D05900EA8008855494018FDF770
:102EC000ADFB514902F008FD5049FDF795FAFDF7B9
:102ED00043FB049A01460598401A15998852FFE76A
:102EE0000D98401C0D90D7E780E00EA80088FF21C8
:102EF0003A3188422DDCFFE700200C90FFE70C9868
:102F0000032825DCFFE714A8007881003B484058DF
:102F10000C99490002914018008B03900EA801887B
:102F20009D204000401AFDF779FB374902F0D4FCA0
:102F30003649FDF761FAFDF70FFB029A0146039847
:102F4000401815998852FFE70C98401C0C90D6E762
:102F50004BE00EA800882849884222DBFFE70020CA
:102F60000B90FFE70B9803281ADCFFE70EA80288F6
:102F700014A800788100214840580B994900401856
:102F8000038C008D00901E481E4901F017FF159913
:102F90000B9A52008852FFE70B98401C0B90E1E718
:102FA00022E000200A90FFE70A9803281BDCFFE7D5
:102FB0000EA8028814A800788100104840580A9989
:102FC00049004018038B008C00909D2040000C4964
:102FD00001F0F4FE15990A9A52008852FFE70A9808
:102FE000401C0A90E0E7FFE7FFE7FFE7FFE716B0C6
:102FF00080BDC04623060000AF030000340020203F
:10300000AE03000022060000000040400000C8425D
:10301000DEF9FFFF70B58AB014460D4606460F99DB
:103020000E9A09A8067008AE358007AD2C7006AC64
:10303000237005AB1A7004AA1170007800280FD114
:10304000FFE708A840780221084302A90870089801
:10305000059A1043049A1043602210434870EAE036
:1030600009A80078012811D1FFE708A840780221BB
:10307000084302A908700898049A1043079A10435D
:10308000059A1043282210434870D3E009A800781D
:1030900002280FD1FFE708A840780221084302A9BF
:1030A00008700898049A1043069A104307221043A8
:1030B0004870BEE009A8007803280DD1FFE708A8F2
:1030C00040780221084302A908700898059A104325
:1030D000012210434870ABE009A8007804280DD104
:1030E000FFE708A840780421084302A9087008985F
:1030F000049A104360221043487098E009A80078B1
:1031000005280BD1FFE708A840780421084302A94D
:1031100008700898049A1043487087E009A800785E
:1031200006280FD1FFE708A840780421084302A928
:1031300008700898049A1043079A1043102210430D
:10314000487072E009A8007807280DD1FFE708A8A9
:1031500040780421084302A908700898069A104391
:103160000722104348705FE009A8007808280DD1B5
:10317000FFE708A840780421084302A908700898CE
:10318000049A10436822104348704CE009A8007864
:1031900009280DD1FFE708A840780421084302A9B7
:1031A00008700898049A104308221043487039E0C8
:1031B00009A800780A280DD1FFE708A84078042163
:1031C000084302A908700898069A10430F2210437A
:1031D000487026E009A800780B280DD1FFE708A861
:1031E00040780421084302A908700898059A104302
:1031F0006F221043487013E009A800780C280DD105
:10320000FFE708A840780421084302A9087008983D
:10321000059A104367221043487000E01BE0FFE767
:10322000FFE7FFE7FFE7FFE7FFE7FFE7FFE7FFE76E
:10323000FFE7FFE7FFE702A80190022100F00EF888
:103240000246019803A90A80497881700399C170E8
:1032500000F04FF8FFE70AB070BD000085B00490A1
:1032600003A8017002A91020088069460020087098
:10327000FFE76846007803A90978884219DAFFE772
:1032800002A90888C009C0B2049A6B461B78D25CB8
:10329000504001AA10800298000212885300074A89
:1032A000D25A50400880FFE70098401C69460870D9
:1032B000DFE70298400080B205B070479A5C0000DA
:1032C00080B582B001A9087069460A20087001F033
:1032D0005DF9FFE76A461078411E1170002804D09E
:1032E000FFE7FF2001F058F9F4E701F049F902B0D7
:1032F00080BD80B582B0019001F048F90198007856
:1033000001F04AF90198407801F046F90198807877
:1033100001F042F90198C07801F03EF901F030F96E
:1033200002B080BD80B584B003A901910020009057
:103330000870E04802900078FFF7C2FF029800781A
:1033400001F08AFD0298007801F0D6FD029800781D
:10335000FEF770FD02980078FEF7EAFD009A0199E9
:103360000298007889568A000849895C00F0AAF919
:1033700002980078FFF7A4FF0298007801F06CFD36
:1033800002980078FFF79CFF04B080BD985A0000B7
:10339000F0B587B006A900200870B74B0593B74A6F
:1033A000DA61B74A9A61B74A5A61B74A1A61B74AAD
:1033B000DA60B74A9A60B74A5A60B74A1A60B74AA1
:1033C0006E23D3703D239370012353701070B44A61
:1033D0009E23D370B1239370242353701070B14A8D
:1033E0000A23D3702B239370022353701070AE4ABC
:1033F000C823D3702C239370262353701070AB4CCA
:103400000722227021236370A94B1A7022225A705E
:103410000870FFE706A80078A6490978884200DB13
:1034200024E1A44C227806A902910B78D843801895
:10343000C0009A4A8018001DCC2703973A465A4389
:10344000B74D0495AA1890230093D0500A783846B7
:1034500050432818C2581078FE26304010700A7861
:10346000384650432818C25810780226304310704E
:103470000A78384650432818C2581078042630433A
:1034800010700A78384650432818C2581078F82629
:10349000304310700A78384650432818C25800202C
:1034A00050700A78394651436918C9588E78F0220D
:1034B00016408E7002990E78394671436918C958C2
:1034C0008E7816438E7002990E78394671436918CA
:1034D000C958FF26CE70029909783E464E4302999C
:1034E000AE19F65830710E78394671436918CE58C6
:1034F00071791140029A71711678394671436918D1
:10350000CE5873790F210B40737123781678F243EC
:10351000D218D200624BD218131D3A467243AA1831
:10352000942601969351029A13783A465A43AA1860
:1035300093591A780A431A70029B1A785743039AD0
:10354000ED19AF593D780D4004993D701F7815462F
:103550007D4349198F597D78FC210D4004997D7078
:103560001F7815467D4349198F597D78FB210D4001
:1035700004997D701F7815467D4349198F597D78D0
:10358000F7210D4004997D701F7815467D43491938
:103590008F597D78CF210D4004997D701F78154695
:1035A0007D4349198F597D78BF210D4004997D7065
:1035B0001F7815467D4349198F597D787F210D402D
:1035C00004997D701F7815467D434D19AD59A8703B
:1035D0001F7815467D434D19AD59E8701F78154683
:1035E0007D434D19AD5928711F7815467D434D19FE
:1035F000AD59687126781F78FD43AD19ED00294E4D
:10360000AD192D1D16467E438E199827F551267843
:103610001F78FD43AD19ED00234EAD192D1D164643
:103620007E438E199C27F55125781E78F443641942
:10363000E4001E4D6419241D154675434D19A0263E
:10364000AC511E78F4001A4D6419241D15467543BB
:103650004D19A426AC511B785A438918B9228854B5
:10366000FFE70698401C06A90870D3E60A2001F07F
:103670001DFE07B0F0BDC046B4072020095C000065
:103680001E5C0000045C0000145C0000195C00007B
:10369000245C0000FE5B00000E5C00008105202021
:1036A000A50520208E042020B2042020C90520205A
:1036B000D60420204C00202080B5FFF769FEFFF7DC
:1036C00031FE80BD83B002AA107001A8017000789D
:1036D000022801DBFFE721E0694600200870FFE7D0
:1036E0006846007802A90978884217DAFFE701A83E
:1036F000027868460078CC2141430948401890215F
:103700004158087801231A40FE2318408018087099
:10371000FFE70098401C69460870E1E703B0704776
:10372000E800202083B0029001A8017069460A7069
:103730000021405600282ED4FFE7002101A8405662
:10374000042828DCFFE768460078002811D0FFE74E
:10375000002101A84056012383400298902141583E
:103760000878C2081A43D20007231840801808704E
:1037700010E0002101A840560123834002989021C7
:1037800041580878C2089A43D2000723184080188D
:103790000870FFE734E0002101A8405605282EDB21
:1037A000FFE7002101A84056082828DCFFE768460B
:1037B000007800280FD0FFE7002101A84056401FE5
:1037C0000122824002989421415808780F231A4020
:1037D0001043087012E0002101A84056401F012349
:1037E0008340029894214158087802469A430F2357
:1037F0001A40F023184080180870FFE7FFE7FFE742
:1038000003B0704780B586B037480078072805D1E7
:10381000FFE73548C0790A2804D0FFE73349012083
:1038200008705FE0304A917805A801800599090287
:10383000D278891801800088002805D4FFE705A800
:1038400000883B2801DBFFE74CE027484078002850
:1038500013D1FFE705A8007800F04AF823490020BB
:103860000290087020490391C871887148710871ED
:10387000C87088704870087034E01B484078012890
:103880002BD1FFE7194900200870174A107904A9C5
:10389000088004980002527980180880049905A8CD
:1038A00002885300254AD1520088382805D0FFE706
:1038B00005A80088392803D1FFE7FFF729F9FFE7BA
:1038C0000949009100200190C87188714871087100
:1038D000C87088704870087003E0044901200870BF
:1038E00000E0FFE706B080BD1E05202080052020F7
:1038F00010B582B001AB18700D480721017011217D
:10390000417000218170019AC2701A7854000B4AEC
:103910001419647804711B785B00D25A427181716A
:103920000A21C171082101F01BFA02B010BDC04686
:103930002605202001497B2088817047180420201B
:1039400083B00290019100200090019800900098AF
:1039500000680299086003B07047000070B588B035
:10396000024607A8027006AA11700078052801DB3C
:10397000FFE724E207A80078C000011DF748FCF724
:1039800037FC06A8007800280AD1FFE7F349CC20CD
:10399000C870EF2088700C2048700020087030E05C
:1039A00006A8007801280AD1FFE7EC499A20C870E0
:1039B000722088700E2048700020087020E006A851
:1039C000007802280AD1FFE7FE49FE20C870642073
:1039D00088700D2048700020087010E006A800785C
:1039E00003280AD1FFE7F749A820C870F92088709A
:1039F0000F2048700020087000E0E0E1FFE7FFE7DB
:103A0000FFE700F0C3FD05A900200870FFE705A847
:103A1000007807A90978C900091D884212DAFFE772
:103A200005A800900178E7480190405C00F0B4FDE3
:103A3000009A019912788854FFE70598401C05A95F
:103A40000870E4E700F09CFD06A80078002839D152
:103A5000FFE704A900200870FFE704A8007807A981
:103A6000097888422DDAFFE704AB1978CA00D548F7
:103A700014182279647924021419CC2215464D4376
:103A8000D1494D197226AC531E78F4000519AC7952
:103A9000ED792D026419154675434D197426AC5302
:103AA0001B78DC000419207A647A240200195A4336
:103AB000891876228852FFE70498401C04A90870F0
:103AC000CBE77CE106A80078012839D1FFE704A9FB
:103AD00000200870FFE704A8007807A90978884249
:103AE0002DDAFFE704AB1978CA00B648141822791A
:103AF000647924021419CC2215464D43B2494D195C
:103B00007826AC531E78F4000519AC79ED792D02B6
:103B10006419154675434D197A26AC531B78DC00A1
:103B20000419207A647A240200195A4389188C22D5
:103B30008852FFE70498401C04A90870CBE73DE1D8
:103B400006A80078022839D1FFE704A900200870F0
:103B5000FFE704A8007807A9097888422DDAFFE773
:103B600004AB1978CA0097481418227964792402A2
:103B70001419CC2215464D4393494D197C26AC535C
:103B80001E78F4000519AC79ED792D0264191546FB
:103B900075434D197E26AC531B78DC000419207A3E
:103BA000647A240200195A43891880228852FFE758
:103BB0000498401C04A90870CBE7FEE006A8007832
:103BC000032800D0F7E004A900200870FFE704A84C
:103BD000007807A90978884200DBEBE004AB19788C
:103BE000CA00784814182279647924021419CC2266
:103BF00015464D4374494D198226AC531B78DC00A1
:103C00000419A079E479240200195A4389188E22F4
:103C100088520D200290FFE70298122800D9C3E0D5
:103C2000029810282DD8FFE704A80078C000654945
:103C30004018007A029949001A39C840C007002884
:103C40000FD0FFE70298401E0123834004A80078AC
:103C5000CC2141435C484118B4228858184388500D
:103C60000EE00298401E0123834004A80078CC2176
:103C7000414355484118B422885898438850FFE77B
:103C80002CE004A80078C0004E494018407A029900
:103C900049002239C840C00700280FD0FFE702982A
:103CA000401E0123834004A80078CC2141434648AC
:103CB0004118B4228858184388500EE00298401EDC
:103CC0000123834004A80078CC2141433E48411899
:103CD000B422885898438850FFE7FFE702981028DD
:103CE0002DD8FFE704A80078C00036494018007AB4
:103CF000029949001A39C840800700280FD5FFE70C
:103D00000298401E0123834004A80078CC2141433F
:103D10002D484118B0228858184388500EE0029868
:103D2000401E0123834004A80078CC21414326484B
:103D30004118B022885898438850FFE72FE004A824
:103D40000078C0001F494018407A02994900223982
:103D5000C8408007002812D502E0C046FA0420209F
:103D60000298401E0123834004A80078CC214143DF
:103D700015484118B0228858184388500EE0029820
:103D8000401E0123834004A80078CC2141430E4803
:103D90004118B022885898438850FFE7FFE7FFE7B3
:103DA0000298401C029037E7FFE70498401C04A9E2
:103DB00008700CE700E002E0FFE7FFE7FFE708B06C
:103DC00070BDC046FA042020E800202080B584B0F1
:103DD00003A9087000F0DAFB17480190007800F0A2
:103DE000DBFB0198407800F0D7FB0198807800F069
:103DF000D3FB0198C07800F0CFFB02A90420087023
:103E0000FFE702A8007803A90978C900091D8842C4
:103E10000DDAFFE7FF2000F0BFFB02A90A78064990
:103E20008854FFE70298401C02A90870E9E700F0F7
:103E3000A7FB04B080BDC0468E04202080B584B0AE
:103E400003A9087000F0A2FB17480190007800F069
:103E5000A3FB0198407800F09FFB0198807800F068
:103E60009BFB0198C07800F097FB02A90420087022
:103E7000FFE702A8007803A90978C900091D884254
:103E80000DDAFFE7FF2000F087FB02A90A78064958
:103E90008854FFE70298401C02A90870E9E700F087
:103EA0006FFB04B080BDC046B204202070B588B05E
:103EB00004AA0292024607A8027006AA11700078AE
:103EC000052801DBFFE70FE207A80078C000011D0D
:103ED000FE48FCF78DF906A8007800280AD1FFE714
:103EE000FA49C220C870072088700420487000205A
:103EF000087050E006A8007801280AD1FFE7FB49C6
:103F00009420C8709A20887006204870002008709D
:103F100040E006A8007802280AD1FFE7F3495220C2
:103F2000C8705E208870082048700020087030E05B
:103F300006A8007803280AD1FFE7EC490420C870DE
:103F4000C32088700A2048700020087020E006A86E
:103F5000007804280AD1FFE7E4496020C870D52022
:103F60008870092048700020087010E006A80078CA
:103F700005280AD1FFE7DD493620C870482088703F
:103F80000B2048700020087000E0ADE1FFE7FFE77C
:103F9000FFE7FFE7FFE700F0F9FA05A90020087046
:103FA000FFE705A8007807A90978C900091D88421C
:103FB00013DAFFE705A800900178CC480190405C37
:103FC00000F0EAFA009A019912788854FFE7029803
:103FD0004068401C05A90870E3E700F0D1FA022010
:103FE00001F064F904A900200870FFE704A8007834
:103FF000BF490978884200DB76E106A800780028EE
:1040000036D1FFE704A900200870FFE704A8007874
:1040100007A9097888422ADAFFE704AB1978CA00B1
:10402000B24814182279647924021419CC22154656
:104030004D43B0494C531E78F4000519AC79ED7925
:104040002D026419154675434D196C801B78DC00F0
:104050000419207A647A240200195A438918888046
:10406000FFE702980068401C04A90870CEE734E11D
:1040700006A80078012837D1FFE704A900200870BE
:10408000FFE704A8007807A9097888422BDAFFE740
:1040900004AB1978CA00954814182279647924026F
:1040A0001419CC2215464D4392494D19EC801E78C7
:1040B000F4000519AC79ED792D02641915467543A4
:1040C0004D192C811B78DC000419207A647A2402B3
:1040D00000195A4389184881FFE702980068401C7C
:1040E00004A90870CDE7F7E006A80078022837D1C8
:1040F000FFE704A900200870FFE704A8007807A9DB
:10410000097888422BDAFFE704AB1978CA007748B0
:1041100014182279647924021419CC2215464D43CF
:1041200074494D19AC811E78F4000519AC79ED790C
:104130002D026419154675434D19EC811B78DC007E
:104140000419207A647A240200195A4389180882D3
:10415000FFE702980068401C04A90870CDE7BAE0A8
:1041600006A80078032837D1FFE704A900200870CB
:10417000FFE704A8007807A9097888422BDAFFE74F
:1041800004AB1978CA0059481418227964792402BA
:104190001419CC2215464D4356494D196C821E7890
:1041A000F4000519AC79ED792D02641915467543B3
:1041B0004D19AC821B78DC000419207A647A240241
:1041C00000195A438918C882FFE702980068401C0A
:1041D00004A90870CDE77DE006A80078042837D14F
:1041E000FFE704A900200870FFE704A8007807A9EA
:1041F000097888422BDAFFE704AB1978CA003B48FC
:1042000014182279647924021419CC2215464D43DE
:1042100038494D192C831E78F4000519AC79ED79D5
:104220002D026419154675434D196C831B78DC000B
:104230000419207A647A240200195A438918888361
:10424000FFE702980068401C04A90870CDE740E031
:1042500006A80078052837D1FFE704A900200870D8
:10426000FFE704A8007807A9097888422BDAFFE75E
:1042700004AB1978CA001D48141822796479240205
:104280001419CC2215464D431A494D19EC831E785A
:10429000F4000519AC79ED792D02641915467543C2
:1042A0004D192C841B78DC000419207A647A2402CE
:1042B00000195A4389184884FFE702980068401C97
:1042C00004A90870CDE703E00EE0C046FA04202000
:1042D000FFE7FFE7FFE7FFE7FFE7FFE70298006878
:1042E000401C04A9087081E608B070BDFA042020C3
:1042F0004C002020E800202080B588B007A9088065
:10430000604840886049884206DBFFE75D480088D6
:104310005E49884201DBFFE7B2E05D480078012892
:104320001CD1FFE75A4A002050700799518006902F
:10433000FFE7069807280DDCFFE70699CA005548F5
:10434000805A4A0052498918C880FFE70698401CE5
:104350000690EEE74E490220087091E04C48007844
:10436000022830D1FFE7079849494988401A00B22E
:1043700000F06AFE014605A801800021405E322857
:1043800008DBFFE7059842498880079848800420A9
:10439000087017E007983E49488000200490FFE726
:1043A000049807280DDCFFE70499CA003948805AB1
:1043B0004A0037498918C880FFE70498401C0490D8
:1043C000EEE7FFE75CE032480078042858D1FFE7C9
:1043D00007982F494988401A00B200F035FE02289C
:1043E00049DCFFE72A484178491C417040780A2897
:1043F00040D1FFE700200390FFE70398072835DC52
:10440000FFE723480421405E312804DCFFE7204910
:1044100001200870FFE70399CA001E48805A4A002D
:104420001B4901918918C988401A00B200F00CFE9E
:10443000FCF7F4F84C4901F04FFA0146019800915D
:104440000421405EFCF7EAF801460098FBF7D4FF30
:1044500002900298FCF780F80199039A520089189B
:10446000C882FFE70398401C0390C6E70849012073
:104470000870FFE703E0064901200870FFE7FFE747
:1044800008B080BD4C062020160D00005D0D000018
:1044900098062020F005202080B584B003A90020D4
:1044A000088002902C4801902C480068002807D50D
:1044B000FFE72A4802682A490868801A086006E06F
:1044C000264802682649086880180860FFE72448E3
:1044D00000682449884207D3FFE72149002008608B
:1044E0004868401C4860FFE71D484068032141437D
:1044F0001948401A02900298FCF798F80090019829
:10450000FCF794F801460098FBF776FF164901F096
:10451000E3F9FCF721F8014603A80180008813495C
:10452000884205DBFFE7134940221448885210E017
:1045300003A800880E49884205DCFFE70D494022A8
:104540000D48885204E003980A4940228852FFE748
:10455000FFE704B080BDC04600FC0800CC06202068
:10456000640620200051250200401C46DF26000082
:10457000571B000018042020581B000010270000C3
:1045800080B5DF484021FDF739FF80BD80B5DC48AC
:104590004021FDF7B5FE80BD80B586B0014604A878
:1045A000017002AA0021019111800178D848FEF71C
:1045B00067F8019803A90880FFE703A8008831285D
:1045C00006DCFFE7FFE70398401C03A90880F4E737
:1045D00002A900200880FFE7CD48FEF701F8002877
:1045E0000DD0FFE70298411C02A801800088332803
:1045F00004DBFFE705A9002008700AE0ECE7C448E7
:10460000FDF7F8FF014605480170007805A908701C
:10461000FFE705A8007806B080BDC046D40720207B
:1046200080B5034A03480021FDF734FD80BDC04634
:104630009C5E000000A0424080B5FFF7F1FF80BD06
:1046400080B58CB00720FDF791FE0820FDF78EFEA7
:104650000023059301930120C004039000900F20D4
:104660000690042104911A46FDF796FE03980499DA
:10467000059B019300900E2007901A46FDF78CFED3
:104680000698FDF747FE0798FDF744FE1420022127
:104690000891FDF79DFE08991520FDF771FE192080
:1046A00003210991FDF794FE09991820FDF790FE6A
:1046B00009991720FDF764FE3120FDF74DFE162005
:1046C000FDF74AFE8E480A9004490B91FDF70EFE55
:1046D0000A980B99FDF72AFE0CB080BD40004000FF
:1046E00080B582B0114988480190FDF7FAFE019823
:1046F00003214902FDF7E2FE0198FDF797FE0198BC
:10470000FDF7D2FE01981F21FDF724FF019801213A
:10471000FDF70CFF01980021FDF7F6FE0198FDF76B
:104720009BFE0198FDF78EFE02B080BDB45E0000D6
:1047300080B582B00B4976480190FDF781FF019862
:104740000949FDF72BFF01981321FDF769FF019837
:1047500010210222FDF77EFF0198FDF707FF02B04E
:1047600080BDC046B95E0000BC5E000080B5FFE7BA
:10477000FDF7ACFF012189020840884201D0FFE724
:10478000F6E780BD80B582B000200190FDF7A2FF62
:104790000198FDF7D3FFFDF77FFFFDF783FF034887
:1047A000FDF7A4FFFDF788FF02B080BDB65E0000F4
:1047B00080B582B00A4953480190FEF779F8019814
:1047C0000849FDF7F3FF01980121FDF7CDFF122005
:1047D000002100F0F7FB0198FDF7BEFF02B080BD9D
:1047E000C65E0000CC5E000080B582B01849474824
:1047F0000190FEF74DF901981649FEF7E7F8019888
:104800000021FEF74EF9019811211722FEF71AF93F
:10481000019801210091C903FEF7A0F800990F202B
:1048200000F0D0FB009901988902FEF773F8019817
:10483000FEF77CF801987021FEF742F901980221F9
:10484000FEF750F90198FEF759F802B080BDC04656
:10485000E05E0000E25E000080B500F01DF8FFF7AA
:10486000EFFEFFF78FFFFFF7A3FFFFF739FFFFF71B
:10487000BBFFFFF75DFFFFF7DFFEFFF777FF0449A0
:10488000B8220020885403492422885480BDC046A1
:10489000F8062020D006202080B586B0174800906A
:1048A000FDF7A4FD16480190FDF7A0FD1548029004
:1048B000FDF7F2FF14480390FDF7EEFD1348049056
:1048C000FEF7B4F812480590FDF79EFE0098FDF73C
:1048D00039FD0198FDF736FD0298FDF751FF039869
:1048E000FDF7C6FD0498FEF747F80598FDF74AFE68
:1048F0001020FDF77DFB06B080BDC04600000A40D9
:1049000000200A400000864000200F400080104038
:1049100000A04640B0B58EB00A4601460DA8017011
:104920000CA90A800BAB0A221A8000780022895E4B
:1049300000F062FC002874D0FFE700200A90099084
:1049400008900790069005900DA80078C100BD481A
:10495000401842883D480521FCF7D4FB014604A8D5
:1049600001700078042809D1FFE704A8017800222B
:104970000CA8825E09A8FEF7BBF939E004A801780B
:10498000002202920CA80190825E07A8FEF7B0F9FF
:104990000199029A0498401C8A5EC1B205A8FEF7EC
:1049A000A7F902980390FFE7039803281FDCFFE7AD
:1049B00004A80078420025488118805A49880DAA29
:1049C0001278D3009F4AD2185288039B5D0007AB30
:1049D0005B5B05AC645B009400F0F0F903994A005E
:1049E00009A98852FFE70398401C0390DCE7FFE722
:1049F0000DA8007800220CA98A5E09A9FCF708FF1F
:104A000001460BA8018000880A2809D0FFE70DA8FD
:104A10000078012282406A49088910430881FFE733
:104A20000BE00DA800780122824065490889904377
:104A300008810BA90A200880FFE70DA800780BA9C0
:104A4000098800F005F80EB0B0BDC046D45B000088
:104A500010B588B007AA107006A801800088FBF77F
:104A6000E5FD039054480068FBF7D8FD0146039824
:104A700000F032FF5149FBF7BFFCFBF76DFD0590DD
:104A8000002004904E480088C006002804D5FFE7A7
:104A9000494800680490FFE7059801281DDBFFE7FF
:104AA00007A80078C1006748401840680599884207
:104AB0000AD9FFE7059A07A80078C10061484118A4
:104AC0004868801A486007E007A80078C1005D4880
:104AD000411800204860FFE724E007A80078C100E3
:104AE00058484018406856490969059A8918049A37
:104AF000891888420CD2FFE705980499421807A844
:104B00000078C1004F4841184868801A486008E0A2
:104B10004B48006907A90978CA004A4989184860C2
:104B2000FFE7FFE74648006900280BD0FFE707A82A
:104B30000078C100434840184068414909698842EB
:104B400009D9FFE707A801781F48405C4200614986
:104B50001E4888521DE007A800780290C10039481D
:104B600040184068FBF762FD019035480069FBF78B
:104B70005DFD01460198FBF73FFC124900F0ACFED9
:104B8000FBF7EAFC029A1049895C4A0051498852B5
:104B9000FFE707A90B78DA002A48821852689C00C0
:104BA0003D4B1A510978CA00801840884A000849CC
:104BB000885208B010BDC046CC062020000020411D
:104BC0003006202000401C46B85A0000D2040000E5
:104BD0007005202081B06946002008700870FFE74A
:104BE0006846007807280DDCFFE768460078C100BA
:104BF0001448411800204860FFE70098401C6946AF
:104C00000870EDE701B0704781B069460020087078
:104C10000870FFE76846007807280EDCFFE70848C1
:104C2000006969460978CA00064989184860FFE7A3
:104C30000098401C69460870ECE701B07047C04618
:104C40004C062020F005202080B584B003A9088000
:104C500002A90020009008700F4A0192D061906173
:104C600050611061D0609060506010600870FFE784
:104C700002A8007807280DDCFFE702A800780022D0
:104C800003A9895EFFF746FEFFE70298401C02A9D0
:104C90000870EDE704B080BD5005202080B50C48B9
:104CA000FDF77AFD012811D1FFE70A48008D0A4976
:104CB000884204D1FFE7074900200885FFE705493E
:104CC000088D401C0885FCF70BF800E0FFE780BD6D
:104CD0000000864018042020FFFF000070470000FD
:104CE00080B53548FDF768FE102803D1FFE7FEF7D1
:104CF00089FD00E0FFE780BD80B584B015480090D5
:104D000000210291C171817141710171C170817085
:104D10004170017010480190FDF783F901980299E4
:104D20000E4AFDF711FA009A01980299FDF7E6F98B
:104D3000019802990822FDF731FA1F480390FDF708
:104D4000D1FD01980299FDF792F90398FDF7FAFD5C
:104D500004B080BD1E05202000A0424024911040D8
:104D600080B584B0039002A8017001A900200870EA
:104D7000FFE701A8007802A90978884219DAFFE75D
:104D8000039801A900910A78811802A80078821A74
:104D90000948FDF7FDFD009902460198801808704A
:104DA000FFE70548FDF736FE002801D0FFE7F8E7EA
:104DB000DFE7012004B080BD00801040B0B588B0AE
:104DC00014460D4601460C9A06A8018005A90D80DF
:104DD00004AD2C8003AC238002AB1A8000880988C4
:104DE000884207D0FFE703A8008802A90988884203
:104DF00004D1FFE7039807A9088015E0029803A9EA
:104E000009880191401A01B204A8008806AA1288F4
:104E1000801A484305A90988891A00F037FC0199CE
:104E2000401807A90880FFE707A8008808B0B0BDB0
:104E300080B584B003900291029901204202054896
:104E40000190FDF7DBF901980299039AFDF7C8F983
:104E500004B080BD00D00C4080B586B005A90870B4
:104E600004A900200870FFE704A8007805A90978C4
:104E7000884220DAFFE704A800900078C0001D49AE
:104E800001914018001D0621FEF7E8F90099019AEA
:104E9000034602A8038040780B78DB009B189872C9
:104EA00002980978C9008918C872FFE70498401C65
:104EB00004A90870D8E7FFF769FB03A90020087070
:104EC000FFE703A8007805A90978C900091D8842F1
:104ED0000CDAFFE703A801780648405CFFF75CFBAB
:104EE000FFE70398401C03A90870EAE7FFF748FBB7
:104EF00006B080BD8105202080B586B005A9087068
:104F000004A900200870FFE704A8007805A9097823
:104F1000884220DAFFE704A800900078C0001D490D
:104F200001914018001D0621FEF798F90099019A99
:104F3000034602A8038040780B78DB009B18987228
:104F400002980978C9008918C872FFE70498401CC4
:104F500004A90870D8E7FFF719FB03A9002008701F
:104F6000FFE703A8007805A90978C900091D884250
:104F70000CDAFFE703A801780648405CFFF70CFB5A
:104F8000FFE70398401C03A90870EAE7FFF7F8FA67
:104F900006B080BDA505202081B00146684601709D
:104FA00000214056002809D4FFE7684601781F20F9
:104FB00001400120884002490860FFE701B07047C6
:104FC00000E100E070B582B0024601A802700091D5
:104FD00000214056002816D4FFE7002401A90857F5
:104FE0000322D3431840174A805809578C07E50E0F
:104FF000FF24AC40A043009CA401E4B2AC40204399
:10500000194088501AE001A908780F242040083878
:105010000322D34318400A4A8058002549578D0778
:10502000EE0EFF25B540A843009DAD01EDB2B540A1
:1050300028432140083919408850FFE702B070BD6D
:105040001CED00E000E400E082B0014601A8018010
:105050000021405E002806D5FFE7002101A8405E40
:105060004042009004E0002101A8405E0090FFE76C
:10507000009800B202B0704710B596B0034614A86D
:105080000370139112A90A800078C1008448401867
:105090004068FBF7CBFA0B9050480069FBF7C6FA63
:1050A00001460B98FBF7A8F94D4900F015FCFBF7FA
:1050B00053FA014611A801800188002001290C90B3
:1050C00012DBFFE711A8018846480088464A12888B
:1050D000821801200023099391420A9001DB09986C
:1050E0000A900A980C90FFE70C980121084010A93B
:1050F000087011A801883D48C0883D4AD288821AAC
:105100000020914208900EDDFFE711A80188394A7E
:105110000120002306939142079001DB0698079037
:1051200007980890FFE708990120019001400FAA15
:10513000117014A902910978CA0059490391895A3A
:10514000139A1288521D002304939142059001DCAA
:105150000498059001980399029A059B0EAC237060
:105160001278D200895A139AD288521F9142009025
:1051700001DB04980090049900980DAA107012A801
:10518000405E012811DBFFE70FA80078C007002868
:105190000AD0FFE70DA80078C007002804D0FFE779
:1051A00015A90120087015E010E010A80078C007CC
:1051B00000280AD0FFE70EA80078C007002804D016
:1051C000FFE715A90120087004E0FFE715A90020FA
:1051D0000870FFE715A8007816B010BD4C06202017
:1051E00000401C46E65B0000F65B0000DE5B000052
:1051F000EE5B00001027000083B0024601A8027099
:105200006A4611800078C100254840180221405E9E
:105210007D21890088420ADCFFE701A80078C100EF
:105220001F4840180221405E002804D5FFE702A96C
:10523000002008702FE000216846405E002812D44C
:10524000FFE700216846405E1749884206DCFFE719
:1052500000216846405E632804DCFFE702A90020C5
:10526000087018E013E000216846405E0D4988424E
:1052700008DBFFE700216846405E6221C94388429F
:1052800004DBFFE702A90020087004E0FFE702A9A1
:1052900001200870FFE702A8007803B07047C046FD
:1052A000F0052020A4F8FFFF5C07000080B582B065
:1052B00001A90880694600200870FFE76846007869
:1052C00001A9098888420ADAFFE77D200002FCF77D
:1052D0008FFEFFE70098401C69460870EEE702B0B9
:1052E00080BD000080B588B0002002900790FFF7D5
:1052F000B3FA02992F4801902F4AFCF713FF019847
:1053000002992E4AFCF7E8FE019802990822FCF760
:105310002FFF01980299FCF797FE1220FFF73CFE41
:105320000F20FFF739FE1920FFF736FE0320410357
:105330000591012006904202039221480490FCF757
:105340005DFF049805994022FCF740FF039A0599F8
:105350000498FCF753FF049805991A4AFCF740FF9C
:10536000FEF7AAF90698FFF7A1FF0698FFF79EFF40
:10537000FEF7E0FAFDF7DEFB1348FDF7A7FAFBF7AF
:1053800047FBFFF7FDF8FFE7012081050F48FDF718
:1053900041F8FDF7D1FB00F01DF8FBF785FB0C4849
:1053A0000078C007002803D0FFE7FFF7A5FCFFE760
:1053B000EAE7C04600A04240249110401E0520208C
:1053C00000D00C40480020200000864000200A4009
:1053D00080052020F0B591B010AC029400200B9015
:1053E00020700F9094480A900078FDF769FF0B9B9E
:1053F0000193009304200790802108911A46FDF73D
:1054000009FE0A20FFF752FF0A980078FDF758FFBF
:105410000A9800780221FEF7A1FA0A980078012183
:105420000591FEF79BFA0A98007803210691FEF792
:1054300095FA0B9A81480490054672350C95698956
:105440007F4E0D963181A9897181E989B181298ABF
:10545000F1812378CC210391594340181146FEF77E
:1054600061F9039B049805990B9A27787B43C01830
:10547000FEF758F90A980078FDF722FF0A9800789D
:10548000FFF7EAFC0598FFF711FF0A980078FFF78D
:1054900033FD0598FFF70AFF069A07980B9B6949A9
:1054A0004988019200931A46FDF7B4FD64200990E3
:1054B000FFF7FCFE0A980078FDF702FF0A980B99A7
:1054C0000078FEF74BFA039B0498059A0B996F89B5
:1054D000378027787B43C018FEF724F9039B049894
:1054E00005990B9A27787B43C018FEF71BF90A9899
:1054F0000078FDF7E5FE0A980078FFF7ADFC059807
:10550000FFF7D4FE0A980078FFF7F6FC0598FFF73E
:10551000CDFE069A079808990B9B019200931A46B4
:10552000FDF778FD0998FFF7C1FE0A980078FDF7AE
:10553000C7FE0A980B990078FEF710FA03990498B1
:105540000B9A6B8973802378594340181146FEF7F4
:10555000E9F803990498059A2378594340181146AD
:10556000FEF7E0F80A980078FDF7AAFE0A9800789E
:10557000FFF772FC0598FFF799FE0A980078FFF78D
:10558000BBFC0598FFF792FE069A079808990B9BBB
:10559000019200931A46FDF73DFD0998FFF786FE3C
:1055A0000A980078FDF78CFE0A980B990078FEF7B0
:1055B000D5F9039B0498059A0B996D89B5802478D9
:1055C0006343C018FEF7AEF8029B03990498059A4E
:1055D0001B78594340181146FEF7A4F80A98007842
:1055E000FDF76EFE0A980078FFF736FC0598FFF786
:1055F0005DFE0A980078FFF77FFC0598FFF756FEDE
:10560000069A079808990B9B019200931A46FDF79A
:1056100001FD0998FFF74AFE0A980078FDF750FE51
:105620000A980B990078FEF799F90C980D99408922
:10563000C88011B0F0BDC0464C002020E8002020FA
:10564000D4002020985A000043088B421AD300222D
:1056500003098B4279D3030A8B425ED3030B8B423F
:1056600042D3030C8B4227D30902FF2212BA030C48
:105670008B4202D31212090203D0030B8B4233D3A5
:105680001AE0D3E0411A8041401C704703460B43A7
:1056900071D443088B42F5D3002203098B4254D3C3
:1056A000030A8B4239D3030B8B421DD3030C8B426D
:1056B00002D394466EE0090AC30B8B4201D3CB039D
:1056C000C01A5241830B8B4201D38B03C01A524143
:1056D000430B8B4201D34B03C01A5241030B8B4245
:1056E00001D30B03C01A5241C30A8B4201D3CB0230
:1056F000C01A5241830A8B4201D38B02C01A524115
:10570000430A8B4201D34B02C01A5241030A8B4217
:1057100001D30B02C01A5241CDD2C3098B4201D32F
:10572000CB01C01A524183098B4201D38B01C01AAD
:10573000524143098B4201D34B01C01A5241030924
:105740008B4201D30B01C01A5241C3088B4201D3D3
:10575000CB00C01A524183088B4201D38B00C01A80
:10576000524143088B4201D34B00C01A5241411AA7
:10577000524110007047CA0F00D04942031000D3B5
:105780004042534000229C4603098B422DD3030A1A
:105790008B4212D38901FC2212BA030A8B420CD32A
:1057A000890192118B4208D3890192118B4204D353
:1057B000890137D0921100E08909C3098B4201D3D6
:1057C000CB01C01A524183098B4201D38B01C01A0D
:1057D000524143098B4201D34B01C01A5241030984
:1057E0008B4201D30B01C01A5241C3088B4201D333
:1057F000CB00C01A524183088B4201D38B00C01AE0
:105800005241D9D243088B4201D34B00C01A5241B6
:10581000411A00D201465241104663465B1000D344
:105820004042704763465B1000D3404201B50021FF
:10583000004201D0C9430846C046C04602BD000030
:1058400003B40148019001BD0100202070B501257D
:10585000ED0704004C4020D4441A01D2001B091962
:10586000C60D4B00F2B2FF2A29D01B0E2CD000022D
:105870000C0228432C43D31ADC40051910D2280A05
:1058800002D3401C6D0611D0761EF6058019FF2A42
:1058900000DA70BDC00DC00570BD694000F07AF837
:1058A00001200543C541521C761CE8E764089C4072
:1058B000C90161408900E7D10124A043E4E71B0E40
:1058C000440200D0034870BD002AFCD1C00FC007BD
:1058D00070BD00BF0000C07F70B5420064414B0046
:1058E0005C41120E39D01B0E38D0FF2A3CD0FF2B62
:1058F0003AD0D2187F3A40024902400A490A451874
:10590000ED0106004E43000A090A48430104731AD8
:105910004019190C4318990F04D05B08012149075D
:105920005B1A521CD80904D3401CF50301D19D0613
:1059300007D0FF2A08D2D50506D0E4072043401936
:1059400070BD0125A843F4E7002A01DCE00770BD23
:105950002402FF202043C00570BD1B0EFF2A03D088
:10596000FF2B01D0E00770BDFF2636064500B5428B
:1059700006D84D00B54203D8D218FF2A00D0E7E779
:10598000004870BD0000C07F70B50125ED07040020
:105990004C4022D4441A02D26C40001B0919C60D97
:1059A0004B00F2B2FF2A4BD01B0E50D000020C026B
:1059B000A8432C43D31ADC40051B05D5AD0019D3F1
:1059C0006D08761E521E37D0F605280A01D28019BE
:1059D00070BD70416D0603D070BD6940FFF73CFF9C
:1059E0009C4009026140490001D0401E70BD012465
:1059F000A04370BD6D081DD001202B0C01D12D04DA
:105A000010302B0E01D12D0208302B0F01D12D01AA
:105A1000001DAB0F01D1AD00801CEB0F01D16D005B
:105A2000401C361A121A6D00680AF5054019012A41
:105A300002DB70BD002070BDC036300AC00770BDEB
:105A40001B0E440201D1FF2B00D1024870BD002A79
:105A5000F0D070BD0000C07F8182838485868788F6
:105A6000898B8C8D8E8F919293959697999A9C9D08
:105A70009FA0A2A3A5A7A8AAACAEB0B2B3B5B7B970
:105A8000BCBEC0C2C5C7C9CCCED1D4D7D9DCDFE239
:105A9000E6E9ECF0F3F7FAFE000080000100800078
:105AA0000000000101000001010080010100000070
:105AB000000000000000800118191A1B1C1D1E1F89
:105AC0000711C9C008000300020001000F001E00FA
:105AD0003200C800C80032001E000F0001000200A2
