:020000040000FA
:10000000A8062020C5010000C9010000CB010000A6
:1000100000000000000000000000000000000000E0
:10002000000000000000000000000000CD01000002
:100030000000000000000000CF010000D10100001E
:10004000D3010000D3010000D3010000D301000060
:10005000D3010000D3010000D3010000D301000050
:1000600000000000D3010000D301000000000000E8
:1000700000000000D3010000D3010000E5270000CC
:10008000D3010000D301000045270000D301000088
:10009000D3010000D30100000000000000000000B8
:1000A000D301000039220000000000000000000021
:1000B000D301000000000000D3010000D3010000C4
:1000C00000F002F800F052F812A030C808382418E6
:1000D0002D18AC4201D100F049F80FCCA246AB4636
:1000E0000CA730CF2D1B083F3F197C427F1E544484
:1000F0002D090426F441641EAC4201D300F036F809
:100100000126334200D0FB1A3343984754465D46DC
:10011000DFE70000CC2C0000FC2C000000000000F9
:10012000103A02D378C878C1FAD8520701D330C840
:1001300030C101D504680C60704700000000000069
:100140007047000000000000002300240025002666
:10015000103A01D378C1FBD8520700D330C100D583
:100160000B6070471FB51FBD10B510BD00F0E1FD5D
:100170001146FFF7F7FF02F021FC00F0F9FD03B490
:10018000FFF7F2FF03BC00F0FFFD000070B505466D
:100190000C46164602E00FCC0FC5103E102EFAD2C8
:1001A000082E02D303CC03C5083E042E07D301CC8E
:1001B00001C5361F03E021782970641C6D1C761E72
:1001C000F9D270BD06480047FEE7FEE7FEE7FEE70E
:1001D000FEE7FEE703480449024A044B704700006B
:1001E000C1000000A8022020A8062020A80220208C
:1001F000F8B5042A2CD3830712D00B78491C03705E
:10020000401C521E83070BD00B78491C0370401C06
:10021000521E830704D00B78491C0370401C521EE9
:100220008B079B0F05D0C91ADF002023DE1B08C9EE
:100230000AE0FFF7ABFFF8BD1D4608C9FD401C46AC
:10024000B4402C4310C0121F042AF5D2F308C91A77
:10025000521EF0D40B78491C0370401C521EEAD485
:100260000B78491C0370401C012AE4D40978017002
:10027000F8BD01E004C0091F0429FBD28B0701D59A
:100280000280801CC90700D00270704700290BD083
:10029000C30702D00270401C491E022904D3830701
:1002A00002D50280801C891EE3E70022EEE70022CF
:1002B000DFE70000002203098B4273D3030A8B425D
:1002C00058D3030B8B423CD3030C8B4221D312E057
:1002D00003460B437FD4002243088B4274D30309A7
:1002E0008B425FD3030A8B4244D3030B8B4228D348
:1002F000030C8B420DD30902FF2212BA030C8B426E
:1003000002D31212090265D0030B8B4219D300E00D
:10031000090AC30B8B4201D3CB03C01A5241830B92
:100320008B4201D38B03C01A5241430B8B4201D342
:100330004B03C01A5241030B8B4201D30B03C01A6B
:100340005241C30A8B4201D3CB02C01A5241830AE5
:100350008B4201D38B02C01A5241430A8B4201D314
:100360004B02C01A5241030A8B4201D30B02C01A3E
:100370005241CDD2C3098B4201D3CB01C01A5241A5
:1003800083098B4201D38B01C01A524143098B422E
:1003900001D34B01C01A524103098B4201D30B0117
:1003A000C01A5241C3088B4201D3CB00C01A52413C
:1003B00083088B4201D38B00C01A524143088B4201
:1003C00001D34B00C01A5241411A00D2014652419A
:1003D000104670475DE0CA0F00D04942031000D3B9
:1003E000404253409C46002203098B422DD3030A0E
:1003F0008B4212D38901FC2212BA030A8B420CD31E
:10040000890192118B4208D3890192118B4204D346
:1004100089013AD0921100E08909C3098B4201D3C6
:10042000CB01C01A524183098B4201D38B01C01A00
:10043000524143098B4201D34B01C01A5241030977
:100440008B4201D30B01C01A5241C3088B4201D326
:10045000CB00C01A524183088B4201D38B00C01AD3
:100460005241D9D243088B4201D34B00C01A5241AA
:10047000411A00D201465241104663465B1001D337
:100480004042002B00D54942704763465B1000D3C1
:10049000404201B50449002802DC491C084000E044
:1004A0000846C046C04602BDFFFFFF7F7047704749
:1004B000704700000246C80FC00781434B0030B5AB
:1004C0004B405B009B0D20D01923DB06C91801238C
:1004D0001B05994220DB0324A40704251346AB40E7
:1004E0000BD3002B04D1EB0613409B00E34204D452
:1004F00001246407002312195941FF231B05994267
:100500000BD2C9000143500F09E0CB0204D50143CF
:100510000803024305D0054830BDFF21C905084343
:1005200030BD084607210905884330BD0000C07F63
:10053000F0B50C46871A9C410D46861A9D4103D2A0
:10054000C01BA141D21963410D0D1F0DC94EEC1BFB
:10055000AE435CD07F057F0D0026002F51D02D05C6
:10056000AC46A943DD020123ED0A1B051D432023F0
:100570001B1B24D41746E740381871412F46E7402B
:10058000CC199D402818314661410C0D27D161449A
:100590009A4013D50023401C594152000ED1400807
:1005A000400001224B005205D34207D305204007EB
:1005B000C14201D5B04900E0B0493046F0BD6B0002
:1005C000002A00D001229A181F23203C1B1B01D5B2
:1005D000002302E0E540281871410C0DD7D001241A
:1005E00024050919C407CD0740084908E40F28432A
:1005F0006144002CD5D00024401C61419A40D0D1E8
:10060000CDE76A05520DD9D1C90FC907D5E79C4D71
:100610004E00002801D0012400E0002434195F00BE
:10062000002A01D0012600E00026BE19954FAC42F9
:100630000CD8AE420AD8B44206D001256D05EC4272
:10064000BCD010461946F0BD9942FCD00020394676
:10065000F0BDF0B51FB40C460F46811A9F412546E8
:10066000861A9D4106D20125ED076F40401ABC4114
:1006700052187B41210D1E0D8D1BAC467D4D8D43C7
:100680007ED075056D0D7CD00D05AE46AC431B03C9
:100690001B0B794D52429D41202366469B1B14D370
:1006A0001746F740381800260090744160462F46E0
:1006B0000741E41900989D402818664116D47146F8
:1006C00071189A4025D5012320E093182A466A41E3
:1006D0005200002B00D0521C1E23203E9B1B002BDF
:1006E00061DD3541EE1728186641E8D500187641DE
:1006F0005B1C9A4000D3401C4B05F3181524E340C3
:1007000010D3002B52D071467118D30FC01802D3EA
:10071000491C05B0F0BD0123DB079A42F9D140081E
:100720004000F6E701225205B21801D1002853D04B
:100730000123CC0ADB029943891E002A08D1020C4E
:1007400003D0020C0004103902E0024600202039D8
:100750000023550B05D112020823550B01D152017C
:100760000D23550C01D112011B1DD50C01D1920096
:100770009B1C150D01D152005B1C2025EE1A01E0D7
:100780002CE022E00546F54015439840CA1AE107DF
:1007900069181305C918002ABBDA03204007081896
:1007A000C10FC9070FE071466118B2E7F1074008B1
:1007B0000843711071444A000CD001235B059A4232
:1007C000A7D2C90FC9070020A3E74905490D26D1C3
:1007D000002001E00028F4D100219AE7284D6600AE
:1007E000002801D0012100E0002171185F00002ADB
:1007F00001D0012600E00026BE19224FA94210D8E0
:10080000AE420ED8B14208D001256D05E94206D0AE
:100810001946A802414010467BE79C4201D0214680
:1008200077E70020394674E710B50C465C4005D5E3
:100830000124E4076340FFF70CFF10BDFFF778FECB
:1008400010BD30B40C465C4004D50124E40763407D
:1008500030BC6DE630BCFCE670B50124E4076140B5
:100860000D465D4002D4FFF763FE70BD6340FFF7A5
:10087000F0FE70BDFF0700000000F0FF0000F07FF9
:100880000000E0FF0000F87F1F22030C02D10F22BE
:10089000000402D0030E03D004E00020014670479C
:1008A0000002083A030F01D10001121F830F01D18A
:1008B0008000921E002801DB4000521E12055118D4
:1008C0004205C012411810467047C10FC90700D039
:1008D0004042012292071143D6E701218907D3E75D
:1008E000F0B58B4C0F09254689B0BD437BD01D095F
:1008F0002646AE43FAD00E465E402740F60F3E43F2
:10090000254071D024012142FBD0FF24AD19A4045D
:100910002D1B039501252D05DB02DB0AC9022B43A4
:10092000C90A29431E010901040F130F05012143C0
:100930001701880B820391432D098C46A90B1E4396
:100940008A039543B30B9A0396433F09BA0B94036A
:10095000A74302962E467E430497B6464E19D719F2
:100960000C460196544305977E43371B7646BF1BC2
:100970003601B646BE0B361900967646BC043719CA
:10098000009C01D3641C00946400002F01D0012658
:100990003443029E049F754366467E430496760068
:1009A00034196E0034190094029C019E1C19664390
:1009B000751BAE46069465464519059C05956C4326
:1009C000594375460891691A0191049E01465143A5
:1009D000A41B0491611A009C0791E10605D06109EE
:1009E0000122114302E072E06EE06109089D0027D8
:1009F0002C0A2D066918049D7C412A0A2D066918C7
:100A0000019D6241AC0DAD026D185441079A910DE4
:100A1000920255196141029A644658435443069B19
:100A2000059A5A43121A131B9A0E9B015B187A41BE
:100A3000010B0005C3185141220A200644195A41EE
:100A40009A4200D2491C01204002814203D315235F
:100A50000226F64302E014230326F6432020C51A9B
:100A6000A9401746AF40DA400A4320460399D840D0
:100A70000914731819055118039A3843D2075140C5
:100A8000AC4009D00122944006D30022401C5141C1
:100A9000002C01D1400840001E4A934212D301228B
:100AA00003989206904207DB0520400709181A4870
:100AB0000143C012414004E0032040070818C10F61
:100AC000C907002009B0F0BD0020F107FAE70518BA
:100AD0000C464C4111486D42A04115D394181A465A
:100AE0005A410E48644290410ED301204A0040050D
:100AF000824209D35A00824206D35940C90F084A9C
:100B0000C90700201143DDE700200649DAE70000AD
:100B10000000FF07FE070000FFFFFF7F0000E0FF6F
:100B20000000F07F0000F87FF0B5FF252D04C60916
:100B3000C209FF2704462E400137CB093E434840F7
:100B40002A402B400746002A6BD0002B69D0AA42CE
:100B500067D0AB4265D0002800DA32460125ED05AA
:100B600029432C4309022002090AD21A4B0C7F2484
:100B7000E31A434C000A7C44E35C7D2424041219EC
:100B800014145B00A218884201D3521C00E04000FC
:100B900049420C465C4324115C43DB016415E318B5
:100BA000040A5C43C502200D0C4644436419250A1F
:100BB0005D432303EC0C0D46654300030019EB185D
:100BC0004C42A34201D35B18401CD4052018002BD3
:100BD00007D05B00C91804D3401C002901D140088C
:100BE00040003F2189048A4209D3002A08DC11060B
:100BF000090F04D0032149074018C00FC007F0BDFA
:100C000001224100120689187F2252069142F6D233
:100C100005214907C84201D59010F0BDFF20C0054D
:100C2000F0BD002F00DA32461648AA4207D2AB4286
:100C300005D21902090E17D0F80FC007F0BDFF2525
:100C400063002D06AB42F9D84900A942F6D8AB4261
:100C500001D1A942F2D0A94201D1002101E06100F5
:100C60004908D0050843F0BD1102090EFBD0FF2052
:100C70000243D005F0BD0A460146104654E7000085
:100C8000CA2100000000C07F10B501469E2400026A
:100C9000CA15A307002A02D01843002A04DBA21AAF
:100CA000002A0CDDD04010BD1206120E01D140000A
:100CB0004008A21A03D4D04040420028F3DDFF22AE
:100CC00048001206904201D9002010BDC817C04349
:100CD000584010BD1F22030C02D10F2200041CD06B
:100CE000030E01D10002083A030F01D10001121FC7
:100CF000830F01D18000921E002801DB4000521EAC
:100D0000D2055118021251181922904004D3491CDF
:100D1000002801D14908490008467047C10FC9079A
:100D200000D04042012292071143D3E701218907F5
:100D3000D0E7754600F024F8AE46050069465346F4
:100D4000C008C000854618B020B5FFF743FA60BC64
:100D5000B64600260027C0C5C0C5C0C5C0C5C0C5B1
:100D6000C0C5C0C5C0C5403D490849008D46704753
:100D700010B50446C046C0462046FFF700FA10BD35
:100D8000004870473800202001491820ABBEFEE71C
:100D90002600020070470000F0B583B0BC48002177
:100DA0000161416181610091C1612620B949085EFC
:100DB000FFF7B4FFB849FFF7B7FEB84901F06AFF83
:100DC000FFF762FF0421CD434543E5490D60E34A47
:100DD00053680290002806D4DF490C6961198B42E0
:100DE00007D3274606E05F1B00D20027DA480469D4
:100DF00000E05F1B5760AA48002C019010D03846D5
:100E0000FFF794FF06462046FFF790FF0146304665
:100E1000FFF78AFEA34901F03DFFFFF735FFCF4AF8
:100E20009B490F60DB49088650889F490880D0683D
:100E30000299002904D46119884205D3274604E0A9
:100E4000471B02D2002700E0471BD760002C9448C4
:100E500010D03846FFF76AFF06462046FFF766FFC8
:100E600001463046FFF760FE8E4901F013FFFFF7A1
:100E70000BFFBA4A86494F60C649488650898A495D
:100E8000488050690299002904D46119884205D329
:100E9000274604E0471B02D2002700E0471B5761AA
:100EA000002C7F4810D03846FFF740FF064620460A
:100EB000FFF73CFF01463046FFF736FE794901F067
:100EC000E9FEFFF7E1FEA54A71498F60B1498886C6
:100ED000508A75498880D0690299002904D4611923
:100EE000884205D3274604E0471B02D2002700E0D2
:100EF000471BD761002C6A4810D03846FFF716FF11
:100F000006462046FFF712FF01463046FFF70CFE6B
:100F1000644901F0BFFEFFF7B7FEF04A5C49CF60BD
:100F2000EF49C886508B6049C880506A02990029F1
:100F300004D46119884205D3274604E0471B02D236
:100F4000002700E0471B5762002C554810D0384658
:100F5000FFF7ECFE06462046FFF7E8FE0146304666
:100F6000FFF7E2FD4F4901F095FEFFF78DFEDB4AEA
:100F700047490F61DA490887508C4B490881D06A8C
:100F80000299002904D46119884205D3274604E058
:100F9000471B02D2002700E0471BD762002C4048C5
:100FA00010D03846FFF7C2FE06462046FFF7BEFEC9
:100FB00001463046FFF7B8FD3A4901F06BFEFFF7F6
:100FC00063FEE74A32494F61E4494887508D36490C
:100FD0004881506B0299002904D46119884205D3D5
:100FE000274604E0471B02D2002700E0471B576357
:100FF000002C2B4810D03846FFF798FE06462046B6
:10100000FFF794FE01463046FFF78EFD254901F0BB
:1010100041FEFFF739FED24A1D498F61CF498887CB
:10102000508E21498881D06B0299002904D461191E
:10103000884205D3254604E0451B02D2009D00E00E
:10104000451BD563002C11D02846FFF76FFE0646DE
:101050002046FFF76BFE01463046FFF765FD11495C
:1010600001F018FEFFF710FEBD4A0190EA48C56185
:10107000BA480199C187508F0B49C88100F06EFEB4
:10108000E34881680161E648016003B0F0BDC046F5
:101090002C012020A60020200000C8410000204193
:1010A000D204000000401C464C012020F0B5D84876
:1010B00001880A0733D506220B4613402FD04B0771
:1010C00014D58368C4684569EE18A64F3E61A44FE5
:1010D000FE637E63FE627E62FE617E61FE607E6014
:1010E0001B1B5B198660C660066143618B0712D5C6
:1010F0009B4B0024DC635C63DC625C62DC615C61F2
:10110000DC605C60836884604469E31AC468E31847
:10111000C360944C23610023436191430180F0BD7F
:1011200010B5BB4800246B490A4A42608160C16027
:1011300001614461092202808A488460C4600161BF
:1011400044618480046086484021FFF7B0F8044879
:10115000046010BD10271027C80120207001202036
:10116000E001202042217D48415A0B4A914204D39C
:10117000A7490A88042313430B804421405A401E88
:101180000649884204D8A248018802220A43028004
:101190007047C046A6002020FC0D0000530B000045
:1011A000F0B581B09A480188C80700D187E0009166
:1011B00019208602306943494118434B434A9942FA
:1011C00000D3024667480261B069414C2060414A41
:1011D000414990420B4600D80346614F7B60306A1C
:1011E000606090420B4600D80346FB60B06AA06086
:1011F00090420B4600D803467B61584B18883880D4
:10120000D88B788078815888388198883882188C73
:101210007882356BE56095420A4600D82A46FA6125
:10122000DA8878833A8318893884B06B2061294A38
:1012300090420A4600D802467A62588C7884356C0F
:101240006561244A95420A4600D82A46FA625A89BC
:1012500078853A85B06CA0611E4A90420A4600D853
:1012600002467A6398893886306DE061194A904267
:101270000A46674D00D80246FA63988C7886326831
:10128000EA60DB8978873B87B3682B610D481018CB
:101290000D4A904201D20D48E86000202060606055
:1012A000A060E06020616061A061E0610948834264
:1012B00000D81946A960012000998143298001B016
:1012C000F0BDC046FF2F22F97FB5A2FA004768059E
:1012D0000C01202000D0DD068085800170012020D7
:1012E000A6002020F0B581B0FFF75AFF1B48028806
:1012F0001B490A80C28B4A804A8143880B818388BC
:101300000B82038C4B824B83C4880C8304890C842E
:101310004224065B4424075B3D4C6588114C678082
:101320002680448C4C844C8546890E8586890E86A1
:10133000868C4E864E87C0890887981800198019B8
:101340004000401980B2C00831494880FFF724FDB1
:10135000FFF7ACFE00F008F801B0F0BDA6002020B9
:1013600070012020C801202070B527480188491C41
:1013700001800188772916D11920840201204602B4
:10138000224D28462146324600F076FD402228466E
:10139000214600F057FD083428462146324600F029
:1013A0006BFD1F4A25E00188782914D301887F2925
:1013B00011D806880088C00016494418012042024E
:1013C000124D2846214600F057FDB0001249401842
:1013D000124942180DE0018880290FD1192084029A
:1013E00001204202094D2846214600F045FD084AE9
:1013F0000C322846214600F031FD70BD018881295C
:1014000001D30021018070BDA402202000D00C4037
:10141000B0012020586000002C01202020FEFFFF9A
:101420009C002020F0B58FB004900CA900254D70D1
:10143000122008703E2702243846224600F08AFF18
:10144000204601F09FFA3C2001F09CFA0CA94D7057
:101450009020087038460B97224600F07BFF20460C
:1014600001F090FA0820069001F08CFA0CAE75712C
:1014700035712D20F07080200190B070922008907E
:10148000707034203070042203923846314600F0E8
:1014900061FF204601F076FA0EA9062005904870FB
:1014A00070780C9A8018B2788018F2788018C0434F
:1014B0000870602630460996224600F04BFF204611
:1014C00001F060FA0CAF7D713D71FD70012002905A
:1014D000B870089878703720387003220A920B98F9
:1014E000394600F037FF204601F04CFA0EA90520DE
:1014F0000790487078780C9A8018BA788018C043A2
:1015000008703046224600F025FF204601F03AFAE6
:101510000CAF7D713D71FD700D20B870089E7E701E
:10152000362038700B9839460A9A00F013FF20468F
:1015300001F028FA0EA90798487078780C9A80185C
:10154000BA788018C04308700998224600F002FF5C
:10155000204601F017FA0CAF7D713D71FD704220FD
:10156000B8707E70FB2038700B9839460A9A00F0EC
:10157000F1FE204601F006FA0EA9079E4E7078781B
:101580000C9A8018BA788018C043087009982246CF
:1015900000F0E0FE204601F0F5F9049F38460830DF
:1015A000039901F0E7F83846069901F06DF90CAFA0
:1015B0007D713D71FD70BC20B87008987870612015
:1015C00038700B9839460A9A00F0C4FE204601F0A4
:1015D000D9F90EA94E7078780C9A8018BA788018CC
:1015E000C0430870099E3046224600F0B3FE2046F4
:1015F00001F0C8F90CAF7D713D71FD70F720B87036
:1016000008987870622038700B9839460A9A00F072
:10161000A1FE204601F0B6F90EA907984870787827
:101620000C9A8018BA788018C04308703046224659
:1016300000F090FE204601F0A5F90CAF7D713D71E0
:10164000F820F87082200090B870089878706D20AB
:1016500038700B9E30463946039A00F07BFE2046D8
:1016600001F090F90EA90598487078780C9A8018C6
:10167000BA788018FA788018C04308700998224612
:1016800000F068FE204601F07DF90CAF7D713D71E0
:10169000FD700A9ABA7093200390787035203870E4
:1016A0003046394600F056FE204601F06BF90EA98F
:1016B0000798487078780C9A8018BA788018C043D8
:1016C00008700998224600F045FE204601F05AF9BC
:1016D0000498007D0CAF7D713D71FD70B870089E5F
:1016E0007E70752038700B9839460A9A00F032FEE9
:1016F000204601F047F90EA90798487078780C9AAF
:101700008018BA788018C04308700998224600F003
:1017100021FE204601F036F90498407D0CAF7D7122
:101720003D71FD70B8707E70782038700B98394626
:101730000A9A00F00FFE204601F024F90EA9079E38
:101740004E7078780C9A8018BA788018C043087068
:101750000998224600F0FEFD204601F013F90CAF77
:101760007D713D71FD700598B870039878700A9A84
:101770003A700B98394600F0EDFD204601F002F971
:101780000EA94E7078780C9A8018BA788018C043E9
:101790000870099E3046224600F0DCFD204601F02C
:1017A000F1F80CAF40207871F22038711A20F870EF
:1017B000D220B87091207870A82038700B983946E4
:1017C000059A00F0C7FD204601F0DCF80EA9069846
:1017D000487078780C9A8018BA788018FA7880184F
:1017E0000D9A80187A798018C043087030462246D6
:1017F00000F0B0FD204601F0C5F80CAF7D713D71E1
:10180000FD70079EBE7008987870019838700B982C
:1018100039460A9A00F09EFD204601F0B3F80EA961
:101820004E7078780C9A8018BA788018C043087087
:101830000998224600F08EFD204601F0A3F80CAF77
:101840007D713D71FD700A20B8700898787000981D
:1018500038700B9839460A9A00F07CFD204601F05A
:1018600091F80EA94E7078780C9A8018BA78801882
:10187000C04308700998224600F06CFD204601F034
:1018800081F80CAF7D713D71FD70BE700898787065
:10189000862038700B9839460A9A00F05BFD204686
:1018A00001F070F80EA94E7078780C9A8018BA780A
:1018B0008018C04308700998224600F04BFD20466E
:1018C00001F060F80CAF7D713D71FD700A9ABA703D
:1018D000089E7E70872038700B98394600F03AFDDC
:1018E000204601F04FF80EA90798487078780C9AB6
:1018F0008018BA788018C04308700998224600F012
:1019000029FD204601F03EF80CAF7D713D71FD7060
:101910000298B8707E70952038700B9E304639461C
:101920000A9A00F017FD204601F02CF80EA907983E
:10193000487078780C9A8018BA788018C04308707C
:101940000998224600F006FD204601F01BF8069F8C
:10195000384601F017F80CA94D7008980870304609
:10196000224600F0F7FC204601F00CF8384601F062
:1019700009F80CA94D70222008703046224600F06C
:10198000E9FC204600F0FEFF384600F0FBFF0CA902
:101990004D70962008703046224600F0DBFC204651
:1019A00000F0F0FF384600F0EDFF0CA94D709A20D2
:1019B00008703046224600F0CDFC204600F0E2FFE1
:1019C000384600F0DFFF0FB0F0BD0000B0B5622078
:1019D0008E4C022521462A4600F03AFC284600F0AB
:1019E000D1FF607821780002401801490880B0BD1D
:1019F00098002020F0B581B06A20844C0225214651
:101A00002A4600F025FC284600F0BCFF60782178CB
:101A100000024018FEF759FF2C4F2D4B3A46FEF7B7
:101A20005FFF2C4A2C4BFEF7FFFEFEF743FDC84E2E
:101A300030606E2021462A4600F00AFC284600F05D
:101A4000A1FF6078217800024018FEF73EFF3A4679
:101A50001F4BFEF745FF1F4A1F4BFEF7E5FEFEF743
:101A600029FD7060742021462A4600F0F1FB2846CB
:101A700000F088FF6078217800024018FEF725FF0B
:101A80003A46134BFEF72CFF124A134BFEF7CCFEDF
:101A9000FEF710FDB060762021462A4600F0D8FB04
:101AA000284600F06FFF6078217800024018FEF7AA
:101AB0000CFF3A46064BFEF713FF064A064BFEF7AD
:101AC000B3FEFEF7F7FCF06001B0F0BD9A9999996A
:101AD0009999B93F66666666661271C0B0B53A20DC
:101AE0004A4C022521462A4600F0B2FB284600F067
:101AF00049FF607821780002401897490880B0BDFE
:101B0000B0B57F20414C022521462A4600F0A0FBBB
:101B1000284600F037FF6078207801490870B0BD92
:101B2000A0002020F0B581B00320384C02252146CA
:101B30002A4600F08DFB284600F024FF60782078CC
:101B40001D4E307020784007C00F1C490870207867
:101B50000007C00F1A49087060780007C00F1949C4
:101B6000087060788007C00F17490870052021466B
:101B70002A4600F06DFB284600F004FF60782078CC
:101B8000124F3870072021462A4600F061FB284694
:101B900000F0F8FE607820780D4908703178081858
:101BA00039784018012801D8002000E001200949B7
:101BB000087001B0F0BDC046A00220206D012020B9
:101BC000A300202000012020A2002020A10220202C
:101BD000A2022020F200202070B504460B4D022600
:101BE0002946324600F034FB304600F0CBFE6878E0
:101BF000297800024018143CE1B21F2903D30A21BE
:101C0000414388B270BD80B270BDC046F300202051
:101C100070B54E4800F0BEF93020FFF7DDFF4424D8
:101C20006B4D28534226A853A8811420FFF7D4FFF8
:101C3000A95B814200D80146A953295B814200D3A8
:101C40000146295328801620FFF7C6FFA95B814271
:101C500000D80146A953295B814200D3014629538C
:101C600068801820FFF7B8FFA95B814200D80146C1
:101C7000A953295B814200D301462953A8801A2029
:101C8000FFF7AAFFA95B814200D80146A953295B4F
:101C9000814200D301462953E8801C20FFF79CFFB6
:101CA000A95B814200D80146A953295B814200D338
:101CB0000146295328811E20FFF78EFFA95B814230
:101CC00000D80146A953295B814200D3014629531C
:101CD00068813220FFF780FFA95B814200D801466E
:101CE000A953295B814200D301462953E88134205E
:101CF000FFF772FF28823820FFF76EFF6882FFF738
:101D000079FE134E3068134C214600F0C3FFFEF7F6
:101D1000BBFFE8837068214600F0BCFFFEF7B4FF0C
:101D20002884B068214600F0B5FFFEF7ADFF688457
:101D3000F068214600F0AEFFFEF7A6FFA884FFF78B
:101D4000CDFE05480088E88470BDC04600200F40E5
:101D50005C01202000002041A4002020B0B51849DB
:101D60008A6818480368012B07DB9A4209D8981A39
:101D70004A6980184861002009E0C868C418A24276
:101D800001D2D01A03E0121B4B69D2184A61886055
:101D9000CC68002C0FD0FEF7C9FF05462046FEF7A1
:101DA000C5FF01462846FEF7BFFE084900F072FF56
:101DB000FEF76AFF00E004480549C885B0BDC0468B
:101DC000B0012020E0012020D204000000401C4689
:101DD000A600202010B582B001A90870000A487042
:101DE0003E200224224600F0B5FA204600F0CAFD4B
:101DF00002B010BD811E091F00BFFCD27047000059
:101E000070B50B01C31854689568254394892C4319
:101E1000156956692543D48924012C43350125438E
:101E2000092464021D51137852781A43BF231A40C3
:101E300089004018024944589C43A218425070BD82
:101E40001011000080B502231343034A8350821807
:101E5000D16100F019FF80BD0411000070B511239D
:101E60001B02C41801256560FF26103666622162D8
:101E700011682163C55070BDF0B583B002920E4663
:101E80000190354C20680527276007252840334BF3
:101E900019682060226827602A4018682260304B49
:101EA0000096B60A89048A0F314609D02D490840A8
:101EB000511C00F0EDFD01463046FEF7FBF9284BC2
:101EC0000198C018019022682760244803682A40BE
:101ED00022602268276003682A4022600122930260
:101EE000029898420CD05302984210D10098C30B2C
:101EF0000FD1B240019801689143016003B0F0BD79
:101F00001F210E40B2400198016C9143016403B05F
:101F1000F0BDFF2911D8236827602B400F4D2D6895
:101F20002360AB049B0F00D12039C9088A40019877
:101F300041689143416003B0F0BD1302FF33994201
:101F4000E5D2FF23DB43C918C9088A40019881689C
:101F50009143816003B0F0BD001340401800C441BC
:101F6000D0110000FF0F000010B5002A0FD0912300
:101F70005B01C3180020DC692405240F05D00C5C2C
:101F80001C60401C8242F6D1104680B210BD002079
:101F900080B210BD0F4A83580121C9030B438350FF
:101FA000801842681207FCD102688A4302607047B9
:101FB000084A835880210B43835080180F22120255
:101FC000436813400122D2029342F7D102688A4348
:101FD000026070473812000070B50A780C231A406E
:101FE0000124240305196E689E43B2186A6049787B
:101FF00007221140035993435918015170BD000045
:10200000B0B5FF2204320E490B6893438278032453
:1020100014400278120212191A430A60094A0A4B44
:1020200013600A4C25686D05FCD54078002803D064
:102030000868102404430C60581C1060B0BDC046F2
:1020400014010B4014030B400100009104020B40EB
:10205000B0B54A68364BC250364A80180A78222AF0
:1020600058D8930001A4E3589F46C0460B210000B6
:10207000152100000B210000152100001521000092
:102080001521000015210000152100001521000078
:102090001521000015210000152100001521000068
:1020A000152100001521000015210000F920000075
:1020B00015210000F9200000152100001521000065
:1020C0001521000015210000152100001521000038
:1020D0001521000015210000152100001521000028
:1020E000152100001521000015210000F920000035
:1020F00015210000F920000003231B0704689C43FE
:1021000001235B07E318036004E003231B07046853
:102110009C4304600B69C360CB68074C1C40C36AD6
:10212000064D1D402B19C362097A11430160B0BDF1
:102130000818000004180000777702008888FDFF67
:1021400010B50122120383180C789C604B788350E1
:102150008978014A815010BD0C11000010B5002A89
:102160000CD0074BC31800201C68240605D40C5C57
:102170009C61401C8242F7D1104610BD002010BD6A
:1021800008110000B0B51122120283580124A343A4
:1021900083500B888C781C438B882343094C1C404C
:1021A0008358094D1D40631983508B79CC791C43AA
:1021B000097A21437E231940801842689A435118B6
:1021C0004160B0BD18670000E798FDFF10B501221F
:1021D000120383180C789C604978815010BD000070
:1021E00010B55B480078401E414241414620AF4C4B
:1021F0002152FFF7EBFBFFF795FCFFF781FC084846
:102200000088A08207480078E08207480078208391
:1022100006480078608306480078A08310BDC04659
:1022200098002020A0022020A1022020A20220202D
:10223000A00020207047000004480068C0B20828B1
:1022400002D14348012101707047C04620300F4041
:10225000F0B583B0144602AF3870019108461146BC
:10226000FEF723F8C24839462246FFF77DFE614F4C
:102270003868800608D43868800605D43868800637
:1022800002D438688006F3D53E46083E30685A4985
:102290000840103030603A1F1068584908402B49F8
:1022A0004018154610603868400612D53868400658
:1022B0000FD5386840060CD538684006F3D408E0DE
:1022C0003868800608D43868800605D438688006E7
:1022D00002D438688006F3D5A548FFF769FE306858
:1022E00045490840112101433160286843490840AD
:1022F00021040143072008432860002C01991ED0C7
:102300000025134A0BE0282C34460199104A18D2B4
:1023100000201070786848556D1CA5420FD0786A6F
:102320000007F5D1264600200446502000F038FB77
:10233000786A0007E7D1601C282CF5D3E3E703B0E7
:10234000F0BD0120107003B0F0BDC04607000100D1
:10235000A1002020B0B582B01446002200926B4646
:1023600018700192002C04D06846401C2246FDF7EC
:102370003FFF651C7E4C694620462A46FFF7F4FD68
:102380001C480168890608D40168890605D40168DB
:10239000890602D401688906F3D5014608390A681E
:1023A000154B134010330B60011F0A68134B134089
:1023B0002A049A18D21D0A600168490612D50168DC
:1023C00049060FD5016849060CD501684906F3D4C2
:1023D00008E00168890608D40168890605D4016807
:1023E000890602D401688906F3D52046FFF7E0FD8F
:1023F00002B0B0BD18320F4000F8FFFFF8FF00F048
:10240000B0B5254C2078072827D1E0790A2824D1B7
:10241000A078E1780002401825283BD86278002A8D
:102420001FD06278012A18D1227963791202D2185A
:102430004300CE48C252194A002313703E22114075
:10244000242924D14A21415A4822825A120451187F
:1024500009688185090C418519E010480121017046
:10246000B0BD0F48C170002585701122427007224F
:1024700002700A22C27185714900BC4A515A4171E9
:10248000090A0171082100F0D9F9044805700020FB
:1024900020606060B0BDC046F80020206C012020A4
:1024A00001012020B1487B2181817047A6002020B6
:1024B00080B503480021034AFFF7A2FC80BDC04657
:1024C00000A04240842D000080B5FFF7F1FF80BDE1
:1024D0000F4801461C3900220A60014618390A607B
:1024E0000C494160016001214A064368134343607F
:1024F00003681343036082228261074AC26107486E
:102500008122026088050649086008637047C0465A
:102510003C80424084000C0082000400C88042409D
:10252000A0320A4080B512481249FFF755FD03203A
:102530004102114802680A43026001210A0203684D
:1025400013430360002242611F224262826B0A43EE
:1025500006239A43826307221202836B93438363A9
:10256000826A042313438362826A0A43826280BDC3
:1025700000200F409C2D000000320F4001208002FF
:1025800006490A68024208D10A68024205D10A686F
:10259000024202D10A680242F3D0704704020B40A3
:1025A000B0B50E48002101600320C0430C4C214609
:1025B00008390A6802400A6020680125A8432060A3
:1025C00028022168814321600648FFF719FD28038E
:1025D000211F0A6802430A60B0BDC04608030B40D1
:1025E00008010B409E2D000010B50B4C0B492046F6
:1025F000FFF7A6FD0A492046FFF72AFD09480168B2
:10260000012211430160FF20000407490B68834346
:102610000B600648026010BD00008640A12D00003E
:10262000A42D00002810864010E400E00811864028
:10263000B0B5944C20492046FFF7C8FD1F492046FD
:10264000FFF7A0FD0320C1037B4802688A430260B4
:1026500001691B4A0A4011320261416917220A438B
:1026600028218A434261426801210A4043688B4322
:102670009A184260CA03134B1C6814431C60FF2263
:102680001206114C256895438A07AA1822608A020F
:102690001A634A04036813430360C2687023134338
:1026A000C360C2680223134305229343C3600268D8
:1026B0000A430260B0BDC046B82D0000BA2D00002C
:1026C0000000FFFF289010400CE400E080B500F00F
:1026D00015F8FFF7FDFEFFF763FFFFF785FFFFF734
:1026E00021FFFFF7A5FFFFF7EFFEFFF747FFB82039
:1026F000014900220A5480BDE4012020B0B50A48F7
:102700000A4941600A4A51600A4B59600A4C6160AB
:102710000A4D69600A4901601160196021602960F1
:102720001020FFF767FBB0BD00080A40030000B1AE
:1027300000280A400008864000280F40008810400A
:102740000100002680B508480068C0B201280AD1FF
:102750000648018D064A914201D0491C00E0012142
:102760000185FEF7BFFD80BD20108640A600202019
:10277000FFFF0000F0B585B0002930D0054602A863
:10278000C01C00900191288804AE00213180009A7D
:1027900091705170117002AF0721B970010A797000
:1027A00038703E2003223946FFF7D4FD022420462C
:1027B00000F0E8F805207070787802994018B97830
:1027C0004018C0433070602031462246FFF7C2FDFA
:1027D000204600F0D7F80199AD1C491ED2D105B0B2
:1027E000F0BD000080B504480068C0B2102801D1D7
:1027F000FFF706FE80BDC0462090104010B59C4BF0
:1028000000201860586098480168022291430160D6
:1028100009490C462434446083600823C3600123C3
:102820005B040C689C430C600468144304600868F3
:102830001843086010BDC04600911040F0B581B04B
:1028400000291AD00C46054600260D4F03E08019DA
:10285000C6B2A64211D2A919A21B0A48FFF77EFCF4
:102860003968C907F3D03968C907F0D03968C90792
:10287000EDD03968C907F3D1E9E7012001B0F0BD17
:102880000891104000801040F0B587B000220391FD
:102890000029134616464FD0032403990C400429FF
:1028A00005D2002635463346002C2CD144E0019455
:1028B0000292FC2303991940039100252B464719E6
:1028C0007E78143E7410012219461346A340445DDD
:1028D000143C64101646A6408C19E318BC78143CCE
:1028E00064101646A6409B19FC78143C6410A24064
:1028F0009B182D1D0399A942E1D199B20E0A029AA3
:10290000019C002C18D0415D14394E1001210F4656
:10291000B740DB19012C0DD040194578143D6D10DE
:102920000E46AE409B19022C04D08078143840101B
:1029300081405B1898B2060A04AC62712271E6709D
:10294000A37093206070042222703E202146FFF77E
:1029500001FD0225284600F015F806A9062048705A
:102960006078049A8018A2788018E2788018C043B2
:10297000087060202A46FFF7EDFC284600F002F8B8
:1029800007B0F0BDB0B5002809D0044600257D2071
:102990000002FFF72FFA6D1CE8B2A042F7D3B0BDDA
:1029A000B0B5002808D0044600252020FFF722FA01
:1029B0006D1CE8B2A042F8D3B0BD0000FFF786FE60
:1029C00029482A4941602A4981600821C16001687B
:1029D00002220A4302600124A00426490860E003A1
:1029E000086060060860032045036702224E3046F7
:1029F00029463A46FFF740FA402230462946FFF77B
:102A000021FA304629463A46FFF736FA1B4A304645
:102A10002946FFF723FA1A48FEF704FD2046FFF780
:102A2000B1FF2220FFF7D6F92046FFF7ABFF9A202F
:102A3000FFF7D0F9FFF736FDFFF7FCFB11480168FF
:102A400021430160FEF76CFB0F4D104EA00528607E
:102A5000FFF7DEF8FEF786FBFFF7C2FB30780028B1
:102A6000F4D0FFF7CBFEF1E700B2424024911040D2
:102A7000F800202000E100E000D00C4034002020CD
:102A8000C42D000004188640B0320A406C0120209A
:102A900043088B421AD3002203098B4279D3030ADD
:102AA0008B425ED3030B8B4242D3030C8B4227D362
:102AB0000902FF2212BA030C8B4202D3121209023E
:102AC00003D0030B8B4233D31AE0D3E0411A804189
:102AD000401C704703460B4371D443088B42F5D327
:102AE000002203098B4254D3030A8B4239D3030BD0
:102AF0008B421DD3030C8B4202D394466EE0090A2D
:102B0000C30B8B4201D3CB03C01A5241830B8B42C0
:102B100001D38B03C01A5241430B8B4201D34B03A9
:102B2000C01A5241030B8B4201D30B03C01A52410E
:102B3000C30A8B4201D3CB02C01A5241830A8B4293
:102B400001D38B02C01A5241430A8B4201D34B027C
:102B5000C01A5241030A8B4201D30B02C01A5241E0
:102B6000CDD2C3098B4201D3CB01C01A5241830994
:102B70008B4201D38B01C01A524143098B4201D3CE
:102B80004B01C01A524103098B4201D30B01C01AF9
:102B90005241C3088B4201D3CB00C01A5241830873
:102BA0008B4201D38B00C01A524143088B4201D3A0
:102BB0004B00C01A5241411A524110007047CA0FCF
:102BC00000D04942031000D34042534000229C46AB
:102BD00003098B422DD3030A8B4212D38901FC22B5
:102BE00012BA030A8B420CD3890192118B4208D38B
:102BF000890192118B4204D3890137D0921100E0F0
:102C00008909C3098B4201D3CB01C01A5241830900
:102C10008B4201D38B01C01A524143098B4201D32D
:102C20004B01C01A524103098B4201D30B01C01A58
:102C30005241C3088B4201D3CB00C01A52418308D2
:102C40008B4201D38B00C01A5241D9D243088B4228
:102C500001D34B00C01A5241411A00D201465241E1
:102C6000104663465B1000D34042704763465B10DA
:102C700000D3404201B50021004201D0C9430846BB
:102C8000C046C04602BD000003B40148019001BD2A
:102C90000100202070B5420064414B005C41120EDF
:102CA00039D01B0E38D0FF2A3CD0FF2B3AD0D21897
:102CB0007F3A40024902400A490A4518ED010600E0
:102CC0004E43000A090A48430104731A4019190CBB
:102CD0004318990F04D05B08012149075B1A521C65
:102CE000D80904D3401CF50301D19D0607D0FF2A63
:102CF00008D2D50506D0E4072043401970BD012550
:102D0000A843F4E7002A01DCE00770BD2402FF209D
:102D10002043C00570BD1B0EFF2A03D0FF2B01D03E
:102D2000E00770BDFF2636064500B54206D84D00C7
:102D3000B54203D8D218FF2A00D0E7E7004870BD9B
:102D40000000C07F8182838485868788898B8C8DF3
:102D50008E8F919293959697999A9C9D9FA0A2A3EE
:102D6000A5A7A8AAACAEB0B2B3B5B7B9BCBEC0C235
:102D7000C5C7C9CCCED1D4D7D9DCDFE2E6E9ECF0C7
:102D8000F3F7FAFE11000000000000200000000030
:102D90000000000000000000000003000800000028
:102DA0000302070002000000FF070000000000000F
:102DB00000000000000000000800000018000000F3
:102DC000003000001416181A1C1E3032FC92FA92C1
:102DD000FF9200936A6E7476314B00000000000091
:102DE000102E000000002020340000002001000010
:102DF000442E0000340020200400000020010000C8
:102E0000482E000038002020700600004801000015
:102E100081B011210902012242500949401801687C
:102E200007220A4000920099C9B2032903D00099F1
:102E3000C9B20129F3D10098C0B201B07047C046B1
:082E4000D01300000127122449
:04000005000000C136
:00000001FF
