:020000040000FA
:10000000C00720208D010000910100009301000035
:1000100000000000000000000000000000000000E0
:10002000000000000000000000000000950100003A
:10003000000000000000000097010000990100008E
:100040009B0100009B0100009B0100009B01000040
:100050009B0100009B0100009B0100009B01000030
:10006000000000009B0100009B0100000000000058
:10007000000000009B0100009B010000DD3100003A
:100080009B0100009B010000AD3100009B010000BE
:100090009B0100009B010000000000000000000028
:1000A0009B01000081230000000000000000000010
:1000B0009B010000000000009B0100009B0100006C
:1000C00000F002F800F052F812A030C808382418E6
:1000D0002D18AC4201D100F049F80FCCA246AB4636
:1000E0000CA730CF2D1B083F3F197C427F1E544484
:1000F0002D090426F441641EAC4201D300F036F809
:100100000126334200D0FB1A3343984754465D46DC
:10011000DFE70000543A0000843A000000000000CD
:10012000103A02D378C878C1FAD8520701D330C840
:1001300030C101D504680C60704700000000000069
:100140007047000000000000002300240025002666
:10015000103A01D378C1FBD8520700D330C100D583
:100160000B6070471FB51FBD10B510BD00F0E5FC5A
:100170001146FFF7F7FF03F013F900F0FDFC03B49D
:10018000FFF7F2FF03BC00F003FD00000648004744
:10019000FEE7FEE7FEE7FEE7FEE7FEE70348044969
:1001A000024A044B70470000C1000000C003202039
:1001B000C0072020C003202001E004C0091F04293B
:1001C000FBD28B0701D50280801CC90700D00270CA
:1001D000704700290BD0C30702D00270401C491E93
:1001E000022904D3830702D50280801C891EE3E71D
:1001F0000022EEE70022DFE7002203098B4273D3DF
:10020000030A8B4258D3030B8B423CD3030C8B4223
:1002100021D312E003460B437FD4002243088B42D4
:1002200074D303098B425FD3030A8B4244D3030B7D
:100230008B4228D3030C8B420DD30902FF2212BA42
:10024000030C8B4202D31212090265D0030B8B42BE
:1002500019D300E0090AC30B8B4201D3CB03C01AA8
:100260005241830B8B4201D38B03C01A5241430B83
:100270008B4201D34B03C01A5241030B8B4201D373
:100280000B03C01A5241C30A8B4201D3CB02C01ADE
:100290005241830A8B4201D38B02C01A5241430A56
:1002A0008B4201D34B02C01A5241030A8B4201D345
:1002B0000B02C01A5241CDD2C3098B4201D3CB01EC
:1002C000C01A524183098B4201D38B01C01A52419B
:1002D00043098B4201D34B01C01A524103098B429F
:1002E00001D30B01C01A5241C3088B4201D3CB008A
:1002F000C01A524183088B4201D38B00C01A52416D
:1003000043088B4201D34B00C01A5241411A00D21C
:1003100001465241104670475DE0CA0F00D0494285
:10032000031000D3404253409C46002203098B42F5
:100330002DD3030A8B4212D38901FC2212BA030A7D
:100340008B420CD3890192118B4208D389019211FF
:100350008B4204D389013AD0921100E08909C30984
:100360008B4201D3CB01C01A524183098B4201D386
:100370008B01C01A524143098B4201D34B01C01A71
:10038000524103098B4201D30B01C01A5241C308E9
:100390008B4201D3CB00C01A524183088B4201D358
:1003A0008B00C01A5241D9D243088B4201D34B0073
:1003B000C01A5241411A00D20146524110466346CA
:1003C0005B1001D34042002B00D549427047634681
:1003D0005B1000D3404201B50449002802DC491CEF
:1003E000084000E00846C046C04602BDFFFFFF7F50
:1003F0007047704770470000F0B5F94D0C091E09B1
:100400002C402E402F468BB0A7437DD0B543FCD067
:10041000002E7AD0002CFCD00D465D40ED0F254318
:10042000AC1BFF25AD0464190894C502440DC90234
:100430002143500DDC0204430120C0070143044363
:10044000D2020191200C110C00958C460104234628
:100450008B430A9161460904E24D8A430991010ADE
:100460007D4449198039097805464D4301266D18A8
:10047000F605751B6943C90C640B891C4C43641851
:10048000B5012C1B250C2E04B4434C434D43210CC9
:10049000691889090591009DE90701D00121C90763
:1004A00004912C4601996708CD072F434C08059D00
:1004B000E10B4D432D0C29466646754302950D46CA
:1004C00045432E46029D7D1BB44100950D465D437C
:1004D00001942C0C2F040D465543AE462D0C3D4384
:1004E000029503947546049C2D04641B049406D263
:1004F000029C039D641C002675410395029401AC87
:1005000070CC009F7D1B01E03EE162E1B441090433
:100510000095079101940599A4086143090C0C46C4
:100520004443650BE7040C4666467443A646640BD9
:100530003C43039502947446049DE4042C1B0494EC
:1005400006D2029C039D641C00267541039502940B
:1005500001AC70CC009F7D1BB44101940C465C4300
:100560000095650FE7000C465443A646640F3C43D4
:10057000039502947446049DE4002C1B049406D257
:10058000029C039D641C002675410395029401ACF6
:1005900070CC009F7D1BB441AE09AF06049DC9001D
:1005A000AD092F43049DA406AD060495079D344371
:1005B00069180791059DE10B4D432D0C29466646B0
:1005C000754302950D4645432E46029D7D1BB44161
:1005D00000950D465D4301942C0C2F040D465543A8
:1005E000AE462D0C3D43029503947546049C2D04A4
:1005F000641B049406D2029C039D641C0026754172
:100600000395029401AC70CC009F7D1BB441019412
:100610008C050694079C890A611800950791019C36
:100620000599A4086143090C0D464543680BEF0486
:100630000D46644665436C0B3C43049FED047D1BF3
:10064000AC4602D20025641C6841009E019D371B08
:1006500085410846584301950C46460FC500544352
:10066000600F28436546E4002C1B02D20025401C85
:100670006E41019D3F1AB5412846BD0980062843B9
:100680008446A009BF064E020699A40676180743C1
:10069000079D002068410A99079019430020099B93
:1006A00000906046FF1913434041E20F64003A4353
:1006B000A4460446D71A8C41A04203D901200090D9
:1006C00020463A46C70F941840416246D20F224353
:1006D000644664000494009CBE466400D71AA44695
:1006E000044602978C417746002F01D1A04204D9DD
:1006F0006046401C8446029A2046C40FA6469418C1
:100700004041049A0546D20F224364466400D31A3E
:100710008D417146002901D1A84202D928461A46C6
:10072000641C10430122002800D0164361020020FF
:10073000079B891904465C410223002C02DB4918FF
:1007400013466441089DCE0A2D145D194B056705BB
:10075000E10A2C050D1908993E43C9076940002B91
:1007600008D0934006D30022761C5141002B01D1C2
:10077000760876001C4A002D43DB154241D0AA437F
:100780003FD030460BB0F0BD06180D464D41174C1A
:100790007642AC411AD395181C465C41134A6D420F
:1007A000A24113D3012252054C00D4420AD15C006D
:1007B000D4420BD04B4002D592021143E2E74900EC
:1007C0004908DFE75940C90FC90718E00020084968
:1007D000D8E7054801420DD10342F7D0F2E7000007
:1007E0000000FF070C3400000000F07F0000E0FF75
:1007F0000000F87F114859400143C01241400020D9
:10080000C0E70123089A9B069A4205DC032252079F
:100810008918C90FC907B5E7052252078918074A81
:100820001143D2125140ADE770B515461C46024641
:100830000B4628462146FFF7DFFD70BDFFFFFF7F17
:1008400030B50346CA02400D1043164D164C0A152A
:1008500002D02043002A06DBAA1A002A12DDD0406B
:10086000FF2A0BDC30BD5205520D01D1400040087B
:10087000AA1A07D4D0404042FF2A01DD002030BD33
:100880000028FCDD4A00002B01D0012000E0002000
:10089000101801225205D042F0D8C817C04360405A
:1008A00030BD00001E040000000000800121C905C9
:1008B0000123411842001B06D3185B0E0AD0C11059
:1008C0000722D206891840075242D14201D5520070
:1008D00089187047090208D50146002A03D0C10FC4
:1008E000C9070020704710467047420202D000201E
:1008F00002497047072109050143F4E70000F87F2A
:10090000F0B5FF252D04C609C209FF2704462E4075
:100910000137CB093E4348402A402B400746002A76
:100920006BD0002B69D0AA4267D0AB4265D00028BB
:1009300000DA32460125ED0529432C430902200245
:10094000090AD21A4B0C7F24E31A434C000A7C4458
:10095000E35C7D242404121914145B00A21888425D
:1009600001D3521C00E0400049420C465C43241174
:100970005C43DB016415E318040A5C43C502200DE7
:100980000C4644436419250A5D432303EC0C0D46D1
:10099000654300030019EB184C42A34201D35B18D6
:1009A000401CD4052018002B07D05B00C91804D3C5
:1009B000401C002901D1400840003F2189048A429F
:1009C00009D3002A08DC1106090F04D003214907C6
:1009D0004018C00FC007F0BD01224100120689185F
:1009E0007F2252069142F6D205214907C84201D51D
:1009F0009010F0BDFF20C005F0BD002F00DA324698
:100A00001648AA4207D2AB4205D21902090E17D0E6
:100A1000F80FC007F0BDFF2563002D06AB42F9D8E3
:100A20004900A942F6D8AB4201D1A942F2D0A9426D
:100A300001D1002101E061004908D0050843F0BD63
:100A40001102090EFBD0FF200243D005F0BD0A467B
:100A50000146104654E700009E2F00000000C07FB2
:100A600010B501469E240002CA15A307002A02D031
:100A70001843002A04DBA21A002A0CDDD04010BD66
:100A80001206120E01D140004008A21A03D4D04031
:100A900040420028F3DDFF2248001206904201D9AF
:100AA000002010BDC817C043584010BD0102C21538
:100AB00004D00123DB071943002A0ADB9E239A1A7C
:100AC00002D40846D0407047FF22410012069142EE
:100AD00001D900207047C017C04370471F22030C84
:100AE00002D10F2200041CD0030E01D10002083AEB
:100AF000030F01D10001121F830F01D18000921E4C
:100B0000002801DB4000521ED20551180212511874
:100B10001922904004D3491C002801D149084900FA
:100B200008467047C10FC90700D040420122920712
:100B30001143D3E701218907D0E7754600F024F877
:100B4000AE46050069465346C008C000854618B049
:100B500020B5FFF723FB60BCB64600260027C0C5C2
:100B6000C0C5C0C5C0C5C0C5C0C5C0C5C0C5403D65
:100B7000490849008D46704710B50446C046C04636
:100B80002046FFF7FCFA10BD00487047780020208F
:100B900001491820ABBEFEE72600020070470000A6
:100BA000F0B58CB0F64908887B4B188048881881CE
:100BB000888818827948827F52008A5E06925A801D
:100BC000C27F52008A5E05925A811E30827852009E
:100BD0008A5E04925A82EB4A528803925A690092C2
:100BE000DA680892E84A16695A68CC881C83C47887
:100BF00064000C5F02945C830C891C84047964009B
:100C00000C5F01945C844C891C85447964000C5F02
:100C10000B945C858C891C86847964000C5F0A9433
:100C20005C86DC6A07945C6ADD69CF891F87D64FD2
:100C3000C0794000085E099058874220085A3880E1
:100C40004420085A7880964200D316460898864277
:100C500000D30646009FBE4200D33E46AE420798F0
:100C600078D2A64279D2864200D30646596B8E428C
:100C700000D30E46DB6B9E4200D31E46EA48C66098
:100C80000898824200D80246BA42019E079868D965
:100C9000AA4269D9A24200D822468242029D00D8C7
:100CA00002468A42049C00D80A469A4200D81A4654
:100CB000DD488260069A059B9A42104658DDA042A4
:100CC00059DDA8425ADDB04200DC30460B9988421B
:100CD00000DC0B980A99884200DC0A98099988423E
:100CE00000DC09982E49884200DC0846EA498880E1
:100CF0009A42104646DAA04247DAA84248DAB042A1
:100D000000DB30460B99884200DB0B980A99884239
:100D100000DB0A980999884200DB09987D210901C6
:100D2000884200DB0846DC49C88003988018C01858
:100D30000019401980190B9940180A99401809990F
:100D4000401801B2490F401800B2C008E949488074
:100D50000CB0F0BD2E46A64285D32646864284D2EC
:100D600084E73A46AA4295D82A46A24294D994E703
:100D70001846A042A5DC2046A842A4DC2846B04282
:100D8000A3DDA3E71846A042B7DB2046A842B6DBA6
:100D90002846B042B5DAB5E7BC012020283B000068
:100DA00030F8FFFFF0B581B02620D0490C5E04205A
:100DB000C64330466043BD490860002C01D4012081
:100DC00000E00220611D89B20B2900D20020B54944
:100DD0000870204601F064FE00F0BAFBC54FF868C9
:100DE000002813D03969884221D1B969322903DB3F
:100DF0003A88102313433B800022BA610818F86038
:100E00003861A54802695118016114E0B8693228B7
:100E100003DB398810220A433A800021B96139691D
:100E2000091839619C490A691018086103E038887B
:100E3000102188433880554800250560456085604D
:100E4000C560056145618561C5612846214602F09E
:100E50007BF80120214602F077F80220214602F0BB
:100E600073F80320214602F06FF80420214602F0B7
:100E70006BF80520214602F067F80620214602F0B3
:100E800063F80720214602F05FF800F095FB7869CF
:100E9000FFF750FE04463869FFF74CFE0146204636
:100EA000FFF72EFD3A4902F023FCFFF7D9FDB98880
:100EB000421A13B2DB135A40D21A12B20B2A09DBC0
:100EC000884201D90A3104E0092901D8284601E005
:100ED0000A39084680B22F49884200D308466C215F
:100EE000DF4A5052B88000F0B3FD70480468E01744
:100EF00021464140081AE1490A6812180A60486808
:100F0000DD4B9A4203D30022401C0A604860B11CAA
:100F1000414365480818FFF70DFE1F49FFF7F0FC35
:100F20001B4902F0E5FBFFF79BFD1C498842024686
:100F300000D80A461A498842D34E01D8114600E02B
:100F400032314020C64A1152012C05DB6000B168E5
:100F50000D1A07D2002505E0CA4D6119B068884214
:100F600000D2051B0A206843C64902F079FA0A300C
:100F70004621BB4A50527060B56001B0F0BDC0461A
:100F8000DE002020FC0120201802202088012020E3
:100F900000401C461027000000C00F49581B0000ED
:100FA000DE260000B0B5A94801880A0738D5062218
:100FB0000B46134034D04B0715D5C4680369E41AB7
:100FC000184DAC4202D38469E3180361C360A04C9E
:100FD0002361A74CE3636363E3626362E36163617C
:100FE000E360636043618B0716D500234361A04C27
:100FF000E3636363E3626362E3616361E3606360CD
:10100000C468C3600369641E084DAC4202D8846999
:101010001B190361EC4C2361002383619143018020
:10102000B0BDC04600E72AFD18022020FF18D502F7
:1010300070B5E64800251649C160016141618561CE
:10104000144A426009220280DF488560C560016160
:1010500045618580056086484021FFF7CBF80F4C3D
:1010600026212046FFF7C6F8012626700C4C2821C1
:101070002046FFF7BFF8D1482670056045608560BF
:10108000D04809490560456081600848056070BD29
:1010900080BE140710271027180220206402202089
:1010A0003C0220208C02202000FC08009802202016
:1010B0006B484221415A7D225201914215D8442267
:1010C000805A02097D2A10D3094A914204D3BF49AC
:1010D0000A88042313430B80401E0749884204D822
:1010E000BA48018802220A4302807047DE002020AD
:1010F000FC0D0000FC0120208B0A0000F0B585B03B
:10110000B2480088C00700D19EE0192080020190FB
:101110000069AD49002204928A604E4941184E4C44
:101120004E4AA14200D30246A748C2600392026120
:101130004B4CE08C01B2C9134840401A00B20090F9
:101140003F20C743474D1E35474E09E0049181605B
:10115000029842646D1CA41C0837361D002F26D04F
:101160004348C319208840215852297849003C4AF5
:10117000515A4222029399520199C919896D3160DD
:10118000009A042A394A06DC00F02AF939498842D3
:10119000364A00D802460399914200D31146E848E6
:1011A0000391C16004999142D0D81146CEE70199CC
:1011B0000868864C20618968616126494018264983
:1011C000884201D22548206100F0BCFA264800215F
:1011D000016041608160C160016141618161C16103
:1011E000019B986D244A904200D8014675480160E1
:1011F000196E4160224A8B185B1C934203D2732103
:101200004902019A03E0491C019A01D10021416081
:101210002088012188432080906E1A4A0F2801D32C
:10122000154600E000250A21CB430446153C9C42AC
:1012300000D32A46C54DAA6014220F2800D31146B8
:101240009C4200D30A466A6005B0F0BDFC01202034
:10125000180220207F647DF81F9442FA40785F06D0
:10126000DE002020283B000068012020A02FC501BF
:10127000BC012020809B82070051250230022020E3
:10128000FE19FFFFC0C36C008C02202080B5FFF761
:1012900035FFFFF785FCFFF785FDFFF783FE00F0C4
:1012A00001F880BD70B544480188491C018001885F
:1012B000772916D11920840201204602404D284684
:1012C0002146324600F00CFE40222846214600F01E
:1012D000EDFD083428462146324600F001FE3F4A23
:1012E00034E00188782914D301887F2911D8068831
:1012F0000088C0003649441801204202304D28467B
:10130000214600F0EDFDB000324940183249421844
:101310001CE0018880290AD11920840201204202A0
:10132000274D2846214600F0DBFDA24A0DE001884A
:10133000812910D101204202192084021034204D4D
:101340002846214600F0CCFDF64A103228462146B8
:1013500000F0B8FD70BD018882290BD10120420246
:10136000192084025834164D2846214600F0B8FD55
:10137000144AEBE7018883290CD10120420219208D
:10138000840260340E4D2846214600F0A9FD0D4828
:10139000021DDBE70188842907D16C48001D192153
:1013A0008902683101F06CFF70BD0188852901D385
:1013B0000021018070BDC046BC0320208C0220208B
:1013C00000D00C403002202018022020FC012020F8
:1013D000586000008801202020FEFFFFD800202058
:1013E000F0B585B0054603910846FFF7A3FB074615
:1013F000CC480069FFF79EFB014638460091FFF795
:101400007FFA504902F074F9FFF72AFB0290092095
:10141000C0434E4949681439814206D24A490A46B6
:101420000C320C4608340B1D07E0474B19461031AF
:101430001A461C321C461834143320680490106875
:10144000019009781C682288AA4226D84B1E0027E2
:1014500003E0DEB2F8B2B0420DD8DAB2FEB2B21892
:10146000012056088243A25AAA4200D9731EAA42FA
:10147000EFD8771CEDE7002E0FD048002018801E13
:101480000088A8420AD07000205A281A731C5A00FB
:10149000A25A521B904201DD01E000263346049817
:1014A000C75C0298381A02B2D2135040801A00B2B8
:1014B000019A925D904203983FDB481EB04229DDBD
:1014C000701C0390049F385CFFF734FB0290B85DFA
:1014D000FFF730FB01460490029802F061F90746DD
:1014E0007000265A03984000205A801BFFF71AFB11
:1014F00001463846FFF704FA0746A81BFFF712FB20
:101500000146384602F0F4F8049902F0ABF8FFF710
:10151000A7FA0746F8178743CD490098FFF7F0F977
:101520000446642F00D364273846FFF703FB0146C7
:10153000204602F0DDF8FFF7B9FA05B0F0BDC0466D
:10154000180220200000C8424C0020208C022020DD
:10155000B0B5C049CA6875480368012B07DB9A42D9
:1015600009D8981A8A6980188861002009E00869FA
:10157000C418A24201D2D01A03E0121B8B69D21800
:101580008A61C8600C69002C0FD0FFF7D3FA0546BA
:101590002046FFF7CFFA01462846FFF7B1F9AE49DA
:1015A00002F0A6F8FFF75CFA00E064485C49C885E1
:1015B000B0BDC046FC012020F0B581B0A54B188914
:1015C0006821574F7852002827D0A04CA068FFF719
:1015D000B1FA064620690090FFF7ACFA054630469E
:1015E0002946FFF78DF99C4E314602F081F8FFF74E
:1015F00037FA0746E068FFF79DFA2946FFF780F9BA
:10160000314602F075F8FFF72BFA391A8EB2464CC4
:10161000A64206D1002006463DE044480568002069
:1016200054E0FFF787FA05463046FFF783FA014694
:10163000284602F05DF80746A01BFFF773FA014643
:101640003846FFF75DF9294602F00CF8FFF708FA73
:101650000646804C6069FFF76DFA05462069FFF782
:1016600069FA01462846FFF74BF9F04902F040F8C5
:10167000FFF7F6F9B0420ED92C490D68012D284F1D
:101680000EDB841B2849009801F0EAFE60432949DB
:10169000884217DA17E0224F24490D68012D08DB34
:1016A0002846FFF73FFA224902F022F8FFF7D8F95F
:1016B00009E0841B1C49009801F0D2FE60431E49DA
:1016C000884200DC0846634B0021198159692818BB
:1016D000012D03DB0C1A06D2002404E01C69021958
:1016E000914200D20C1A5C611D69002D10D0204679
:1016F000FFF720FA06462846FFF71CFA0146304657
:10170000FFF7FEF8C94901F0F3FFFFF7A9F900E080
:101710000A486A2178520A48046001B0F0BDC04608
:10172000DE00202018022020102700009802202030
:10173000333373BFC04B030040B4FCFFD20400003E
:10174000D8002020F0B583B0B74EB068FFF7F2F9AB
:1017500005463069FFF7EEF9044628462146FFF7B3
:10176000CFF83B4D294601F0C3FFFFF779F902900E
:10177000F068FFF7DFF92146FFF7C2F8294601F0CC
:10178000B7FFFFF76DF90746324D6C692046FFF74A
:10179000D1F906462869FFF7CDF9054630462946B6
:1017A000FFF7AEF806462A4901F0A2FFFFF758F905
:1017B0000299884207D8B84205D32648C460044637
:1017C0009A4930463BE00195C81B85B2642D04D18F
:1017D0000020204CE060606135E03846FFF7AAF950
:1017E00004462846FFF7A6F90146204601F080FF8F
:1017F00006466420401BFFF795F901463046FFF787
:101800007FF8214601F02EFFFFF72AF90446104920
:10181000019E3046FFF774F805462046FFF78AF927
:101820000146284601F064FFFFF740F9094CE060EB
:101830006061FFF77FF93146FFF762F87B4901F0FD
:1018400057FFFFF70DF9A08003B0F0BD180220206C
:101850000000C842FC01202000401C46F0B583B0C7
:1018600014460E46054601F01BFD002802D001205B
:1018700003B0F0BD01940295E9006A48415A3288EC
:101880008A4221D90022029BDB00C0180224035F98
:101890004B20850005200095AB42074629DDD4B2D8
:1018A0006500755B281A884209DA7819884206D9DA
:1018B000D1B20298019A00F079F803B0F0BD0A2085
:1018C000032C20D103B0F0BD0023032203E0D4B2E7
:1018D000DDB2A542D7D8D4B2DDB22D1901276C08EC
:1018E000BD43775B8F4200D9621E8F42EFD8631CE5
:1018F000EDE7C92B16DB29480527019C84423846B1
:10190000CDDC0320CBE70525009A93422F4613DD5B
:10191000621C5300F35A5C1B8C42D3DAFB188B42D7
:10192000C6D8CFE7652B11DB1F480527019D8542EF
:101930003846B4DC2046B2E7C92B16DB174A052728
:10194000019B93423D46E3DC0325E1E71348019CFC
:101950002018401C84B20320114DAC4207469ED88B
:10196000D0B2104C205C074699E7652B07DB0E4A86
:101970000527019B93423D46CADC0225C8E7074A7A
:10198000019B9A18521C92B20325054B9A422F468E
:10199000BED8044A155D2F46BAE7C04651FCFFFF8A
:1019A000A4F80000E23A0000C5FEFFFF70B515463E
:1019B0000C46C0001B4908184068FFF7BBF80646F4
:1019C00019480069FFF7B6F801463046FEF798FF60
:1019D000164901F08DFEFFF743F86200012D09DB87
:1019E0001749895E174B9A5A801A00B288420BDD5C
:1019F000154812E00E49895E0E4B9A5A801A00B2C1
:101A0000884206DD0C4808E04942884208DA0F485F
:101A100003E04942884203DA08486100405A70BD39
:101A20000A2070BDBC0120201802202000401C4666
:101A30006A3A00005A3A0000483900005039000064
:101A4000623A0000523A0000383900004039000084
:101A5000F0B587B0F948006801461831302906D83A
:101A6000F7480178002900D1D6E007B0F0BDF44C6A
:101A70006178002900D1D3E0491C617062681518B3
:101A80006560C8B20A28F0D100266670E8172946BA
:101A90004140081A01463239EA4A914200D3E7E050
:101AA0000596FFF747F80690E94806882789012D33
:101AB00000DAFEE0B81BFFF735F8E64901F018FE42
:101AC0000025BE42294600D8014608460699FEF781
:101AD00017FFFEF7C5FF5622DB4903908852DC480A
:101AE00006896789B81BFFF71DF8DA4901F000FE87
:101AF0000146B742284600D308460699FEF700FF84
:101B0000FEF7AEFF5822D04902908852D048068A8C
:101B1000A789B81BFFF706F8CE4901F0E9FD014699
:101B2000B742284600D308460699FEF7E9FEFEF7BD
:101B300097FF5A22C44901908852C548068BE7890D
:101B4000B81BFEF7EFFFC34901F0D2FD0146B742D3
:101B50000495284600D308460699FEF7D1FEFEF705
:101B60007FFF06465C20B8490E52B948078C258A8B
:101B7000E81BFEF7D7FFB74901F0BAFD0146BD42A9
:101B8000049800D308460699FEF7BAFEFEF768FFF0
:101B90005E21AD4A505203992183029961830199D4
:101BA000A183E6832084AA48058D668A701BFEF710
:101BB000B9FFA84901F09CFD0146AE42049800D34C
:101BC00008460699FEF79CFEFEF74AFF064660208F
:101BD0009D490E529E48058EA78A781BFEF7A2FFEC
:101BE0009C4901F085FD0146AF42049D284600D383
:101BF00008460699FEF784FEFEF732FF6221924AFC
:101C000050526684A084E08A9149098F8142059EE2
:101C100000D901E1401AFCE00221017007B0F0BDDB
:101C20008B490A8822810A8962810A8AA2810A8BE9
:101C3000E2810A8C22820A8D62820A8EA282098F38
:101C4000E1823621844A515C64234B437E49CD8D29
:101C5000AB4201D9217805E04223CB5A2178528F3B
:101C600093421BD2CA071DD004221143217019E0F0
:101C70005621754A01205052582150525A21505233
:101C80005C2150525E2150526021505262215052CC
:101C90006E49A161E1612162A084C6E01122114276
:101CA00000D1C9E00121617061680818606007B067
:101CB000F0BDF01BFEF736FF664901F019FD014645
:101CC000BE42059F384600D308460699FEF718FE27
:101CD000FEF7C6FE56225C490490885265895C482E
:101CE0000689701BFEF71EFF5A4901F001FD0146EF
:101CF000AE42384600D308460699FEF701FEFEF7CD
:101D0000AFFE5822504903908852A5895048068A50
:101D1000701BFEF707FF4F4901F0EAFC0146AE4297
:101D2000384600D308460699FEF7EAFDFEF798FE0E
:101D30005A22454902908852E6894548078BB81BCC
:101D4000FEF7F0FE434901F0D3FC0146B742059887
:101D500000D308460699FEF7D3FDFEF781FE06463E
:101D60005C2039490E52278A3948058CE81BFEF75A
:101D7000D9FE384901F0BCFC0146BD42059F3846FA
:101D800000D308460699FEF7BBFDFEF769FE5E210B
:101D90002D4A505204992183039961830299A183AA
:101DA000E6832084658A2A48068D701BFEF7BAFEFA
:101DB000284901F09DFC0146AE42384600D3084652
:101DC0000699FEF79DFDFEF74BFE054660201E4975
:101DD0000D52A68A1E48078EB81BFEF7A3FE1D49AA
:101DE00001F086FC0146B742059E304600D3084606
:101DF0000699FEF785FDFEF733FE6221124A505226
:101E00006584A084E08A1249098F8142354603D354
:101E1000081AFEF787FE05460E49284601F068FCC1
:101E20000699FEF76DFDFEF71BFE6421064A50522F
:101E3000E084666007B0F0BD022216E79802202019
:101E40003C0220200F0D0300DE00202001000100D5
:101E5000BC01202000247449283B0000811E091F7A
:101E600000BFFCD27047000070B50B01C318546866
:101E70009568254394892C43156956692543D4896F
:101E800024012C4335012543092464021D51137894
:101E900052781A43BF231A40890040180249445817
:101EA0009C43A218425070BD1011000080B502235F
:101EB0001343034A83508218D16101F0CDFB80BDEA
:101EC0000411000070B511231B02C41801256560C0
:101ED000FF2610366662216211682163C55070BD0D
:101EE000F0B583B002920E460190354C206805276C
:101EF000276007252840334B196820602268276037
:101F00002A4018682260304B0096B60A89048A0F6E
:101F1000314609D02D490840511C01F0A1FA014673
:101F20003046FEF769F9284B0198C01801902268E5
:101F30002760244803682A402260226827600368DB
:101F40002A40226001229302029898420CD0530248
:101F5000984210D10098C30B0FD1B240019801688C
:101F60009143016003B0F0BD1F210E40B2400198C3
:101F7000016C9143016403B0F0BDFF2911D82368BF
:101F800027602B400F4D2D682360AB049B0F00D1C1
:101F90002039C9088A40019841689143416003B0E3
:101FA000F0BD1302FF339942E5D2FF23DB43C9188A
:101FB000C9088A40019881689143816003B0F0BDEF
:101FC000001340401800C441D0110000FF0F000072
:101FD00010B5002A0FD091235B01C3180020DC69E3
:101FE0002405240F05D00C5C1C60401C8242F6D1F5
:101FF000104680B210BD002080B210BD084A835840
:1020000080210B43835080180F2212024368134033
:102010000122D2029342F7D102688A4302607047DC
:102020003812000070B50A780C231A4001242403EA
:1020300005196E689E43B2186A60497807221140FC
:10204000035993435918015170BD0000B0B5FF22E8
:1020500004320E490B6893438278032414400278BB
:10206000120212191A430A60094A0A4B13600A4CF9
:1020700025686D05FCD54078002803D00868102439
:1020800004430C60581C1060B0BDC04614010B40E6
:1020900014030B400100009104020B40B0B54A68E4
:1020A000364BC250364A80180A78222A58D89300F4
:1020B00001A4E3589F46C04657210000612100005B
:1020C0005721000061210000612100006121000012
:1020D00061210000612100006121000061210000F8
:1020E00061210000612100006121000061210000E8
:1020F00061210000612100004521000061210000F4
:1021000045210000612100006121000061210000E3
:1021100061210000612100006121000061210000B7
:1021200061210000612100006121000061210000A7
:1021300061210000612100004521000061210000B3
:102140004521000003231B0704689C4301235B0710
:10215000E318036004E003231B0704689C43046046
:102160000B69C360CB68074C1C40C36A064D1D4019
:102170002B19C362097A11430160B0BD0818000031
:1021800004180000777702008888FDFF10B501224F
:10219000120383180C789C604B7883508978014A2D
:1021A000815010BD0C11000010B5002A0CD0074B57
:1021B000C31800201C68240605D40C5C9C61401CDC
:1021C0008242F7D1104610BD002010BD081100005A
:1021D000B0B51122120283580124A34383500B8807
:1021E0008C781C438B882343094C1C408358094D31
:1021F0001D40631983508B79CC791C43097A2143A4
:102200007E231940801842689A4351184160B0BD3E
:1022100018670000E798FDFF10B50122120383182C
:102220000C789C604978815010BD7047F0B5A1B022
:102230000FA84821FDF7DEFF06A82421FDF7DAFFED
:1022400005A8002505703F2000F0A6F804464020B0
:1022500000F0A2F803904120009000F09DF8029059
:10226000422000F099F80646012001F07DF8204652
:10227000FEF760FC7D21CF05394601F039FA3D4C6F
:10228000214601F0EFF904900398FEF753FC39461C
:1022900001F02EFA214601F0E5F903900298FEF7CD
:1022A00049FC394601F024FA214601F0DBF901909E
:1022B0003046FEF73FFC394601F01AFA214601F09C
:1022C000D1F902902C4C2E4612E006A8405BFEF796
:1022D00031FC0146049801F00BFA2146FEF710FB91
:1022E000FEF7BEFB25494853AD1C761C122E26D0A6
:1022F00028460C30C0B200F04FF8070228460D30D7
:10230000C0B200F049F8381806A94853012001F07E
:102310002BF8012ED9D9032E06D806A8405BFEF76C
:1023200009FC01460398D6E706A8405BFEF702FCCD
:102330000146052E01D80198CDE70298CBE7302061
:1023400000F02AF80402312000F026F82018FEF7E9
:10235000E9FB0146029801F0CBF90099090601F06A
:10236000C7F90549FEF7CCFAFEF7A0FB0349C8629E
:1023700021B0F0BD0000B84300007A44580320208B
:1023800004480068C0B2082802D14B4801210170FE
:102390007047C04620300F40F0B583B002A90870E6
:1023A0006E4801220092FFF713FE6D4E30688006E2
:1023B00008D43068800605D43068800602D43068BE
:1023C0008006F3D53746083F386866490840103024
:1023D0003860341F2068644D28403549401820601B
:1023E0003068400612D5306840060FD53068400688
:1023F0000CD530684006F3D408E03068800608D475
:102400003068800605D43068800602D430688006C3
:10241000F3D55248FFF7F2FD3868524908401121C0
:102420000143396020682840224901432160706AD5
:1024300000070CD100200446502000F0A3FF706A72
:10244000000702D1601C282CF5D3282C14D21A497D
:1024500000270F707568706A000711D1384604466E
:10246000502000F08FFF706A000702D1601C282CFA
:10247000F5D3272C104903D90F480099017001E0CA
:102480000F70746801A845700821017002210722AD
:1024900000F0CCF9E1B2884207D008480178491C25
:1024A000CAB2092A00D900210170E8B203B0F0BD18
:1024B0000700010007000200DD002020DC002020D2
:1024C000B0B582B001ACA1706070102020700325FF
:1024D00007222046294600F0A9F9E070611C1F4C34
:1024E00020462A46FFF774FD1D480168890608D476
:1024F0000168890605D40168890602D40168890645
:10250000F3D5014608390A68164B134010330B60A7
:10251000011F0A68144B1340144A9A180A60016894
:10252000490612D5016849060FD5016849060CD540
:1025300001684906F3D408E00168890608D40168F7
:10254000890605D40168890602D401688906F3D595
:102550002046FFF753FD02B0B0BDC04600200F403B
:1025600018320F4000F8FFFFF8FF00F007000300EB
:10257000F0B581B00446A54B012A1CDB9A4239D93B
:102580008800A3490D58A8481018FEF7CBFAA449B3
:1025900001F0AEF8A349FEF7B3F9FEF761FA298816
:1025A00009182180698809186180A9880918A18003
:1025B000E9880D18F9E0504280B298423AD9890072
:1025C000934A555898494018FEF7ACFA944901F0DF
:1025D0008FF89449FEF794F9FEF742FA298D091A0B
:1025E0002180698D091A6180A98D091AA180E98D60
:1025F0000D1ADAE090B243089C2B3AD8880084493F
:102600000D589D204000801AFEF78CFA844901F095
:102610006FF88449FEF774F9FEF722FA298A091A3D
:102620002180698A091A6180A98A091AA180E98A28
:102630000D1ABAE0420889009C2A4ED8744A5558AF
:102640009D214900081AFEF76DFA754901F050F80E
:102650007449FEF755F9FEF703FA298B0918218012
:10266000698B09186180A98B0918A180E98B0D1865
:102670009BE08900664B5D5866498A4260D967498C
:10268000461828882F89B84207D0C01B00B2704373
:102690009D21890000F006FF3F18278068886F8918
:1026A000B84207D0C01B00B270439D21890000F0E2
:1026B000F9FE3F186780A888AF89B84207D0C01BD1
:1026C00000B270439D21890000F0ECFE3F18A78006
:1026D000E888ED89A84260D167E04D4A55584D49D8
:1026E000884265D94D494618288D2F8CB84207D0AD
:1026F000C01B00B270439D21890000F0D3FE3F183B
:102700002780688D6F8CB84207D0C01B00B2704321
:102710009D21890000F0C6FE3F186780A88DAF8C10
:10272000B84207D0C01B00B270439D21890000F061
:10273000B9FE3F18A780E88DED8CA8422DD134E07A
:102740003549461828892F8AB84207D0C01B00B2E5
:1027500070439D21890000F0A5FE3F1827806889FD
:102760006F8AB84207D0C01B00B270439D21890018
:1027700000F098FE3F186780A889AF8AB84207D05A
:10278000C01B00B270439D21890000F08BFE3F18F2
:10279000A780E889ED8AA84207D0401B00B27043A9
:1027A0009D21890000F07EFE2D18E58001B0F0BD6E
:1027B00019494618288C2F8BB84207D0C01B00B28D
:1027C00070439D21890000F06DFE3F182780688CC2
:1027D0006F8BB84207D0C01B00B270439D218900A7
:1027E00000F060FE3F186780A88CAF8BB84207D01E
:1027F000C01B00B270439D21890000F053FE3F18BA
:10280000A780E88CED8BA842C7D1CEE72206000056
:1028100034002020AE030000C6FEFFFF52FCFFFF85
:10282000000040400000C842DEF9FFFFF0B500297B
:1028300050D000231D46C456E60916406FB2FF096A
:1028400017406D007D4075406EB2F60916406D0070
:1028500075406606F61716406E4075B2ED091540D4
:1028600076006E40A506ED17154075406EB2F6096C
:1028700016406D007540E606F61716406E4075B2BC
:10288000ED09154076006E402507ED17154075409F
:102890006EB2F60916406D0075406607F6171640D1
:1028A0006E4075B2ED09154076006E40A507ED1734
:1028B000154075406EB2F60916406F00774001254D
:1028C00025406D4215407D40401C491E0C06B2D18A
:1028D000E8B2F0BD0025E8B2F0BD000070B582B0EE
:1028E00001A9002008706946087036490978891ED8
:1028F000C9B2062901D834A0405C354909781029AD
:1029000007D0082903D0042906D1402103E07F2104
:1029100000E03F21C9430843C1B20820FFF7D0FDC2
:102920004220FFF739FDFEF705F97D21C90500F0CA
:10293000DFFE284900F096FEFDF7B8FF05460E467B
:102940000024254920462A463346FDF755FDFDF76C
:1029500077FF0009C1B20920FFF7B2FD1F492046E9
:102960002A463346FDF748FDFDF76AFF010B00D00C
:102970000109C9B20A20FFF7A3FD194800781949D7
:102980000978C90001438020084369460870097826
:102990000620FFF795FD14480078144909780901CD
:1029A000014301A8017001780720FFF789FD9F21ED
:1029B0002046FFF785FD05204321FFF781FD02B08A
:1029C00070BDC0466E0020201000200000003000C6
:1029D000710020200000B84340774B4160E346413E
:1029E000700020206F0020206D0020206C0020202F
:1029F000B0B5254C2078072827D1E0790A2824D1C2
:102A0000A078E178000240183A283BD86278002A82
:102A10001FD06278012A18D1227963791202D21864
:102A200043001E48C252194A002313703E2211402F
:102A3000382924D17221415A7022825A1204511825
:102A400009688185090C418519E010480121017050
:102A5000B0BD0F48C1700025857011224270072259
:102A600002700A22C271857149000C4A515A4171A3
:102A7000090A0171082100F0DDFB044805700020FF
:102A800020606060B0BDC04658012020B801202001
:102A90006001202001487B2181817047DE002020D9
:102AA000F0B581B07C497D4A53888B4200D2F1E079
:102AB000463112888A4200D9ECE0794F39780429EE
:102AC00016D0022906D0012900D0E3E07880022048
:102AD0003880CAE07988411A0AB2D2135140891A63
:102AE00009B2322900DABFE07880B9800420D0E052
:102AF0007988401A01B2C9134840401A00B202282E
:102B000000DDC5E07878401C7870C0B20A2800D09B
:102B1000C0E0F88863490988081A01B2C91348401F
:102B2000461A04203D5E2846FDF7FCFF044630B2FD
:102B3000FDF7F8FF5C4E314600F0DAFD2146FDF767
:102B4000DFFEFDF78DFFF882388956490989081A9A
:102B500001B2C9134840401A00B2FDF7E3FF314605
:102B600000F0C6FD2146FDF7CBFEFDF779FF388367
:102B7000312D01DC0120387078894A4E318A081ADB
:102B800001B2C9134840401A00B2FDF7CBFF464DD1
:102B9000294600F0ADFD2146FDF7B2FEFDF760FFCE
:102BA0007883B889318B081A01B2C9134840401A9A
:102BB00000B2FDF7B7FF294600F09AFD2146FDF768
:102BC0009FFEFDF74DFFB883F889318C081A01B2DA
:102BD000C9134840401A00B2FDF7A4FF294600F08F
:102BE00087FD2146FDF78CFEFDF73AFFF883388A12
:102BF000318D081A01B2C9134840401A00B2FDF7DE
:102C000091FF294600F074FD2146FDF779FEFDF79E
:102C100027FF3884788A318E081A01B2C9134840D8
:102C2000401A00B2FDF77EFF294600F061FD214603
:102C3000FDF766FEFDF714FF7884308FB98A012214
:102C40003A70401A01B2C9134840401A00B2FDF769
:102C500069FF294600F04CFD2146FDF751FEFDF7C6
:102C6000FFFEB88401B0F0BD78800E480188F9807D
:102C700001893981018A7981018BB981018CF981BE
:102C8000018D3982018E7982008FB88201B0F0BD4A
:102C90000120387001B0F0BD160D00001802202090
:102CA00064022020BC01202000401C4680B503485F
:102CB0000021034AFFF7D8F880BDC04600A042407B
:102CC000E83A000080B5FFF7F1FF80BD0F480146EC
:102CD0001C3900220A60014618390A600C4941601B
:102CE000016001214A0643681343436003681343AC
:102CF000036082228261074AC26107488122026022
:102D000088050649086008637047C0463C80424019
:102D100084000C0082000400C8804240A0320A40B7
:102D200080B512481249FFF77DF90320410211488E
:102D300002680A43026001210A0203681343036028
:102D4000002242611F224262826B0A4306239A4399
:102D5000826307221202836B93438363826A042394
:102D600013438362826A0A43826280BD00200F405F
:102D7000003B000000320F400120800206490A6833
:102D8000024208D10A68024205D10A68024202D111
:102D90000A680242F3D0704704020B40B0B50E48F7
:102DA000002101600320C0430C4C214608390A6809
:102DB00002400A6020680125A8432060280221689B
:102DC000814321600648FFF741F92803211F0A6863
:102DD00002430A60B0BDC04608030B4008010B4027
:102DE000023B000010B50B4C0B492046FFF7CEF913
:102DF0000A492046FFF752F90948016801221143A8
:102E00000160FF20000407490B6883430B600648FC
:102E1000026010BD00008640053B0000083B00003A
:102E20002810864010E400E008118640B0B5214C1F
:102E300021492046FFF7F0F920492046FFF7C8F95D
:102E40000320C1031E4802688A43026001691D4ACB
:102E50000A4011320261416917220A4328218A433C
:102E60004261426801210A4043688B439A184260DC
:102E7000CA03154B1C6814431C60FF221206134C36
:102E8000256895438A07AA1822608A021A634A04B1
:102E9000036813430360C26870231343C360C268AE
:102EA0000223134305229343C36002680A4302606E
:102EB000B0BDC046008010401C3B00001E3B00001F
:102EC000009110400000FFFF289010400CE400E04B
:102ED00080B500F015F8FFF7F9FEFFF75FFFFFF789
:102EE00081FFFFF71DFFFFF7A1FFFFF7EBFEFFF7E5
:102EF00043FFB820014900220A5480BD9C022020D3
:102F0000B0B50A480A4941600A4A51600A4B596003
:102F10000A4C61600A4D69600A49016011601960DC
:102F2000216029601020FEF799FFB0BD00080A401B
:102F3000030000B100280A400008864000280F4026
:102F40000088104001000026F0B58DB00746C00093
:102F5000914A101845887D20800085420AD85C4837
:102F6000002902D44218643A01E00A46633292B260
:102F700082420BD20120B84086490A8982430A81E5
:102F80000A21384600F0A8F80DB0F0BD05910020E8
:102F90000B900A9009900890079006904D4C21885C
:102FA000A94203D904910197012623E000210420BE
:102FB00003E0C2B2CBB293420DD8C2B2CBB29B18DF
:102FC00001265A08B343E35AAB4200D9501EAB4224
:102FD000EFD8511CEDE7042A07D10AA80421059C6B
:102FE0002246FFF7C5FA224663E001975100615A75
:102FF0000491561C0296C1B208A80090059F3A465B
:10300000FFF7B6FAF1B206AE30463A46FFF7B0FA2D
:103010000499681A039002984000255A681A029091
:10302000009804880AD03088A04207D0001B00B264
:1030300003994843029900F035FA2418019F049E31
:103040000AA8048006A808A94C88AE420AD0408885
:10305000A04207D0001B00B203994843029900F038
:1030600021FA24180AA8448006A808A98C88AE4230
:103070000AD08088A04207D0001B00B203994843C1
:10308000029900F00FFA24180AA8848006A808A95B
:10309000CC88AE420AD0C088A04207D0001B00B244
:1030A00003994843029900F0FDF924180AA8C48046
:1030B000059A0AA93846FEF7D1FB01460A2800D135
:1030C0005FE70120B840334A13890343138158E76F
:1030D00007F90000483A0000F0B581B00446084600
:1030E000FDF728FD0646294805682846FDF71AFD24
:1030F0000146304600F0FCFA2549FDF701FCFDF7DA
:10310000AFFC012808DBE1008F4A51184A68091D0D
:10311000824210D800250FE01E490988C90600D553
:1031200040198A490D694319E100874A51184A68D4
:10313000091D9A4200D2151A0D6084480669174885
:10314000002E11D0B5420FD82846FDF7F3FC0746F4
:103150003046FDF7EFFC01463846FDF7D1FB7C49D0
:1031600000F0C6FAFDF77CFCA1000D4A55500D4950
:10317000095D4900174A5052E00073490818408819
:103180006100094A505201B0F0BDC04698022020AB
:1031900000002041FC012020BC012020D2040000BE
:1031A0008801202030390000A801202080B508487F
:1031B0000068C0B201280AD10648018D064A914232
:1031C00001D0491C00E001210185FEF75FF880BDB8
:1031D00020108640DE002020FFFF000080B504485C
:1031E0000068C0B2102801D1FFF702FC80BDC046C4
:1031F0002090104010B5934B0020186058608F4805
:10320000016802229143016009490C46243444605C
:1032100083600823C36001235B040C689C430C603B
:1032200004681443046008681843086010BDC04671
:1032300000911040F0B581B000291AD00C46054627
:1032400000260D4F03E08019C6B2A64211D2A9197B
:10325000A21B0A48FEF7A8FF3968C907F3D03968EE
:10326000C907F0D03968C907EDD03968C907F3D16B
:10327000E9E7012001B0F0BD089110400080104046
:1032800070B50C46054601204202704E3046FEF7EE
:1032900027FE304621462A46FEF714FE70BDC04682
:1032A000F0B581B015460C46C7002748C0194068E4
:1032B000FDF740FC064625480069FDF73BFC01464A
:1032C0003046FDF71DFB224900F012FAFDF7C8FB5E
:1032D00001461D48C25B0120012D05DBE3885B1F11
:1032E00093421CDD00221BE023885D1D0123002486
:1032F00095421A4600D22246164D2D88164E368823
:1033000075198D4200D923460029014600D019467F
:103310000029014600D11146012911D011E00122F6
:103320000E4BDB880E4CE488E31A8B42034600DA2E
:1033300013460C4A9142014600D81946002900D094
:10334000002001B0F0BDC046BC01202018022020A2
:1033500000401C465A3A00006A3A0000623A0000F7
:10336000523A00000F270000B0B5002809D00446EB
:1033700000257D200002FEF771FD6D1CE8B2A04221
:10338000F7D3B0BDB0B5002808D0044600252020F2
:10339000FEF764FD6D1CE8B2A042F8D3B0BD00009A
:1033A000FFF796FD2548264941602649816008219E
:1033B000C160016802220A4302600124A00422497C
:1033C0000860E003086060060860032045036702A8
:1033D0001E4E304629463A46FEF782FD40223046D0
:1033E0002946FEF763FD304629463A46FEF778FD4A
:1033F000174A30462946FEF765FDFFF76FFA20466B
:10340000FFF7B2FF2046FFF7AFFFFFF743FBFEF7E2
:103410000CFF1048016821430160FDF709FE0E4DC5
:103420000E4EA0052860FEF701FFFDF741FE307843
:103430000028F6D0FFF7DEFEF3E7C04600B24240B8
:10344000249110405801202000E100E000D00C4001
:103450004800202004188640B0320A40B8012020DD
:1034600043088B421AD3002203098B4279D3030A03
:103470008B425ED3030B8B4242D3030C8B4227D388
:103480000902FF2212BA030C8B4202D31212090264
:1034900003D0030B8B4233D31AE0D3E0411A8041AF
:1034A000401C704703460B4371D443088B42F5D34D
:1034B000002203098B4254D3030A8B4239D3030BF6
:1034C0008B421DD3030C8B4202D394466EE0090A53
:1034D000C30B8B4201D3CB03C01A5241830B8B42E7
:1034E00001D38B03C01A5241430B8B4201D34B03D0
:1034F000C01A5241030B8B4201D30B03C01A524135
:10350000C30A8B4201D3CB02C01A5241830A8B42B9
:1035100001D38B02C01A5241430A8B4201D34B02A2
:10352000C01A5241030A8B4201D30B02C01A524106
:10353000CDD2C3098B4201D3CB01C01A52418309BA
:103540008B4201D38B01C01A524143098B4201D3F4
:103550004B01C01A524103098B4201D30B01C01A1F
:103560005241C3088B4201D3CB00C01A5241830899
:103570008B4201D38B00C01A524143088B4201D3C6
:103580004B00C01A5241411A524110007047CA0FF5
:1035900000D04942031000D34042534000229C46D1
:1035A00003098B422DD3030A8B4212D38901FC22DB
:1035B00012BA030A8B420CD3890192118B4208D3B1
:1035C000890192118B4204D3890137D0921100E016
:1035D0008909C3098B4201D3CB01C01A5241830927
:1035E0008B4201D38B01C01A524143098B4201D354
:1035F0004B01C01A524103098B4201D30B01C01A7F
:103600005241C3088B4201D3CB00C01A52418308F8
:103610008B4201D38B00C01A5241D9D243088B424E
:1036200001D34B00C01A5241411A00D20146524107
:10363000104663465B1000D34042704763465B1000
:1036400000D3404201B50021004201D0C9430846E1
:10365000C046C04602BD000003B40148019001BD50
:103660000100202070B50125ED0704004C4020D456
:10367000441A01D2001B0919C60D4B00F2B2FF2AF1
:1036800029D01B0E2CD000020C0228432C43D31A45
:10369000DC40051910D2280A02D3401C6D0611D057
:1036A000761EF6058019FF2A00DA70BDC00DC00530
:1036B00070BD694000F07AF801200543C541521CF5
:1036C000761CE8E764089C40C90161408900E7D1A5
:1036D0000124A043E4E71B0E440200D0034870BD60
:1036E000002AFCD1C00FC00770BD00BF0000C07F22
:1036F00070B5420064414B005C41120E39D01B0E84
:1037000038D0FF2A3CD0FF2B3AD0D2187F3A400263
:103710004902400A490A4518ED0106004E43000AD5
:10372000090A48430104731A4019190C4318990FE8
:1037300004D05B08012149075B1A521CD80904D345
:10374000401CF50301D19D0607D0FF2A08D2D505FC
:1037500006D0E4072043401970BD0125A843F4E7D3
:10376000002A01DCE00770BD2402FF202043C005D1
:1037700070BD1B0EFF2A03D0FF2B01D0E00770BDE8
:10378000FF2636064500B54206D84D00B54203D89F
:10379000D218FF2A00D0E7E7004870BD0000C07FC4
:1037A00070B50125ED0704004C4022D4441A02D222
:1037B0006C40001B0919C60D4B00F2B2FF2A4BD01A
:1037C0001B0E50D000020C02A8432C43D31ADC403D
:1037D000051B05D5AD0019D36D08761E521E37D0D6
:1037E000F605280A01D2801970BD70416D0603D01C
:1037F00070BD6940FFF73CFF9C40090261404900F1
:1038000001D0401E70BD0124A04370BD6D081DD0C5
:1038100001202B0C01D12D0410302B0E01D12D02D3
:1038200008302B0F01D12D01001DAB0F01D1AD00D0
:10383000801CEB0F01D16D00401C361A121A6D006E
:10384000680AF5054019012A02DB70BD002070BD31
:10385000C036300AC00770BD1B0E440201D1FF2BD9
:1038600000D1024870BD002AF0D070BD0000C07FBA
:1038700080807F7E7D7C7B7A7978777676757473AD
:10388000727171706F6E6E6D6C6C6B6A6A6968686C
:10389000676666656464636362616160605F5F5E02
:1038A0005E5D5D5C5C5B5B5A5A5959585857575678
:1038B00056555555545453535252525151505050DD
:1038C0004F4F4F4E4E4D4D4D4C4C4C4B4B4B4A4A2F
:1038D0004A49494948484847474747464646454573
:1038E00045444444444343434342424242414141AC
:1038F0008182838485868788898B8C8D8E8F919237
:1039000093959697999A9C9D9FA0A2A3A5A7A8AAD4
:10391000ACAEB0B2B3B5B7B9BCBEC0C2C5C7C9CCF6
:10392000CED1D4D7D9DCDFE2E6E9ECF0F3F7FAFE4A
:1039300018191A1B1C1D1E1F08000300020001009D
:103940000F001E003200C800C80032001E000F0029
:1039500001000200030008003E0D6F0D770DD50D2C
:10396000170D4A0D610DCB0DD70C190D3D0DA70D8F
:10397000B40B5B0CA80CCA0C470B1A0C740C8B0C08
:10398000410B020C560C5E0CD70C2B0D540DA60DE2
:10399000D20C130D400D8B0DAE0CF10C210D5B0DF7
:1039A000230C860CCC0CEB0CE80B5E0CA70CC10CAA
:1039B000CB0B450C8D0CA40CBE0C180D480D8B0DBB
:1039C000BA0C030D350D700D990CE80C1B0D470D4D
:1039D000340C910CD80C020D0D0C730CB70CD70CD9
:1039E000F20B5B0CA00CBC0C9D0C060D3D0D740D78
:1039F0009A0CF40C290D580D810CDE0C130D360DAC
:103A0000370C960CE20C120D230C800CC70CF10C39
:103A1000100C6B0CB10CD30C910CFD0C370D610D1F
:103A20008F0CEC0C240D490D790CDA0C100D2E0DB9
:103A3000390C980CE70C1C0D2A0C850CCF0C000DD2
:103A40001A0C730CBB0CE90C00009600FA005E0126
:103A5000C201F401D0077017E425F401D0076419FE
:103A6000AC2664002C01BC02960064002C01BC0250
:103A700064000A0A0A0A0A0A0A0A0A0A0A14141438
:103A800000050A0F14191E282D32373C5064F00A25
:103A90006D0C980CAF0CCD0CDE0CE70CE80CEA0CAE
:103AA000EC0CEF0CF80C0C0D4E0D0A0A0A0A0A0A6F
:103AB0000A0A0F0F0A000000000A141E28323C46B2
:103AC000505F64000000F00A850CB00CD20CDB0CD7
:103AD000DD0CE90C020D030D0B0D3E0D0000000086
:103AE000000005000005000011000000000000209B
:103AF00000000000000000000000000000000300C3
:103B0000080000000302070002000000FF07000099
:103B1000000000000000000000000000080000009D
:103B200018000000003000001416181A1C1E303255
:103B3000FD92FA92FF920093FE92FB920193029300
:103B400000006A7074760F0F101011111212274BBB
:103B500013F13C460604B80B2814B80B28141E00B9
:103B6000B80B800C420E0000983B000000002020A3
:103B70003400000020010000CC3B00003400202075
:103B80004400000020010000103C000078002020CC
:103B9000480700004801000081B0112109020122FC
:103BA000425009494018016807220A4000920099D2
:103BB000C9B2032903D00099C9B20129F3D10098F1
:103BC000C0B201B07047C046D013000058390000A1
:103BD00088390000B8390000E8390000183A0000C0
:103BE000012002250E0000008E3A0000803A0000FD
:103BF000723A00000E000000C63A0000B83A000019
:103C0000AA3A0000070F02030704000000000000AA
:04000005000000C136
:00000001FF
