:020000040000FA
:1000000050072020C5010000C9010000CB010000FD
:1000100000000000000000000000000000000000E0
:10002000000000000000000000000000CD01000002
:100030000000000000000000CF010000D10100001E
:10004000D3010000D3010000D3010000D301000060
:10005000D3010000D3010000D3010000D301000050
:1000600000000000D3010000D301000000000000E8
:1000700000000000D3010000D3010000793500002A
:10008000D3010000D3010000D9340000D3010000E7
:10009000D3010000D30100000000000000000000B8
:1000A000D3010000B92C0000000000000000000097
:1000B000D301000000000000D3010000D3010000C4
:1000C00000F002F800F052F812A030C808382418E6
:1000D0002D18AC4201D100F049F80FCCA246AB4636
:1000E0000CA730CF2D1B083F3F197C427F1E544484
:1000F0002D090426F441641EAC4201D300F036F809
:100100000126334200D0FB1A3343984754465D46DC
:10011000DFE700001C3C00004C3C00000000000039
:10012000103A02D378C878C1FAD8520701D330C840
:1001300030C101D504680C60704700000000000069
:100140007047000000000000002300240025002666
:10015000103A01D378C1FBD8520700D330C100D583
:100160000B6070471FB51FBD10B510BD00F0F9FD45
:100170001146FFF7F7FF03F0EBFA00F011FE03B4AE
:10018000FFF7F2FF03BC00F017FE000070B5054654
:100190000C46164602E00FCC0FC5103E102EFAD2C8
:1001A000082E02D303CC03C5083E042E07D301CC8E
:1001B00001C5361F03E021782970641C6D1C761E72
:1001C000F9D270BD06480047FEE7FEE7FEE7FEE70E
:1001D000FEE7FEE703480449024A044B704700006B
:1001E000C100000050032020500720205003202091
:1001F000F8B5042A2CD3830712D00B78491C03705E
:10020000401C521E83070BD00B78491C0370401C06
:10021000521E830704D00B78491C0370401C521EE9
:100220008B079B0F05D0C91ADF002023DE1B08C9EE
:100230000AE0FFF7ABFFF8BD1D4608C9FD401C46AC
:10024000B4402C4310C0121F042AF5D2F308C91A77
:10025000521EF0D40B78491C0370401C521EEAD485
:100260000B78491C0370401C012AE4D40978017002
:10027000F8BD01E004C0091F0429FBD28B0701D59A
:100280000280801CC90700D00270704700290BD083
:10029000C30702D00270401C491E022904D3830701
:1002A00002D50280801C891EE3E70022EEE70022CF
:1002B000DFE70000002203098B4273D3030A8B425D
:1002C00058D3030B8B423CD3030C8B4221D312E057
:1002D00003460B437FD4002243088B4274D30309A7
:1002E0008B425FD3030A8B4244D3030B8B4228D348
:1002F000030C8B420DD30902FF2212BA030C8B426E
:1003000002D31212090265D0030B8B4219D300E00D
:10031000090AC30B8B4201D3CB03C01A5241830B92
:100320008B4201D38B03C01A5241430B8B4201D342
:100330004B03C01A5241030B8B4201D30B03C01A6B
:100340005241C30A8B4201D3CB02C01A5241830AE5
:100350008B4201D38B02C01A5241430A8B4201D314
:100360004B02C01A5241030A8B4201D30B02C01A3E
:100370005241CDD2C3098B4201D3CB01C01A5241A5
:1003800083098B4201D38B01C01A524143098B422E
:1003900001D34B01C01A524103098B4201D30B0117
:1003A000C01A5241C3088B4201D3CB00C01A52413C
:1003B00083088B4201D38B00C01A524143088B4201
:1003C00001D34B00C01A5241411A00D2014652419A
:1003D000104670475DE0CA0F00D04942031000D3B9
:1003E000404253409C46002203098B422DD3030A0E
:1003F0008B4212D38901FC2212BA030A8B420CD31E
:10040000890192118B4208D3890192118B4204D346
:1004100089013AD0921100E08909C3098B4201D3C6
:10042000CB01C01A524183098B4201D38B01C01A00
:10043000524143098B4201D34B01C01A5241030977
:100440008B4201D30B01C01A5241C3088B4201D326
:10045000CB00C01A524183088B4201D38B00C01AD3
:100460005241D9D243088B4201D34B00C01A5241AA
:10047000411A00D201465241104663465B1001D337
:100480004042002B00D54942704763465B1000D3C1
:10049000404201B50449002802DC491C084000E044
:1004A0000846C046C04602BDFFFFFF7F7047704749
:1004B000704700000246C80FC00781434B0030B5AB
:1004C0004B405B009B0D20D01923DB06C91801238C
:1004D0001B05994220DB0324A40704251346AB40E7
:1004E0000BD3002B04D1EB0613409B00E34204D452
:1004F00001246407002312195941FF231B05994267
:100500000BD2C9000143500F09E0CB0204D50143CF
:100510000803024305D0054830BDFF21C905084343
:1005200030BD084607210905884330BD0000C07F63
:10053000F0B50C46871A9C410D46861A9D4103D2A0
:10054000C01BA141D21963410D0D1F0DC94EEC1BFB
:10055000AE435CD07F057F0D0026002F51D02D05C6
:10056000AC46A943DD020123ED0A1B051D432023F0
:100570001B1B24D41746E740381871412F46E7402B
:10058000CC199D402818314661410C0D27D161449A
:100590009A4013D50023401C594152000ED1400807
:1005A000400001224B005205D34207D305204007EB
:1005B000C14201D5B04900E0B0493046F0BD6B0002
:1005C000002A00D001229A181F23203C1B1B01D5B2
:1005D000002302E0E540281871410C0DD7D001241A
:1005E00024050919C407CD0740084908E40F28432A
:1005F0006144002CD5D00024401C61419A40D0D1E8
:10060000CDE76A05520DD9D1C90FC907D5E79C4D71
:100610004E00002801D0012400E0002434195F00BE
:10062000002A01D0012600E00026BE19954FAC42F9
:100630000CD8AE420AD8B44206D001256D05EC4272
:10064000BCD010461946F0BD9942FCD00020394676
:10065000F0BDF0B51FB40C460F46811A9F412546E8
:10066000861A9D4106D20125ED076F40401ABC4114
:1006700052187B41210D1E0D8D1BAC467D4D8D43C7
:100680007ED075056D0D7CD00D05AE46AC431B03C9
:100690001B0B794D52429D41202366469B1B14D370
:1006A0001746F740381800260090744160462F46E0
:1006B0000741E41900989D402818664116D47146F8
:1006C00071189A4025D5012320E093182A466A41E3
:1006D0005200002B00D0521C1E23203E9B1B002BDF
:1006E00061DD3541EE1728186641E8D500187641DE
:1006F0005B1C9A4000D3401C4B05F3181524E340C3
:1007000010D3002B52D071467118D30FC01802D3EA
:10071000491C05B0F0BD0123DB079A42F9D140081E
:100720004000F6E701225205B21801D1002853D04B
:100730000123CC0ADB029943891E002A08D1020C4E
:1007400003D0020C0004103902E0024600202039D8
:100750000023550B05D112020823550B01D152017C
:100760000D23550C01D112011B1DD50C01D1920096
:100770009B1C150D01D152005B1C2025EE1A01E0D7
:100780002CE022E00546F54015439840CA1AE107DF
:1007900069181305C918002ABBDA03204007081896
:1007A000C10FC9070FE071466118B2E7F1074008B1
:1007B0000843711071444A000CD001235B059A4232
:1007C000A7D2C90FC9070020A3E74905490D26D1C3
:1007D000002001E00028F4D100219AE7284D6600AE
:1007E000002801D0012100E0002171185F00002ADB
:1007F00001D0012600E00026BE19224FA94210D8E0
:10080000AE420ED8B14208D001256D05E94206D0AE
:100810001946A802414010467BE79C4201D0214680
:1008200077E70020394674E710B50C465C4005D5E3
:100830000124E4076340FFF70CFF10BDFFF778FECB
:1008400010BD30B40C465C4004D50124E40763407D
:1008500030BC6DE630BCFCE670B50124E4076140B5
:100860000D465D4002D4FFF763FE70BD6340FFF7A5
:10087000F0FE70BDFF0700000000F0FF0000F07FF9
:100880000000E0FF0000F87F1F22030C02D10F22BE
:10089000000402D0030E03D004E00020014670479C
:1008A0000002083A030F01D10001121F830F01D18A
:1008B0008000921E002801DB4000521E12055118D4
:1008C0004205C012411810467047C10FC90700D039
:1008D0004042012292071143D6E701218907D3E75D
:1008E000F0B58B4C0F09254689B0BD437BD01D095F
:1008F0002646AE43FAD00E465E402740F60F3E43F2
:10090000254071D024012142FBD0FF24AD19A4045D
:100910002D1B039501252D05DB02DB0AC9022B43A4
:10092000C90A29431E010901040F130F05012143C0
:100930001701880B820391432D098C46A90B1E4396
:100940008A039543B30B9A0396433F09BA0B94036A
:10095000A74302962E467E430497B6464E19D719F2
:100960000C460196544305977E43371B7646BF1BC2
:100970003601B646BE0B361900967646BC043719CA
:10098000009C01D3641C00946400002F01D0012658
:100990003443029E049F754366467E430496760068
:1009A00034196E0034190094029C019E1C19664390
:1009B000751BAE46069465464519059C05956C4326
:1009C000594375460891691A0191049E01465143A5
:1009D000A41B0491611A009C0791E10605D06109EE
:1009E0000122114302E072E06EE06109089D0027D8
:1009F0002C0A2D066918049D7C412A0A2D066918C7
:100A0000019D6241AC0DAD026D185441079A910DE4
:100A1000920255196141029A644658435443069B19
:100A2000059A5A43121A131B9A0E9B015B187A41BE
:100A3000010B0005C3185141220A200644195A41EE
:100A40009A4200D2491C01204002814203D315235F
:100A50000226F64302E014230326F6432020C51A9B
:100A6000A9401746AF40DA400A4320460399D840D0
:100A70000914731819055118039A3843D2075140C5
:100A8000AC4009D00122944006D30022401C5141C1
:100A9000002C01D1400840001E4A934212D301228B
:100AA00003989206904207DB0520400709181A4870
:100AB0000143C012414004E0032040070818C10F61
:100AC000C907002009B0F0BD0020F107FAE70518BA
:100AD0000C464C4111486D42A04115D394181A465A
:100AE0005A410E48644290410ED301204A0040050D
:100AF000824209D35A00824206D35940C90F084A9C
:100B0000C90700201143DDE700200649DAE70000AD
:100B10000000FF07FE070000FFFFFF7F0000E0FF6F
:100B20000000F07F0000F87FF0B5FF252D04C60916
:100B3000C209FF2704462E400137CB093E434840F7
:100B40002A402B400746002A6BD0002B69D0AA42CE
:100B500067D0AB4265D0002800DA32460125ED05AA
:100B600029432C4309022002090AD21A4B0C7F2484
:100B7000E31A434C000A7C44E35C7D2424041219EC
:100B800014145B00A218884201D3521C00E04000FC
:100B900049420C465C4324115C43DB016415E318B5
:100BA000040A5C43C502200D0C4644436419250A1F
:100BB0005D432303EC0C0D46654300030019EB185D
:100BC0004C42A34201D35B18401CD4052018002BD3
:100BD00007D05B00C91804D3401C002901D140088C
:100BE00040003F2189048A4209D3002A08DC11060B
:100BF000090F04D0032149074018C00FC007F0BDFA
:100C000001224100120689187F2252069142F6D233
:100C100005214907C84201D59010F0BDFF20C0054D
:100C2000F0BD002F00DA32461648AA4207D2AB4286
:100C300005D21902090E17D0F80FC007F0BDFF2525
:100C400063002D06AB42F9D84900A942F6D8AB4261
:100C500001D1A942F2D0A94201D1002101E06100F5
:100C60004908D0050843F0BD1102090EFBD0FF2052
:100C70000243D005F0BD0A460146104654E7000085
:100C8000BA3000000000C07F10B501469E2400026B
:100C9000CA15A307002A02D01843002A04DBA21AAF
:100CA000002A0CDDD04010BD1206120E01D140000A
:100CB0004008A21A03D4D04040420028F3DDFF22AE
:100CC00048001206904201D9002010BDC817C04349
:100CD000584010BD0102C21504D00123DB0719439F
:100CE000002A0ADB9E239A1A02D40846D040704795
:100CF000FF2241001206914201D900207047C0171F
:100D0000C04370471F22030C02D10F2200041CD0E5
:100D1000030E01D10002083A030F01D10001121F96
:100D2000830F01D18000921E002801DB4000521E7B
:100D3000D2055118021251181922904004D3491CAF
:100D4000002801D14908490008467047C10FC9076A
:100D500000D04042012292071143D3E701218907C5
:100D6000D0E7754600F024F8AE46050069465346C4
:100D7000C008C000854618B020B5FFF72BFA60BC4C
:100D8000B64600260027C0C5C0C5C0C5C0C5C0C581
:100D9000C0C5C0C5C0C5403D490849008D46704723
:100DA00010B50446C046C0462046FFF7E8F910BD1E
:100DB000004870474800202001491820ABBEFEE7DC
:100DC0002600020070470000F0B583B02620C24F15
:100DD000385E0421C9434143C04C216002F008F948
:100DE000BF4900200861486188610190C861F34AE9
:100DF00050682568012D05DB461B00D20026EE4811
:100E0000046907E0EC490C696119884201D3264660
:100E100000E0461B5660B348002C029011D03046CB
:100E2000FFF79CFF07462046FFF798FF014638462C
:100E3000F24FFFF779FEAC4902F03CFEFFF724FFCA
:100E4000DE4AA7490E6038865088A8490880D068D5
:100E5000012D03DB461B07D2002605E061198842FD
:100E600001D3264600E0461BD660002C9D4811D0D9
:100E70003046FFF773FF07462046FFF76FFF014636
:100E80003846DE4FFFF750FE974902F013FEFFF79A
:100E9000FBFECA4A92494E60788650899349488041
:100EA0005069012D03DB461B07D2002605E06119BE
:100EB000884201D3264600E0461B5661002C894833
:100EC00011D03046FFF74AFF07462046FFF746FF9E
:100ED00001463846C94FFFF727FE834902F0EAFD75
:100EE000FFF7D2FEB54A7E498E60B886508A7F49A8
:100EF0008880D069012D03DB461B07D2002605E060
:100F00006119884201D3264600E0461BD661002CB9
:100F1000744811D03046FFF721FF07462046FFF7FF
:100F20001DFF01463846B54FFFF7FEFD6E4902F042
:100F3000C1FDFFF7A9FEA14A6949CE60F886508B32
:100F40006A49C880506A012D03DB461B07D2002680
:100F500005E06119884201D3264600E0461B56622F
:100F6000002C604811D03046FFF7F8FE07462046B7
:100F7000FFF7F4FE01463846E24FFFF7D5FD5A4928
:100F800002F098FDFFF780FEE14A55490E6138876F
:100F9000508C56490881D06A012D03DB461B07D2CD
:100FA000002605E06119884201D3264600E0461B71
:100FB000D662002C4B4811D03046FFF7CFFE0746D3
:100FC0002046FFF7CBFE01463846F14FFFF7ACFD58
:100FD000454902F06FFDFFF757FEEE4A40494E616A
:100FE0007887508D41494881506B012D03DB461BAA
:100FF00007D2002605E06119884201D3264600E0A9
:10100000461B5663002C374811D03046FFF7A6FE2A
:1010100007462046FFF7A2FE01463846DC4FFFF7A1
:1010200083FD314902F046FDFFF72EFED94A2C49D7
:101030008E61B887508E2D498881D06B012D03DBDE
:10104000461B07D2019E05E06119884201D326465E
:1010500000E0461BD663002C11D03046FFF77EFE21
:1010600005462046FFF77AFE01462846FFF75CFD5D
:101070001D4902F01FFDFFF707FEC64A02901848FF
:10108000C6610298F887508F1849C88100F022FF86
:10109000C1488168C268002912D0914209D14269D1
:1010A000019B436151188160C160EE4B1C69A2181D
:1010B0001A61F14A1160016101F09EF903B0F0BDBF
:1010C0004369019C44619A18C260E64C2569EB189B
:1010D00023619142E3D0ECE7B80020208802202071
:1010E00084012020D204000000401C46A4012020DE
:1010F000F0B5DD4801880A0733D506220B461340B8
:101100002FD04B0714D58368C4684569EE18D54FB6
:101110003E61A04FFE637E63FE627E62FE617E6181
:10112000FE607E601B1B5B198660C66006614361C2
:101130008B0712D5974B0024DC635C63DC625C6236
:10114000DC615C61DC605C60836884604469E31A34
:10115000C468E318C360C34C236100234361914317
:101160000180F0BD70B5C04800256A49114A42604F
:101170008160C1600161456109220280B9488560D2
:10118000C560016145618580056082484021FFF7A7
:101190008EF80B4C26212046FFF789F80126267091
:1011A000084C28212046FFF782F807480560267082
:1011B00070BDC0461027102720022020C801202023
:1011C000600220203802202088022020422170481E
:1011D000415A0B4A914204D3A3490A88042313437A
:1011E0000B804421405A401E0649884204D89E483C
:1011F000018802220A4302807047C046B8002020BE
:10120000FC0D00008B0A0000F0B587B096480088FE
:10121000C0076FD0192083021869924900268E609A
:1012200035494118354C364AA14200D302468D4813
:10123000C26006920261564CE08C01B2C91348406C
:10124000401A00B201903F20C5432F4F314603930F
:1012500008E0816004984264A41C08353F1D761C98
:10126000002D2BD005914B4843192088402158521E
:101270000122314602929143454A8918C98B422284
:1012800004939952039B5919896D3960019A042A74
:101290001E4A07DC00F09EFD1E4988421B4A00D80A
:1012A0000246039B0699914200D311466D48069170
:1012B000C16005999142CCD81146CAE718686A4CBA
:1012C000E060996821610C4940180C49884201D2BC
:1012D0000B48E06000F038FE0B48002101604160DF
:1012E0008160C160016141618161C16120880299B1
:1012F0008843208007B0F0BD7F41EBF83F3E87FA7E
:101300008027CB05B800202064012020C0FC9B0171
:10131000C801202080BE1407F0B581B0FFF774FF2C
:101320001B4802881B490A80C28B4A804A81438835
:101330000B8183880B82038C4B824B83C4880C8384
:1013400004890C844224065B4424075B464C658870
:10135000444C67802680448C4C844C8546890E859D
:1013600086890E86868C4E864E87C0890887981897
:10137000001980194000401980B2C0083A494880DD
:10138000FFF722FDFFF7B4FE00F008F801B0F0BD52
:10139000B8002020C80120200802202070B52F4866
:1013A0000188491C01800188772916D119208402FF
:1013B000012046022A4D28462146324601F09CFA79
:1013C00040222846214601F07DFA0834284621466D
:1013D000324601F091FA284A35E00188782914D381
:1013E00001887F2911D806880088C0001F49441849
:1013F000012042021A4D2846214601F07DFAB00034
:101400001B4940181B4942181DE0018880290BD157
:101410001920840201204202114D2846214601F084
:101420006BFA114A0C320EE00188812910D101209B
:101430004202192084021034094D2846214601F049
:101440005BFA084A10322846214601F047FA70BD7F
:101450000188822901D30021018070BD4C03202026
:1014600000D00C40200220200802202058600000FC
:101470008401202020FEFFFFAC002020F0B58FB0BB
:1014800005900CA900274F70122008703E260224F8
:1014900030460996224601F09DFC204602F03CF9B8
:1014A0003C2002F039F90CA94F7090250D703046A0
:1014B000224601F08FFC204602F02EF9082006900B
:1014C00002F02AF90CAE777137712D20F070B570EB
:1014D00092200B9070703420307004220392099D8A
:1014E0002846314601F076FC204602F015F90EA997
:1014F00006200490487070780C9A8018B278801892
:10150000F2788018C043087060200890224601F0ED
:1015100061FC204602F000F90CAE77713771F7706C
:1015200001200290B0700B98707037203070032249
:101530000A922846314601F04DFC204602F0ECF8B4
:101540000EA905200790487070780C9A8018B27820
:101550008018C04308700898224601F03BFC2046E2
:1015600002F0DAF80CAE77713771F7700D20B070B9
:101570000B98707036203070284631460A9A01F078
:1015800029FC204602F0C8F80EA9079D4D7070781E
:101590000C9A8018B2788018C043087008982246C8
:1015A00001F018FC204602F0B7F8059E30461030D6
:1015B000294601F067FC30460830039901F0A4FF8A
:1015C0003046069902F02AF80CAE77713771F77041
:1015D000BC20B0700B987070612030700998314653
:1015E0000A9A01F0F7FB204602F096F80EA94D701A
:1015F00070780C9A8018B2788018C0430870089DE3
:101600002846224601F0E6FB204602F085F80CAEA3
:1016100077713771F770F720B0700B987070622097
:101620003070099831460A9A01F0D4FB204602F046
:1016300073F80EA90798487070780C9A8018B278E1
:101640008018C04308702846224601F0C3FB20469C
:1016500002F062F80CAE77713771F820F0708220DA
:101660000190B0700B9870706D203070099D284605
:101670003146039A01F0AEFB204602F04DF80EA968
:101680000498487070780C9A8018B2788018F278B4
:101690008018C04308700898224601F09BFB204642
:1016A00002F03AF8059E304600F0C0FCB07F0CAE68
:1016B00077713771F770B0700B987070752030705B
:1016C000284631460A9A01F085FB204602F024F8AC
:1016D0000EA9079D4D7070780C9A8018B27880180A
:1016E000C04308700898224601F074FB204602F0BF
:1016F00013F80598C07F0CAE77713771F770B07032
:101700000B98707078203070099831460A9A01F071
:1017100061FB204602F000F80EA94D7070780C9A1B
:101720008018B2788018C0430870089D2846224669
:1017300001F050FB204601F0EFFF0CAE77713771DE
:10174000F7700720B070932070700A9A3270099871
:10175000314601F03FFB204601F0DEFF0EA907985D
:10176000487070780C9A8018B2788018C04308705E
:101770002846224601F02EFB204601F0CDFF0CAE9C
:1017800040207071F22030711A20F070D220B070B9
:1017900091207070A820307009983146049A01F0A9
:1017A00019FB204601F0B8FF0EA906984870707822
:1017B0000C9A8018B2788018F27880180D9A8018E8
:1017C00072798018C04308702846224601F002FB57
:1017D000204601F0A1FF0CAE77713771F770079DBD
:1017E000B5700B98707080203070099831460A9A55
:1017F00001F0F0FA204601F08FFF0EA94D707078CD
:101800000C9A8018B2788018C04308700898224655
:1018100001F0E0FA204601F07FFF0CAE77713771DE
:10182000F7700A20B0700B987070019830700998AA
:1018300031460A9A01F0CEFA204601F06DFF0EA95A
:101840004D7070780C9A8018B2788018C043087078
:101850000898224601F0BEFA204601F05DFF0CAE6A
:1018600077713771F770B5700B9870708620307093
:10187000099831460A9A01F0ADFA204601F04CFF72
:101880000EA94D7070780C9A8018B2788018C043F9
:1018900008700898224601F09DFA204601F03CFFAE
:1018A0000CAE77713771F7700A9AB2700B9870703E
:1018B00087203070099D2846314601F08BFA20467A
:1018C00001F02AFF0EA90798487070780C9A8018CA
:1018D000B2788018C04308700898224601F07AFA5E
:1018E000204601F019FF0CAE77713771F77002983E
:1018F000B0700B98707095203070284631460A9A67
:1019000001F068FA204601F007FF0EA90798487019
:1019100070780C9A8018B2788018C04308700898C4
:10192000224601F057FA204601F0F6FE069E3046A8
:1019300001F0F2FE0CA94F700B9808702846224661
:1019400001F048FA204601F0E7FE304601F0E4FEDF
:101950000CA94F70222008702846224601F03AFA5E
:10196000204601F0D9FE304601F0D6FE0CA94F709A
:10197000962008702846224601F02CFA204601F0F5
:10198000CBFE304601F0C8FE0CA94F709A200870BB
:101990002846224601F01EFA204601F0BDFE3046E0
:1019A00001F0BAFE0FB0F0BDB0B56220A04C022528
:1019B00021462A4601F08CF9284601F0ADFE284662
:1019C00001F0AAFE607821780002401801490880E1
:1019D000B0BDC046A8002020F0B581B06A20944C6C
:1019E000022521462A4601F073F9284601F094FEAB
:1019F000284601F091FE6078217800024018FEF739
:101A000064FF314F314B3A46FEF76AFF304A314BA3
:101A1000FEF70AFFFEF74EFDEA4E30606E202146CB
:101A20002A4601F055F9284601F076FE284601F0D5
:101A300073FE6078217800024018FEF746FF3A46B0
:101A4000224BFEF74DFF224A224BFEF7EDFEFEF73A
:101A500031FD7060742021462A4601F039F928468C
:101A600001F05AFE284601F057FE60782178000206
:101A70004018FEF72AFF3A46144BFEF731FF144A8E
:101A8000144BFEF7D1FEFEF715FDB060762021461F
:101A90002A4601F01DF9284601F03EFE284601F0D5
:101AA0003BFE6078217800024018FEF70EFF3A46B0
:101AB000064BFEF715FF064A064BFEF7B5FEFEF78E
:101AC000F9FCF06001B0F0BD9A9999999999B93FE4
:101AD00066666666661271C0B0B53A20544C02253F
:101AE00021462A4601F0F4F8284601F015FE284662
:101AF00001F012FE60782178000240180149088048
:101B0000B0BDC046B6002020B0B57F20484C0225AD
:101B100021462A4601F0DCF8284601F0FDFD284662
:101B200001F0FAFD6078207801490870B0BDC04628
:101B3000B2002020F0B581B003203D4C02252146A3
:101B40002A4601F0C5F8284601F0E6FD284601F0D6
:101B5000E3FD60782078204E307020784007C00F79
:101B60001E49087020780007C00F1D490870607872
:101B70000007C00F1B49087060788007C00F1A4922
:101B80000870052021462A4601F0A2F8284601F0F7
:101B9000C3FD284601F0C0FD60782078134F3870EF
:101BA000072021462A4601F093F8284601F0B4FDAB
:101BB000284601F0B1FD607820780D490870317831
:101BC000081839784018012801D8002000E00120C9
:101BD0000849087001B0F0BD48032020C50120204D
:101BE000B500202058012020B400202049032020E7
:101BF0004A0320202801202070B504460C4D0226FF
:101C00002946324601F064F8304601F085FD304641
:101C100001F082FD6878297800024018143CE1B296
:101C20001F2903D30A21414388B270BD80B270BD21
:101C300049012020F0B581B0614800F0EBFE302072
:101C4000FFF7DAFF4425BF4E70534227F053B081AF
:101C500014242046FFF7D0FFF15B814200D80146F3
:101C6000F153715B814200D30146715330801620DD
:101C7000FFF7C2FFF15B814200D80146F153715B6F
:101C8000814200D30146715370801820FFF7B4FFE2
:101C9000F15B814200D80146F153715B814200D370
:101CA00001467153B0801A20FFF7A6FFF15B814215
:101CB00000D80146F153715B814200D30146715354
:101CC000F0801C20FFF798FFF15B814200D80146AD
:101CD000F153715B814200D30146715330811E2064
:101CE000FFF78AFFF15B814200D80146F153715B37
:101CF000814200D30146715370813220FFF77CFF8F
:101D0000F15B814200D80146F153715B814200D3FF
:101D100001467153F0813420FFF76EFF3082382086
:101D2000FFF76AFF7082FFF757FE264F3868264D8F
:101D3000294601F0BFFEFEF7A7FFF0837868294629
:101D400001F0B8FEFEF7A0FF3084B868294601F024
:101D5000B1FEFEF799FF7084F868294601F0AAFEEB
:101D6000FEF792FFB084FFF7B7FE00F025FB662177
:101D70007052411E8841154D29781022914301432C
:101D80006E20305CC007C00E08182870C1B2C207B0
:101D90000AD11222114002290DD10D4801F0A8F8F4
:101DA00029780120084306E0214204D000F02AFDF2
:101DB000287801218843F9210140297001B0F0BD44
:101DC00000200F40B40120200000204138022020D4
:101DD000F83C0000F0B585B0049104463C484668E4
:101DE00000780190401E002103E0C7B2CAB2BA4297
:101DF0000DD8C2B2CBB29B1801255A08AB43F35A97
:101E0000A34200D9501EA342EFD8511CEDE7304841
:101E100080680090C05D03900498FEF79FFF054620
:101E20007F480069FEF79AFF01462846039D02910C
:101E3000FEF77AFE7B4901F03DFEFEF725FF281AEA
:101E400001B2C9134840401A00B22149C968C95DAE
:101E50008842049839DB0198401EB84227DD7D1C7A
:101E60000098405DFEF77AFF01900398FEF776FF39
:101E700001460490019801F075FE03907800375AEE
:101E80006800305AC01BFEF761FF01460398FEF759
:101E90004BFE0546E01BFEF759FF0146284601F0C0
:101EA00009FE049901F0C0FDFEF7EEFE05465D490E
:101EB0000298FEF739FE04462846FEF74FFF01461A
:101EC000204601F0F7FDFEF705FF05B0F0BDC04666
:101ED00038002020B0B554498A6817480368012BA0
:101EE00007DB9A4209D8981A4A698018486100208D
:101EF00009E0C868C418A24201D2D01A03E0121B3C
:101F00004B69D2184A618860CC68002C0FD0FEF76C
:101F100025FF05462046FEF721FF01462846FEF72D
:101F200003FE074901F0C6FDFEF7AEFE00E00348E0
:101F30000449C885B0BDC04688022020D2040000F4
:101F400000401C46B8002020F0B581B0344EB06887
:101F5000FEF704FF05463069FEF700FF04462846F9
:101F60002146FEF7E1FD2F4D294601F0A3FDFEF7C6
:101F70008BFE0090F068FEF7F1FE2146FEF7D4FDDF
:101F8000294601F097FDFEF77FFE0746264D2E6994
:101F90003046FEF7E3FE0446E868FEF7DFFE05463E
:101FA00020462946FEF7C0FD1E4901F083FDFEF7DD
:101FB0006BFE0099884201D8B8422DD2CC1B38461E
:101FC000FEF7CCFE2F460546A4B22046FEF7C6FE1D
:101FD0000146284601F06EFD06466420001BFEF710
:101FE000B5FE01463046FEF79FFD294601F01CFD77
:101FF000FEF74AFE04460B493846FEF795FD0546B6
:102000002046FEF7ABFE0146284601F053FDFEF7E1
:1020100061FE0646044806610348866001B0F0BDD3
:10202000200220200000C84208022020F0B58DB018
:102030002021415C054603900AAF00267E713E7167
:10204000FE70B970932008907870352038703E206B
:10205000099003220692394600F0BCFE0224204675
:1020600001F05AFB0CA905200790487078780A9A6D
:102070008018BA788018C043087060200490224607
:1020800000F0A8FE204601F047FB284620300590CE
:1020900040780AAD6E712E71EE70A870089F6F7057
:1020A0003620287009982946069A00F093FE2046AB
:1020B00001F032FB0CA90798487068780A9A8018DA
:1020C000AA788018C04308700498224600F082FE67
:1020D000204601F021FB059880780AAD6E712E71C3
:1020E000EE70A8706F703720287009982946069FF7
:1020F0003A4600F06FFE204601F00EFB0CA907984F
:10210000487068780A9A8018AA788018C0430870C6
:102110000498224600F05EFE204601F0FDFA059884
:10212000C0780AAD6E712E71EE70A8700898687054
:1021300038202870099829463A4600F04BFE204680
:1021400001F0EAFA0CA9079F4F7068780A9A801884
:10215000AA788018C04308700498224600F03AFE1E
:10216000204601F0D9FA059800790AAD6E712E71FA
:10217000EE70A87008986870392028700998294670
:10218000069A00F027FE204601F0C6FA0CA94F700F
:1021900068780A9A8018AA788018C0430870049F4B
:1021A0003846224600F016FE204601F0B5FA0598A2
:1021B00040790AAD6E712E71EE70A8700898687043
:1021C0003A20287009982946069A00F003FE204616
:1021D00001F0A2FA0CA90798487068780A9A80184A
:1021E000AA788018C04308703846224600F0F2FDF5
:1021F000204601F091FA0398C08C0AAD6E712E71E1
:10220000010AE970A870089868703B2028700422C1
:1022100002920998294600F0DDFD204601F07CFA83
:102220000CA906200190487068780A9A8018AA784C
:102230008018EA788018C04308703846224600F0BB
:10224000C9FD204601F068FA059F387A0AAD6E7123
:102250002E71EE70A870089868703D20287009985B
:102260002946069A00F0B6FD204601F055FA0CA961
:102270000798487068780A9A8018AA788018C0432E
:1022800008700498224600F0A5FD204601F044FAAB
:10229000787A0AAD6E712E71EE70A870089F6F701B
:1022A000099828702946069A00F094FD204601F00E
:1022B00033FA0CA90798487068780A9A8018AA78A7
:1022C0008018C04308700498224600F083FD204621
:1022D00001F022FA0398408D0AAD6E712E71010A49
:1022E000E970A8706F703F20287009982946029AFB
:1022F00000F070FD204601F00FFA0CA9019848701B
:1023000068780A9A8018AA788018EA788018C043FA
:102310000870049F3846224600F05CFD204601F01C
:10232000FBF90598007B0AAD6E712E71EE70A870F6
:10233000089868704120287009982946069A00F08C
:1023400049FD204601F0E8F90CA907984870687823
:102350000A9A8018AA788018C04308703846224626
:1023600000F038FD204601F0D7F90598407B0AAD12
:102370006E712E71EE70A8700898687042202870F7
:1023800009982946069A00F025FD204601F0C4F977
:102390000CA90798487068780A9A8018AA7880185B
:1023A000C04308703846224600F014FD204601F074
:1023B000B3F90DB0F0BD000010B582B083200190DC
:1023C0003E2001A90224224600F004FD204601F02F
:1023D000A3F94020064C2022214600F079FC207809
:1023E0006178090208180349088080B202B010BD64
:1023F00029012020B0002020F0B587B0F9480068FE
:1024000001461831302906D8F7480178002900D153
:10241000D6E007B0F0BDF44C6178002900D1D3E0DC
:10242000491C6170626815186560C8B20A28F0D14D
:1024300000266670E81729464140081A01463239DD
:10244000EA4A914200D3E7E00596FEF787FC069042
:10245000E94806882789012D00DAFEE0B81BFEF75F
:1024600075FCE64901F026FB0025BE42294600D84E
:10247000014608460699FEF757FBFEF705FC562273
:10248000DB4903908852DC4806896789B81BFEF750
:102490005DFCDA4901F00EFB0146B742284600D345
:1024A00008460699FEF740FBFEF7EEFB5822D0499E
:1024B00002908852D048068AA789B81BFEF746FCCE
:1024C000CE4901F0F7FA0146B742284600D3084644
:1024D0000699FEF729FBFEF7D7FB5A22C449019063
:1024E0008852C548068BE789B81BFEF72FFCC34905
:1024F00001F0E0FA0146B7420495284600D30846A9
:102500000699FEF711FBFEF7BFFB06465C20B849B3
:102510000E52B948078C258AE81BFEF717FCB7490D
:1025200001F0C8FA0146BD42049800D30846069956
:10253000FEF7FAFAFEF7A8FB5E21AD4A5052039966
:102540002183029961830199A183E6832084AA48AB
:10255000058D668A701BFEF7F9FBA84901F0AAFAFF
:102560000146AE42049800D308460699FEF7DCFA0D
:10257000FEF78AFB064660209D490E529E48058E56
:10258000A78A781BFEF7E2FB9C4901F093FA01460B
:10259000AF42049D284600D308460699FEF7C4FAC8
:1025A000FEF772FB6221924A50526684A084E08A50
:1025B0009149098F8142059E00D901E1401AFCE052
:1025C0000221017007B0F0BD8B490A8822810A8977
:1025D00062810A8AA2810A8BE2810A8C22820A8D98
:1025E00062820A8EA282098FE1822E21844A515C86
:1025F00064234B437E49CD8DAB4201D9217805E060
:102600004223CB5A2178528E93421BD2CA071DD047
:1026100004221143217019E05621754A01205052BD
:10262000582150525A2150525C2150525E21505232
:1026300060215052622150526E49A161E1612162D4
:10264000A084C6E01122114200D1C9E001216170CD
:1026500061680818606007B0F0BDF01BFEF776FBFC
:10266000664901F027FA0146BE42059F384600D36D
:1026700008460699FEF758FAFEF706FB56225C4913
:102680000490885265895C480689701BFEF75EFBE2
:102690005A4901F00FFA0146AE42384600D30846C7
:1026A0000699FEF741FAFEF7EFFA582250490390D7
:1026B0008852A5895048068A701BFEF747FB4F4990
:1026C00001F0F8F90146AE42384600D308460699B3
:1026D000FEF72AFAFEF7D8FA5A22454902908852A4
:1026E000E6894548078BB81BFEF730FB434901F0EC
:1026F000E1F90146B742059800D308460699FEF76E
:1027000013FAFEF7C1FA06465C2039490E52278AB1
:102710003948058CE81BFEF719FB384901F0CAF966
:102720000146BD42059F384600D308460699FEF78C
:10273000FBF9FEF7A9FA5E212D4A50520499218334
:10274000039961830299A183E6832084658A2A48DC
:10275000068D701BFEF7FAFA284901F0ABF9014625
:10276000AE42384600D308460699FEF7DDF9FEF77B
:102770008BFA054660201E490D52A68A1E48078E18
:10278000B81BFEF7E3FA1D4901F094F90146B74280
:10279000059E304600D308460699FEF7C5F9FEF7B8
:1027A00073FA6221124A50526584A084E08A124969
:1027B000098F8142354603D3081AFEF7C7FA05464A
:1027C0000E49284601F076F90699FEF7ADF9FEF7B5
:1027D0005BFA6421064A5052E084666007B0F0BD9F
:1027E000022216E788022020380220200F0D030065
:1027F000B800202001000100C801202000247449F5
:10280000F83C0000B0B584B001AC002060712071CC
:10281000E070A07093206070352020703E2003226D
:10282000214600F0D7FA0225284600F075FF03A9DB
:10283000052048706078019A8018A2788018C043FB
:10284000087060202A4600F0C5FA284600F064FFB0
:1028500004B0B0BD10B582B001A90870000A48707C
:102860003E200224224600F0B5FA204600F054FF34
:1028700002B010BD811E091F00BFFCD270470000CE
:1028800070B50B01C31854689568254394892C438F
:10289000156956692543D48924012C433501254304
:1028A000092464021D51137852781A43BF231A4039
:1028B00089004018024944589C43A218425070BDF8
:1028C0001011000080B502231343034A835082187D
:1028D000D16101F0A3F880BD0411000070B511238F
:1028E0001B02C41801256560FF261036666221624E
:1028F00011682163C55070BDF0B583B002920E46D9
:102900000190354C20680527276007252840334B68
:1029100019682060226827602A4018682260304BBE
:102920000096B60A89048A0F314609D02D4908401D
:10293000511C00F077FF01463046FDF7BBFC284BE9
:102940000198C018019022682760244803682A4033
:1029500022602268276003682A40226001229302D5
:10296000029898420CD05302984210D10098C30BA1
:102970000FD1B240019801689143016003B0F0BDEE
:102980001F210E40B2400198016C9143016403B0D5
:10299000F0BDFF2911D8236827602B400F4D2D680B
:1029A0002360AB049B0F00D12039C9088A400198ED
:1029B00041689143416003B0F0BD1302FF33994277
:1029C000E5D2FF23DB43C918C9088A400198816812
:1029D0009143816003B0F0BD001340401800C44132
:1029E000D0110000FF0F000010B5002A0FD0912376
:1029F0005B01C3180020DC692405240F05D00C5CA2
:102A00001C60401C8242F6D1104680B210BD0020EE
:102A100080B210BD0F4A83580121C9030B43835074
:102A2000801842681207FCD102688A43026070472E
:102A3000084A835880210B43835080180F221202CA
:102A4000436813400122D2029342F7D102688A43BD
:102A5000026070473812000070B50A780C231A40E3
:102A60000124240305196E689E43B2186A604978F0
:102A700007221140035993435918015170BD0000BA
:102A8000B0B5FF2204320E490B68934382780324C9
:102A900014400278120212191A430A60094A0A4BBA
:102AA00013600A4C25686D05FCD54078002803D0DA
:102AB0000868102404430C60581C1060B0BDC04668
:102AC00014010B4014030B400100009104020B4061
:102AD000B0B54A68364BC250364A80180A78222A66
:102AE00058D8930001A4E3589F46C0468B2B0000A2
:102AF000952B00008B2B0000952B0000952B0000E0
:102B0000952B0000952B0000952B0000952B0000C5
:102B1000952B0000952B0000952B0000952B0000B5
:102B2000952B0000952B0000952B0000792B0000C1
:102B3000952B0000792B0000952B0000952B0000B1
:102B4000952B0000952B0000952B0000952B000085
:102B5000952B0000952B0000952B0000952B000075
:102B6000952B0000952B0000952B0000792B000081
:102B7000952B0000792B000003231B0704689C435E
:102B800001235B07E318036004E003231B070468C9
:102B90009C4304600B69C360CB68074C1C40C36A4C
:102BA000064D1D402B19C362097A11430160B0BD67
:102BB0000818000004180000777702008888FDFFDD
:102BC00010B50122120383180C789C604B78835057
:102BD0008978014A815010BD0C11000010B5002AFF
:102BE0000CD0074BC31800201C68240605D40C5CCD
:102BF0009C61401C8242F7D1104610BD002010BDE0
:102C000008110000B0B51122120283580124A34319
:102C100083500B888C781C438B882343094C1C40C1
:102C20008358094D1D40631983508B79CC791C431F
:102C3000097A21437E231940801842689A4351182B
:102C40004160B0BD18670000E798FDFF10B5012294
:102C5000120383180C789C604978815010BD0000E5
:102C600010B55B480078401E414241416820DF4C6E
:102C70002152FEF799FEFEF75DFFFEF745FF08487B
:102C80000088A08207480078E08207480078208307
:102C900006480078608306480078A08310BDC046CF
:102CA000A800202048032020490320204A03202098
:102CB000B20020207047000004480068C0B2082815
:102CC00002D14348012101707047C04620300F40B7
:102CD000F0B583B0144602AF387001910846114632
:102CE000FDF7E3FA634839462246FFF77DFE624F5F
:102CF0003868800608D43868800605D438688006AD
:102D000002D438688006F3D53E46083E30685B49F9
:102D10000840103030603A1F1068594908402B496C
:102D20004018154610603868400612D538684006CD
:102D30000FD5386840060CD538684006F3D408E053
:102D40003868800608D43868800605D4386880065C
:102D500002D438688006F3D54648FFF769FE30682C
:102D60004649084011210143316028684449084020
:102D700021040143072008432860002C01991ED03C
:102D80000025134A0BE0282C34460199104A18D22A
:102D900000201070786848556D1CA5420FD0786AE5
:102DA0000007F5D1264600200446502000F0C2FC62
:102DB000786A0007E7D1601C282CF5D3E3E703B05D
:102DC000F0BD0120107003B0F0BDC0460700010047
:102DD000B3002020B0B582B01446002200926B46AA
:102DE00018700192002C04D06846401C2246FDF762
:102DF000FFF9651C1F4C694620462A46FFF7F4FD83
:102E00001D480168890608D40168890605D401684F
:102E1000890602D401688906F3D5014608390A6893
:102E2000164B134010330B60011F0A68144B1340FC
:102E30002A049A18D21D0A600168490612D5016851
:102E400049060FD5016849060CD501684906F3D437
:102E500008E00168890608D40168890605D401687C
:102E6000890602D401688906F3D52046FFF7E0FD04
:102E700002B0B0BD00200F4018320F4000F8FFFF35
:102E8000F8FF00F0F0B585B000292FD0054602A864
:102E9000C01C00900191288804AE00213180009A66
:102EA00091705170117002AFB970010A7970387069
:102EB0003E2003223946FFF78DFF0224204600F012
:102EC0002BFC05207070787802994018B97840186A
:102ED000C0433070602031462246FFF77BFF20461A
:102EE00000F01AFC0199AD1C491ED3D105B0F0BD0C
:102EF000B0B584B02021405C01AC0021617121712A
:102F0000E170A07093206070352020703E20032275
:102F10002146FFF75FFF0225284600F0FDFB03A9CD
:102F2000052048706078019A8018A2788018C04304
:102F3000087060202A46FFF74DFF284600F0ECFBA2
:102F400004B0B0BDB0B5244C2078072826D1E07974
:102F50000A2823D1A078E1780002401837283AD80F
:102F60006278002A1ED06178012917D1217962790F
:102F700009028A184300B249CA52184A0023137042
:102F80003538012824D86C20085A6A228A5A12043B
:102F9000101800688885000C488519E00F48012149
:102FA0000170B0BD0E48C1700025857011224270BD
:102FB000072202700A22C27185714900A04A515A43
:102FC0004171090A0171082100F002FB03480570F4
:102FD000002020606060B0BD50012020C40120208E
:102FE0005901202096487B2181817047B80020201C
:102FF000F0B583B08D498E4A53888B4200D2FEE0F3
:10300000463112888A4200D9F9E08A4C2178042995
:1030100016D0022906D0012900D0F0E060800220FD
:103020002080EFE06188411A0AB2D2135140891A18
:1030300009B2322900DAE4E06080A1800420DDE0FA
:103040006188401A01B2C9134840401A00B20228F0
:1030500000DDD2E06078401C6070C0B20A2800D069
:10306000CDE0E08874490988081A01B2C9134840C4
:10307000461A0420205E0190FDF768FE054630B236
:10308000FDF764FE6D4F394600F014FD2946FDF74B
:103090004BFDFDF7F9FD0646462069490E52208991
:1030A00065490989081A01B2C9134840401A00B29B
:1030B000FDF74CFE394600F0FDFC2946FDF734FDD6
:1030C000FDF7E2FD074648205D490F5260895A49E5
:1030D000098A081A01B2C9134840401A00B2FDF724
:1030E00035FE564900F0E6FC02952946FDF71CFD29
:1030F000FDF7CAFD4A21524A15465052E6822783FF
:1031000060830198312801DC01202070A0894A49A0
:10311000098B081A01B2C9134840401A00B2FDF7E2
:1031200015FE464F394600F0C5FC029E3146FDF7BC
:10313000FBFCFDF7A9FD01904C216852E0893E4D52
:10314000298C081A01B2C9134840401A00B2FDF791
:10315000FDFD394600F0AEFC3146FDF7E5FCFDF71C
:1031600093FD07464E20E6490F52208A298D081A02
:1031700001B2C9134840401A00B2FDF7E7FD2F49DC
:1031800000F098FC3146FDF7CFFCFDF77DFD0546CC
:103190005020DB490D52608A2749098E081A01B276
:1031A000C9134840401A00B2FDF7D0FD234900F092
:1031B00081FC3146FDF7B8FCFDF766FD5221D04A8F
:1031C00050520199A183E78325846084A08A1A491B
:1031D000098F081A01B2C9134840401A00B2FDF71E
:1031E000B5FD164900F066FC3146FDF79DFCFDF784
:1031F0004BFD5421C24A5052A0840120207003B0DC
:10320000F0BD60800C480188E18001892181018A3C
:103210006181018BA181018CE181018D2182018E6F
:103220006182008FA08203B0F0BDC046160D000081
:103230002002202060022020C801202000401C46DF
:10324000B800202080B503480021034AFFF718FB8F
:1032500080BDC04600A04240B83C000080B5FFF7EA
:10326000F1FF80BD0F4801461C3900220A6001466B
:1032700018390A600C494160016001214A0643681F
:103280001343436003681343036082228261074A49
:10329000C261074881220260880506490860086308
:1032A0007047C0463C80424084000C00820004000D
:1032B000C8804240A0320A4080B512481249FFF748
:1032C000CBFB03204102114802680A43026001213E
:1032D0000A02036813430360002242611F22426214
:1032E000826B0A4306239A43826307221202836B8E
:1032F00093438363826A042313438362826A0A438B
:10330000826280BD00200F40D03C000000320F40A0
:103310000120800206490A68024208D10A68024276
:1033200005D10A68024202D10A680242F3D070470E
:1033300004020B40B0B50E48002101600320C043D9
:103340000C4C214608390A6802400A6020680125B1
:10335000A843206028022168814321600648FFF7C6
:103360008FFB2803211F0A6802430A60B0BDC046D4
:1033700008030B4008010B40D23C000010B50B4C79
:103380000B492046FFF71CFC0A492046FFF7A0FB2B
:1033900009480168012211430160FF200004074928
:1033A0000B6883430B600648026010BD0000864036
:1033B000D53C0000D83C00002810864010E400E016
:1033C00008118640B0B5944C20492046FFF73EFCDA
:1033D0001F492046FFF716FC0320C1037B48026803
:1033E0008A43026001691B4A0A4011320261416945
:1033F00017220A4328218A434261426801210A4078
:1034000043688B439A184260CA03134B1C681443E9
:103410001C60FF221206114C256895438A07AA18E2
:1034200022608A021A634A04036813430360C26875
:1034300070231343C360C2680223134305229343DE
:10344000C36002680A430260B0BDC046EC3C0000A5
:10345000EE3C00000000FFFF289010400CE400E06C
:1034600080B500F015F8FFF7FDFEFFF763FFFFF7EB
:1034700085FFFFF721FFFFF7A5FFFFF7EFFEFFF73F
:1034800047FFB820014900220A5480BD8C02202049
:10349000B0B50A480A4941600A4A51600A4B59606E
:1034A0000A4C61600A4D69600A4901601160196047
:1034B000216029601020FFF7DDF9B0BD00080A4047
:1034C000030000B100280A400008864000280F4091
:1034D000008810400100002680B508480068C0B28E
:1034E00001280AD10648018D064A914201D0491CA3
:1034F00000E001210185FDF70FFF80BD201086400F
:10350000B8002020FFFF0000F0B585B0002930D0C2
:10351000054602A8C01C00900191288804AE002135
:103520003180009A91705170117002AF0721B9700B
:10353000010A797038703E2003223946FFF74AFCB1
:103540000224204600F0E8F805207070787802998F
:103550004018B9784018C043307060203146224688
:10356000FFF738FC204600F0D7F80199AD1C491E42
:10357000D2D105B0F0BD000080B504480068C0B2EB
:10358000102801D1FFF7DEFC80BDC046209010401E
:1035900010B59C4B002018605860984801680222C2
:1035A0009143016009490C46243444608360082338
:1035B000C36001235B040C689C430C6004681443E3
:1035C000046008681843086010BDC04600911040B0
:1035D000F0B581B000291AD00C46054600260D4FE3
:1035E00003E08019C6B2A64211D2A919A21B0A484B
:1035F000FFF7F4FA3968C907F3D03968C907F0D082
:103600003968C907EDD03968C907F3D1E9E7012066
:1036100001B0F0BD0891104000801040F0B587B0B7
:10362000002203910029134616464FD00324039924
:103630000C40042905D2002635463346002C2CD1F7
:1036400044E001940292FC23039919400391002560
:103650002B4647197E78143E7410012219461346F2
:10366000A340445D143C64101646A6408C19E31830
:10367000BC78143C64101646A6409B19FC78143C98
:103680006410A2409B182D1D0399A942E1D199B263
:103690000E0A029A019C002C18D0415D14394E107C
:1036A00001210F46B740DB19012C0DD04019457898
:1036B000143D6D100E46AE409B19022C04D080784C
:1036C0001438401081405B1898B2060A04AC62714D
:1036D0002271E670A37093206070042222703E2055
:1036E0002146FFF777FB0225284600F015F806A9CA
:1036F000062048706078049A8018A2788018E278D2
:103700008018C043087060202A46FFF763FB2846F4
:1037100000F002F807B0F0BDB0B5002809D00446AB
:1037200000257D200002FFF7A5F86D1CE8B2A0423D
:10373000F7D3B0BDB0B5002808D00446002520203E
:10374000FFF798F86D1CE8B2A042F8D3B0BD0000B6
:10375000FFF786FE29482A4941602A4981600821ED
:10376000C160016802220A4302600124A0042649C4
:103770000860E003086060060860032045036702F4
:10378000224E304629463A46FFF7B6F840223046E8
:103790002946FFF797F8304629463A46FFF7ACF836
:1037A0001B4A30462946FFF799F81A48FDF766FE8E
:1037B0002046FFF7B1FF2220FFF74CF82046FFF725
:1037C000ABFF9A20FFF746F8FFF70CFCFFF772FA01
:1037D0001148016821430160FDF7C4FC0F4D104EF4
:1037E000A0052860FEF726FAFDF7F0FCFFF738FA8F
:1037F00030780028F4D0FFF7CBFEF1E700B242406A
:10380000249110405001202000E100E000D00C4045
:1038100034002020F83C000004188640B0320A40F2
:10382000C401202043088B421AD3002203098B4293
:1038300079D3030A8B425ED3030B8B4242D3030C32
:103840008B4227D30902FF2212BA030C8B4202D308
:103850001212090203D0030B8B4233D31AE0D3E0D8
:10386000411A8041401C704703460B4371D4430802
:103870008B42F5D3002203098B4254D3030A8B42B7
:1038800039D3030B8B421DD3030C8B4202D39446D6
:103890006EE0090AC30B8B4201D3CB03C01A52411D
:1038A000830B8B4201D38B03C01A5241430B8B42D3
:1038B00001D34B03C01A5241030B8B4201D30B03BC
:1038C000C01A5241C30A8B4201D3CB02C01A5241E3
:1038D000830A8B4201D38B02C01A5241430A8B42A6
:1038E00001D34B02C01A5241030A8B4201D30B028F
:1038F000C01A5241CDD2C3098B4201D3CB01C01AA9
:10390000524183098B4201D38B01C01A52414309B2
:103910008B4201D34B01C01A524103098B4201D3A0
:103920000B01C01A5241C3088B4201D3CB00C01A0D
:10393000524183088B4201D38B00C01A5241430885
:103940008B4201D34B00C01A5241411A5241100020
:103950007047CA0F00D04942031000D34042534081
:1039600000229C4603098B422DD3030A8B4212D3BB
:103970008901FC2212BA030A8B420CD389019211ED
:103980008B4208D3890192118B4204D3890137D02D
:10399000921100E08909C3098B4201D3CB01C01AFF
:1039A000524183098B4201D38B01C01A5241430912
:1039B0008B4201D34B01C01A524103098B4201D300
:1039C0000B01C01A5241C3088B4201D3CB00C01A6D
:1039D000524183088B4201D38B00C01A5241D9D285
:1039E00043088B4201D34B00C01A5241411A00D206
:1039F00001465241104663465B1000D34042704777
:103A000063465B1000D3404201B50021004201D063
:103A1000C9430846C046C04602BD000003B4014881
:103A2000019001BD0100202070B50125ED070400C3
:103A30004C4020D4441A01D2001B0919C60D4B007A
:103A4000F2B2FF2A29D01B0E2CD000020C02284310
:103A50002C43D31ADC40051910D2280A02D3401C8B
:103A60006D0611D0761EF6058019FF2A00DA70BDAA
:103A7000C00DC00570BD694000F07AF80120054313
:103A8000C541521C761CE8E764089C40C9016140AE
:103A90008900E7D10124A043E4E71B0E440200D0D3
:103AA000034870BD002AFCD1C00FC00770BD00BF25
:103AB0000000C07F70B5420064414B005C41120EB3
:103AC00039D01B0E38D0FF2A3CD0FF2B3AD0D21869
:103AD0007F3A40024902400A490A4518ED010600B2
:103AE0004E43000A090A48430104731A4019190C8D
:103AF0004318990F04D05B08012149075B1A521C37
:103B0000D80904D3401CF50301D19D0607D0FF2A34
:103B100008D2D50506D0E4072043401970BD012521
:103B2000A843F4E7002A01DCE00770BD2402FF206F
:103B30002043C00570BD1B0EFF2A03D0FF2B01D010
:103B4000E00770BDFF2636064500B54206D84D0099
:103B5000B54203D8D218FF2A00D0E7E7004870BD6D
:103B60000000C07F70B50125ED0704004C4022D451
:103B7000441A02D26C40001B0919C60D4B00F2B268
:103B8000FF2A4BD01B0E50D000020C02A8432C433E
:103B9000D31ADC40051B05D5AD0019D36D08761E80
:103BA000521E37D0F605280A01D2801970BD704127
:103BB0006D0603D070BD6940FFF73CFF9C400902D1
:103BC0006140490001D0401E70BD0124A04370BD7A
:103BD0006D081DD001202B0C01D12D0410302B0EAF
:103BE00001D12D0208302B0F01D12D01001DAB0F8B
:103BF00001D1AD00801CEB0F01D16D00401C361AC5
:103C0000121A6D00680AF5054019012A02DB70BD21
:103C1000002070BDC036300AC00770BD1B0E4402C4
:103C200001D1FF2B00D1024870BD002AF0D070BD39
:103C30000000C07F8182838485868788898B8C8DF4
:103C40008E8F919293959697999A9C9D9FA0A2A3EF
:103C5000A5A7A8AAACAEB0B2B3B5B7B9BCBEC0C236
:103C6000C5C7C9CCCED1D4D7D9DCDFE2E6E9ECF0C8
:103C7000F3F7FAFE0A0A0A0A0A0A0F0A0A0A0A0AE5
:103C80000A0F140A0A00050A0F14191E282D3237CC
:103C90003C4146555F64220B290C920CA20CBD0CD2
:103CA000CF0CDC0CE60CE70CE80CEA0CEC0C040D79
:103CB0000A0D0C0D160D480D11000000000000202B
:103CC00000000000000000000000000000000300F1
:103CD000080000000302070002000000FF070000C8
:103CE00000000000000000000000000008000000CC
:103CF00018000000003000001416181A1C1E303284
:103D0000FC92FA92FF920093FD92FE92FB92019335
:103D100002936A6E7476314B13F13C460604B80B7D
:103D20002814B80B28141E00B80B800C420E00009B
:103D3000603D000000002020340000002001000051
:103D4000943D0000340020201400000020010000F9
:103D5000A83D00004800202008070000480100009E
:103D600081B011210902012242500949401801681D
:103D700007220A4000920099C9B2032903D0009992
:103D8000C9B20129F3D10098C0B201B07047C04652
:103D9000D01300000117012511000000963C00001F
:083DA000853C0000743C0000AA
:04000005000000C136
:00000001FF
