:020000040000FA
:10000000E0062020C5010000C9010000CB0100006E
:1000100000000000000000000000000000000000E0
:10002000000000000000000000000000CD01000002
:100030000000000000000000CF010000D10100001E
:10004000D3010000D3010000D3010000D301000060
:10005000D3010000D3010000D3010000D301000050
:1000600000000000D3010000D301000000000000E8
:1000700000000000D3010000D3010000592A000055
:10008000D3010000D3010000B9290000D301000012
:10009000D3010000D30100000000000000000000B8
:1000A000D301000055220000000000000000000005
:1000B000D301000000000000D3010000D3010000C4
:1000C00000F002F800F052F812A030C808382418E6
:1000D0002D18AC4201D100F049F80FCCA246AB4636
:1000E0000CA730CF2D1B083F3F197C427F1E544484
:1000F0002D090426F441641EAC4201D300F036F809
:100100000126334200D0FB1A3343984754465D46DC
:10011000DFE700003C2F00006C2F00000000000013
:10012000103A02D378C878C1FAD8520701D330C840
:1001300030C101D504680C60704700000000000069
:100140007047000000000000002300240025002666
:10015000103A01D378C1FBD8520700D330C100D583
:100160000B6070471FB51FBD10B510BD00F0E1FD5D
:100170001146FFF7F7FF02F05BFD00F0F9FD03B455
:10018000FFF7F2FF03BC00F0FFFD000070B505466D
:100190000C46164602E00FCC0FC5103E102EFAD2C8
:1001A000082E02D303CC03C5083E042E07D301CC8E
:1001B00001C5361F03E021782970641C6D1C761E72
:1001C000F9D270BD06480047FEE7FEE7FEE7FEE70E
:1001D000FEE7FEE703480449024A044B704700006B
:1001E000C1000000E0022020E0062020E0022020E4
:1001F000F8B5042A2CD3830712D00B78491C03705E
:10020000401C521E83070BD00B78491C0370401C06
:10021000521E830704D00B78491C0370401C521EE9
:100220008B079B0F05D0C91ADF002023DE1B08C9EE
:100230000AE0FFF7ABFFF8BD1D4608C9FD401C46AC
:10024000B4402C4310C0121F042AF5D2F308C91A77
:10025000521EF0D40B78491C0370401C521EEAD485
:100260000B78491C0370401C012AE4D40978017002
:10027000F8BD01E004C0091F0429FBD28B0701D59A
:100280000280801CC90700D00270704700290BD083
:10029000C30702D00270401C491E022904D3830701
:1002A00002D50280801C891EE3E70022EEE70022CF
:1002B000DFE70000002203098B4273D3030A8B425D
:1002C00058D3030B8B423CD3030C8B4221D312E057
:1002D00003460B437FD4002243088B4274D30309A7
:1002E0008B425FD3030A8B4244D3030B8B4228D348
:1002F000030C8B420DD30902FF2212BA030C8B426E
:1003000002D31212090265D0030B8B4219D300E00D
:10031000090AC30B8B4201D3CB03C01A5241830B92
:100320008B4201D38B03C01A5241430B8B4201D342
:100330004B03C01A5241030B8B4201D30B03C01A6B
:100340005241C30A8B4201D3CB02C01A5241830AE5
:100350008B4201D38B02C01A5241430A8B4201D314
:100360004B02C01A5241030A8B4201D30B02C01A3E
:100370005241CDD2C3098B4201D3CB01C01A5241A5
:1003800083098B4201D38B01C01A524143098B422E
:1003900001D34B01C01A524103098B4201D30B0117
:1003A000C01A5241C3088B4201D3CB00C01A52413C
:1003B00083088B4201D38B00C01A524143088B4201
:1003C00001D34B00C01A5241411A00D2014652419A
:1003D000104670475DE0CA0F00D04942031000D3B9
:1003E000404253409C46002203098B422DD3030A0E
:1003F0008B4212D38901FC2212BA030A8B420CD31E
:10040000890192118B4208D3890192118B4204D346
:1004100089013AD0921100E08909C3098B4201D3C6
:10042000CB01C01A524183098B4201D38B01C01A00
:10043000524143098B4201D34B01C01A5241030977
:100440008B4201D30B01C01A5241C3088B4201D326
:10045000CB00C01A524183088B4201D38B00C01AD3
:100460005241D9D243088B4201D34B00C01A5241AA
:10047000411A00D201465241104663465B1001D337
:100480004042002B00D54942704763465B1000D3C1
:10049000404201B50449002802DC491C084000E044
:1004A0000846C046C04602BDFFFFFF7F7047704749
:1004B000704700000246C80FC00781434B0030B5AB
:1004C0004B405B009B0D20D01923DB06C91801238C
:1004D0001B05994220DB0324A40704251346AB40E7
:1004E0000BD3002B04D1EB0613409B00E34204D452
:1004F00001246407002312195941FF231B05994267
:100500000BD2C9000143500F09E0CB0204D50143CF
:100510000803024305D0054830BDFF21C905084343
:1005200030BD084607210905884330BD0000C07F63
:10053000F0B50C46871A9C410D46861A9D4103D2A0
:10054000C01BA141D21963410D0D1F0DC94EEC1BFB
:10055000AE435CD07F057F0D0026002F51D02D05C6
:10056000AC46A943DD020123ED0A1B051D432023F0
:100570001B1B24D41746E740381871412F46E7402B
:10058000CC199D402818314661410C0D27D161449A
:100590009A4013D50023401C594152000ED1400807
:1005A000400001224B005205D34207D305204007EB
:1005B000C14201D5B04900E0B0493046F0BD6B0002
:1005C000002A00D001229A181F23203C1B1B01D5B2
:1005D000002302E0E540281871410C0DD7D001241A
:1005E00024050919C407CD0740084908E40F28432A
:1005F0006144002CD5D00024401C61419A40D0D1E8
:10060000CDE76A05520DD9D1C90FC907D5E79C4D71
:100610004E00002801D0012400E0002434195F00BE
:10062000002A01D0012600E00026BE19954FAC42F9
:100630000CD8AE420AD8B44206D001256D05EC4272
:10064000BCD010461946F0BD9942FCD00020394676
:10065000F0BDF0B51FB40C460F46811A9F412546E8
:10066000861A9D4106D20125ED076F40401ABC4114
:1006700052187B41210D1E0D8D1BAC467D4D8D43C7
:100680007ED075056D0D7CD00D05AE46AC431B03C9
:100690001B0B794D52429D41202366469B1B14D370
:1006A0001746F740381800260090744160462F46E0
:1006B0000741E41900989D402818664116D47146F8
:1006C00071189A4025D5012320E093182A466A41E3
:1006D0005200002B00D0521C1E23203E9B1B002BDF
:1006E00061DD3541EE1728186641E8D500187641DE
:1006F0005B1C9A4000D3401C4B05F3181524E340C3
:1007000010D3002B52D071467118D30FC01802D3EA
:10071000491C05B0F0BD0123DB079A42F9D140081E
:100720004000F6E701225205B21801D1002853D04B
:100730000123CC0ADB029943891E002A08D1020C4E
:1007400003D0020C0004103902E0024600202039D8
:100750000023550B05D112020823550B01D152017C
:100760000D23550C01D112011B1DD50C01D1920096
:100770009B1C150D01D152005B1C2025EE1A01E0D7
:100780002CE022E00546F54015439840CA1AE107DF
:1007900069181305C918002ABBDA03204007081896
:1007A000C10FC9070FE071466118B2E7F1074008B1
:1007B0000843711071444A000CD001235B059A4232
:1007C000A7D2C90FC9070020A3E74905490D26D1C3
:1007D000002001E00028F4D100219AE7284D6600AE
:1007E000002801D0012100E0002171185F00002ADB
:1007F00001D0012600E00026BE19224FA94210D8E0
:10080000AE420ED8B14208D001256D05E94206D0AE
:100810001946A802414010467BE79C4201D0214680
:1008200077E70020394674E710B50C465C4005D5E3
:100830000124E4076340FFF70CFF10BDFFF778FECB
:1008400010BD30B40C465C4004D50124E40763407D
:1008500030BC6DE630BCFCE670B50124E4076140B5
:100860000D465D4002D4FFF763FE70BD6340FFF7A5
:10087000F0FE70BDFF0700000000F0FF0000F07FF9
:100880000000E0FF0000F87F1F22030C02D10F22BE
:10089000000402D0030E03D004E00020014670479C
:1008A0000002083A030F01D10001121F830F01D18A
:1008B0008000921E002801DB4000521E12055118D4
:1008C0004205C012411810467047C10FC90700D039
:1008D0004042012292071143D6E701218907D3E75D
:1008E000F0B58B4C0F09254689B0BD437BD01D095F
:1008F0002646AE43FAD00E465E402740F60F3E43F2
:10090000254071D024012142FBD0FF24AD19A4045D
:100910002D1B039501252D05DB02DB0AC9022B43A4
:10092000C90A29431E010901040F130F05012143C0
:100930001701880B820391432D098C46A90B1E4396
:100940008A039543B30B9A0396433F09BA0B94036A
:10095000A74302962E467E430497B6464E19D719F2
:100960000C460196544305977E43371B7646BF1BC2
:100970003601B646BE0B361900967646BC043719CA
:10098000009C01D3641C00946400002F01D0012658
:100990003443029E049F754366467E430496760068
:1009A00034196E0034190094029C019E1C19664390
:1009B000751BAE46069465464519059C05956C4326
:1009C000594375460891691A0191049E01465143A5
:1009D000A41B0491611A009C0791E10605D06109EE
:1009E0000122114302E072E06EE06109089D0027D8
:1009F0002C0A2D066918049D7C412A0A2D066918C7
:100A0000019D6241AC0DAD026D185441079A910DE4
:100A1000920255196141029A644658435443069B19
:100A2000059A5A43121A131B9A0E9B015B187A41BE
:100A3000010B0005C3185141220A200644195A41EE
:100A40009A4200D2491C01204002814203D315235F
:100A50000226F64302E014230326F6432020C51A9B
:100A6000A9401746AF40DA400A4320460399D840D0
:100A70000914731819055118039A3843D2075140C5
:100A8000AC4009D00122944006D30022401C5141C1
:100A9000002C01D1400840001E4A934212D301228B
:100AA00003989206904207DB0520400709181A4870
:100AB0000143C012414004E0032040070818C10F61
:100AC000C907002009B0F0BD0020F107FAE70518BA
:100AD0000C464C4111486D42A04115D394181A465A
:100AE0005A410E48644290410ED301204A0040050D
:100AF000824209D35A00824206D35940C90F084A9C
:100B0000C90700201143DDE700200649DAE70000AD
:100B10000000FF07FE070000FFFFFF7F0000E0FF6F
:100B20000000F07F0000F87FF0B5FF252D04C60916
:100B3000C209FF2704462E400137CB093E434840F7
:100B40002A402B400746002A6BD0002B69D0AA42CE
:100B500067D0AB4265D0002800DA32460125ED05AA
:100B600029432C4309022002090AD21A4B0C7F2484
:100B7000E31A434C000A7C44E35C7D2424041219EC
:100B800014145B00A218884201D3521C00E04000FC
:100B900049420C465C4324115C43DB016415E318B5
:100BA000040A5C43C502200D0C4644436419250A1F
:100BB0005D432303EC0C0D46654300030019EB185D
:100BC0004C42A34201D35B18401CD4052018002BD3
:100BD00007D05B00C91804D3401C002901D140088C
:100BE00040003F2189048A4209D3002A08DC11060B
:100BF000090F04D0032149074018C00FC007F0BDFA
:100C000001224100120689187F2252069142F6D233
:100C100005214907C84201D59010F0BDFF20C0054D
:100C2000F0BD002F00DA32461648AA4207D2AB4286
:100C300005D21902090E17D0F80FC007F0BDFF2525
:100C400063002D06AB42F9D84900A942F6D8AB4261
:100C500001D1A942F2D0A94201D1002101E06100F5
:100C60004908D0050843F0BD1102090EFBD0FF2052
:100C70000243D005F0BD0A460146104654E7000085
:100C80003E2400000000C07F10B501469E240002F3
:100C9000CA15A307002A02D01843002A04DBA21AAF
:100CA000002A0CDDD04010BD1206120E01D140000A
:100CB0004008A21A03D4D04040420028F3DDFF22AE
:100CC00048001206904201D9002010BDC817C04349
:100CD000584010BD1F22030C02D10F2200041CD06B
:100CE000030E01D10002083A030F01D10001121FC7
:100CF000830F01D18000921E002801DB4000521EAC
:100D0000D2055118021251181922904004D3491CDF
:100D1000002801D14908490008467047C10FC9079A
:100D200000D04042012292071143D3E701218907F5
:100D3000D0E7754600F024F8AE46050069465346F4
:100D4000C008C000854618B020B5FFF743FA60BC64
:100D5000B64600260027C0C5C0C5C0C5C0C5C0C5B1
:100D6000C0C5C0C5C0C5403D490849008D46704753
:100D700010B50446C046C0462046FFF700FA10BD35
:100D8000004870473800202001491820ABBEFEE71C
:100D90002600020070470000F0B583B02620C14F46
:100DA000385E0421C9434143BF4C216001F090FBF0
:100DB000BE4900200861486188610190C861F04A1D
:100DC00050682568012D05DB461B00D20026EB4844
:100DD000046907E0E9490C696119884201D3264694
:100DE00000E0461B5660B248002C029011D03046FD
:100DF000FFF79CFF07462046FFF798FF014638465D
:100E0000EE4FFFF791FEAB4902F07EF8FFF73CFF93
:100E1000DB4AA6490E6038865088A7490880D0680A
:100E2000012D03DB461B07D2002605E0611988422D
:100E300001D3264600E0461BD660002C9C4811D00A
:100E40003046FFF773FF07462046FFF76FFF014666
:100E50003846DA4FFFF768FE964902F055F8FFF77B
:100E600013FFC74A91494E6078865089924948805D
:100E70005069012D03DB461B07D2002605E06119EE
:100E8000884201D3264600E0461B5661002C884864
:100E900011D03046FFF74AFF07462046FFF746FFCE
:100EA00001463846C54FFFF73FFE824902F02CF855
:100EB000FFF7EAFEB24A7D498E60B886508A7E49C5
:100EC0008880D069012D03DB461B07D2002605E090
:100ED0006119884201D3264600E0461BD661002CEA
:100EE000734811D03046FFF721FF07462046FFF731
:100EF0001DFF01463846B14FFFF716FE6D4902F05F
:100F000003F8FFF7C1FE9E4A6849CE60F886508B11
:100F10006949C880506A012D03DB461B07D20026B1
:100F200005E06119884201D3264600E0461B56625F
:100F3000002C5F4811D03046FFF7F8FE07462046E8
:100F4000FFF7F4FE01463846EF4FFFF7EDFD594934
:100F500001F0DAFFFFF798FEEA4A54490E6138873C
:100F6000508C55490881D06A012D03DB461B07D2FE
:100F7000002605E06119884201D3264600E0461BA1
:100F8000D662002C4A4811D03046FFF7CFFE074604
:100F90002046FFF7CBFE01463846DB4FFFF7C4FD86
:100FA000444901F0B1FFFFF76FFED64A3F494E6159
:100FB0007887508D40494881506B012D03DB461BDB
:100FC00007D2002605E06119884201D3264600E0D9
:100FD000461B5663002C364811D03046FFF7A6FE5C
:100FE00007462046FFF7A2FE01463846E54FFFF7C9
:100FF0009BFD304901F088FFFFF746FEE24A2B498E
:101000008E61B887508E2C498881D06B012D03DB0F
:10101000461B07D2019E05E06119884201D326468E
:1010200000E0461BD663002C11D03046FFF77EFE51
:1010300005462046FFF77AFE01462846FFF774FD75
:101040001C4901F061FFFFF71FFECF4A02901748CD
:10105000C6610298F887508F1749C88100F08CFE4E
:10106000CA488168C268002910D0914209D14269FA
:10107000019B436151188160C160C54B1C69A21876
:101080001A610E4A1160016103B0F0BD4369019C11
:1010900044619A18C260F14C2569EB1823619142B2
:1010A000E5D0EEE7A4002020180220203C012020FB
:1010B000D204000000401C465C0120209C0020203F
:1010C000F0B5E74801880A0733D506220B461340DE
:1010D0002FD04B0714D58368C4684569EE18DF4FDD
:1010E0003E61A94FFE637E63FE627E62FE617E61A9
:1010F000FE607E601B1B5B198660C66006614361F3
:101100008B0712D5A04B0024DC635C63DC625C625D
:10111000DC615C61DC605C60836884604469E31A64
:10112000C468E318C360CD4C23610023436191433D
:101130000180F0BDB0B5CA48002570490E4A426032
:101140008160C1600161456109220280C3488560F8
:10115000C56001614561858005608B484021FFF7CE
:10116000A6F8084C26212046FFF7A1F8064805609E
:1011700001202070B0BDC04610271027D8012020C4
:1011800080012020F00120201802202042217D48EB
:10119000415A0B4A914204D3B1490A8804231343AC
:1011A0000B804421405A401E0649884204D8AC486E
:1011B000018802220A4302807047C046A400202012
:1011C000FC0D0000530B0000F0B581B0A44801886D
:1011D000C80700D187E00091192086023069434991
:1011E0004118434B434A994200D302469B4802614F
:1011F000B069414C2060414A414990420B4600D8B9
:101200000346614F7B60306A606090420B4600D8B5
:101210000346FB60B06AA06090420B4600D80346CC
:101220007B61584B18883880D88B788078815888B3
:10123000388198883882188C7882356BE5609542C1
:101240000A4600D82A46FA61DA8878833A831889F0
:101250003884B06B2061294A90420A4600D8024681
:101260007A62588C7884356C6561244A95420A46C6
:1012700000D82A46FA625A8978853A85B06CA0610E
:101280001E4A90420A4600D802467A6398893886F8
:10129000306DE061194A90420A46714D00D802460D
:1012A000FA63988C78863268EA60DB8978873B87B6
:1012B000B3682B610D4810180D4A904201D20D48B9
:1012C000E860002020606060A060E06020616061F4
:1012D000A061E0610948834200D81946A960012055
:1012E00000998143298001B0F0BDC0467F41EBF8F1
:1012F0003F3E87FA8027CB051C01202080BE1407C3
:10130000C0FC9B0180012020A4002020F0B581B00A
:10131000FFF75AFF1B4802881B490A80C28B4A808C
:101320004A8143880B8183880B82038C4B824B83D9
:10133000C4880C8304890C844224065B4424075B24
:10134000474C6588454C67802680448C4C844C858E
:1013500046890E8586890E86868C4E864E87C08984
:1013600008879818001980194000401980B2C008F9
:101370003B494880FFF710FDFFF7A2FE00F00AF896
:1013800001B0F0BDA400202080012020C001202059
:10139000D801202070B52F480188491C01800188A0
:1013A000772916D119208402012046022A4D2846A9
:1013B0002146324600F06EFD40222846214600F0CC
:1013C0004FFD083428462146324600F063FD284A86
:1013D00035E00188782914D301887F2911D806883F
:1013E0000088C0001F494418012042021A4D2846B7
:1013F000214600F04FFDB0001B4940181B49421820
:101400001DE0018880290BD11920840201204202AD
:10141000114D2846214600F03DFD114A0C320EE0E8
:101420000188812910D10120420219208402103440
:10143000094D2846214600F02DFD084A1032284665
:10144000214600F019FD70BD0188822901D30021D9
:10145000018070BDDC02202000D00C40D80120208B
:10146000C0012020586000003C01202020FEFFFF2A
:101470009C002020F0B58FB004900CA900254D7081
:10148000122008703E2702243846224600F070FFE2
:10149000204601F0B1FB3C2001F0AEFB0CA94D70E1
:1014A0009020087038460B97224600F061FF2046D6
:1014B00001F0A2FB0820069001F09EFB0CAE7571B6
:1014C00035712D20F07080200190B070922008902E
:1014D000707034203070042203923846314600F098
:1014E00047FF204601F088FB0EA9062005904870B2
:1014F00070780C9A8018B2788018F2788018C043FF
:101500000870602630460996224600F031FF2046DA
:1015100001F072FB0CAF7D713D71FD7001200290F6
:10152000B870089878703720387003220A920B98A8
:10153000394600F01DFF204601F05EFB0EA9052094
:101540000790487078780C9A8018BA788018C04351
:1015500008703046224600F00BFF204601F04CFB9D
:101560000CAF7D713D71FD700D20B870089E7E70CE
:10157000362038700B9839460A9A00F0F9FE20465A
:1015800001F03AFB0EA90798487078780C9A8018F9
:10159000BA788018C04308700998224600F0E8FE27
:1015A000204601F029FB0CAF7D713D71FD7042209A
:1015B000B8707E70FB2038700B9839460A9A00F09C
:1015C000D7FE204601F018FB0EA9079E4E707878D2
:1015D0000C9A8018BA788018C0430870099822467F
:1015E00000F0C6FE204601F007FB049F3846083095
:1015F000039901F0F9F93846069901F07FFA0CAF2A
:101600007D713D71FD70BC20B870089878706120C4
:1016100038700B9839460A9A00F0AAFE204601F06D
:10162000EBFA0EA94E7078780C9A8018BA78801868
:10163000C0430870099E3046224600F099FE2046BD
:1016400001F0DAFA0CAF7D713D71FD70F720B870D2
:1016500008987870622038700B9839460A9A00F022
:1016600087FE204601F0C8FA0EA9079848707878DE
:101670000C9A8018BA788018C04308703046224609
:1016800000F076FE204601F0B7FA0CAF7D713D7197
:10169000F820F87082200090B870089878706D205B
:1016A00038700B9E30463946039A00F061FE2046A2
:1016B00001F0A2FA0EA90598487078780C9A801863
:1016C000BA788018FA788018C043087009982246C2
:1016D00000F04EFE204601F08FFA0CAF7D713D7197
:1016E000FD700A9ABA709320039078703520387094
:1016F0003046394600F03CFE204601F07DFA0EA946
:101700000798487078780C9A8018BA788018C04387
:1017100008700998224600F02BFE204601F06CFA72
:101720000498007D0CAF7D713D71FD70B870089E0E
:101730007E70752038700B9839460A9A00F018FEB2
:10174000204601F059FA0EA90798487078780C9A4B
:101750008018BA788018C04308700998224600F0B3
:1017600007FE204601F048FA0498407D0CAF7D71D9
:101770003D71FD70B8707E70782038700B983946D6
:101780000A9A00F0F5FD204601F036FA0EA9079EF0
:101790004E7078780C9A8018BA788018C043087018
:1017A0000998224600F0E4FD204601F025FA0CAF2E
:1017B0007D713D71FD700598B870039878700A9A34
:1017C0003A700B98394600F0D3FD204601F014FA28
:1017D0000EA94E7078780C9A8018BA788018C04399
:1017E0000870099E3046224600F0C2FD204601F0F6
:1017F00003FA0CAF40207871F22038711A20F8708B
:10180000D220B87091207870A82038700B98394693
:10181000059A00F0ADFD204601F0EEF90EA90698FC
:10182000487078780C9A8018BA788018FA788018FE
:101830000D9A80187A798018C04308703046224685
:1018400000F096FD204601F0D7F90CAF7D713D7197
:10185000FD70079EBE7008987870019838700B98DC
:1018600039460A9A00F084FD204601F0C5F90EA918
:101870004E7078780C9A8018BA788018C043087037
:101880000998224600F074FD204601F0B5F90CAF2E
:101890007D713D71FD700A20B870089878700098CD
:1018A00038700B9839460A9A00F062FD204601F024
:1018B000A3F90EA94E7078780C9A8018BA7880181F
:1018C000C04308700998224600F052FD204601F0FE
:1018D00093F90CAF7D713D71FD70BE700898787002
:1018E000862038700B9839460A9A00F041FD204650
:1018F00001F082F90EA94E7078780C9A8018BA78A7
:101900008018C04308700998224600F031FD204637
:1019100001F072F90CAF7D713D71FD700A9ABA70D9
:10192000089E7E70872038700B98394600F020FDA5
:10193000204601F061F90EA90798487078780C9A52
:101940008018BA788018C04308700998224600F0C1
:101950000FFD204601F050F90CAF7D713D71FD7017
:101960000298B8707E70952038700B9E30463946CC
:101970000A9A00F0FDFC204601F03EF90EA90798F6
:10198000487078780C9A8018BA788018C04308702C
:101990000998224600F0ECFC204601F02DF9069F44
:1019A000384601F029F90CA94D70089808703046A6
:1019B000224600F0DDFC204601F01EF9384601F019
:1019C0001BF90CA94D70222008703046224600F009
:1019D000CFFC204601F010F9384601F00DF90CA9B2
:1019E0004D70962008703046224600F0C1FC20461B
:1019F00001F002F9384601F0FFF80CA94D709A2069
:101A000008703046224600F0B3FC204601F0F4F89E
:101A1000384601F0F1F80FB0F0BD0000B0B562201B
:101A2000854C022521462A4600F020FC284601F07C
:101A3000E3F8607821780002401801490880B0BDC1
:101A400098002020F0B581B06A207B4C0225214609
:101A50002A4600F00BFC284601F0CEF86078217889
:101A600000024018FEF731FF2C4F2D4B3A46FEF78F
:101A700037FF2C4A2C4BFEF7D7FEFEF71BFDBC4E62
:101A800030606E2021462A4600F0F0FB284601F027
:101A9000B3F86078217800024018FEF716FF3A4646
:101AA0001F4BFEF71DFF1F4A1F4BFEF7BDFEFEF743
:101AB00001FD7060742021462A4600F0D7FB2846BD
:101AC00001F09AF86078217800024018FEF7FDFED8
:101AD0003A46134BFEF704FF124A134BFEF7A4FEDF
:101AE000FEF7E8FCB060762021462A4600F0BEFBF7
:101AF000284601F081F86078217800024018FEF74E
:101B0000E4FE3A46064BFEF7EBFE064A064BFEF7AE
:101B10008BFEFEF7CFFCF06001B0F0BD9A99999969
:101B20009999B93F66666666661271C0B0B57F2046
:101B3000414C022521462A4600F098FB284601F038
:101B40005BF86078207801490870B0BDA0002020C3
:101B5000F0B581B00320384C022521462A4600F01A
:101B600085FB284601F048F8607820781D4E3070DB
:101B700020784007C00F1C49087020780007C00F6C
:101B80001A49087060780007C00F1949087060781A
:101B90008007C00F17490870052021462A4600F02B
:101BA00065FB284601F028F860782078124F3870DD
:101BB000072021462A4600F059FB284601F01CF870
:101BC000607820780D490870317808183978401805
:101BD000012801D8002000E001200949087001B067
:101BE000F0BDC046D80220207D012020A300202087
:101BF00010012020A2002020D9022020DA0220207B
:101C00000001202070B504460B4D022629463246BD
:101C100000F02CFB304600F0EFFF687829780002D6
:101C20004018143CE1B21F2903D30A21414388B272
:101C300070BD80B270BDC0460101202070B54B4818
:101C400000F0B6F93020FFF7DDFF4424674D28533C
:101C50004226A853A8811420FFF7D4FFA95B814234
:101C600000D80146A953295B814200D3014629537C
:101C700028801620FFF7C6FFA95B814200D80146E5
:101C8000A953295B814200D301462953688018205B
:101C9000FFF7B8FFA95B814200D80146A953295B31
:101CA000814200D301462953A8801A20FFF7AAFFDA
:101CB000A95B814200D80146A953295B814200D328
:101CC00001462953E8801C20FFF79CFFA95B814255
:101CD00000D80146A953295B814200D3014629530C
:101CE00028811E20FFF78EFFA95B814200D80146A4
:101CF000A953295B814200D30146295368813220D0
:101D0000FFF780FFA95B814200D80146A953295BF8
:101D1000814200D301462953E8813420FFF772FF46
:101D200028823820FFF76EFF6882FFF78BFE104E87
:101D30003068104C214601F0E7F8FEF7A5FFE88374
:101D40007068214601F0E0F8FEF79EFF2884B06835
:101D5000214601F0D9F8FEF797FF6884F068214624
:101D600001F0D2F8FEF790FFA88470BD00200F406C
:101D70006C01202000002041B0B518498A6818483D
:101D80000368012B07DB9A4209D8981A4A69801820
:101D90004861002009E0C868C418A24201D2D01AE4
:101DA00003E0121B4B69D2184A618860CC68002C92
:101DB0000FD0FEF7BBFF05462046FEF7B7FF0146F2
:101DC0002846FEF7B1FE084901F09EF8FEF75CFFD9
:101DD00000E004480549C885B0BDC046C0012020C8
:101DE00018022020D204000000401C46A40020203D
:101DF00010B582B001A90870000A48703E20022484
:101E0000224600F0B5FA204600F0F6FE02B010BD02
:101E1000811E091F00BFFCD27047000070B50B0186
:101E2000C31854689568254394892C4315695669ED
:101E30002543D48924012C43350125430924640218
:101E40001D51137852781A43BF231A408900401855
:101E5000024944589C43A218425070BD1011000022
:101E600080B502231343034A83508218D16101F0E5
:101E700045F880BD0411000070B511231B02C41881
:101E800001256560FF2610366662216211682163B4
:101E9000C55070BDF0B583B002920E460190354C2E
:101EA00020680527276007252840334B19682060E4
:101EB000226827602A4018682260304B0096B60AD4
:101EC00089048A0F314609D02D490840511C00F081
:101ED00019FF01463046FEF7EDF9284B0198C0186E
:101EE000019022682760244803682A402260226803
:101EF000276003682A4022600122930202989842D8
:101F00000CD05302984210D10098C30B0FD1B240AD
:101F1000019801689143016003B0F0BD1F210E409C
:101F2000B2400198016C9143016403B0F0BDFF29F8
:101F300011D8236827602B400F4D2D682360AB0418
:101F40009B0F00D12039C9088A400198416891430C
:101F5000416003B0F0BD1302FF339942E5D2FF2385
:101F6000DB43C918C9088A400198816891438160A0
:101F700003B0F0BD001340401800C441D011000070
:101F8000FF0F000010B5002A0FD091235B01C3188A
:101F90000020DC692405240F05D00C5C1C60401C6B
:101FA0008242F6D1104680B210BD002080B210BD32
:101FB0000F4A83580121C9030B438350801842689C
:101FC0001207FCD102688A4302607047084A8358AE
:101FD00080210B43835080180F2212024368134064
:101FE0000122D2029342F7D102688A43026070470D
:101FF0003812000070B50A780C231A40012424031B
:1020000005196E689E43B2186A604978072211402C
:10201000035993435918015170BD0000B0B5FF2218
:1020200004320E490B6893438278032414400278EB
:10203000120212191A430A60094A0A4B13600A4C29
:1020400025686D05FCD54078002803D00868102469
:1020500004430C60581C1060B0BDC04614010B4016
:1020600014030B400100009104020B40B0B54A6814
:10207000364BC250364A80180A78222A58D8930024
:1020800001A4E3589F46C0462721000031210000EB
:102090002721000031210000312100003121000002
:1020A00031210000312100003121000031210000E8
:1020B00031210000312100003121000031210000D8
:1020C00031210000312100001521000031210000E4
:1020D00015210000312100003121000031210000D4
:1020E00031210000312100003121000031210000A8
:1020F0003121000031210000312100003121000098
:1021000031210000312100001521000031210000A3
:102110001521000003231B0704689C4301235B0770
:10212000E318036004E003231B0704689C43046076
:102130000B69C360CB68074C1C40C36A064D1D4049
:102140002B19C362097A11430160B0BD0818000061
:1021500004180000777702008888FDFF10B501227F
:10216000120383180C789C604B7883508978014A5D
:10217000815010BD0C11000010B5002A0CD0074B87
:10218000C31800201C68240605D40C5C9C61401C0C
:102190008242F7D1104610BD002010BD081100008A
:1021A000B0B51122120283580124A34383500B8837
:1021B0008C781C438B882343094C1C408358094D61
:1021C0001D40631983508B79CC791C43097A2143D4
:1021D0007E231940801842689A4351184160B0BD6F
:1021E00018670000E798FDFF10B50122120383185D
:1021F0000C789C604978815010BD000010B55B4898
:102200000078401E414241415620B04C2152FFF718
:1022100005FCFFF79DFCFFF789FC08480088A082B9
:1022200007480078E0820748007820830648007855
:10223000608306480078A08310BDC0469800202027
:10224000D8022020D9022020DA022020A00020205D
:102250007047000004480068C0B2082802D1434813
:10226000012101707047C04620300F40F0B583B0A7
:10227000144602AF3870019108461146FEF715F872
:10228000634839462246FFF77DFE624F3868800674
:1022900008D43868800605D43868800602D43868C7
:1022A0008006F3D53E46083E30685B490840103052
:1022B00030603A1F1068594908402B4940181546AC
:1022C00010603868400612D5386840060FD5386867
:1022D00040060CD538684006F3D408E0386880061C
:1022E00008D43868800605D43868800602D4386877
:1022F0008006F3D54648FFF769FE30684649084036
:1023000011210143316028684449084021040143F8
:10231000072008432860002C01991ED00025134A8D
:102320000BE0282C34460199104A18D20020107076
:10233000786848556D1CA5420FD0786A0007F5D122
:10234000264600200446502000F064FC786A00070E
:10235000E7D1601C282CF5D3E3E703B0F0BD0120E2
:10236000107003B0F0BDC04607000100A10020209E
:10237000B0B582B01446002200926B4618700192EC
:10238000002C04D06846401C2246FDF731FF651C36
:102390001F4C694620462A46FFF7F4FD1D48016898
:1023A000890608D40168890605D40168890602D423
:1023B00001688906F3D5014608390A68164B1340AF
:1023C00010330B60011F0A68144B13402A049A183B
:1023D000D21D0A600168490612D5016849060FD569
:1023E000016849060CD501684906F3D408E0016884
:1023F000890608D40168890605D40168890602D4D3
:1024000001688906F3D52046FFF7E0FD02B0B0BDB4
:1024100000200F4018320F4000F8FFFFF8FF00F0D7
:10242000B0B5254C2078072827D1E0790A2824D197
:10243000A078E178000240182D283BD86278002A65
:102440001FD06278012A18D1227963791202D2183A
:102450004300B348C252194A002313703E22114070
:102460002C2924D15A21415A5822825A1204511837
:1024700009688185090C418519E010480121017026
:10248000B0BD0F48C170002585701122427007222F
:1024900002700A22C27185714900A14A515A4171E4
:1024A000090A0171082100F003FB044805700020AF
:1024B00020606060B0BDC046080120207C01202063
:1024C0001101202096487B2181817047A4002020A3
:1024D000F0B583B08D498E4A53888B4200D2FEE01E
:1024E000463112888A4200D9F9E08A4C21780429C1
:1024F00016D0022906D0012900D0F0E06080022029
:102500002080EFE06188411A0AB2D2135140891A43
:1025100009B2322900DAE4E06080A1800420DDE025
:102520006188401A01B2C9134840401A00B202281B
:1025300000DDD2E06078401C6070C0B20A2800D094
:10254000CDE0E08874490988081A01B2C9134840EF
:10255000461A0420205E0190FEF7E0FB054630B2EB
:10256000FEF7DCFB6D4F394600F0CEFC2946FEF746
:10257000DBFAFEF789FB0646462069490E522089A0
:1025800065490989081A01B2C9134840401A00B2C6
:10259000FEF7C4FB394600F0B7FC2946FEF7C4FA43
:1025A000FEF772FB074648205D490F5260895A4981
:1025B000098A081A01B2C9134840401A00B2FEF74E
:1025C000ADFB564900F0A0FC02952946FEF7ACFA97
:1025D000FEF75AFB4A21524A15465052E68227839B
:1025E00060830198312801DC01202070A0894A49CC
:1025F000098B081A01B2C9134840401A00B2FEF70D
:102600008DFB464F394600F07FFC029E3146FEF7B7
:102610008BFAFEF739FB01904C216852E0893E4D60
:10262000298C081A01B2C9134840401A00B2FEF7BB
:1026300075FB394600F068FC3146FEF775FAFEF787
:1026400023FB07464E20E6490F52208A298D081A9F
:1026500001B2C9134840401A00B2FEF75FFB2F4990
:1026600000F052FC3146FEF75FFAFEF70DFB05461F
:102670005020DB490D52608A2749098E081A01B2A1
:10268000C9134840401A00B2FEF748FB234900F046
:102690003BFC3146FEF748FAFEF7F6FA5221D04AE3
:1026A00050520199A183E78325846084A08A1A4946
:1026B000098F081A01B2C9134840401A00B2FEF748
:1026C0002DFB164900F020FC3146FEF72DFAFEF7EF
:1026D000DBFA5421C24A5052A0840120207003B07A
:1026E000F0BD60800C480188E18001892181018A68
:1026F0006181018BA181018CE181018D2182018E9B
:102700006182008FA08203B0F0BDC046160D0000AC
:10271000D8012020F00120208001202000401C460C
:10272000A400202080B503480021034AFFF776FB70
:1027300080BDC04600A04240F82F000080B5FFF7E2
:10274000F1FF80BD0F4801461C3900220A60014696
:1027500018390A600C494160016001214A0643684A
:102760001343436003681343036082228261074A74
:10277000C261074881220260880506490860086333
:102780007047C0463C80424084000C008200040038
:10279000C8804240A0320A4080B512481249FFF773
:1027A00029FC03204102114802680A43026001210A
:1027B0000A02036813430360002242611F2242623F
:1027C000826B0A4306239A43826307221202836BB9
:1027D00093438363826A042313438362826A0A43B6
:1027E000826280BD00200F401030000000320F4098
:1027F0000120800206490A68024208D10A680242A2
:1028000005D10A68024202D10A680242F3D0704739
:1028100004020B40B0B50E48002101600320C04304
:102820000C4C214608390A6802400A6020680125DC
:10283000A843206028022168814321600648FFF7F1
:10284000EDFB2803211F0A6802430A60B0BDC046A1
:1028500008030B4008010B401230000010B50B4C70
:102860000B492046FFF77AFC0A492046FFF7FEFB9A
:1028700009480168012211430160FF200004074953
:102880000B6883430B600648026010BD0000864061
:1028900015300000183000002810864010E400E0D9
:1028A00008118640B0B5944C20492046FFF79CFCA7
:1028B0001F492046FFF774FC0320C1037B480268D0
:1028C0008A43026001691B4A0A4011320261416970
:1028D00017220A4328218A434261426801210A40A3
:1028E00043688B439A184260CA03134B1C68144315
:1028F0001C60FF221206114C256895438A07AA180E
:1029000022608A021A634A04036813430360C268A0
:1029100070231343C360C268022313430522934309
:10292000C36002680A430260B0BDC0462C3000009C
:102930002E3000000000FFFF289010400CE400E063
:1029400080B500F015F8FFF7FDFEFFF763FFFFF716
:1029500085FFFFF721FFFFF7A5FFFFF7EFFEFFF76A
:1029600047FFB820014900220A5480BD1C022020E4
:10297000B0B50A480A4941600A4A51600A4B596099
:102980000A4C61600A4D69600A4901601160196072
:10299000216029601020FFF73BFAB0BD00080A4013
:1029A000030000B100280A400008864000280F40BC
:1029B000008810400100002680B508480068C0B2B9
:1029C00001280AD10648018D064A914201D0491CCE
:1029D00000E001210185FEF799FC80BD20108640B2
:1029E000A4002020FFFF0000F0B585B0002930D002
:1029F000054602A8C01C00900191288804AE002161
:102A00003180009A91705170117002AF0721B97036
:102A1000010A797038703E2003223946FFF7A8FC7E
:102A20000224204600F0E8F80520707078780299BA
:102A30004018B9784018C0433070602031462246B3
:102A4000FFF796FC204600F0D7F80199AD1C491E0F
:102A5000D2D105B0F0BD000080B504480068C0B216
:102A6000102801D1FFF7DCFC80BDC046209010404B
:102A700010B59C4B002018605860984801680222ED
:102A80009143016009490C46243444608360082363
:102A9000C36001235B040C689C430C60046814430E
:102AA000046008681843086010BDC04600911040DB
:102AB000F0B581B000291AD00C46054600260D4F0E
:102AC00003E08019C6B2A64211D2A919A21B0A4876
:102AD000FFF752FB3968C907F3D03968C907F0D04E
:102AE0003968C907EDD03968C907F3D1E9E7012092
:102AF00001B0F0BD0891104000801040F0B587B0E3
:102B0000002203910029134616464FD0032403994F
:102B10000C40042905D2002635463346002C2CD122
:102B200044E001940292FC2303991940039100258B
:102B30002B4647197E78143E74100122194613461D
:102B4000A340445D143C64101646A6408C19E3185B
:102B5000BC78143C64101646A6409B19FC78143CC3
:102B60006410A2409B182D1D0399A942E1D199B28E
:102B70000E0A029A019C002C18D0415D14394E10A7
:102B800001210F46B740DB19012C0DD040194578C3
:102B9000143D6D100E46AE409B19022C04D0807877
:102BA0001438401081405B1898B2060A04AC627178
:102BB0002271E670A37093206070042222703E2080
:102BC0002146FFF7D5FB0225284600F015F806A997
:102BD000062048706078049A8018A2788018E278FD
:102BE0008018C043087060202A46FFF7C1FB2846C2
:102BF00000F002F807B0F0BDB0B5002809D00446D7
:102C000000257D200002FFF703F96D1CE8B2A04209
:102C1000F7D3B0BDB0B5002808D004460025202069
:102C2000FFF7F6F86D1CE8B2A042F8D3B0BD000083
:102C3000FFF786FE29482A4941602A498160082118
:102C4000C160016802220A4302600124A0042649EF
:102C50000860E0030860600608600320450367021F
:102C6000224E304629463A46FFF714F940223046B4
:102C70002946FFF7F5F8304629463A46FFF70AF9A4
:102C80001B4A30462946FFF7F7F81A48FEF7F2FBD1
:102C90002046FFF7B1FF2220FFF7AAF82046FFF7F2
:102CA000ABFF9A20FFF7A4F8FFF70CFCFFF7D0FA70
:102CB0001148016821430160FEF73CFA0F4D104EA8
:102CC000A0052860FEF7BAFFFEF760FAFFF796FA54
:102CD00030780028F4D0FFF7CBFEF1E700B2424095
:102CE000249110400801202000E100E000D00C40B9
:102CF000340020203830000004188640B0320A40EA
:102D00007C01202043088B421AD3002203098B4206
:102D100079D3030A8B425ED3030B8B4242D3030C5D
:102D20008B4227D30902FF2212BA030C8B4202D333
:102D30001212090203D0030B8B4233D31AE0D3E003
:102D4000411A8041401C704703460B4371D443082D
:102D50008B42F5D3002203098B4254D3030A8B42E2
:102D600039D3030B8B421DD3030C8B4202D3944601
:102D70006EE0090AC30B8B4201D3CB03C01A524148
:102D8000830B8B4201D38B03C01A5241430B8B42FE
:102D900001D34B03C01A5241030B8B4201D30B03E7
:102DA000C01A5241C30A8B4201D3CB02C01A52410E
:102DB000830A8B4201D38B02C01A5241430A8B42D1
:102DC00001D34B02C01A5241030A8B4201D30B02BA
:102DD000C01A5241CDD2C3098B4201D3CB01C01AD4
:102DE000524183098B4201D38B01C01A52414309DE
:102DF0008B4201D34B01C01A524103098B4201D3CC
:102E00000B01C01A5241C3088B4201D3CB00C01A38
:102E1000524183088B4201D38B00C01A52414308B0
:102E20008B4201D34B00C01A5241411A524110004B
:102E30007047CA0F00D04942031000D340425340AC
:102E400000229C4603098B422DD3030A8B4212D3E6
:102E50008901FC2212BA030A8B420CD38901921118
:102E60008B4208D3890192118B4204D3890137D058
:102E7000921100E08909C3098B4201D3CB01C01A2A
:102E8000524183098B4201D38B01C01A524143093D
:102E90008B4201D34B01C01A524103098B4201D32B
:102EA0000B01C01A5241C3088B4201D3CB00C01A98
:102EB000524183088B4201D38B00C01A5241D9D2B0
:102EC00043088B4201D34B00C01A5241411A00D231
:102ED00001465241104663465B1000D340427047A2
:102EE00063465B1000D3404201B50021004201D08F
:102EF000C9430846C046C04602BD000003B40148AD
:102F0000019001BD0100202070B5420064414B00DA
:102F10005C41120E39D01B0E38D0FF2A3CD0FF2B5B
:102F20003AD0D2187F3A40024902400A490A45186D
:102F3000ED0106004E43000A090A48430104731AD2
:102F40004019190C4318990F04D05B080121490757
:102F50005B1A521CD80904D3401CF50301D19D060D
:102F600007D0FF2A08D2D50506D0E4072043401930
:102F700070BD0125A843F4E7002A01DCE00770BD1D
:102F80002402FF202043C00570BD1B0EFF2A03D082
:102F9000FF2B01D0E00770BDFF2636064500B54285
:102FA00006D84D00B54203D8D218FF2A00D0E7E773
:102FB000004870BD0000C07F818283848586878839
:102FC000898B8C8D8E8F919293959697999A9C9DD3
:102FD0009FA0A2A3A5A7A8AAACAEB0B2B3B5B7B93B
:102FE000BCBEC0C2C5C7C9CCCED1D4D7D9DCDFE204
:102FF000E6E9ECF0F3F7FAFE110000000000002013
:1030000000000000000000000000000000000300BD
:10301000080000000302070002000000FF07000094
:103020000000000000000000000000000800000098
:1030300018000000003000001416181A1C1E303250
:10304000FC92FA92FF9200936A6E7476314B000004
:10305000803000000000202034000000200100002B
:10306000B4300000340020200400000020010000E3
:10307000B830000038002020A806000048010000F9
:1030800081B011210902012242500949401801680A
:1030900007220A4000920099C9B2032903D000997F
:1030A000C9B20129F3D10098C0B201B07047C0463F
:0830B000D0130000010201250C
:04000005000000C136
:00000001FF
