:020000040000FA
:1000000078072020C5010000C9010000CB010000D5
:1000100000000000000000000000000000000000E0
:10002000000000000000000000000000CD01000002
:100030000000000000000000CF010000D10100001E
:10004000D3010000D3010000D3010000D301000060
:10005000D3010000D3010000D3010000D301000050
:1000600000000000D3010000D301000000000000E8
:1000700000000000D3010000D30100006D3E00002D
:10008000D3010000D3010000CD3D0000D3010000EA
:10009000D3010000D30100000000000000000000B8
:1000A000D30100008D3000000000000000000000BF
:1000B000D301000000000000D3010000D3010000C4
:1000C00000F002F800F052F812A030C808382418E6
:1000D0002D18AC4201D100F049F80FCCA246AB4636
:1000E0000CA730CF2D1B083F3F197C427F1E544484
:1000F0002D090426F441641EAC4201D300F036F809
:100100000126334200D0FB1A3343984754465D46DC
:10011000DFE7000064460000944600000000000095
:10012000103A02D378C878C1FAD8520701D330C840
:1001300030C101D504680C60704700000000000069
:100140007047000000000000002300240025002666
:10015000103A01D378C1FBD8520700D330C100D583
:100160000B6070471FB51FBD10B510BD00F02FFE0E
:100170001146FFF7F7FF03F065FF00F047FE03B4F9
:10018000FFF7F2FF03BC00F04DFE000070B505461E
:100190000C46164602E00FCC0FC5103E102EFAD2C8
:1001A000082E02D303CC03C5083E042E07D301CC8E
:1001B00001C5361F03E021782970641C6D1C761E72
:1001C000F9D270BD06480047FEE7FEE7FEE7FEE70E
:1001D000FEE7FEE703480449024A044B704700006B
:1001E000C100000078032020780720207803202019
:1001F000F8B5042A2CD3830712D00B78491C03705E
:10020000401C521E83070BD00B78491C0370401C06
:10021000521E830704D00B78491C0370401C521EE9
:100220008B079B0F05D0C91ADF002023DE1B08C9EE
:100230000AE0FFF7ABFFF8BD1D4608C9FD401C46AC
:10024000B4402C4310C0121F042AF5D2F308C91A77
:10025000521EF0D40B78491C0370401C521EEAD485
:100260000B78491C0370401C012AE4D40978017002
:10027000F8BD01E004C0091F0429FBD28B0701D59A
:100280000280801CC90700D00270704700290BD083
:10029000C30702D00270401C491E022904D3830701
:1002A00002D50280801C891EE3E70022EEE70022CF
:1002B000DFE70000002203098B4273D3030A8B425D
:1002C00058D3030B8B423CD3030C8B4221D312E057
:1002D00003460B437FD4002243088B4274D30309A7
:1002E0008B425FD3030A8B4244D3030B8B4228D348
:1002F000030C8B420DD30902FF2212BA030C8B426E
:1003000002D31212090265D0030B8B4219D300E00D
:10031000090AC30B8B4201D3CB03C01A5241830B92
:100320008B4201D38B03C01A5241430B8B4201D342
:100330004B03C01A5241030B8B4201D30B03C01A6B
:100340005241C30A8B4201D3CB02C01A5241830AE5
:100350008B4201D38B02C01A5241430A8B4201D314
:100360004B02C01A5241030A8B4201D30B02C01A3E
:100370005241CDD2C3098B4201D3CB01C01A5241A5
:1003800083098B4201D38B01C01A524143098B422E
:1003900001D34B01C01A524103098B4201D30B0117
:1003A000C01A5241C3088B4201D3CB00C01A52413C
:1003B00083088B4201D38B00C01A524143088B4201
:1003C00001D34B00C01A5241411A00D2014652419A
:1003D000104670475DE0CA0F00D04942031000D3B9
:1003E000404253409C46002203098B422DD3030A0E
:1003F0008B4212D38901FC2212BA030A8B420CD31E
:10040000890192118B4208D3890192118B4204D346
:1004100089013AD0921100E08909C3098B4201D3C6
:10042000CB01C01A524183098B4201D38B01C01A00
:10043000524143098B4201D34B01C01A5241030977
:100440008B4201D30B01C01A5241C3088B4201D326
:10045000CB00C01A524183088B4201D38B00C01AD3
:100460005241D9D243088B4201D34B00C01A5241AA
:10047000411A00D201465241104663465B1001D337
:100480004042002B00D54942704763465B1000D3C1
:10049000404201B50449002802DC491C084000E044
:1004A0000846C046C04602BDFFFFFF7F7047704749
:1004B000704700000246C80FC00781434B0030B5AB
:1004C0004B405B009B0D20D01923DB06C91801238C
:1004D0001B05994220DB0324A40704251346AB40E7
:1004E0000BD3002B04D1EB0613409B00E34204D452
:1004F00001246407002312195941FF231B05994267
:100500000BD2C9000143500F09E0CB0204D50143CF
:100510000803024305D0054830BDFF21C905084343
:1005200030BD084607210905884330BD0000C07F63
:10053000F0B50C46871A9C410D46861A9D4103D2A0
:10054000C01BA141D21963410D0D1F0DC94EEC1BFB
:10055000AE435CD07F057F0D0026002F51D02D05C6
:10056000AC46A943DD020123ED0A1B051D432023F0
:100570001B1B24D41746E740381871412F46E7402B
:10058000CC199D402818314661410C0D27D161449A
:100590009A4013D50023401C594152000ED1400807
:1005A000400001224B005205D34207D305204007EB
:1005B000C14201D5B04900E0B0493046F0BD6B0002
:1005C000002A00D001229A181F23203C1B1B01D5B2
:1005D000002302E0E540281871410C0DD7D001241A
:1005E00024050919C407CD0740084908E40F28432A
:1005F0006144002CD5D00024401C61419A40D0D1E8
:10060000CDE76A05520DD9D1C90FC907D5E79C4D71
:100610004E00002801D0012400E0002434195F00BE
:10062000002A01D0012600E00026BE19954FAC42F9
:100630000CD8AE420AD8B44206D001256D05EC4272
:10064000BCD010461946F0BD9942FCD00020394676
:10065000F0BDF0B51FB40C460F46811A9F412546E8
:10066000861A9D4106D20125ED076F40401ABC4114
:1006700052187B41210D1E0D8D1BAC467D4D8D43C7
:100680007ED075056D0D7CD00D05AE46AC431B03C9
:100690001B0B794D52429D41202366469B1B14D370
:1006A0001746F740381800260090744160462F46E0
:1006B0000741E41900989D402818664116D47146F8
:1006C00071189A4025D5012320E093182A466A41E3
:1006D0005200002B00D0521C1E23203E9B1B002BDF
:1006E00061DD3541EE1728186641E8D500187641DE
:1006F0005B1C9A4000D3401C4B05F3181524E340C3
:1007000010D3002B52D071467118D30FC01802D3EA
:10071000491C05B0F0BD0123DB079A42F9D140081E
:100720004000F6E701225205B21801D1002853D04B
:100730000123CC0ADB029943891E002A08D1020C4E
:1007400003D0020C0004103902E0024600202039D8
:100750000023550B05D112020823550B01D152017C
:100760000D23550C01D112011B1DD50C01D1920096
:100770009B1C150D01D152005B1C2025EE1A01E0D7
:100780002CE022E00546F54015439840CA1AE107DF
:1007900069181305C918002ABBDA03204007081896
:1007A000C10FC9070FE071466118B2E7F1074008B1
:1007B0000843711071444A000CD001235B059A4232
:1007C000A7D2C90FC9070020A3E74905490D26D1C3
:1007D000002001E00028F4D100219AE7284D6600AE
:1007E000002801D0012100E0002171185F00002ADB
:1007F00001D0012600E00026BE19224FA94210D8E0
:10080000AE420ED8B14208D001256D05E94206D0AE
:100810001946A802414010467BE79C4201D0214680
:1008200077E70020394674E710B50C465C4005D5E3
:100830000124E4076340FFF70CFF10BDFFF778FECB
:1008400010BD30B40C465C4004D50124E40763407D
:1008500030BC6DE630BCFCE670B50124E4076140B5
:100860000D465D4002D4FFF763FE70BD6340FFF7A5
:10087000F0FE70BDFF0700000000F0FF0000F07FF9
:100880000000E0FF0000F87F30B50346CA02400DCB
:100890001043164D164C0A1502D02043002A06DBE1
:1008A000AA1A002A12DDD040FF2A0BDC30BD520507
:1008B000520D01D140004008AA1A07D4D04040424E
:1008C000FF2A01DD002030BD0028FCDD4A00002B9E
:1008D00001D0012000E00020101801225205D04272
:1008E000F0D8C817C043604030BD00001E040000AF
:1008F000000000801F22030C02D10F22000402D04E
:10090000030E03D004E00020014670470002083ABD
:10091000030F01D10001121F830F01D18000921E2D
:10092000002801DB4000521E120551184205C0127A
:10093000411810467047C10FC90700D0404201223C
:1009400092071143D6E701218907D3E7F0B58B4C15
:100950000F09254689B0BD437BD01D092646AE430D
:10096000FAD00E465E402740F60F3E43254071D038
:1009700024012142FBD0FF24AD19A4042D1B0395B3
:1009800001252D05DB02DB0AC9022B43C90A2943D5
:100990001E010901040F130F050121431701880BE4
:1009A000820391432D098C46A90B1E438A0395436C
:1009B000B30B9A0396433F09BA0B9403A7430296DD
:1009C0002E467E430497B6464E19D7190C4601961B
:1009D000544305977E43371B7646BF1B3601B64608
:1009E000BE0B361900967646BC043719009C01D31D
:1009F000641C00946400002F01D001263443029E41
:100A0000049F754366467E430496760034196E0053
:100A100034190094029C019E1C196643751BAE4656
:100A2000069465464519059C05956C4359437546E2
:100A30000891691A0191049E01465143A41B049137
:100A4000611A009C0791E10605D06109012211435A
:100A500002E072E06EE06109089D00272C0A2D0675
:100A60006918049D7C412A0A2D066918019D62417E
:100A7000AC0DAD026D185441079A910D92025519B3
:100A80006141029A644658435443069B059A5A436F
:100A9000121A131B9A0E9B015B187A41010B000579
:100AA000C3185141220A200644195A419A4200D2E1
:100AB000491C01204002814203D315230226F6433C
:100AC00002E014230326F6432020C51AA940174646
:100AD000AF40DA400A4320460399D84009147318FE
:100AE00019055118039A3843D2075140AC4009D038
:100AF0000122944006D30022401C5141002C01D118
:100B0000400840001E4A934212D3012203989206E5
:100B1000904207DB0520400709181A480143C0121C
:100B2000414004E0032040070818C10FC907002016
:100B300009B0F0BD0020F107FAE705180C464C415A
:100B400011486D42A04115D394181A465A410E48D7
:100B5000644290410ED301204A004005824209D3ED
:100B60005A00824206D35940C90F084AC9070020DB
:100B70001143DDE700200649DAE700000000FF0727
:100B8000FE070000FFFFFF7F0000E0FF0000F07F96
:100B90000000F87FF0B5FF252D04C609C209FF2724
:100BA00004462E400137CB093E4348402A402B40A3
:100BB0000746002A6BD0002B69D0AA4267D0AB420F
:100BC00065D0002800DA32460125ED0529432C4383
:100BD00009022002090AD21A4B0C7F24E31A434C63
:100BE000000A7C44E35C7D242404121914145B0085
:100BF000A218884201D3521C00E0400049420C4632
:100C00005C4324115C43DB016415E318040A5C4374
:100C1000C502200D0C4644436419250A5D43230395
:100C2000EC0C0D46654300030019EB184C42A3423F
:100C300001D35B18401CD4052018002B07D05B00A3
:100C4000C91804D3401C002901D1400840003F21AD
:100C500089048A4209D3002A08DC1106090F04D04E
:100C6000032149074018C00FC007F0BD0122410011
:100C7000120689187F2252069142F6D205214907B1
:100C8000C84201D59010F0BDFF20C005F0BD002F77
:100C900000DA32461648AA4207D2AB4205D2190200
:100CA000090E17D0F80FC007F0BDFF2563002D0611
:100CB000AB42F9D84900A942F6D8AB4201D1A942CA
:100CC000F2D0A94201D1002101E061004908D0051C
:100CD0000843F0BD1102090EFBD0FF200243D005EE
:100CE000F0BD0A460146104654E7000042390000B4
:100CF0000000C07F10B501469E240002CA15A3075C
:100D0000002A02D01843002A04DBA21A002A0CDDB4
:100D1000D04010BD1206120E01D140004008A21AA8
:100D200003D4D04040420028F3DDFF2248001206E1
:100D3000904201D9002010BDC817C043584010BDD3
:100D40000102C21504D00123DB071943002A0ADB84
:100D50009E239A1A02D40846D0407047FF224100D1
:100D60001206914201D900207047C017C043704756
:100D70001F22030C02D10F2200041CD0030E01D14C
:100D80000002083A030F01D10001121F830F01D1A5
:100D90008000921E002801DB4000521ED20551182F
:100DA000021251181922904004D3491C002801D185
:100DB0004908490008467047C10FC90700D04042A2
:100DC000012292071143D3E701218907D0E7754635
:100DD00000F024F8AE46050069465346C008C0003E
:100DE000854618B020B5FFF7F5F960BCB646002679
:100DF0000027C0C5C0C5C0C5C0C5C0C5C0C5C0C529
:100E0000C0C5403D490849008D46704710B50446AD
:100E1000C046C0462046FFF7B2F910BD00487047F3
:100E20006000202001491820ABBEFEE7260002002A
:100E300070470000F0B58FB0CA4A1088EB4E308082
:100E400050883081908830827A4FB87F4000135E9E
:100E50007380F97F4900505E079070814421505A99
:100E60000C904221505A08901E37B9784900555EBF
:100E7000F44840880490F0680B90F4480169746865
:100E80000294069575820546D0883083F878400034
:100E9000105E0E9070831089308438794000105EA7
:100EA000039070845089308578794000105E0D90F1
:100EB0007085F06A0190706A0A90F0690990706913
:100EC000059090893086089828800C986880B879B9
:100ED0004000105E0C907086D0893087F879400011
:100EE000125E07987287834208931F4600DC07460C
:100EF000069B9F4200DC1F460E9CA742039D019E5D
:100F000000DC0E9FAF4200DC2F460D9CA74200DCA8
:100F10000D9F0C9CA74200DC0C9F974200DC1746FB
:100F2000454CA74200DC2746C84CA780089F874253
:100F300000DB07469F4200DB1F460E9B9F4200DB03
:100F40000E9FAF4200DB2F460D9B9F4200DB0D9FA3
:100F50000C9B9F4200DB0C9F9742059B00DB1746D2
:100F60007D200401A74200DB2746B848C780029CC9
:100F7000A14200D321460B988142B54800D30B997A
:100F8000994200D31946099B994200D309990A9BBB
:100F9000994200D30A99B14200D331460092476B7F
:100FA000B94200D339462A46C36B994200D3194649
:100FB0003546A648C1600B98844200D80446059E79
:100FC000B4420A98099925D98C4226D9844227D956
:100FD000AC4228D9BC4229D99C4200D81C46EC48D6
:100FE00084600898049908180799401806994018D1
:100FF0000E99401880180D9940180C9940180099C6
:10100000401801B2490F401800B2C008DF494880BB
:101010000FB0F0BD34468C42D8D80C468442D7D8A5
:101020000446AC42D6D82C46BC42D5D83C469C425D
:10103000D4D9D4E73447000030F8FFFFF0B581B0D1
:101040002620D74E345E0420C043604384490860A4
:10105000002C01D4012000E00220611D89B20B297F
:1010600000D200207D490870204602F009FB00F004
:1010700055FFC64FF8683969002854D0884209D115
:10108000B9690022BA610818F8603861C04802697D
:101090005118016134480025056045608560C560D0
:1010A000056145618561C5612846214602F060FD04
:1010B0000120214602F05CFD0220214602F058FD8D
:1010C0000320214602F054FD0420214602F050FD89
:1010D0000520214602F04CFD0620214602F048FD85
:1010E0000720214602F044FD00F04CFF7869FFF72D
:1010F0006BFE04463869FFF767FE01462046FFF79E
:1011000049FD1A4903F050F9FFF7F4FDB988421A76
:1011100013B2DB135A40D21A12B20B2A15DB8842E3
:101120000DD90A3110E0BA690023BB615118396149
:10113000D94B1D69AA181A618842A1D0AAE70929CA
:1011400001D8284601E00A39084680B20849884299
:1011500000D308466C217052B88001F035FB01B015
:10116000F0BDC046D0002020A401202000401C4635
:1011700010270000F0B5C94801880A0734D50622B7
:101180000B46134030D04B0714D5C36804698569FA
:10119000EE18C14F3E61864FFE637E63FE627E6243
:1011A000FE617E61FE607E601B1B5B19C66006618E
:1011B000466183618B0713D5002343617C4CE36355
:1011C0006363E3626362E3616361E3606360C46815
:1011D000C36083691B1B0469E3180361AE4C236180
:1011E0000023836191430180F0BDC046E8012020C7
:1011F00070B5AA4800256F49C160016141618561F0
:10120000114A426009220280A3488560C5600161DD
:1012100045618580056066484021FFF748F80D4C20
:1012200026212046FFF743F8012626700A4C282184
:101230002046FFF73CF809480580267008480560FD
:1012400070BDC0462802202010271027440220200D
:10125000E8012020840220205C022020AA02202015
:10126000AC02202042214E48415A0A4A914204D3FE
:101270008A490A88042313430B804421405A401EA4
:101280000549884204D88548018802220A43028021
:101290007047C046FC0D00008B0A0000F0B585B019
:1012A0007E480088C0076ED01920830218697A49E9
:1012B000002204928A6037494118374C374AA142CC
:1012C00000D302467448C26003920261344CE08C41
:1012D00001B2C9134840401A00B200903F20C543F4
:1012E000304F1E37304E019309E00491816002981F
:1012F00042647F1CA41C0835361D002D27D02C48C5
:10130000431920884021585239784900244A515ABB
:10131000422202939952019B5919896D3160009ABA
:10132000042A224A07DC00F073FD224988421F4A42
:1013300000D80246019B0399914200D311465648BA
:101340000391C16004999142CFD81146CDE7186846
:10135000524C2061996861610E4940180E498842DB
:1013600001D20E48206100F0CFFE0F48002101603D
:1013700041608160C160016141618161C16120881A
:1013800001218843208005B0F0BDC04628022020FE
:10139000440220207F647DF81F9442FA40785F0663
:1013A000D00020203447000084012020A02FC50158
:1013B000E8012020809B820780B5FFF76FFFFFF7D1
:1013C00039FDFFF73BFEFFF7D5FE00F001F880BDC9
:1013D00070B52F480188491C01800188772916D1F2
:1013E00019208402012046022A4D28462146324611
:1013F00001F06AFC40222846214601F04BFC0834EB
:1014000028462146324601F05FFC284A34E0018834
:10141000782914D301887F2911D806880088C00054
:101420001F494418012042021A4D2846214601F066
:101430004BFCB0001B4940181B4942181CE00188B6
:1014400080290AD11920840201204202114D284628
:10145000214601F039FC114A0DE00188812910D1A3
:10146000012042021920840210340A4D28462146E8
:1014700001F02AFC084A10322846214601F016FCE9
:1014800070BD0188822901D30021018070BDC04652
:101490007003202000D00C4044022020280220208D
:1014A00058600000A401202020FEFFFFC40020207F
:1014B000F0B58FB003900CA900254D701220087074
:1014C0003E26022430460B96224601F06DFE204651
:1014D00002F09CFD3C2002F099FD0CA94D70902774
:1014E0000F703046224601F05FFE204602F08EFD6E
:1014F0000820069002F08AFD0CAE757135712D2022
:10150000F070B77092200A9070703420307004220E
:1015100004920B98314601F047FE204602F076FD1A
:101520000EA906200590487070780C9A8018B27841
:101530008018F2788018C043087060200890224616
:1015400001F032FE204602F061FD0CAF7D713D716D
:10155000FD7001200290B8700A98787037203870BA
:10156000032209920B9E3046394601F01DFE2046AB
:1015700002F04CFD0EA905200790487078780C9A6F
:101580008018BA788018C04308700898224601F085
:101590000BFE204602F03AFD0CAF7D713D71FD70EF
:1015A0000D20B8700A987870362038703046394669
:1015B000099A01F0F9FD204602F028FD0EA9079EC8
:1015C0004E7078780C9A8018BA788018C0430870EA
:1015D0000898224601F0E8FD204602F017FD039F1F
:1015E00038461030314601F095FF384608300499EE
:1015F00002F004FC3846069902F08AFC0CAF7D71BB
:101600003D71FD70BC20B8700A9E7E7061203870FC
:101610000B983946099A01F0C7FD204602F0F6FC06
:101620000EA90798487078780C9A8018BA788018B4
:10163000C04308700898224601F0B6FD204602F02B
:10164000E5FC0CAF7D713D71FD70F720B8707E70C8
:10165000622038700B983946099A01F0A5FD2046A2
:1016600002F0D4FC0EA90798487078780C9A80187C
:10167000BA788018C0430870089E3046224601F0B0
:1016800093FD204602F0C2FC0CAF7D713D71F82045
:10169000F87082200190B8700A9878706D203870C8
:1016A0000B983946049A01F07FFD204602F0AEFC0B
:1016B0000EA90598487078780C9A8018BA78801826
:1016C000FA788018C04308703046224601F06CFD5D
:1016D000204602F09BFC039E304600F08FFE262041
:1016E000305C0CAF7D713D71FD70B8700A987870F8
:1016F000752038700B983946099A01F055FD20463F
:1017000002F084FC0EA90798487078780C9A80182B
:10171000BA788018C04308700898224601F044FD4A
:10172000204602F073FC263670780CAF7D713D7157
:10173000FD70B8700A987870782038700B98394628
:10174000099A01F031FD204602F060FC0EA9079EC7
:101750004E7078780C9A8018BA788018C043087058
:101760000898224601F020FD204602F04FFC0CAF05
:101770007D713D71FD700720B87093207870099AD3
:101780003A700B98394601F00FFD204602F03EFCFE
:101790000EA94E7078780C9A8018BA788018C043D9
:1017A0000870089E3046224601F0FEFC204602F0FA
:1017B0002DFC0CAF40207871F22038711A20F8709F
:1017C000D220B87091207870A82038700B983946D4
:1017D000059A01F0E9FC204602F018FC0EA90698D3
:1017E000487078780C9A8018BA788018FA7880183F
:1017F0000D9A80187A798018C043087030462246C6
:1018000001F0D2FC204602F001FC0CAF7D713D716D
:10181000FD70079EBE700A987870802038700B9813
:101820003946099A01F0C0FC204602F0EFFB0EA9F0
:101830004E7078780C9A8018BA788018C043087077
:101840000898224601F0B0FC204602F0DFFB0CAF06
:101850007D713D71FD700A20B8700A98787001980A
:1018600038700B983946099A01F09EFC204602F028
:10187000CDFB0EA94E7078780C9A8018BA78801833
:10188000C0430870089E3046224601F08DFC204679
:1018900002F0BCFB0CAF00957D713D71FD70079DA2
:1018A000BD700A987870862038700B983946099A6E
:1018B00001F07AFC204602F0A9FB0EA94D70787861
:1018C0000C9A8018BA788018C043087030462246B7
:1018D00001F06AFC204602F099FB0CAF009D7D717F
:1018E0003D71FD70099ABA700A9878708720387037
:1018F0000B9E3046394601F057FC204602F086FB2D
:101900000EA90798487078780C9A8018BA788018D1
:10191000C04308700898224601F046FC204602F0B9
:1019200075FB0CAF7D713D71FD700298B8700A981F
:1019300078709520387030463946099A01F034FCA9
:10194000204602F063FB0EA90798487078780C9A3D
:101950008018BA788018C04308700898224601F0B1
:1019600023FC204602F052FB069F384602F04EFB55
:101970000CA94D700A9808703046224601F014FCFC
:10198000204602F043FB384602F040FB0CA94D70A4
:10199000222008703046224601F006FC204602F064
:1019A00035FB384602F032FB0CA94D7096200870CA
:1019B0003046224601F0F8FB204602F027FB38466D
:1019C00002F024FB0CA94D709A2008703046224684
:1019D00001F0EAFB204602F019FB384602F016FB44
:1019E0000FB0F0BDB0B56220A04C022521462A46BA
:1019F00001F058FB284602F009FB284602F006FBDE
:101A0000607821780002401801490880B0BDC046C6
:101A1000C0002020F0B581B06A20944C02252146F8
:101A20002A4601F03FFB284602F0F0FA284602F071
:101A3000EDFA6078217800024018FEF77CFF314F04
:101A4000314B3A46FEF782FF304A314BFEF7ECFE4F
:101A5000FEF730FDEA4E30606E2021462A4601F046
:101A600021FB284602F0D2FA284602F0CFFA60782D
:101A7000217800024018FEF75EFF3A46224BFEF73F
:101A800065FF224A224BFEF7CFFEFEF713FD706082
:101A9000742021462A4601F005FB284602F0B6FADA
:101AA000284602F0B3FA6078217800024018FEF769
:101AB00042FF3A46144BFEF749FF144A144BFEF717
:101AC000B3FEFEF7F7FCB060762021462A4601F00F
:101AD000E9FA284602F09AFA284602F097FA607866
:101AE000217800024018FEF726FF3A46064BFEF723
:101AF0002DFF064A064BFEF797FEFEF7DBFCF06073
:101B000001B0F0BD9A9999999999B93F6666666650
:101B1000661271C0B0B53A20544C022521462A46BF
:101B200001F0C0FA284602F071FA284602F06EFA77
:101B3000607821780002401801490880B0BDC04695
:101B4000CE002020B0B57F20484C022521462A46F1
:101B500001F0A8FA284602F059FA284602F056FA8F
:101B60006078207801490870B0BDC046CA002020C6
:101B7000F0B581B003203D4C022521462A4601F0F4
:101B800091FA284602F042FA284602F03FFA6078BD
:101B90002078204E307020784007C00F1E49087012
:101BA00020780007C00F1D49087060780007C00F3B
:101BB0001B49087060788007C00F1A49087005201B
:101BC00021462A4601F06EFA284602F01FFA2846FE
:101BD00002F01CFA60782078134F387007202146F5
:101BE0002A4601F05FFA284602F010FA284602F071
:101BF0000DFA607820780D49087031780818397826
:101C00004018012801D8002000E001200849087090
:101C100001B0F0BD6C032020E5012020CD00202084
:101C200078012020CC0020206D0320206E0320208E
:101C30004601202070B504460C4D02262946324646
:101C400001F030FA304602F0E1F9304602F0DEF9F8
:101C50006878297800024018143CE1B21F2903D3A8
:101C60000A21414388B270BD80B270BD6701202057
:101C7000F0B581B0614801F0B5F83020FFF7DAFF28
:101C80004425BF4E70534227F053B08114242046A0
:101C9000FFF7D0FFF15B814200D80146F153715B41
:101CA000814200D30146715330801620FFF7C2FFF6
:101CB000F15B814200D80146F153715B814200D350
:101CC0000146715370801820FFF7B4FFF15B814229
:101CD00000D80146F153715B814200D30146715334
:101CE000B0801A20FFF7A6FFF15B814200D80146C1
:101CF000F153715B814200D301467153F0801C2087
:101D0000FFF798FFF15B814200D80146F153715B08
:101D1000814200D30146715330811E20FFF78AFFB4
:101D2000F15B814200D80146F153715B814200D3DF
:101D30000146715370813220FFF77CFFF15B8142D5
:101D400000D80146F153715B814200D301467153C3
:101D5000F0813420FFF76EFF30823820FFF76AFFF2
:101D60007082FFF757FE264F3868264D294602F04D
:101D70001BFBFEF7BFFFF0837868294602F014FBD7
:101D8000FEF7B8FF3084B868294602F00DFBFEF775
:101D9000B1FF7084F868294602F006FBFEF7AAFF3F
:101DA000B084FFF7B7FE00F0EFFC66217052411ED1
:101DB0008841154D29781022914301437420305CED
:101DC000C007C00E08182870C1B2C2070AD112227B
:101DD000114002290DD10D4801F0D2FB29780120D4
:101DE000084306E0214204D000F0F4FE28780121E7
:101DF0008843F9210140297001B0F0BD00200F4057
:101E0000D4012020000020415C0220203447000043
:101E1000F0B585B004464048027845682888A0425D
:101E20000491019201D9002715E0501E002103E022
:101E3000C7B2CAB2BA420DD8C2B2CBB29B18012601
:101E40005A08B343EB5AA34200D9501EA342EFD81D
:101E5000511CEDE70499304880680090C05D039004
:101E60000846FEF7B1FF0646E9480069FEF7ACFFF9
:101E700001463046039E0291FEF78CFEE54902F0D2
:101E800093FAFEF737FF301A01B2C9134840401ADF
:101E900000B22149C968C95D8842049839DB0198BC
:101EA000401EB84227DD7E1C0098805DFEF78CFF47
:101EB00001900398FEF788FF01460490019802F014
:101EC000CBFA039078002F5A7000285AC01BFEF7F7
:101ED00073FF01460398FEF75DFE0646E01BFEF722
:101EE0006BFF0146304602F05FFA049902F016FAE1
:101EF000FEF700FF0646C7490298FEF74BFE044670
:101F00003046FEF761FF0146204602F04DFAFEF72B
:101F100017FF05B0F0BDC0464C002020B0B5BE494B
:101F2000CA6873480368012B07DB9A4209D8981ADC
:101F30008A6980188861002009E00869C418A242F3
:101F400001D2D01A03E0121B8B69D2188A61C860D3
:101F50000C69002C0FD0FEF737FF05462046FEF730
:101F600033FF01462846FEF715FEAC4902F01CFA85
:101F7000FEF7C0FE00E063485B49C885B0BDC046BF
:101F8000D0002020F0B581B0A34F38896821564E8B
:101F90007052002828D09E4CA068FEF715FF064618
:101FA00020690090FEF710FF054630462946FEF7EF
:101FB000F1FD9A4E314602F0F7F9FEF79BFE074617
:101FC000E068FEF701FF2946FEF7E4FD314602F026
:101FD000EBF9FEF78FFE391A8EB2444CA64207D1B8
:101FE000002006468C4F3CE041480568002053E045
:101FF000FEF7EAFE05463046FEF7E6FE01462846B5
:1020000002F0D2F90746A01BFEF7D6FE014638467D
:10201000FEF7C0FD294602F081F9FEF76BFE064689
:102020007D4F7869FEF7D0FE05463869FEF7CCFE95
:1020300001462846FEF7AEFDE74902F0B5F9FEF786
:1020400059FEB0420DD92A490D68012D0DDB841BC4
:102050002649009802F060F860432849884217DA60
:1020600017E023490D68012D09DB2846FEF763FCC4
:10207000204A214BFEF76AFCFEF706FC09E0841BB0
:102080001A49009802F048F860431D49884200DC74
:102090000846154E002139817969012D04DB281885
:1020A000081A07D2002005E02A1838691318994247
:1020B00000D2881A78613C69002C0FD0FEF784FEAC
:1020C00005462046FEF780FE01462846FEF762FDE3
:1020D000C14902F069F9FEF70DFE00E009486A21E6
:1020E000705201B0F0BDC046D00020201027000083
:1020F000AC022020666666666666E6BFC04B0300DB
:1021000040B4FCFFD2040000F0B583B0B14EB0681B
:10211000FEF75AFE05463069FEF756FE044628468D
:102120002146FEF737FD3B4D294602F03DF9FEF70B
:10213000E1FD0290F068FEF747FE2146FEF72AFD1A
:10214000294602F031F9FEF7D5FD0746324D6C699C
:102150002046FEF739FE06462869FEF735FE05469D
:1021600030462946FEF716FD06462A4902F01CF9BC
:10217000FEF7C0FD0299884207D8B84205D3264829
:10218000C4600446944930463BE00195C81B85B2C3
:10219000642D04D10020204CE060606135E03846B9
:1021A000FEF712FE04462846FEF70EFE01462046C4
:1021B00002F0FAF806466420401BFEF7FDFD0146DA
:1021C0003046FEF7E7FC214602F0A8F8FEF792FD44
:1021D00004461049019E3046FEF7DCFC05462046C9
:1021E000FEF7F2FD0146284602F0DEF8FEF7A8FDF4
:1021F000094CE0606061FEF7E7FD3146FEF7CAFC7E
:10220000754902F0D1F8FEF775FDA08003B0F0BD6E
:10221000440220200000C8422802202000401C4622
:10222000F0B583B002920190C000694A145A0A883E
:10223000A24220D90025664A10180223C65E4B2010
:102240008200052000929642024629DDEBB25F0033
:10225000CF5B381AA04209DAD019A04206D9E9B2F8
:102260000198029A00F078F803B0F0BD0A20032B21
:1022700020D103B0F0BD0022032503E0EBB2D6B2BB
:102280009E42D8D8EEB2D7B2BF1901237E089F4331
:10229000CF5BA74200D9751EA742EFD8721CEDE7AD
:1022A000C92E16DB28480522029B83421046CDDC4E
:1022B0000320CBE70522009DAE42174613DD5D1CCF
:1022C0006B00C95A8A1AA242D3DA7918A142C6D839
:1022D000CFE7652E11DB1F480522029F874210467B
:1022E000B4DC1846B2E7C92E16DB174A0527029D53
:1022F00095423A46E3DC0322E1E71348029A1018BC
:10230000401C82B20320114B9A4202469ED8E8B28A
:102310000F4A105C024699E7652E07DB0D4A052738
:10232000029D95423A46CADC0222C8E7064A029D4F
:10233000AA18521C95B20322044EB5421746BED8C5
:10234000034AD25C1746BAE751FCFFFFA4F800002D
:10235000EE460000C5FEFFFF70B515460C46C000F6
:102360001B4908184068FEF72FFD0646194800690A
:10237000FEF72AFD01463046FEF70CFC164902F036
:1023800013F8FEF7B7FC6200012D09DB1749895EDF
:10239000174B9A5A801A00B288420BDD154812E09A
:1023A0000E49895E0E4B9A5A801A00B2884206DDA9
:1023B0000C4808E04942884208DA0F4803E04942E5
:1023C000884203DA08486100405A70BD0A2070BD97
:1023D000E80120204402202000401C46A2460000C4
:1023E0009246000080450000884500009A460000A3
:1023F0008A4600007045000078450000F0B58DB0B9
:102400002821415C054603900AAF00267E713E718B
:10241000FE70B970932008907870352038703E2097
:10242000099003220692394600F0BEFE022420469F
:1024300001F0ECFD0CA905200790487078780A9A05
:102440008018BA788018C043087060200490224633
:1024500000F0AAFE204601F0D9FD2846283005905C
:1024600040780AAD6E712E71EE70A870089F6F7083
:102470003620287009982946069A00F095FE2046D5
:1024800001F0C4FD0CA90798487068780A9A801872
:10249000AA788018C04308700498224600F084FE91
:1024A000204601F0B3FD059880780AAD6E712E715B
:1024B000EE70A8706F703720287009982946069F23
:1024C0003A4600F071FE204601F0A0FD0CA90798E5
:1024D000487068780A9A8018AA788018C0430870F3
:1024E0000498224600F060FE204601F08FFD05981A
:1024F000C0780AAD6E712E71EE70A8700898687081
:1025000038202870099829463A4600F04DFE2046AA
:1025100001F07CFD0CA9079F4F7068780A9A80181B
:10252000AA788018C04308700498224600F03CFE48
:10253000204601F06BFD059800790AAD6E712E7191
:10254000EE70A8700898687039202870099829469C
:10255000069A00F029FE204601F058FD0CA94F70A4
:1025600068780A9A8018AA788018C0430870049F77
:102570003846224600F018FE204601F047FD059837
:1025800040790AAD6E712E71EE70A870089868706F
:102590003A20287009982946069A00F005FE204640
:1025A00001F034FD0CA90798487068780A9A8018E1
:1025B000AA788018C04308703846224600F0F4FD1F
:1025C000204601F023FD0398C08D0AAD6E712E7177
:1025D000010AE970A870089868703B2028700422EE
:1025E00002920998294600F0DFFD204601F00EFD19
:1025F0000CA906200190487068780A9A8018AA7879
:102600008018EA788018C04308703846224600F0E7
:10261000CBFD204601F0FAFC059F387A0AAD6E71B9
:102620002E71EE70A870089868703D202870099887
:102630002946069A00F0B8FD204601F0E7FC0CA9F7
:102640000798487068780A9A8018AA788018C0435A
:1026500008700498224600F0A7FD204601F0D6FC41
:10266000787A0AAD6E712E71EE70A870089F6F7047
:10267000099828702946069A00F096FD204601F038
:10268000C5FC0CA90798487068780A9A8018AA783F
:102690008018C04308700498224600F085FD20464B
:1026A00001F0B4FC0398408E0AAD6E712E71010AE0
:1026B000E970A8706F703F20287009982946029A27
:1026C00000F072FD204601F0A1FC0CA901984870B1
:1026D00068780A9A8018AA788018EA788018C04327
:1026E0000870049F3846224600F05EFD204601F047
:1026F0008DFC0598007B0AAD6E712E71EE70A8708E
:10270000089868704120287009982946069A00F0B8
:102710004BFD204601F07AFC0CA9079848706878B8
:102720000A9A8018AA788018C04308703846224652
:1027300000F03AFD204601F069FC0598407B0AADA7
:102740006E712E71EE70A870089868704220287023
:1027500009982946069A00F027FD204601F056FC0C
:102760000CA90798487068780A9A8018AA78801887
:10277000C04308703846224600F016FD204601F09E
:1027800045FC0DB0F0BD000010B582B08320019073
:102790003E2001A90224224600F006FD204601F059
:1027A00035FC4020064C2022214600F07BFC20789E
:1027B0006178090208180349088080B202B010BD90
:1027C00047012020C8002020F0B587B0F9480068F4
:1027D00001461831302906D8F7480178002900D180
:1027E000D6E007B0F0BDF44C6178002900D1D3E009
:1027F000491C6170626815186560C8B20A28F0D17A
:1028000000266670E81729464140081A0146323909
:10281000EA4A914200D3E7E00596FEF7D5FA069022
:10282000E94806882789012D00DAFEE0B81BFEF78B
:10283000C3FAE64901F0B8FD0025BE42294600D89A
:10284000014608460699FEF7A5F9FEF753FA562207
:10285000DB4903908852DC4806896789B81BFEF77C
:10286000ABFADA4901F0A0FD0146B742284600D391
:1028700008460699FEF78EF9FEF73CFA5822D04931
:1028800002908852D048068AA789B81BFEF794FAAE
:10289000CE4901F089FD0146B742284600D30846DB
:1028A0000699FEF777F9FEF725FA5A22C4490190F6
:1028B0008852C548068BE789B81BFEF77DFAC349E5
:1028C00001F072FD0146B7420495284600D3084640
:1028D0000699FEF75FF9FEF70DFA06465C20B84947
:1028E0000E52B948078C258AE81BFEF765FAB749EE
:1028F00001F05AFD0146BD42049800D308460699EE
:10290000FEF748F9FEF7F6F95E21AD4A50520399F9
:102910002183029961830199A183E6832084AA48D7
:10292000058D668A701BFEF747FAA84901F03CFD49
:102930000146AE42049800D308460699FEF72AF9EC
:10294000FEF7D8F9064660209D490E529E48058E36
:10295000A78A781BFEF730FA9C4901F025FD014655
:10296000AF42049D284600D308460699FEF712F9A7
:10297000FEF7C0F96221924A50526684A084E08A30
:102980009149098F8142059E00D901E1401AFCE07E
:102990000221017007B0F0BD8B490A8822810A89A3
:1029A00062810A8AA2810A8BE2810A8C22820A8DC4
:1029B00062820A8EA282098FE1823621844A515CAA
:1029C00064234B437E49CD8DAB4201D9217805E08C
:1029D0004223CB5A2178528F93421BD2CA071DD073
:1029E00004221143217019E05621754A01205052EA
:1029F000582150525A2150525C2150525E2150525F
:102A000060215052622150526E49A161E161216200
:102A1000A084C6E01122114200D1C9E001216170F9
:102A200061680818606007B0F0BDF01BFEF7C4F9DC
:102A3000664901F0B9FC0146BE42059F384600D305
:102A400008460699FEF7A6F8FEF754F956225C49A7
:102A50000490885265895C480689701BFEF7ACF9C2
:102A60005A4901F0A1FC0146AE42384600D308465F
:102A70000699FEF78FF8FEF73DF95822504903906A
:102A80008852A5895048068A701BFEF795F94F4970
:102A900001F08AFC0146AE42384600D3084606994A
:102AA000FEF778F8FEF726F95A2245490290885237
:102AB000E6894548078BB81BFEF77EF9434901F0CC
:102AC00073FC0146B742059800D308460699FEF705
:102AD00061F8FEF70FF906465C2039490E52278A45
:102AE0003948058CE81BFEF767F9384901F05CFCB2
:102AF0000146BD42059F384600D308460699FEF7B9
:102B000049F8FEF7F7F85E212D4A505204992183C7
:102B1000039961830299A183E6832084658A2A4808
:102B2000068D701BFEF748F9284901F03DFC01466F
:102B3000AE42384600D308460699FEF72BF8FEF75A
:102B4000D9F8054660201E490D52A68A1E48078EF8
:102B5000B81BFEF731F91D4901F026FC0146B742CA
:102B6000059E304600D308460699FEF713F8FEF797
:102B7000C1F86221124A50526584A084E08A124949
:102B8000098F8142354603D3081AFEF715F9054629
:102B90000E49284601F008FC0699FDF7FBFFFEF7F9
:102BA000A9F86421064A5052E084666007B0F0BD7F
:102BB000022216E7AC0220205C0220200F0D030049
:102BC000D000202001000100E801202000247449E9
:102BD00034470000B0B584B001AC002060712071B2
:102BE000E070A07093206070352020703E2003229A
:102BF000214600F0D9FA0225284601F007FA03A978
:102C0000052048706078019A8018A2788018C04327
:102C1000087060202A4600F0C7FA284601F0F6F94D
:102C200004B0B0BD10B582B001A90870000A4870A8
:102C30003E200224224600F0B7FA204601F0E6F9D1
:102C400002B010BD811E091F00BFFCD270470000FA
:102C500070B50B01C31854689568254394892C43BB
:102C6000156956692543D48924012C433501254330
:102C7000092464021D51137852781A43BF231A4065
:102C800089004018024944589C43A218425070BD24
:102C90001011000080B502231343034A83508218A9
:102CA000D16101F035FB80BD0411000070B5112326
:102CB0001B02C41801256560FF261036666221627A
:102CC00011682163C55070BDF0B583B002920E4605
:102CD0000190354C20680527276007252840334B95
:102CE00019682060226827602A4018682260304BEB
:102CF0000096B60A89048A0F314609D02D4908404A
:102D0000511C01F009FA01463046FDF7D3FA284B71
:102D10000198C018019022682760244803682A405F
:102D200022602268276003682A4022600122930201
:102D3000029898420CD05302984210D10098C30BCD
:102D40000FD1B240019801689143016003B0F0BD1A
:102D50001F210E40B2400198016C9143016403B001
:102D6000F0BDFF2911D8236827602B400F4D2D6837
:102D70002360AB049B0F00D12039C9088A40019819
:102D800041689143416003B0F0BD1302FF339942A3
:102D9000E5D2FF23DB43C918C9088A40019881683E
:102DA0009143816003B0F0BD001340401800C4415E
:102DB000D0110000FF0F000010B5002A0FD09123A2
:102DC0005B01C3180020DC692405240F05D00C5CCE
:102DD0001C60401C8242F6D1104680B210BD00201B
:102DE00080B210BD0F4A83580121C9030B438350A1
:102DF000801842681207FCD102688A43026070475B
:102E0000084A835880210B43835080180F221202F6
:102E1000436813400122D2029342F7D102688A43E9
:102E2000026070473812000070B50A780C231A400F
:102E30000124240305196E689E43B2186A6049781C
:102E400007221140035993435918015170BD0000E6
:102E5000B0B5FF2204320E490B68934382780324F5
:102E600014400278120212191A430A60094A0A4BE6
:102E700013600A4C25686D05FCD54078002803D006
:102E80000868102404430C60581C1060B0BDC04694
:102E900014010B4014030B400100009104020B408D
:102EA000B0B54A68364BC250364A80180A78222A92
:102EB00058D8930001A4E3589F46C0465B2F0000FA
:102EC000652F00005B2F0000652F0000652F0000BC
:102ED000652F0000652F0000652F0000652F0000A2
:102EE000652F0000652F0000652F0000652F000092
:102EF000652F0000652F0000652F0000492F00009E
:102F0000652F0000492F0000652F0000652F00008D
:102F1000652F0000652F0000652F0000652F000061
:102F2000652F0000652F0000652F0000652F000051
:102F3000652F0000652F0000652F0000492F00005D
:102F4000652F0000492F000003231B0704689C43E2
:102F500001235B07E318036004E003231B070468F5
:102F60009C4304600B69C360CB68074C1C40C36A78
:102F7000064D1D402B19C362097A11430160B0BD93
:102F80000818000004180000777702008888FDFF09
:102F900010B50122120383180C789C604B78835083
:102FA0008978014A815010BD0C11000010B5002A2B
:102FB0000CD0074BC31800201C68240605D40C5CF9
:102FC0009C61401C8242F7D1104610BD002010BD0C
:102FD00008110000B0B51122120283580124A34346
:102FE00083500B888C781C438B882343094C1C40EE
:102FF0008358094D1D40631983508B79CC791C434C
:10300000097A21437E231940801842689A43511857
:103010004160B0BD18670000E798FDFF10B50122C0
:10302000120383180C789C604978815010BD000011
:1030300010B55C480078401E414241416E200C4C66
:103040002152FEF7CFFCFEF793FDFEF77BFD09480A
:103050000088A08208480078E08208480078208331
:1030600007480078608307480078A08310BDC046F9
:10307000D0002020C00020206C0320206D032020E1
:103080006E032020CA00202070470000044800681A
:10309000C0B2082802D14348012101707047C046E0
:1030A00020300F40F0B583B0144602AF3870019164
:1030B00008461146FDF7F9F8634839462246FFF7FE
:1030C0007BFE624F3868800608D43868800605D4D5
:1030D0003868800602D438688006F3D53E46083E3C
:1030E00030685B490840103030603A1F1068594919
:1030F00008402B494018154610603868400612D524
:10310000386840060FD5386840060CD53868400648
:10311000F3D408E03868800608D43868800605D4FF
:103120003868800602D438688006F3D54648FFF731
:1031300067FE306846490840112101433160286824
:103140004449084021040143072008432860002C1B
:1031500001991ED00025134A0BE0282C3446019912
:10316000104A18D200201070786848556D1CA5428E
:103170000FD0786A0007F5D126460020044650207B
:1031800000F052FF786A0007E7D1601C282CF5D3C5
:10319000E3E703B0F0BD0120107003B0F0BDC046FE
:1031A00007000100CB002020B0B582B014460022F9
:1031B00000926B4618700192002C04D06846401CA7
:1031C0002246FDF715F8651C1F4C694620462A4625
:1031D000FFF7F2FD1D480168890608D401688906D9
:1031E00005D40168890602D401688906F3D5014631
:1031F00008390A68164B134010330B60011F0A6828
:10320000144B13402A049A18D21D0A60016849061B
:1032100012D5016849060FD5016849060CD5016829
:103220004906F3D408E00168890608D401688906D4
:1032300005D40168890602D401688906F3D52046C1
:10324000FFF7DEFD02B0B0BD00200F4018320F4086
:1032500000F8FFFFF8FF00F0F0B581B00446A54B81
:10326000012A1CDB9A4239D98800A3490D58A84885
:103270001018FDF7A1FDA44901F096F8A349FDF748
:1032800089FCFDF737FD298809182180698809180C
:103290006180A9880918A180E9880D18F9E05042D9
:1032A00080B298423AD98900934A555898494018B3
:1032B000FDF782FD944901F077F89449FDF76AFC27
:1032C000FDF718FD298D091A2180698D091A618081
:1032D000A98D091AA180E98D0D1ADAE090B2430890
:1032E0009C2B3AD8880084490D589D204000801AB4
:1032F000FDF762FD844901F057F88449FDF74AFC67
:10330000FDF7F8FC298A091A2180698A091A618067
:10331000A98A091AA180E98A0D1ABAE0420889002F
:103320009C2A4ED8744A55589D214900081AFDF729
:1033300043FD754901F038F87449FDF72BFCFDF7A2
:10334000D9FC298B09182180698B09186180A98B08
:103350000918A180E98B0D189BE08900664B5D5828
:1033600066498A4260D96749461828882F89B84239
:1033700007D0C01B00B270439D21890000F0EEFE13
:103380003F18278068886F89B84207D0C01B00B2F9
:1033900070439D21890000F0E1FE3F186780A888F6
:1033A000AF89B84207D0C01B00B270439D2189008D
:1033B00000F0D4FE3F18A780E888ED89A84260D1CC
:1033C00067E04D4A55584D49884265D94D494618E0
:1033D000288D2F8CB84207D0C01B00B270439D21AE
:1033E000890000F0BBFE3F182780688D6F8CB842C3
:1033F00007D0C01B00B270439D21890000F0AEFED3
:103400003F186780A88DAF8CB84207D0C01B00B2B0
:1034100070439D21890000F0A1FE3F18A780E88D30
:10342000ED8CA8422DD134E03549461828892F8AE1
:10343000B84207D0C01B00B270439D21890000F044
:103440008DFE3F18278068896F8AB84207D0C01B5D
:1034500000B270439D21890000F080FE3F18678014
:10346000A889AF8AB84207D0C01B00B270439D2123
:10347000890000F073FE3F18A780E889ED8AA84212
:1034800007D0401B00B270439D21890000F066FE0A
:103490002D18E58001B0F0BD19494618288C2F8BF6
:1034A000B84207D0C01B00B270439D21890000F0D4
:1034B00055FE3F182780688C6F8BB84207D0C01B21
:1034C00000B270439D21890000F048FE3F186780DC
:1034D000A88CAF8BB84207D0C01B00B270439D21AF
:1034E000890000F03BFE3F18A780E88CED8BA842D6
:1034F000C7D1CEE72206000034002020AE03000032
:10350000C6FEFFFF52FCFFFF000040400000C84223
:10351000DEF9FFFFF0B585B000292FD0054602A8DF
:10352000C01C00900191288804AE00213180009ACF
:1035300091705170117002AFB970010A79703870D2
:103540003E2003223946FFF72FFE0224204600F0DA
:103550005DFD05207070787802994018B9784018A0
:10356000C0433070602031462246FFF71DFE2046E2
:1035700000F04CFD0199AD1C491ED3D105B0F0BD42
:10358000B0B584B02821405C01AC0021617121718B
:10359000E170A07093206070352020703E200322DF
:1035A0002146FFF701FE0225284600F02FFD03A962
:1035B000052048706078019A8018A2788018C0436E
:1035C000087060202A46FFF7EFFD284600F01EFD38
:1035D00004B0B0BDB0B5254C2078072827D1E079DC
:1035E0000A2824D1A078E178000240183A283BD874
:1035F0006278002A1FD06278012A18D12279637973
:103600001202D2184300B248C252194A0023137062
:103610003E221140382924D17221415A7022825A07
:103620001204511809688185090C418519E0104878
:1036300001210170B0BD0F48C170002585701122B5
:103640004270072202700A22C27185714900A04AA5
:10365000515A4171090A0171082100F033FC0448F4
:103660000570002020606060B0BDC0467001202061
:10367000E40120207901202095487B218181704739
:10368000F0B583B08D498E4A53888B4200D2FEE05C
:10369000463112888A4200D9F9E08A4C21780429FF
:1036A00016D0022906D0012900D0F0E06080022067
:1036B0002080EFE06188411A0AB2D2135140891A82
:1036C00009B2322900DAE4E06080A1800420DDE064
:1036D0006188401A01B2C9134840401A00B202285A
:1036E00000DDD2E06078401C6070C0B20A2800D0D3
:1036F000CDE0E08874490988081A01B2C91348402E
:10370000461A0420205E0190FDF756FB054630B2B4
:10371000FDF752FB6D4F394600F046FE2946FDF796
:1037200039FAFDF7E7FA0646462069490E52208924
:1037300065490989081A01B2C9134840401A00B204
:10374000FDF73AFB394600F02FFE2946FDF722FA35
:10375000FDF7D0FA074648205D490F5260895A4963
:10376000098A081A01B2C9134840401A00B2FDF78D
:1037700023FB564900F018FE02952946FDF70AFA88
:10378000FDF7B8FA4A21524A15465052E68227837D
:1037900060830198312801DC01202070A0894A490A
:1037A000098B081A01B2C9134840401A00B2FDF74C
:1037B00003FB464F394600F0F7FD029E3146FDF708
:1037C000E9F9FDF797FA01904C216852E0893E4DE6
:1037D000298C081A01B2C9134840401A00B2FDF7FB
:1037E000EBFA394600F0E0FD3146FDF7D3F9FDF77D
:1037F00081FA07464E2036490F52208A298D081A31
:1038000001B2C9134840401A00B2FDF7D5FA2F495A
:1038100000F0CAFD3146FDF7BDF9FDF76BFA05462C
:1038200050202B490D52608A2749098E081A01B28F
:10383000C9134840401A00B2FDF7BEFA234900F010
:10384000B3FD3146FDF7A6F9FDF754FA5221204A9F
:1038500050520199A183E78325846084A08A1A4984
:10386000098F081A01B2C9134840401A00B2FDF787
:10387000A3FA164900F098FD3146FDF78BF9FDF7E4
:1038800039FA5421124A5052A0840120207003B00A
:10389000F0BD60800C480188E18001892181018AA6
:1038A0006181018BA181018CE181018D2182018ED9
:1038B0006182008FA08203B0F0BDC046160D0000EB
:1038C0004402202084022020E801202000401C46E1
:1038D000D000202080B503480021034AFFF7B8F943
:1038E00080BDC04600A04240F446000080B5FFF70E
:1038F000F1FF80BD0F4801461C3900220A600146D5
:1039000018390A600C494160016001214A06436888
:103910001343436003681343036082228261074AB2
:10392000C261074881220260880506490860086371
:103930007047C0463C80424084000C008200040076
:10394000C8804240A0320A4080B512481249FFF7B1
:103950006BFA03204102114802680A430260012108
:103960000A02036813430360002242611F2242627D
:10397000826B0A4306239A43826307221202836BF7
:1039800093438363826A042313438362826A0A43F4
:10399000826280BD00200F400C47000000320F40C3
:1039A0000120800206490A68024208D10A680242E0
:1039B00005D10A68024202D10A680242F3D0704778
:1039C00004020B40B0B50E48002101600320C04343
:1039D0000C4C214608390A6802400A60206801251B
:1039E000A843206028022168814321600648FFF730
:1039F0002FFA2803211F0A6802430A60B0BDC0469F
:103A000008030B4008010B400E47000010B50B4C9B
:103A10000B492046FFF7BCFA0A492046FFF740FA57
:103A200009480168012211430160FF200004074991
:103A30000B6883430B600648026010BD000086409F
:103A400011470000144700002810864010E400E0F1
:103A500008118640B0B5214C21492046FFF7DEFA17
:103A600020492046FFF7B6FA0320C1031E4802682A
:103A70008A43026001691D4A0A40113202614169AC
:103A800017220A4328218A434261426801210A40E1
:103A900043688B439A184260CA03154B1C68144351
:103AA0001C60FF221206134C256895438A07AA184A
:103AB00022608A021A634A04036813430360C268DF
:103AC00070231343C360C268022313430522934348
:103AD000C36002680A430260B0BDC0460080104067
:103AE000284700002A470000009110400000FFFF17
:103AF000289010400CE400E080B500F015F8FFF7C6
:103B0000F9FEFFF75FFFFFF781FFFFF71DFFFFF7EC
:103B1000A1FFFFF7EBFEFFF743FFB82001490022AA
:103B20000A5480BDB0022020B0B50A480A4941605D
:103B30000A4A51600A4B59600A4C61600A4D69603B
:103B40000A49016011601960216029601020FFF7A7
:103B500079F8B0BD00080A40030000B100280A400F
:103B60000008864000280F40008810400100002611
:103B7000F0B58DB00746C0008D4A101845887D20ED
:103B8000800085420AD85C48002902D44218643A71
:103B900001E00A46633292B282420BD20120B84061
:103BA00057490A8982430A810A21384600F0AAF857
:103BB0000DB0F0BD059100200B900A90099008907F
:103BC000079006904D4C2188A94203D90491019792
:103BD000012623E00021042003E0C2B2CBB29342CD
:103BE0000DD8C2B2CBB29B1801265A08B343E35A90
:103BF000AB4200D9501EAB42EFD8511CEDE7042A6E
:103C000007D10AA80421059C2246FFF725FB22467E
:103C100063E001975100615A0491561C0296C1B2AB
:103C200008A80090059F3A46FFF716FBF1B206AED2
:103C300030463A46FFF710FB0499681A0390029841
:103C40004000255A681A0290009804880AD03088EB
:103C5000A04207D0001B00B203994843029900F02C
:103C60007DFA2418019F049E0AA8048006A808A9CA
:103C70004C88AE420AD04088A04207D0001B00B258
:103C800003994843029900F069FA24180AA844806D
:103C900006A808A98C88AE420AD08088A04207D026
:103CA000001B00B203994843029900F057FA241808
:103CB0000AA8848006A808A9CC88AE420AD0C08889
:103CC000A04207D0001B00B203994843029900F0BC
:103CD00045FA24180AA8C480059A0AA93846FEF7AE
:103CE0009FFA01460A2800D15FE70120B840044A44
:103CF00013890343138158E707F900008046000049
:103D000028022020F0B581B007460846FDF75CF890
:103D1000054625480068FDF74FF80146284600F0A3
:103D200043FB2249FCF736FFFCF7E4FFF900204A89
:103D300054186268211D012803DB151A07D20025DB
:103D400005E01C4B1D692B189A421AD2151A0D60FA
:103D500018480669002E18D02846FDF735F800945B
:103D60003C4607463046FDF72FF8014638462746C1
:103D7000009CFCF70FFF114900F016FBFCF7BAFF9F
:103D800004E00D602E46002EE6D10B48B9000C4A27
:103D900055500C49C95D4900164A50526088790057
:103DA000094A505201B0F0BDAC0220200000204171
:103DB000E801202044022020D204000000401C46DC
:103DC000A401202068450000C401202080B50848D7
:103DD0000068C0B201280AD10648018D064A914206
:103DE00001D0491C00E001210185FDF7E5FA80BD05
:103DF00020108640D0002020FFFF0000F0B585B0E5
:103E0000002930D0054602A8C01C009001912888E6
:103E100004AE00213180009A91705170117002AF90
:103E20000721B970010A797038703E2003223946A3
:103E3000FFF7BAF90224204600F0E8F80520707078
:103E4000787802994018B9784018C04330706020E3
:103E500031462246FFF7A8F9204600F0D7F801992D
:103E6000AD1C491ED2D105B0F0BD000080B504489C
:103E70000068C0B2102801D1FFF7ACFB80BDC0467E
:103E80002090104010B59C4B002018605860984856
:103E9000016802229143016009490C4624344460C0
:103EA00083600823C36001235B040C689C430C609F
:103EB00004681443046008681843086010BDC046D5
:103EC00000911040F0B581B000291AD00C4605468B
:103ED00000260D4F03E08019C6B2A64211D2A919DF
:103EE000A21B0A48FFF762F83968C907F3D039689E
:103EF000C907F0D03968C907EDD03968C907F3D1CF
:103F0000E9E7012001B0F0BD0891104000801040A9
:103F1000F0B587B0002203910029134616464FD012
:103F2000032403990C40042905D200263546334664
:103F3000002C2CD144E001940292FC2303991940F7
:103F4000039100252B4647197E78143E74100122F8
:103F500019461346A340445D143C64101646A6401F
:103F60008C19E318BC78143C64101646A6409B19C3
:103F7000FC78143C6410A2409B182D1D0399A942A3
:103F8000E1D199B20E0A029A019C002C18D0415D31
:103F900014394E1001210F46B740DB19012C0DD00A
:103FA00040194578143D6D100E46AE409B19022C09
:103FB00004D080781438401081405B1898B2060A0B
:103FC00004AC62712271E670A370932060700422C9
:103FD00022703E202146FFF7E7F80225284600F030
:103FE00015F806A9062048706078049A8018A2780F
:103FF0008018E2788018C043087060202A46FFF7D6
:10400000D3F8284600F002F807B0F0BDB0B500289C
:1040100009D0044600257D200002FEF713FE6D1C2A
:10402000E8B2A042F7D3B0BDB0B5002808D004462E
:1040300000252020FEF706FE6D1CE8B2A042F8D352
:10404000B0BD0000FFF758FD29482A4941602A49C0
:1040500081600821C160016802220A4302600124D4
:10406000A00426490860E003086060060860032099
:1040700045036702224E304629463A46FEF724FEA3
:10408000402230462946FEF705FE304629463A468C
:10409000FEF71AFE1B4A30462946FEF707FE1A486D
:1040A000FDF706FA2046FFF7B1FF2220FEF7BAFD22
:1040B0002046FFF7ABFF9A20FEF7B4FDFFF7DCFACE
:1040C000FEF7E2FF1148016821430160FDF790F817
:1040D0000F4D104EA0052860FDF7CAFDFDF7C2F890
:1040E000FEF7A6FF30780028F4D0FFF7CBFEF1E70B
:1040F00000B24240249110407001202000E100E015
:1041000000D00C40480020203447000004188640AE
:10411000B0320A40E401202043088B421AD3002227
:1041200003098B4279D3030A8B425ED3030B8B4284
:1041300042D3030C8B4227D30902FF2212BA030C8D
:104140008B4202D31212090203D0030B8B4233D3EA
:104150001AE0D3E0411A8041401C704703460B43EC
:1041600071D443088B42F5D3002203098B4254D308
:10417000030A8B4239D3030B8B421DD3030C8B42B2
:1041800002D394466EE0090AC30B8B4201D3CB03E2
:10419000C01A5241830B8B4201D38B03C01A524188
:1041A000430B8B4201D34B03C01A5241030B8B428A
:1041B00001D30B03C01A5241C30A8B4201D3CB0275
:1041C000C01A5241830A8B4201D38B02C01A52415A
:1041D000430A8B4201D34B02C01A5241030A8B425D
:1041E00001D30B02C01A5241CDD2C3098B4201D375
:1041F000CB01C01A524183098B4201D38B01C01AF3
:10420000524143098B4201D34B01C01A5241030969
:104210008B4201D30B01C01A5241C3088B4201D318
:10422000CB00C01A524183088B4201D38B00C01AC5
:10423000524143088B4201D34B00C01A5241411AEC
:10424000524110007047CA0F00D04942031000D3FA
:104250004042534000229C4603098B422DD3030A5F
:104260008B4212D38901FC2212BA030A8B420CD36F
:10427000890192118B4208D3890192118B4204D398
:10428000890137D0921100E08909C3098B4201D31B
:10429000CB01C01A524183098B4201D38B01C01A52
:1042A000524143098B4201D34B01C01A52410309C9
:1042B0008B4201D30B01C01A5241C3088B4201D378
:1042C000CB00C01A524183088B4201D38B00C01A25
:1042D0005241D9D243088B4201D34B00C01A5241FC
:1042E000411A00D201465241104663465B1000D38A
:1042F0004042704763465B1000D3404201B5002145
:10430000004201D0C9430846C046C04602BD000075
:1043100003B40148019001BD0100202070B50125C2
:10432000ED0704004C4020D4441A01D2001B0919A7
:10433000C60D4B00F2B2FF2A29D01B0E2CD0000272
:104340000C0228432C43D31ADC40051910D2280A4A
:1043500002D3401C6D0611D0761EF6058019FF2A87
:1043600000DA70BDC00DC00570BD694000F07AF87C
:1043700001200543C541521C761CE8E764089C40B7
:10438000C90161408900E7D10124A043E4E71B0E85
:10439000440200D0034870BD002AFCD1C00FC00702
:1043A00070BD00BF0000C07F70B5420064414B008B
:1043B0005C41120E39D01B0E38D0FF2A3CD0FF2BA7
:1043C0003AD0D2187F3A40024902400A490A4518B9
:1043D000ED0106004E43000A090A48430104731A1E
:1043E0004019190C4318990F04D05B0801214907A3
:1043F0005B1A521CD80904D3401CF50301D19D0659
:1044000007D0FF2A08D2D50506D0E407204340197B
:1044100070BD0125A843F4E7002A01DCE00770BD68
:104420002402FF202043C00570BD1B0EFF2A03D0CD
:10443000FF2B01D0E00770BDFF2636064500B542D0
:1044400006D84D00B54203D8D218FF2A00D0E7E7BE
:10445000004870BD0000C07F70B50125ED07040065
:104460004C4022D4441A02D26C40001B0919C60DDC
:104470004B00F2B2FF2A4BD01B0E50D000020C02B0
:10448000A8432C43D31ADC40051B05D5AD0019D336
:104490006D08761E521E37D0F605280A01D2801903
:1044A00070BD70416D0603D070BD6940FFF73CFFE1
:1044B0009C4009026140490001D0401E70BD0124AA
:1044C000A04370BD6D081DD001202B0C01D12D041F
:1044D00010302B0E01D12D0208302B0F01D12D01F0
:1044E000001DAB0F01D1AD00801CEB0F01D16D00A1
:1044F000401C361A121A6D00680AF5054019012A87
:1045000002DB70BD002070BDC036300AC00770BD30
:104510001B0E440201D1FF2B00D1024870BD002ABE
:10452000F0D070BD0000C07F81828384858687883B
:10453000898B8C8D8E8F919293959697999A9C9D4D
:104540009FA0A2A3A5A7A8AAACAEB0B2B3B5B7B9B5
:10455000BCBEC0C2C5C7C9CCCED1D4D7D9DCDFE27E
:10456000E6E9ECF0F3F7FAFE18191A1B1C1D1E1FE2
:1045700008000500030001000F001E003200C80003
:10458000C80032001E000F000100030005000800F3
:104590003E0D6F0D770DD50D170D4A0D610DCB0D2D
:1045A000D70C190D3D0DA70DB40B5B0CA80CCA0C54
:1045B000470B1A0C740C8B0C410B020C560C5E0C46
:1045C000D70C2B0D540DA60DD20C130D400D8B0DD9
:1045D000AE0CF10C210D5B0D230C860CCC0CEB0CFE
:1045E000E80B5E0CA70CC10CCB0B450C8D0CA40C7E
:1045F000BE0C180D480D8B0DBA0C030D350D700D4A
:10460000990CE80C1B0D470D340C910CD80C020DC5
:104610000D0C730CB70CD70CF20B5B0CA00CBC0C84
:104620009D0C060D3D0D740D9A0CF40C290D580DC2
:10463000810CDE0C130D360D370C960CE20C120DAE
:10464000230C800CC70CF10C100C6B0CB10CD30CB0
:10465000910CFD0C370D610D8F0CEC0C240D490DE8
:10466000790CDA0C100D2E0D390C980CE70C1C0D82
:104670002A0C850CCF0C000D1A0C730CBB0CE90C2A
:1046800000009600FA005E01C201F401D007701725
:10469000E425F401D0076419AC260A000A000A00D8
:1046A0000A000A000A000A000A000A0A0A0A0A0A9C
:1046B0000F0A0A0A0A0A0A0F140A0500050A0F144B
:1046C000191E282D32373C4146555F64220B290CB8
:1046D000920CA20CBD0CCF0CDC0CE60CE70CE80C29
:1046E000EA0CEC0C040D0A0D0C0D160D480D05001E
:1046F0000005000011000000000000200000000084
:10470000000000000000000000000300080000009E
:104710000302070002000000FF0700000000000085
:104720000000000000000000080000001800000069
:10473000003000001416181A1C1E3032FC92FA9237
:10474000FF920093FD92FE92FB92019302936A6E98
:1047500074760F0F101011111212314B13F13C46E9
:104760000604B80B2814B80B28141E00B80B800CD4
:10477000420E000000000000A847000000002020BA
:104780003400000020010000DC470000340020203D
:104790002C000000200100000848000060002020DC
:1047A000180700004801000081B011210902012210
:1047B000425009494018016807220A4000920099B6
:1047C000C9B2032903D00099C9B20129F3D10098D5
:1047D000C0B201B07047C046D01300009045000041
:1047E000C0450000F0450000204600005046000093
:1047F0000117022511000000CC460000BB46000056
:08480000AA46000000000000C0
:04000005000000C136
:00000001FF
