:020000040000FA
:10000000A0072020C5010000C9010000CB010000AD
:1000100000000000000000000000000000000000E0
:10002000000000000000000000000000CD01000002
:100030000000000000000000CF010000D10100001E
:10004000D3010000D3010000D3010000D301000060
:10005000D3010000D3010000D3010000D301000050
:1000600000000000D3010000D301000000000000E8
:1000700000000000D3010000D3010000094000008F
:10008000D3010000D3010000693F0000D30100004C
:10009000D3010000D30100000000000000000000B8
:1000A000D3010000653200000000000000000000E5
:1000B000D301000000000000D3010000D3010000C4
:1000C00000F002F800F052F812A030C808382418E6
:1000D0002D18AC4201D100F049F80FCCA246AB4636
:1000E0000CA730CF2D1B083F3F197C427F1E544484
:1000F0002D090426F441641EAC4201D300F036F809
:100100000126334200D0FB1A3343984754465D46DC
:10011000DFE700001449000044490000000000002F
:10012000103A02D378C878C1FAD8520701D330C840
:1001300030C101D504680C60704700000000000069
:100140007047000000000000002300240025002666
:10015000103A01D378C1FBD8520700D330C100D583
:100160000B6070471FB51FBD10B510BD00F0F9FD45
:100170001146FFF7F7FF04F0A7F800F011FE03B4F3
:10018000FFF7F2FF03BC00F017FE000070B5054654
:100190000C46164602E00FCC0FC5103E102EFAD2C8
:1001A000082E02D303CC03C5083E042E07D301CC8E
:1001B00001C5361F03E021782970641C6D1C761E72
:1001C000F9D270BD06480047FEE7FEE7FEE7FEE70E
:1001D000FEE7FEE703480449024A044B704700006B
:1001E000C1000000A0032020A0072020A0032020A1
:1001F000F8B5042A2CD3830712D00B78491C03705E
:10020000401C521E83070BD00B78491C0370401C06
:10021000521E830704D00B78491C0370401C521EE9
:100220008B079B0F05D0C91ADF002023DE1B08C9EE
:100230000AE0FFF7ABFFF8BD1D4608C9FD401C46AC
:10024000B4402C4310C0121F042AF5D2F308C91A77
:10025000521EF0D40B78491C0370401C521EEAD485
:100260000B78491C0370401C012AE4D40978017002
:10027000F8BD01E004C0091F0429FBD28B0701D59A
:100280000280801CC90700D00270704700290BD083
:10029000C30702D00270401C491E022904D3830701
:1002A00002D50280801C891EE3E70022EEE70022CF
:1002B000DFE70000002203098B4273D3030A8B425D
:1002C00058D3030B8B423CD3030C8B4221D312E057
:1002D00003460B437FD4002243088B4274D30309A7
:1002E0008B425FD3030A8B4244D3030B8B4228D348
:1002F000030C8B420DD30902FF2212BA030C8B426E
:1003000002D31212090265D0030B8B4219D300E00D
:10031000090AC30B8B4201D3CB03C01A5241830B92
:100320008B4201D38B03C01A5241430B8B4201D342
:100330004B03C01A5241030B8B4201D30B03C01A6B
:100340005241C30A8B4201D3CB02C01A5241830AE5
:100350008B4201D38B02C01A5241430A8B4201D314
:100360004B02C01A5241030A8B4201D30B02C01A3E
:100370005241CDD2C3098B4201D3CB01C01A5241A5
:1003800083098B4201D38B01C01A524143098B422E
:1003900001D34B01C01A524103098B4201D30B0117
:1003A000C01A5241C3088B4201D3CB00C01A52413C
:1003B00083088B4201D38B00C01A524143088B4201
:1003C00001D34B00C01A5241411A00D2014652419A
:1003D000104670475DE0CA0F00D04942031000D3B9
:1003E000404253409C46002203098B422DD3030A0E
:1003F0008B4212D38901FC2212BA030A8B420CD31E
:10040000890192118B4208D3890192118B4204D346
:1004100089013AD0921100E08909C3098B4201D3C6
:10042000CB01C01A524183098B4201D38B01C01A00
:10043000524143098B4201D34B01C01A5241030977
:100440008B4201D30B01C01A5241C3088B4201D326
:10045000CB00C01A524183088B4201D38B00C01AD3
:100460005241D9D243088B4201D34B00C01A5241AA
:10047000411A00D201465241104663465B1001D337
:100480004042002B00D54942704763465B1000D3C1
:10049000404201B50449002802DC491C084000E044
:1004A0000846C046C04602BDFFFFFF7F7047704749
:1004B000704700000246C80FC00781434B0030B5AB
:1004C0004B405B009B0D20D01923DB06C91801238C
:1004D0001B05994220DB0324A40704251346AB40E7
:1004E0000BD3002B04D1EB0613409B00E34204D452
:1004F00001246407002312195941FF231B05994267
:100500000BD2C9000143500F09E0CB0204D50143CF
:100510000803024305D0054830BDFF21C905084343
:1005200030BD084607210905884330BD0000C07F63
:10053000F0B50C46871A9C410D46861A9D4103D2A0
:10054000C01BA141D21963410D0D1F0DC94EEC1BFB
:10055000AE435CD07F057F0D0026002F51D02D05C6
:10056000AC46A943DD020123ED0A1B051D432023F0
:100570001B1B24D41746E740381871412F46E7402B
:10058000CC199D402818314661410C0D27D161449A
:100590009A4013D50023401C594152000ED1400807
:1005A000400001224B005205D34207D305204007EB
:1005B000C14201D5B04900E0B0493046F0BD6B0002
:1005C000002A00D001229A181F23203C1B1B01D5B2
:1005D000002302E0E540281871410C0DD7D001241A
:1005E00024050919C407CD0740084908E40F28432A
:1005F0006144002CD5D00024401C61419A40D0D1E8
:10060000CDE76A05520DD9D1C90FC907D5E79C4D71
:100610004E00002801D0012400E0002434195F00BE
:10062000002A01D0012600E00026BE19954FAC42F9
:100630000CD8AE420AD8B44206D001256D05EC4272
:10064000BCD010461946F0BD9942FCD00020394676
:10065000F0BDF0B51FB40C460F46811A9F412546E8
:10066000861A9D4106D20125ED076F40401ABC4114
:1006700052187B41210D1E0D8D1BAC467D4D8D43C7
:100680007ED075056D0D7CD00D05AE46AC431B03C9
:100690001B0B794D52429D41202366469B1B14D370
:1006A0001746F740381800260090744160462F46E0
:1006B0000741E41900989D402818664116D47146F8
:1006C00071189A4025D5012320E093182A466A41E3
:1006D0005200002B00D0521C1E23203E9B1B002BDF
:1006E00061DD3541EE1728186641E8D500187641DE
:1006F0005B1C9A4000D3401C4B05F3181524E340C3
:1007000010D3002B52D071467118D30FC01802D3EA
:10071000491C05B0F0BD0123DB079A42F9D140081E
:100720004000F6E701225205B21801D1002853D04B
:100730000123CC0ADB029943891E002A08D1020C4E
:1007400003D0020C0004103902E0024600202039D8
:100750000023550B05D112020823550B01D152017C
:100760000D23550C01D112011B1DD50C01D1920096
:100770009B1C150D01D152005B1C2025EE1A01E0D7
:100780002CE022E00546F54015439840CA1AE107DF
:1007900069181305C918002ABBDA03204007081896
:1007A000C10FC9070FE071466118B2E7F1074008B1
:1007B0000843711071444A000CD001235B059A4232
:1007C000A7D2C90FC9070020A3E74905490D26D1C3
:1007D000002001E00028F4D100219AE7284D6600AE
:1007E000002801D0012100E0002171185F00002ADB
:1007F00001D0012600E00026BE19224FA94210D8E0
:10080000AE420ED8B14208D001256D05E94206D0AE
:100810001946A802414010467BE79C4201D0214680
:1008200077E70020394674E710B50C465C4005D5E3
:100830000124E4076340FFF70CFF10BDFFF778FECB
:1008400010BD30B40C465C4004D50124E40763407D
:1008500030BC6DE630BCFCE670B50124E4076140B5
:100860000D465D4002D4FFF763FE70BD6340FFF7A5
:10087000F0FE70BDFF0700000000F0FF0000F07FF9
:100880000000E0FF0000F87F1F22030C02D10F22BE
:10089000000402D0030E03D004E00020014670479C
:1008A0000002083A030F01D10001121F830F01D18A
:1008B0008000921E002801DB4000521E12055118D4
:1008C0004205C012411810467047C10FC90700D039
:1008D0004042012292071143D6E701218907D3E75D
:1008E000F0B58B4C0F09254689B0BD437BD01D095F
:1008F0002646AE43FAD00E465E402740F60F3E43F2
:10090000254071D024012142FBD0FF24AD19A4045D
:100910002D1B039501252D05DB02DB0AC9022B43A4
:10092000C90A29431E010901040F130F05012143C0
:100930001701880B820391432D098C46A90B1E4396
:100940008A039543B30B9A0396433F09BA0B94036A
:10095000A74302962E467E430497B6464E19D719F2
:100960000C460196544305977E43371B7646BF1BC2
:100970003601B646BE0B361900967646BC043719CA
:10098000009C01D3641C00946400002F01D0012658
:100990003443029E049F754366467E430496760068
:1009A00034196E0034190094029C019E1C19664390
:1009B000751BAE46069465464519059C05956C4326
:1009C000594375460891691A0191049E01465143A5
:1009D000A41B0491611A009C0791E10605D06109EE
:1009E0000122114302E072E06EE06109089D0027D8
:1009F0002C0A2D066918049D7C412A0A2D066918C7
:100A0000019D6241AC0DAD026D185441079A910DE4
:100A1000920255196141029A644658435443069B19
:100A2000059A5A43121A131B9A0E9B015B187A41BE
:100A3000010B0005C3185141220A200644195A41EE
:100A40009A4200D2491C01204002814203D315235F
:100A50000226F64302E014230326F6432020C51A9B
:100A6000A9401746AF40DA400A4320460399D840D0
:100A70000914731819055118039A3843D2075140C5
:100A8000AC4009D00122944006D30022401C5141C1
:100A9000002C01D1400840001E4A934212D301228B
:100AA00003989206904207DB0520400709181A4870
:100AB0000143C012414004E0032040070818C10F61
:100AC000C907002009B0F0BD0020F107FAE70518BA
:100AD0000C464C4111486D42A04115D394181A465A
:100AE0005A410E48644290410ED301204A0040050D
:100AF000824209D35A00824206D35940C90F084A9C
:100B0000C90700201143DDE700200649DAE70000AD
:100B10000000FF07FE070000FFFFFF7F0000E0FF6F
:100B20000000F07F0000F87FF0B5FF252D04C60916
:100B3000C209FF2704462E400137CB093E434840F7
:100B40002A402B400746002A6BD0002B69D0AA42CE
:100B500067D0AB4265D0002800DA32460125ED05AA
:100B600029432C4309022002090AD21A4B0C7F2484
:100B7000E31A434C000A7C44E35C7D2424041219EC
:100B800014145B00A218884201D3521C00E04000FC
:100B900049420C465C4324115C43DB016415E318B5
:100BA000040A5C43C502200D0C4644436419250A1F
:100BB0005D432303EC0C0D46654300030019EB185D
:100BC0004C42A34201D35B18401CD4052018002BD3
:100BD00007D05B00C91804D3401C002901D140088C
:100BE00040003F2189048A4209D3002A08DC11060B
:100BF000090F04D0032149074018C00FC007F0BDFA
:100C000001224100120689187F2252069142F6D233
:100C100005214907C84201D59010F0BDFF20C0054D
:100C2000F0BD002F00DA32461648AA4207D2AB4286
:100C300005D21902090E17D0F80FC007F0BDFF2525
:100C400063002D06AB42F9D84900A942F6D8AB4261
:100C500001D1A942F2D0A94201D1002101E06100F5
:100C60004908D0050843F0BD1102090EFBD0FF2052
:100C70000243D005F0BD0A460146104654E7000085
:100C8000323C00000000C07F10B501469E240002E7
:100C9000CA15A307002A02D01843002A04DBA21AAF
:100CA000002A0CDDD04010BD1206120E01D140000A
:100CB0004008A21A03D4D04040420028F3DDFF22AE
:100CC00048001206904201D9002010BDC817C04349
:100CD000584010BD0102C21504D00123DB0719439F
:100CE000002A0ADB9E239A1A02D40846D040704795
:100CF000FF2241001206914201D900207047C0171F
:100D0000C04370471F22030C02D10F2200041CD0E5
:100D1000030E01D10002083A030F01D10001121F96
:100D2000830F01D18000921E002801DB4000521E7B
:100D3000D2055118021251181922904004D3491CAF
:100D4000002801D14908490008467047C10FC9076A
:100D500000D04042012292071143D3E701218907C5
:100D6000D0E7754600F024F8AE46050069465346C4
:100D7000C008C000854618B020B5FFF72BFA60BC4C
:100D8000B64600260027C0C5C0C5C0C5C0C5C0C581
:100D9000C0C5C0C5C0C5403D490849008D46704723
:100DA00010B50446C046C0462046FFF7E8F910BD1E
:100DB000004870477000202001491820ABBEFEE7B4
:100DC0002600020070470000F0B58CB0F649088894
:100DD0007B4B188048881881888818827948827FE0
:100DE00052008A5E06925A80C27F52008A5E059245
:100DF0005A811E30827852008A5E04925A82EB4AEF
:100E0000528803925A690092DA680892E84A166991
:100E10005A68CC881C83C47864000C5F02945C839D
:100E20000C891C84047964000C5F01945C844C89F7
:100E30001C85447964000C5F0B945C858C891C864E
:100E4000847964000C5F0A945C86DC6A07945C6AAF
:100E5000DD69CF891F87D64FC0794000085E0990B1
:100E600058874220085A38804420085A7880964291
:100E700000D316460898864200D30646009FBE421D
:100E800000D33E46AE42079878D2A64279D2864237
:100E900000D30646596B8E4200D30E46DB6B9E4252
:100EA00000D31E46EA48C6600898824200D802462F
:100EB000BA42019E079868D9AA4269D9A24200D8CD
:100EC00022468242029D00D802468A42049C00D8F3
:100ED0000A469A4200D81A46DD488260069A059B67
:100EE0009A42104658DDA04259DDA8425ADDB04270
:100EF00000DC30460B99884200DC0B980A99884246
:100F000000DC0A980999884200DC09982E49884239
:100F100000DC0846EA4988809A42104646DAA04238
:100F200047DAA84248DAB04200DB30460B998842E3
:100F300000DB0B980A99884200DB0A9809998842DD
:100F400000DB09987D210901884200DB0846DC4965
:100F5000C88003988018C0180019401980190B998F
:100F600040180A9940180999401801B2490F4018D1
:100F700000B2C008E94948800CB0F0BD2E46A64238
:100F800085D32646864284D284E73A46AA4295D83B
:100F90002A46A24294D994E71846A042A5DC2046EE
:100FA000A842A4DC2846B042A3DDA3E71846A0422D
:100FB000B7DB2046A842B6DB2846B042B5DAB5E733
:100FC000F8012020E449000030F8FFFFF0B581B0BF
:100FD0002620D0490C5E0420C64330466043BD49FC
:100FE0000860002C01D4012000E00220611D89B2BC
:100FF0000B2900D20020B5490870204602F02EFCD3
:1010000001F068F8C54FF868002813D039698842A4
:1010100021D1B969322903DB3A88102313433B807D
:101020000022BA610818F8603861A54802695118B1
:10103000016114E0B869322803DB398810220A43C1
:101040003A800021B9613969091839619C490A69F6
:101050001018086103E0388810218843388055480B
:101060000025056045608560C56005614561856155
:10107000C5612846214602F045FE0120214602F0C6
:1010800041FE0220214602F03DFE0320214602F0EF
:1010900039FE0420214602F035FE0520214602F0EB
:1010A00031FE0620214602F02DFE0720214602F0E7
:1010B00029FE01F043F87869FFF750FE04463869CD
:1010C000FFF74CFE01462046FFF72EFD3A4903F09C
:1010D000ADFAFFF7D9FDB988421A13B2DB135A40B3
:1010E000D21A12B20B2A09DB884201D90A3104E074
:1010F000092901D8284601E00A39084680B22F495B
:10110000884200D308466C21DF4A5052B88001F073
:1011100047FC70480468E01721464140081AE1493D
:101120000A6812180A604868DD4B9A4203D300220D
:10113000401C0A604860B11C414365480818FFF72D
:101140000DFE1F49FFF7F0FC1B4903F06FFAFFF794
:101150009BFD1C498842024600D80A461A4988422B
:10116000D34E01D8114600E032314020C64A115218
:10117000012C05DB6000B1680D1A07D2002505E0DF
:10118000CA4D6119B068884200D2051B0A20684325
:10119000C64903F003F90A304621BB4A5052706039
:1011A000B56001B0F0BDC046E0002020380220202C
:1011B00054022020B401202000401C4610270000CB
:1011C00000C00F49581B0000DE260000B0B5A9483A
:1011D00001880A0738D506220B46134034D04B0746
:1011E00015D5C4680369E41A184DAC4202D384696A
:1011F000E3180361C360A04C2361A74CE3636363FE
:10120000E3626362E3616361E360636043618B0790
:1012100016D500234361A04CE3636363E36263621A
:10122000E3616361E3606360C468C3600369641E73
:10123000084DAC4202D884691B190361EC4C236150
:101240000023836191430180B0BDC04600E72AFDC1
:1012500054022020FF18D50270B5E6480025164933
:10126000C160016141618561144A426009220280C6
:10127000DF488560C56001614561858005608648FD
:101280004021FFF714F80F4C26212046FFF70FF8F6
:10129000012626700C4C28212046FFF708F8D1487B
:1012A0002670056045608560D04809490560456045
:1012B00081600848056070BD80BE140710271027A4
:1012C00054022020A002202078022020C8022020E2
:1012D00000FC0800D40220206B484221415A7D22A4
:1012E0005201914215D84422805A02097D2A10D316
:1012F000094A914204D3BF490A88042313430B804F
:10130000401E0749884204D8BA48018802220A438D
:1013100002807047E0002020FC0D000038022020F1
:101320008B0A0000F0B585B0B2480088C00700D134
:101330009EE01920800201900069AD4900220492CC
:101340008A604E4941184E4C4E4AA14200D3024693
:10135000A748C260039202614B4CE08C01B2C913F2
:101360004840401A00B200903F20C743474D1E3509
:10137000474E09E004918160029842646D1CA41CF0
:101380000837361D002F26D04348C3192088402136
:101390005852297849003C4A515A422202939952A4
:1013A0000199C919896D3160009A042A394A06DC0D
:1013B00000F0DAFD39498842364A00D802460399DE
:1013C000914200D311468A480391C1600499914229
:1013D000D0D81146CEE701990868864C206189680B
:1013E0006161264940182649884201D2254820617A
:1013F00000F06AFF26480021016041608160C16001
:10140000016141618161C161019B986D244A9042F3
:1014100000D8014675480160196E4160224A8B1858
:101420005B1C934203D273214902019A03E0491CD9
:10143000019A01D100214160208801218843208048
:10144000906E1A4A0F2801D3154600E000250A21A4
:10145000CB430446153C9C4200D32A46614DAA600A
:1014600014220F2800D311469C4200D30A466A601A
:1014700005B0F0BD38022020540220207F647DF8A2
:101480001F9442FA40785F06E0002020E449000003
:1014900094012020A02FC501F8012020809B820705
:1014A000005125026C022020FE19FFFFC0C36C0012
:1014B000C802202080B5FFF735FFFFF785FCFFF756
:1014C00085FDFFF783FE00F001F880BD70B544484C
:1014D0000188491C01800188772916D119208402CE
:1014E00001204602404D28462146324601F0D8FCF4
:1014F00040222846214601F0B9FC083428462146FE
:10150000324601F0CDFC3F4A34E00188782914D3FB
:1015100001887F2911D806880088C0003649441800
:1015200001204202304D2846214601F0B9FCB000AE
:1015300032494018324942181CE0018880290AD1FA
:101540001920840201204202274D2846214601F03D
:10155000A7FC284A0DE00188812910D10120420210
:10156000192084021034204D2846214601F098FCB1
:101570001F4A10322846214601F084FC70BD0188C4
:1015800082290BD101204202192084025834164DC1
:101590002846214601F084FC144AEBE701888329A0
:1015A0000CD1012042021920840260340E4D2846DD
:1015B000214601F075FC0D48021DDBE701888429F6
:1015C00007D10848001D19218902683102F0ECFD9D
:1015D00070BD0188852901D30021018070BDC046FE
:1015E00098032020C802202000D00C406C0220204C
:1015F000540220203802202058600000B40120202E
:1016000020FEFFFFD4002020F0B58FB003900CA97E
:1016100000254D70122008703E26022430460B969D
:10162000224601F0ADFE204602F032FE3C2002F0E0
:101630002FFE0CA94D7090270F703046224601F006
:101640009FFE204602F024FE0820069002F020FEB5
:101650000CAE757135712D20F070B77092200A9024
:10166000707034203070042204920B98314601F0DF
:1016700087FE204602F00CFE0EA906200590487059
:1016800070780C9A8018B2788018F2788018C0436D
:10169000087060200890224601F072FE204602F099
:1016A000F7FD0CAF7D713D71FD7001200290B870A7
:1016B0000A98787037203870032209920B9E3046C2
:1016C000394601F05DFE204602F0E2FD0EA905203C
:1016D0000790487078780C9A8018BA788018C043C0
:1016E00008700898224601F04BFE204602F0D0FD1B
:1016F0000CAF7D713D71FD700D20B8700A98787047
:101700003620387030463946099A01F039FE2046B5
:1017100002F0BEFD0EA9079E4E7078780C9A8018D4
:10172000BA788018C04308700898224601F028FE55
:10173000204602F0ADFD039F38461030314601F0DF
:10174000D5FF38460830049902F026FC3846069941
:1017500002F0ACFC0CAF7D713D71FD70BC20B87027
:101760000A9E7E70612038700B983946099A01F004
:1017700007FE204602F08CFD0EA907984870787885
:101780000C9A8018BA788018C043087008982246CE
:1017900001F0F6FD204602F07BFD0CAF7D713D713E
:1017A000FD70F720B8707E70622038700B98394653
:1017B000099A01F0E5FD204602F06AFD0EA907989E
:1017C000487078780C9A8018BA788018C0430870EE
:1017D000089E3046224601F0D3FD204602F058FD17
:1017E0000CAF7D713D71F820F87082200190B870C7
:1017F0000A9878706D2038700B983946049A01F079
:10180000BFFD204602F044FD0EA905984870787887
:101810000C9A8018BA788018FA788018C04308703B
:101820003046224601F0ACFD204602F031FD039E19
:10183000304600F0CFFE2620305C0CAF7D713D714C
:10184000FD70B8700A987870752038700B9839461A
:10185000099A01F095FD204602F01AFD0EA907989D
:10186000487078780C9A8018BA788018C04308704D
:101870000898224601F084FD204602F009FD263634
:1018800070780CAF7D713D71FD70B8700A987870FA
:10189000782038700B983946099A01F071FD20467E
:1018A00002F0F6FC0EA9079E4E7078780C9A80180C
:1018B000BA788018C04308700898224601F060FD8D
:1018C000204602F0E5FC0CAF7D713D71FD700720F4
:1018D000B87093207870099A3A700B98394601F0E5
:1018E0004FFD204602F0D4FC0EA94E7078780C9A79
:1018F0008018BA788018C0430870089E3046224687
:1019000001F03EFD204602F0C3FC0CAF4020787190
:10191000F22038711A20F870D220B87091207870B7
:10192000A82038700B983946059A01F029FD204609
:1019300002F0AEFC0EA90698487078780C9A8018D0
:10194000BA788018FA7880180D9A80187A798018F9
:10195000C04308703046224601F012FD204602F0D6
:1019600097FC0CAF7D713D71FD70079EBE700A98AB
:101970007870802038700B983946099A01F000FD84
:10198000204602F085FC0EA94E7078780C9A8018DB
:10199000BA788018C04308700898224601F0F0FC1D
:1019A000204602F075FC0CAF7D713D71FD700A2080
:1019B000B8700A987870019838700B983946099A6F
:1019C00001F0DEFC204602F063FC0EA94E70787830
:1019D0000C9A8018BA788018C0430870089E304668
:1019E000224601F0CDFC204602F052FC0CAF0095DF
:1019F0007D713D71FD70079DBD700A9878708620DD
:101A000038700B983946099A01F0BAFC204602F06A
:101A10003FFC0EA94D7078780C9A8018BA7880181F
:101A2000C04308703046224601F0AAFC204602F06E
:101A30002FFC0CAF009D7D713D71FD70099ABA704D
:101A40000A987870872038700B9E3046394601F02E
:101A500097FC204602F01CFC0EA907984870787885
:101A60000C9A8018BA788018C043087008982246EB
:101A700001F086FC204602F00BFC0CAF7D713D713D
:101A8000FD700298B8700A987870952038703046CA
:101A90003946099A01F074FC204602F0F9FB0EA9C0
:101AA0000798487078780C9A8018BA788018C043E4
:101AB00008700898224601F063FC204602F0E8FB1B
:101AC000069F384602F0E4FB0CA94D700A98087096
:101AD0003046224601F054FC204602F0D9FB38463D
:101AE00002F0D6FB0CA94D70222008703046224629
:101AF00001F046FC204602F0CBFB384602F0C8FB62
:101B00000CA94D70962008703046224601F038FC32
:101B1000204602F0BDFB384602F0BAFB0CA94D701E
:101B20009A2008703046224601F02AFC204602F036
:101B3000AFFB384602F0ACFB0FB0F0BDB0B5622091
:101B4000A04C022521462A4601F098FB284602F0C7
:101B50009FFB284602F09CFB607821780002401829
:101B600001490880B0BDC046D0002020F0B581B04A
:101B70006A20944C022521462A4601F07FFB284624
:101B800002F086FB284602F083FB60782178000291
:101B90004018FEF79AFE314F314B3A46FEF7A0FE51
:101BA000304A314BFEF740FEFEF784FCEA4E3060CF
:101BB000702021462A4601F061FB284602F068FBAE
:101BC000284602F065FB6078217800024018FEF795
:101BD0007CFE3A46224BFEF783FE224A224BFEF75A
:101BE00023FEFEF767FC7060742021462A4601F050
:101BF00045FB284602F04CFB284602F049FB607882
:101C0000217800024018FEF760FE3A46144BFEF7BA
:101C100067FE144A144BFEF707FEFEF74BFCB0605C
:101C2000762021462A4601F029FB284602F030FBA7
:101C3000284602F02DFB6078217800024018FEF75C
:101C400044FE3A46064BFEF74BFE064A064BFEF7AD
:101C5000EBFDFEF72FFCF06001B0F0BD9A99999969
:101C60009999B93F66666666661271C0B0B53A204A
:101C7000544C022521462A4601F000FB284602F07A
:101C800007FB284602F004FB607821780002401828
:101C900001490880B0BDC046DE002020B0B57F20DD
:101CA000484C022521462A4601F0E8FA284602F06F
:101CB000EFFA284602F0ECFA6078207801490870C3
:101CC000B0BDC046DA002020F0B581B003203D4C05
:101CD000022521462A4601F0D1FA284602F0D8FA18
:101CE000284602F0D5FA60782078204E30702078AF
:101CF0004007C00F1E49087020780007C00F1D491B
:101D0000087060780007C00F1B4908706078800772
:101D1000C00F1A490870052021462A4601F0AEFA84
:101D2000284602F0B5FA284602F0B2FA6078207828
:101D3000134F3870072021462A4601F09FFA2846A3
:101D400002F0A6FA284602F0A3FA607820780D493E
:101D500008703178081839784018012801D8002017
:101D600000E001200849087001B0F0BD9403202074
:101D7000F5012020DD00202088012020DC0020202B
:101D800095032020960320205601202070B504469C
:101D90000C4D02262946324601F070FA304602F018
:101DA00077FA304602F074FA687829780002401811
:101DB000143CE1B21F2903D30A21414388B270BD0C
:101DC00080B270BD77012020F0B581B0614801F08C
:101DD000F5F83020FFF7DAFF4425D74E705342273D
:101DE000F053B08114242046FFF7D0FFF15B81420D
:101DF00000D80146F153715B814200D30146715313
:101E000030801620FFF7C2FFF15B814200D8014607
:101E1000F153715B814200D30146715370801820E9
:101E2000FFF7B4FFF15B814200D80146F153715BCB
:101E3000814200D301467153B0801A20FFF7A6FFFC
:101E4000F15B814200D80146F153715B814200D3BE
:101E500001467153F0801C20FFF798FFF15B81422F
:101E600000D80146F153715B814200D301467153A2
:101E700030811E20FFF78AFFF15B814200D80146C6
:101E8000F153715B814200D301467153708132205E
:101E9000FFF77CFFF15B814200D80146F153715B93
:101EA000814200D301467153F0813420FFF76EFF69
:101EB00030823820FFF76AFF7082FFF757FE264F07
:101EC0003868264D294602F0B1FBFEF7DDFEF083AF
:101ED0007868294602F0AAFBFEF7D6FE3084B8687F
:101EE000294602F0A3FBFEF7CFFE7084F86829466E
:101EF00002F09CFBFEF7C8FEB084FFF7B7FE00F0CF
:101F00002FFD66217052411E8841154D29781022FF
:101F1000914301437420305CC007C00E081828703C
:101F2000C1B2C2070AD11222114002290DD10D48B7
:101F300001F012FC29780120084306E0214204D078
:101F400000F034FF287801218843F92101402970ED
:101F500001B0F0BD00200F40E4012020000020412E
:101F600078022020E4490000F0B585B005460391D1
:101F70000846FEF7F3FE0746CB480069FEF7EEFE83
:101F8000014638460091FEF7CFFD4F4902F04EFB67
:101F9000FEF77AFE02900920C0434D494968143982
:101FA000814206D249490A460C320C4608340B1DC0
:101FB00007E0464B194610311A461C321C461834AD
:101FC0001433206804901068019009781C682288F6
:101FD000AA4226D84B1E002703E0DEB2F8B2B04278
:101FE0000DD8DAB2FEB2B218012056088243A25AC6
:101FF000AA4200D9731EAA42EFD8771CEDE7002E43
:102000000FD048002018801E0088A8420AD0700017
:10201000205A281A731C5A00A25A521B904201DD02
:1020200001E0002633460498C75C0298381A02B2D1
:10203000D2135040801A00B2019A925D90420398E8
:102040003FDB481EB04229DD701C0390049F385CC2
:10205000FEF784FE0290B85DFEF780FE0146049014
:10206000029802F03BFB07467000265A0398400096
:10207000205A801BFEF76AFE01463846FEF754FDE3
:102080000746A81BFEF762FE0146384602F0CEFA6C
:10209000049902F085FAFEF7F7FD0746F817874323
:1020A000CC490098FEF740FD0446642F00D3642716
:1020B0003846FEF753FE0146204602F0B7FAFEF717
:1020C00009FE05B0F0BDC0460000C8424C0020200B
:1020D000C8022020B0B5C049CA6875480368012B02
:1020E00007DB9A4209D8981A8A698018886100200B
:1020F00009E00869C418A24201D2D01A03E0121BF9
:102100008B69D2188A61C8600C69002C0FD0FEF769
:1021100025FE05462046FEF721FE01462846FEF72D
:1021200003FDAE4902F082FAFEF7AEFD00E064481E
:102130005C49C885B0BDC046E0002020F0B581B044
:10214000A54B18896821574F7852002827D0A04CFA
:10215000A068FEF703FE064620690090FEF7FEFD2C
:10216000054630462946FEF7DFFC9C4E314602F01C
:102170005DFAFEF789FD0746E068FEF7EFFD2946A8
:10218000FEF7D2FC314602F051FAFEF77DFD391A16
:102190008EB2464CA64206D1002006463DE0444899
:1021A0000568002054E0FEF7D9FD05463046FEF7ED
:1021B000D5FD0146284602F039FA0746A01BFEF776
:1021C000C5FD01463846FEF7AFFC294602F0E8F9A6
:1021D000FEF75AFD0646804C6069FEF7BFFD0546D6
:1021E0002069FEF7BBFD01462846FEF79DFCF0493D
:1021F00002F01CFAFEF748FDB0420ED92C490D68DA
:10220000012D284F0EDB841B2849009802F0C6F8E8
:1022100060432949884217DA17E0224F24490D68A4
:10222000012D08DB2846FEF791FD224902F0FEF958
:10223000FEF72AFD09E0841B1C49009802F0AEF865
:1022400060431E49884200DC0846634B0021198127
:1022500059692818012D03DB0C1A06D2002404E06A
:102260001C690219914200D20C1A5C611D69002D93
:1022700010D02046FEF772FD06462846FEF76EFD9A
:1022800001463046FEF750FCC94902F0CFF9FEF78F
:10229000FBFC00E00A486A2178520A48046001B059
:1022A000F0BDC046E000202054022020102700008E
:1022B000D4022020333373BFC04B030040B4FCFF73
:1022C000D2040000D4002020F0B583B0B74EB0682F
:1022D000FEF744FD05463069FEF740FD04462846FA
:1022E0002146FEF721FC3B4D294602F09FF9FEF7FF
:1022F000CBFC0290F068FEF731FD2146FEF714FC9E
:10230000294602F093F9FEF7BFFC0746324D6C698F
:102310002046FEF723FD06462869FEF71FFD054609
:1023200030462946FEF700FC06462A4902F07EF9AF
:10233000FEF7AAFC0299884207D8B84205D326487E
:10234000C46004469A4930463BE00195C81B85B2FB
:10235000642D04D10020204CE060606135E03846F7
:10236000FEF7FCFC04462846FEF7F8FC0146204632
:1023700002F05CF906466420401BFEF7E7FC0146CC
:102380003046FEF7D1FB214602F00AF9FEF77CFC4D
:1023900004461049019E3046FEF7C6FB054620461E
:1023A000FEF7DCFC0146284602F040F9FEF792FCFD
:1023B000094CE0606061FEF7D1FC3146FEF7B4FBEA
:1023C0007B4902F033F9FEF75FFCA08003B0F0BD5B
:1023D000540220200000C8423802202000401C4641
:1023E000F0B583B014460E46054601F0EDFE002818
:1023F00002D0012003B0F0BD01940295E9006A48C3
:10240000415A32888A4221D90022029BDB00C0183F
:102410000224035F4B20850005200095AB42074650
:1024200029DDD4B26500755B281A884209DA78196B
:10243000884206D9D1B20298019A00F079F803B027
:10244000F0BD0A20032C20D103B0F0BD00230322ED
:1024500003E0D4B2DDB2A542D7D8D4B2DDB22D1993
:1024600001276C08BD43775B8F4200D9621E8F4203
:10247000EFD8631CEDE7C92B16DB29480527019C23
:1024800084423846CDDC0320CBE70525009A9342F1
:102490002F4613DD621C5300F35A5C1B8C42D3DAC7
:1024A000FB188B42C6D8CFE7652B11DB1F480527E9
:1024B000019D85423846B4DC2046B2E7C92B16DBC5
:1024C000174A0527019B93423D46E3DC0325E1E7DC
:1024D0001348019C2018401C84B20320114DAC42CB
:1024E00007469ED8D0B2104C205C074699E7652B72
:1024F00007DB0E4A0527019B93423D46CADC0225B5
:10250000C8E7074A019B9A18521C92B20325054B53
:102510009A422F46BED8044A155D2F46BAE7C046F8
:1025200051FCFFFFA4F800009E490000C5FEFFFF1C
:1025300070B515460C46C0001B4908184068FEF7E8
:102540000DFC064619480069FEF708FC01463046B6
:10255000FEF7EAFA164902F069F8FEF795FB620009
:10256000012D09DB1749895E174B9A5A801A00B270
:1025700088420BDD154812E00E49895E0E4B9A5ACF
:10258000801A00B2884206DD0C4808E049428842C1
:1025900008DA0F4803E04942884203DA084861003C
:1025A000405A70BD0A2070BDF8012020540220203E
:1025B00000401C462649000016490000044800005F
:1025C0000C4800001E4900000E490000F4470000BE
:1025D000FC470000F0B58DB02821415C0546039012
:1025E0000AAF00267E713E71FE70B970932008908C
:1025F0007870352038703E200990032206923946C3
:1026000000F0BEFE0224204601F042FE0CA9052087
:102610000790487078780A9A8018BA788018C04372
:10262000087060200490224600F0AAFE204601F0C7
:102630002FFE28462830059040780AAD6E712E7125
:10264000EE70A870089F6F70362028700998294690
:10265000069A00F095FE204601F01AFE0CA9079894
:10266000487068780A9A8018AA788018C043087061
:102670000498224600F084FE204601F009FE0598E9
:1026800080780AAD6E712E71EE70A8706F70372071
:10269000287009982946069F3A4600F071FE2046A8
:1026A00001F0F6FD0CA90798487068780A9A80181E
:1026B000AA788018C04308700498224600F060FE93
:1026C000204601F0E5FD0598C0780AAD6E712E71C7
:1026D000EE70A8700898687038202870099829460C
:1026E0003A4600F04DFE204601F0D2FD0CA9079FAE
:1026F0004F7068780A9A8018AA788018C0430870CA
:102700000498224600F03CFE204601F0C1FD0598E9
:1027100000790AAD6E712E71EE70A870089868701D
:102720003920287009982946069A00F029FE20468B
:1027300001F0AEFD0CA94F7068780A9A8018AA784B
:102740008018C0430870049F3846224600F018FEE7
:10275000204601F09DFD059840790AAD6E712E71FD
:10276000EE70A870089868703A2028700998294679
:10277000069A00F005FE204601F08AFD0CA9079894
:10278000487068780A9A8018AA788018C043087040
:102790003846224600F0F4FD204601F079FD03980A
:1027A000C08D0AAD6E712E71010AE970A87008988B
:1027B00068703B202870042202920998294600F094
:1027C000DFFD204601F064FD0CA906200190487051
:1027D00068780A9A8018AA788018EA788018C04326
:1027E00008703846224600F0CBFD204601F050FD2F
:1027F000059F387A0AAD6E712E71EE70A870089838
:1028000068703D20287009982946069A00F0B8FDA6
:10281000204601F03DFD0CA90798487068780A9A97
:102820008018AA788018C04308700498224600F0E7
:10283000A7FD204601F02CFD787A0AAD6E712E714D
:10284000EE70A870089F6F70099828702946069A44
:1028500000F096FD204601F01BFD0CA9079848707A
:1028600068780A9A8018AA788018C043087004987B
:10287000224600F085FD204601F00AFD0398408EB7
:102880000AAD6E712E71010AE970A8706F703F2059
:10289000287009982946029A00F072FD204601F03E
:1028A000F7FC0CA90198487068780A9A8018AA78F1
:1028B0008018EA788018C0430870049F3846224682
:1028C00000F05EFD204601F0E3FC0598007B0AADB8
:1028D0006E712E71EE70A870089868704120287093
:1028E00009982946069A00F04BFD204601F0D0FCDD
:1028F0000CA90798487068780A9A8018AA788018F6
:10290000C04308703846224600F03AFD204601F0E8
:10291000BFFC0598407B0AAD6E712E71EE70A870F9
:10292000089868704220287009982946069A00F095
:1029300027FD204601F0ACFC0CA907984870687888
:102940000A9A8018AA788018C04308703846224630
:1029500000F016FD204601F09BFC0DB0F0BD00001C
:1029600010B582B0832001903E2001A902242246A6
:1029700000F006FD204601F08BFC4020064C202292
:10298000214600F07BFC2078617809020818034991
:10299000088080B202B010BD57012020D80020204E
:1029A000F0B587B0F948006801461831302906D8DB
:1029B000F7480178002900D1D6E007B0F0BDF44C0B
:1029C0006178002900D1D3E0491C61706268151854
:1029D0006560C8B20A28F0D100266670E81729465B
:1029E0004140081A01463239EA4A914200D3E7E0F1
:1029F0000596FEF7B3F90690E94806882789012D68
:102A000000DAFEE0B81BFEF7A1F9E64901F00EFE80
:102A10000025BE42294600D8014608460699FEF721
:102A200083F8FEF731F95622DB4903908852DC48DF
:102A300006896789B81BFEF789F9DA4901F0F6FDC6
:102A40000146B742284600D308460699FEF76CF8BF
:102A5000FEF71AF95822D04902908852D048068AC7
:102A6000A789B81BFEF772F9CE4901F0DFFD0146D8
:102A7000B742284600D308460699FEF755F8FEF7F8
:102A800003F95A22C44901908852C548068BE78948
:102A9000B81BFEF75BF9C34901F0C8FD0146B74218
:102AA0000495284600D308460699FEF73DF8FEF740
:102AB000EBF806465C20B8490E52B948078C258AC7
:102AC000E81BFEF743F9B74901F0B0FD0146BD42EE
:102AD000049800D308460699FEF726F8FEF7D4F8C6
:102AE0005E21AD4A50520399218302996183019975
:102AF000A183E6832084AA48058D668A701BFEF7B1
:102B000025F9A84901F092FD0146AE42049800D390
:102B100008460699FEF708F8FEF7B6F80646602064
:102B20009D490E529E48058EA78A781BFEF70EF926
:102B30009C4901F07BFD0146AF42049D284600D32D
:102B400008460699FDF7F0FFFEF79EF86221924ACB
:102B500050526684A084E08A9149098F8142059E83
:102B600000D901E1401AFCE00221017007B0F0BD7C
:102B70008B490A8822810A8962810A8AA2810A8B8A
:102B8000E2810A8C22820A8D62820A8EA282098FD9
:102B9000E1823621844A515C64234B437E49CD8DCA
:102BA000AB4201D9217805E04223CB5A2178528FDC
:102BB00093421BD2CA071DD004221143217019E091
:102BC0005621754A01205052582150525A215052D4
:102BD0005C2150525E21505260215052622150526D
:102BE0006E49A161E1612162A084C6E01122114217
:102BF00000D1C9E00121617061680818606007B008
:102C0000F0BDF01BFEF7A2F8664901F00FFD01468A
:102C1000BE42059F384600D308460699FDF784FF5B
:102C2000FEF732F856225C490490885265895C4868
:102C30000689701BFEF78AF85A4901F0F7FC014635
:102C4000AE42384600D308460699FDF76DFFFEF701
:102C50001BF85822504903908852A5895048068A8B
:102C6000701BFEF773F84F4901F0E0FC0146AE42DD
:102C7000384600D308460699FDF756FFFEF704F8DC
:102C80005A22454902908852E6894548078BB81B6D
:102C9000FEF75CF8434901F0C9FC0146B7420598CC
:102CA00000D308460699FDF73FFFFDF7EDFF064606
:102CB0005C2039490E52278A3948058CE81BFEF7FB
:102CC00045F8384901F0B2FC0146BD42059F38463F
:102CD00000D308460699FDF727FFFDF7D5FF5E21D3
:102CE0002D4A505204992183039961830299A1834B
:102CF000E6832084658A2A48068D701BFEF726F835
:102D0000284901F093FC0146AE42384600D30846FC
:102D10000699FDF709FFFDF7B7FF054660201E493C
:102D20000D52A68A1E48078EB81BFEF70FF81D49E4
:102D300001F07CFC0146B742059E304600D30846B0
:102D40000699FDF7F1FEFDF79FFF6221124A5052EE
:102D50006584A084E08A1249098F8142354603D3F5
:102D6000081AFDF7F3FF05460E49284601F05EFC00
:102D70000699FDF7D9FEFDF787FF6421064A5052F8
:102D8000E084666007B0F0BD022216E7D40220207E
:102D9000780220200F0D0300E00020200100010038
:102DA000F801202000247449E4490000B0B584B043
:102DB00001AC002060712071E070A0709320607001
:102DC000352020703E200322214600F0D9FA02254A
:102DD000284601F05DFA03A9052048706078019A41
:102DE0008018A2788018C043087060202A4600F03E
:102DF000C7FA284601F04CFA04B0B0BD10B582B055
:102E000001A90870000A48703E200224224600F002
:102E1000B7FA204601F03CFA02B010BD811E091F2E
:102E200000BFFCD27047000070B50B01C318546896
:102E30009568254394892C43156956692543D4899F
:102E400024012C4335012543092464021D511378C4
:102E500052781A43BF231A40890040180249445847
:102E60009C43A218425070BD1011000080B502238F
:102E70001343034A83508218D16101F08BFB80BD5C
:102E80000411000070B511231B02C41801256560F0
:102E9000FF2610366662216211682163C55070BD3D
:102EA000F0B583B002920E460190354C206805279C
:102EB000276007252840334B196820602268276067
:102EC0002A4018682260304B0096B60A89048A0F9F
:102ED000314609D02D490840511C01F05FFA0146E6
:102EE0003046FDF7E7F9284B0198C0180190226899
:102EF0002760244803682A4022602268276003680C
:102F00002A40226001229302029898420CD0530278
:102F1000984210D10098C30B0FD1B24001980168BC
:102F20009143016003B0F0BD1F210E40B2400198F3
:102F3000016C9143016403B0F0BDFF2911D82368EF
:102F400027602B400F4D2D682360AB049B0F00D1F1
:102F50002039C9088A40019841689143416003B013
:102F6000F0BD1302FF339942E5D2FF23DB43C918BA
:102F7000C9088A40019881689143816003B0F0BD1F
:102F8000001340401800C441D0110000FF0F0000A2
:102F900010B5002A0FD091235B01C3180020DC6913
:102FA0002405240F05D00C5C1C60401C8242F6D125
:102FB000104680B210BD002080B210BD0F4A835869
:102FC0000121C9030B438350801842681207FCD1CA
:102FD00002688A4302607047084A835880210B4385
:102FE000835080180F221202436813400122D2023C
:102FF0009342F7D102688A4302607047381200009A
:1030000070B50A780C231A400124240305196E6850
:103010009E43B2186A6049780722114003599343CE
:103020005918015170BD0000B0B5FF2204320E499D
:103030000B68934382780324144002781202121919
:103040001A430A60094A0A4B13600A4C25686D0549
:10305000FCD54078002803D00868102404430C6095
:10306000581C1060B0BDC04614010B4014030B4047
:103070000100009104020B40B0B54A68364BC250C3
:10308000364A80180A78222A58D8930001A4E358B7
:103090009F46C046333100003D310000333100000F
:1030A0003D3100003D3100003D3100003D31000068
:1030B0003D3100003D3100003D3100003D31000058
:1030C0003D3100003D3100003D3100003D31000048
:1030D0003D310000213100003D3100002131000070
:1030E0003D3100003D3100003D3100003D31000028
:1030F0003D3100003D3100003D3100003D31000018
:103100003D3100003D3100003D3100003D31000007
:103110003D310000213100003D310000213100002F
:1031200003231B0704689C4301235B07E318036028
:1031300004E003231B0704689C4304600B69C3601D
:10314000CB68074C1C40C36A064D1D402B19C36257
:10315000097A11430160B0BD08180000041800008E
:10316000777702008888FDFF10B5012212038318CB
:103170000C789C604B7883508978014A815010BD4F
:103180000C11000010B5002A0CD0074BC31800200A
:103190001C68240605D40C5C9C61401C8242F7D15B
:1031A000104610BD002010BD08110000B0B511225E
:1031B000120283580124A34383500B888C781C434C
:1031C0008B882343094C1C408358094D1D406319CB
:1031D00083508B79CC791C43097A21437E23194093
:1031E000801842689A4351184160B0BD18670000CA
:1031F000E798FDFF10B50122120383180C789C603C
:103200004978815010BD000010B55C480078401E20
:10321000414241416E200C4C2152FEF78FFCFEF7DB
:1032200053FDFEF73BFD09480088A082084800785E
:10323000E0820848007820830748007860830748C8
:103240000078A08310BDC046E0002020D0002020E0
:10325000940320209503202096032020DA002020CC
:103260007047000004480068C0B2082802D14348F3
:10327000012101707047C04620300F40F0B583B087
:10328000144602AF3870019108461146FDF70DF85B
:10329000634839462246FFF77BFE624F3868800656
:1032A00008D43868800605D43868800602D43868A7
:1032B0008006F3D53E46083E30685B490840103032
:1032C00030603A1F1068594908402B49401815468C
:1032D00010603868400612D5386840060FD5386847
:1032E00040060CD538684006F3D408E038688006FC
:1032F00008D43868800605D43868800602D4386857
:103300008006F3D54648FFF767FE30684649084017
:1033100011210143316028684449084021040143D8
:10332000072008432860002C01991ED00025134A6D
:103330000BE0282C34460199104A18D20020107056
:10334000786848556D1CA5420FD0786A0007F5D102
:10335000264600200446502000F0A8FF786A0007A7
:10336000E7D1601C282CF5D3E3E703B0F0BD0120C2
:10337000107003B0F0BDC04607000100DB00202044
:10338000B0B582B01446002200926B4618700192CC
:10339000002C04D06846401C2246FCF729FF651C1F
:1033A0001F4C694620462A46FFF7F2FD1D4801687A
:1033B000890608D40168890605D40168890602D403
:1033C00001688906F3D5014608390A68164B13408F
:1033D00010330B60011F0A68144B13402A049A181B
:1033E000D21D0A600168490612D5016849060FD549
:1033F000016849060CD501684906F3D408E0016864
:10340000890608D40168890605D40168890602D4B2
:1034100001688906F3D52046FFF7DEFD02B0B0BD96
:1034200000200F4018320F4000F8FFFFF8FF00F0B7
:10343000F0B581B00446A54B012A1CDB9A4239D96C
:103440008800A3490D58A8481018FDF77FFCA4492F
:1034500001F0ECF8A349FDF767FBFDF715FC29889F
:1034600009182180698809186180A9880918A18034
:10347000E9880D18F9E0504280B298423AD98900A3
:10348000934A555898494018FDF760FC944901F05B
:10349000CDF89449FDF748FBFDF7F6FB298D091A95
:1034A0002180698D091A6180A98D091AA180E98D91
:1034B0000D1ADAE090B243089C2B3AD88800844970
:1034C0000D589D204000801AFDF740FC844901F012
:1034D000ADF88449FDF728FBFDF7D6FB298A091AC8
:1034E0002180698A091A6180A98A091AA180E98A5A
:1034F0000D1ABAE0420889009C2A4ED8744A5558E1
:103500009D214900081AFDF721FC754901F08EF84C
:103510007449FDF709FBFDF7B7FB298B09182180DA
:10352000698B09186180A98B0918A180E98B0D1896
:103530009BE08900664B5D5866498A4260D96749BD
:10354000461828882F89B84207D0C01B00B27043A4
:103550009D21890000F044FF3F18278068886F890B
:10356000B84207D0C01B00B270439D21890000F013
:1035700037FF3F186780A888AF89B84207D0C01BC3
:1035800000B270439D21890000F02AFF3F18A780F8
:10359000E888ED89A84260D167E04D4A55584D4909
:1035A000884265D94D494618288D2F8CB84207D0DE
:1035B000C01B00B270439D21890000F011FF3F182D
:1035C0002780688D6F8CB84207D0C01B00B2704353
:1035D0009D21890000F004FF3F186780A88DAF8C03
:1035E000B84207D0C01B00B270439D21890000F093
:1035F000F7FE3F18A780E88DED8CA8422DD134E06E
:103600003549461828892F8AB84207D0C01B00B216
:1036100070439D21890000F0E3FE3F1827806889F0
:103620006F8AB84207D0C01B00B270439D21890049
:1036300000F0D6FE3F186780A889AF8AB84207D04D
:10364000C01B00B270439D21890000F0C9FE3F18E5
:10365000A780E889ED8AA84207D0401B00B27043DA
:103660009D21890000F0BCFE2D18E58001B0F0BD61
:1036700019494618288C2F8BB84207D0C01B00B2BE
:1036800070439D21890000F0ABFE3F182780688CB5
:103690006F8BB84207D0C01B00B270439D218900D8
:1036A00000F09EFE3F186780A88CAF8BB84207D011
:1036B000C01B00B270439D21890000F091FE3F18AD
:1036C000A780E88CED8BA842C7D1CEE72206000088
:1036D00034002020AE030000C6FEFFFF52FCFFFFB7
:1036E000000040400000C842DEF9FFFFF0B585B0A1
:1036F00000292FD0054602A8C01C009001912888FF
:1037000004AE00213180009A91705170117002AFA7
:10371000B970010A797038703E2003223946FFF7EC
:103720002FFE0224204600F0B3FD0520707078784B
:1037300002994018B9784018C04330706020314673
:103740002246FFF71DFE204600F0A2FD0199AD1CA8
:10375000491ED3D105B0F0BDB0B584B02821405C7E
:1037600001AC002161712171E170A0709320607043
:10377000352020703E2003222146FFF701FE02255E
:10378000284600F085FD03A9052048706078019A5D
:103790008018A2788018C043087060202A46FFF77E
:1037A000EFFD284600F074FD04B0B0BDB0B5254C67
:1037B0002078072827D1E0790A2824D1A078E17859
:1037C000000240183A283BD86278002A1FD062785D
:1037D000012A18D1227963791202D21843001E48B7
:1037E000C252194A002313703E221140382924D1B5
:1037F0007221415A7022825A120451180968818537
:10380000090C418519E0104801210170B0BD0F4835
:10381000C1700025857011224270072202700A22B1
:10382000C271857149000C4A515A4171090A0171EE
:10383000082100F015FC044805700020206060603D
:10384000B0BDC04680012020F40120208901202045
:1038500001487B2181817047E0002020F0B581B0D4
:103860007C497D4A53888B4200D2F1E04631128870
:103870008A4200D9ECE0794F3978042916D0022920
:1038800006D0012900D0E3E0788002203880CAE029
:103890007988411A0AB2D2135140891A09B23229E1
:1038A00000DABFE07880B9800420D0E07988401A3F
:1038B00001B2C9134840401A00B2022800DDC5E039
:1038C0007878401C7870C0B20A2800D0C0E0F88830
:1038D00063490988081A01B2C9134840461A0420EE
:1038E0003D5E2846FDF732FA044630B2FDF72EFA67
:1038F0005C4E314600F09AFE2146FDF715F9FDF7C2
:10390000C3F9F882388956490989081A01B2C913DE
:103910004840401A00B2FDF719FA314600F086FE21
:103920002146FDF701F9FDF7AFF93883312D01DCB0
:103930000120387078894A4E318A081A01B2C913B9
:103940004840401A00B2FDF701FA464D294600F002
:103950006DFE2146FDF7E8F8FDF796F97883B88902
:10396000318B081A01B2C9134840401A00B2FDF762
:10397000EDF9294600F05AFE2146FDF7D5F8FDF78E
:1039800083F9B883F889318C081A01B2C913484009
:10399000401A00B2FDF7DAF9294600F047FE214649
:1039A000FDF7C2F8FDF770F9F883388A318D081AEF
:1039B00001B2C9134840401A00B2FDF7C7F92946C1
:1039C00000F034FE2146FDF7AFF8FDF75DF93884CD
:1039D000788A318E081A01B2C9134840401A00B2E1
:1039E000FDF7B4F9294600F021FE2146FDF79CF8C9
:1039F000FDF74AF97884308FB98A01223A70401A6B
:103A000001B2C9134840401A00B2FDF79FF9294698
:103A100000F00CFE2146FDF787F8FDF735F9B88474
:103A200001B0F0BD78800E480188F98001893981A4
:103A3000018A7981018BB981018CF981018D3982EB
:103A4000018E7982008FB88201B0F0BD01203870FC
:103A500001B0F0BD160D000054022020A00220206D
:103A6000F801202000401C4680B503480021034A8D
:103A7000FFF7DAF980BDC04600A04240A44900002B
:103A800080B5FFF7F1FF80BD0F4801461C390022C9
:103A90000A60014618390A600C4941600160012141
:103AA0004A0643681343436003681343036082225A
:103AB0008261074AC261074881220260880506497F
:103AC000086008637047C0463C80424084000C0098
:103AD00082000400C8804240A0320A4080B51248EB
:103AE0001249FFF78DFA03204102114802680A4388
:103AF000026001210A02036813430360002242614D
:103B00001F224262826B0A4306239A438263072282
:103B10001202836B93438363826A04231343836299
:103B2000826A0A43826280BD00200F40BC490000C7
:103B300000320F400120800206490A68024208D183
:103B40000A68024205D10A68024202D10A680242AA
:103B5000F3D0704704020B40B0B50E48002101605D
:103B60000320C0430C4C214608390A6802400A6011
:103B700020680125A8432060280221688143216034
:103B80000648FFF751FA2803211F0A6802430A601A
:103B9000B0BDC04608030B4008010B40BE49000001
:103BA00010B50B4C0B492046FFF7DEFA0A492046B8
:103BB000FFF762FA09480168012211430160FF2002
:103BC000000407490B6883430B600648026010BD80
:103BD00000008640C1490000C4490000281086400A
:103BE00010E400E008118640B0B5214C2149204680
:103BF000FFF700FB20492046FFF7D8FA0320C10356
:103C00001E4802688A43026001691D4A0A40113257
:103C10000261416917220A4328218A4342614268AE
:103C200001210A4043688B439A184260CA03154B2E
:103C30001C6814431C60FF221206134C2568954330
:103C40008A07AA1822608A021A634A040368134387
:103C50000360C26870231343C360C2680223134326
:103C600005229343C36002680A430260B0BDC046A8
:103C700000801040D8490000DA490000009110404F
:103C80000000FFFF289010400CE400E080B500F039
:103C900015F8FFF7F9FEFFF75FFFFFF781FFFFF76A
:103CA0001DFFFFF7A1FFFFF7EBFEFFF743FFB82073
:103CB000014900220A5480BDD8022020B0B50A482C
:103CC0000A4941600A4A51600A4B59600A4C6160D6
:103CD0000A4D69600A49016011601960216029601C
:103CE0001020FFF79BF8B0BD00080A40030000B1A8
:103CF00000280A400008864000280F400088104035
:103D000001000026F0B58DB00746C000914A10189A
:103D100045887D20800085420AD85C48002902D46D
:103D20004218643A01E00A46633292B282420BD2F0
:103D30000120B84086490A8982430A810A2138460F
:103D400000F0A8F80DB0F0BD059100200B900A908E
:103D500009900890079006904D4C2188A94203D9FC
:103D600004910197012623E00021042003E0C2B260
:103D7000CBB293420DD8C2B2CBB29B1801265A08DF
:103D8000B343E35AAB4200D9501EAB42EFD8511CAB
:103D9000EDE7042A07D10AA80421059C2246FFF773
:103DA00047FB224663E001975100615A0491561C7B
:103DB0000296C1B208A80090059F3A46FFF738FB6B
:103DC000F1B206AE30463A46FFF732FB0499681A64
:103DD000039002984000255A681A029000980488BF
:103DE0000AD03088A04207D0001B00B20399484394
:103DF000029900F0F5FA2418019F049E0AA8048095
:103E000006A808A94C88AE420AD04088A04207D034
:103E1000001B00B203994843029900F0E1FA24180C
:103E20000AA8448006A808A98C88AE420AD08088D7
:103E3000A04207D0001B00B203994843029900F04A
:103E4000CFFA24180AA8848006A808A9CC88AE4214
:103E50000AD0C088A04207D0001B00B20399484393
:103E6000029900F0BDFA24180AA8C480059A0AA98C
:103E70003846FEF7B5FA01460A2800D15FE701206F
:103E8000B840334A13890343138158E707F9000008
:103E900004490000F0B581B004460846FCF75EFF17
:103EA0000646294805682846FCF750FF014630467B
:103EB00000F0BCFB2549FCF737FEFCF7E5FE0128C6
:103EC00008DBE100EA4A51184A68091D824210D80D
:103ED00000250FE01E490988C90600D54019E549AB
:103EE0000D694319E100E24A51184A68091D9A42D6
:103EF00000D2151A0D60DF4806691748002E11D050
:103F0000B5420FD82846FCF729FF07463046FCF794
:103F100025FF01463846FCF707FED74900F086FB2F
:103F2000FCF7B2FEA1000D4A55500D49095D49004C
:103F3000174A5052E000CE49081840886100094AEB
:103F4000505201B0F0BDC046D402202000002041F4
:103F500038022020F8012020D2040000B4012020E3
:103F6000EC470000D401202080B508480068C0B2AA
:103F700001280AD10648018D064A914201D0491C08
:103F800000E001210185FDF795FA80BD20108640F3
:103F9000E0002020FFFF0000F0B585B0002930D000
:103FA000054602A8C01C00900191288804AE00219B
:103FB0003180009A91705170117002AF0721B97071
:103FC000010A797038703E2003223946FFF7D8F98C
:103FD0000224204600F05CF9052070707878029980
:103FE0004018B9784018C0433070602031462246EE
:103FF000FFF7C6F9204600F04BF90199AD1C491EA8
:10400000D2D105B0F0BD000080B504480068C0B250
:10401000102801D1FFF7CAFB80BDC0462090104098
:1040200010B5D64B002018605860D24801680222B3
:104030009143016009490C4624344460836008239D
:10404000C36001235B040C689C430C600468144348
:10405000046008681843086010BDC0460091104015
:10406000F0B581B000291AD00C46054600260D4F48
:1040700003E08019C6B2A64211D2A919A21B0A48B0
:10408000FFF780F83968C907F3D03968C907F0D05D
:104090003968C907EDD03968C907F3D1E9E70120CC
:1040A00001B0F0BD0891104000801040F0B587B01D
:1040B000002203910029134616464FD0032403998A
:1040C0000C40042905D2002635463346002C2CD15D
:1040D00044E001940292FC230399194003910025C6
:1040E0002B4647197E78143E741001221946134658
:1040F000A340445D143C64101646A6408C19E31896
:10410000BC78143C64101646A6409B19FC78143CFD
:104110006410A2409B182D1D0399A942E1D199B2C8
:104120000E0A029A019C002C18D0415D14394E10E1
:1041300001210F46B740DB19012C0DD040194578FD
:10414000143D6D100E46AE409B19022C04D08078B1
:104150001438401081405B1898B2060A04AC6271B2
:104160002271E670A37093206070042222703E20BA
:104170002146FFF705F90225284600F089F806A92F
:10418000062048706078049A8018A2788018E27837
:104190008018C043087060202A46FFF7F1F82846CF
:1041A00000F076F807B0F0BD70B50C46054601206A
:1041B0004202744E3046FEF773FE304621462A46D0
:1041C000FEF760FE70BDC046F0B581B015460C46E6
:1041D000C7002748C0194068FCF7C0FD06462548BF
:1041E0000069FCF7BBFD01463046FCF79DFC224907
:1041F00000F01CFAFCF748FD01461D48C25B012097
:10420000012D05DBE3885B1F93421CDD00221BE0D0
:1042100023885D1D0123002495421A4600D22246C0
:10422000164D2D88164E368875198D4200D92346B5
:104230000029014600D019460029014600D1114647
:10424000012911D011E001220E4BDB880E4CE488CD
:10425000E31A8B42034600DA13460C4A91420146A8
:1042600000D81946002900D0002001B0F0BDC0469A
:10427000F80120205402202000401C46164900006E
:10428000264900001E4900000E4900000F270000CB
:10429000B0B5002809D0044600257D200002FEF7B5
:1042A000BDFD6D1CE8B2A042F7D3B0BDB0B500288B
:1042B00008D0044600252020FEF7B0FD6D1CE8B2B2
:1042C000A042F8D3B0BD0000FFF7E0FC29482A491E
:1042D00041602A4981600821C160016802220A43C5
:1042E00002600124A00426490860E003086060061B
:1042F0000860032045036702224E304629463A46AD
:10430000FEF7CEFD402230462946FEF7AFFD30468F
:1043100029463A46FEF7C4FD1B4A30462946FEF7B9
:10432000B1FD1A48FDF770F92046FFF7B1FF2220D2
:10433000FEF764FD2046FFF7ABFF9A20FEF75EFD17
:10434000FFF786FAFEF78CFF1148016821430160F0
:10435000FCF782FF0F4D104EA0052860FDF734FDDD
:10436000FCF7BAFFFEF750FF30780028F4D0FFF7D3
:1043700057FEF1E700B24240249110408001202016
:1043800000E100E000D00C4048002020E44900009B
:1043900004188640B0320A40F401202043088B42C2
:1043A0001AD3002203098B4279D3030A8B425ED3CE
:1043B000030B8B4242D3030C8B4227D30902FF220B
:1043C00012BA030C8B4202D31212090203D0030B60
:1043D0008B4233D31AE0D3E0411A8041401C70472E
:1043E00003460B4371D443088B42F5D300220309E3
:1043F0008B4254D3030A8B4239D3030B8B421DD318
:10440000030C8B4202D394466EE0090AC30B8B4225
:1044100001D3CB03C01A5241830B8B4201D38B03D0
:10442000C01A5241430B8B4201D34B03C01A524175
:10443000030B8B4201D30B03C01A5241C30A8B42B8
:1044400001D3CB02C01A5241830A8B4201D38B02A3
:10445000C01A5241430A8B4201D34B02C01A524147
:10446000030A8B4201D30B02C01A5241CDD2C309B9
:104470008B4201D3CB01C01A524183098B4201D335
:104480008B01C01A524143098B4201D34B01C01A20
:10449000524103098B4201D30B01C01A5241C30898
:1044A0008B4201D3CB00C01A524183088B4201D307
:1044B0008B00C01A524143088B4201D34B00C01AF3
:1044C0005241411A524110007047CA0F00D0494270
:1044D000031000D34042534000229C4603098B4204
:1044E0002DD3030A8B4212D38901FC2212BA030A8C
:1044F0008B420CD3890192118B4208D3890192110E
:104500008B4204D3890137D0921100E08909C30995
:104510008B4201D3CB01C01A524183098B4201D394
:104520008B01C01A524143098B4201D34B01C01A7F
:10453000524103098B4201D30B01C01A5241C308F7
:104540008B4201D3CB00C01A524183088B4201D366
:104550008B00C01A5241D9D243088B4201D34B0081
:10456000C01A5241411A00D20146524110466346D8
:104570005B1000D34042704763465B1000D340425B
:1045800001B50021004201D0C9430846C046C046DB
:1045900002BD000003B40148019001BD01002020CC
:1045A00070B50125ED0704004C4020D4441A01D217
:1045B000001B0919C60D4B00F2B2FF2A29D01B0EB1
:1045C0002CD000020C0228432C43D31ADC400519DE
:1045D00010D2280A02D3401C6D0611D0761EF605B3
:1045E0008019FF2A00DA70BDC00DC00570BD69409A
:1045F00000F07AF801200543C541521C761CE8E71B
:1046000064089C40C90161408900E7D10124A043AE
:10461000E4E71B0E440200D0034870BD002AFCD121
:10462000C00FC00770BD00BF0000C07F70B5420062
:1046300064414B005C41120E39D01B0E38D0FF2A6A
:104640003CD0FF2B3AD0D2187F3A40024902400AB0
:10465000490A4518ED0106004E43000A090A48437D
:104660000104731A4019190C4318990F04D05B0800
:10467000012149075B1A521CD80904D3401CF503D9
:1046800001D19D0607D0FF2A08D2D50506D0E40740
:104690002043401970BD0125A843F4E7002A01DC3E
:1046A000E00770BD2402FF202043C00570BD1B0E33
:1046B000FF2A03D0FF2B01D0E00770BDFF2636068E
:1046C0004500B54206D84D00B54203D8D218FF2A9E
:1046D00000D0E7E7004870BD0000C07F70B501253D
:1046E000ED0704004C4022D4441A02D26C40001B57
:1046F0000919C60D4B00F2B2FF2A4BD01B0E50D049
:1047000000020C02A8432C43D31ADC40051B05D53C
:10471000AD0019D36D08761E521E37D0F605280A53
:1047200001D2801970BD70416D0603D070BD694023
:10473000FFF73CFF9C4009026140490001D0401E48
:1047400070BD0124A04370BD6D081DD001202B0C4D
:1047500001D12D0410302B0E01D12D0208302B0F6A
:1047600001D12D01001DAB0F01D1AD00801CEB0F5D
:1047700001D16D00401C361A121A6D00680AF50549
:104780004019012A02DB70BD002070BDC036300A1E
:10479000C00770BD1B0E440201D1FF2B00D102489F
:1047A00070BD002AF0D070BD0000C07F818283847C
:1047B00085868788898B8C8D8E8F9192939596971D
:1047C000999A9C9D9FA0A2A3A5A7A8AAACAEB0B29F
:1047D000B3B5B7B9BCBEC0C2C5C7C9CCCED1D4D79A
:1047E000D9DCDFE2E6E9ECF0F3F7FAFE18191A1B60
:1047F0001C1D1E1F08000300020001000F001E0008
:104800003200C800C80032001E000F000100020084
:10481000030008003E0D6F0D770DD50D170D4A0DE5
:10482000610DCB0DD70C190D3D0DA70DB40B5B0C15
:10483000A80CCA0C470B1A0C740C8B0C410B020C05
:10484000560C5E0CD70C2B0D540DA60DD20C130D6F
:10485000400D8B0DAE0CF10C210D5B0D230C860C65
:10486000CC0CEB0CE80B5E0CA70CC10CCB0B450C75
:104870008D0CA40CBE0C180D480D8B0DBA0C030D3D
:10488000350D700D990CE80C1B0D470D340C910C77
:10489000D80C020D0D0C730CB70CD70CF20B5B0C83
:1048A000A00CBC0C9D0C060D3D0D740D9A0CF40C67
:1048B000290D580D810CDE0C130D360D370C960C9E
:1048C000E20C120D230C800CC70CF10C100C6B0CBD
:1048D000B10CD30C910CFD0C370D610D8F0CEC0C51
:1048E000240D490D790CDA0C100D2E0D390C980C95
:1048F000E70C1C0D2A0C850CCF0C000D1A0C730C48
:10490000BB0CE90C00009600FA005E01C201F40144
:10491000D0077017E425F401D0076419AC266400B1
:104920002C01BC02960064002C01BC0264000A0A3F
:104930000A0A0A0A0A0A0A0A0A14141400050A0FC3
:1049400014191E282D32373C5064F00A6D0C980C57
:10495000AF0CCD0CDE0CE70CE80CEA0CEC0CEF0C09
:10496000F80C0C0D4E0D0A0A0A0A0A0A0A0A0F0F61
:104970000A000000000A141E28323C46505F640002
:104980000000F00A850CB00CD20CDB0CDD0CE90C3D
:10499000020D030D0B0D3E0D000000000000050090
:1049A00000050000110000000000002000000000D1
:1049B00000000000000000000000030008000000EC
:1049C0000302070002000000FF07000000000000D3
:1049D00000000000000000000800000018000000B7
:1049E000003000001416181A1C1E3032FD92FA9284
:1049F000FF920093FE92FB920193029300006A7073
:104A000074760F0F101011111212314B13F13C4636
:104A10000604B80B2814B80B28141E00B80B800C21
:104A2000420E000000000000584A00000000202054
:104A300034000000200100008C4A000034002020D7
:104A40003C00000020010000C84A00007000202047
:104A5000300700004801000081B011210902012245
:104A6000425009494018016807220A400092009903
:104A7000C9B2032903D00099C9B20129F3D1009822
:104A8000C0B201B07047C046D01300001448000007
:104A90004448000074480000A4480000D4480000C6
:104AA000012002250E0000004A4900003C49000098
:104AB0002E4900000E0000008249000074490000E9
:084AC00066490000000000003F
:04000005000000C136
:00000001FF
