:020000040000FA
:10000000B8022020C5010000C9010000CB0100009A
:1000100000000000000000000000000000000000E0
:10002000000000000000000000000000CD01000002
:100030000000000000000000CF010000D10100001E
:10004000D3010000D3010000D3010000D301000060
:10005000D3010000D3010000D3010000D301000050
:1000600000000000D3010000D301000000000000E8
:1000700000000000D3010000D3010000191E0000A1
:10008000D3010000D30100007D1D0000D30100005A
:10009000D3010000D30100000000000000000000B8
:1000A000D30100008D1800000000000000000000D7
:1000B000D301000000000000D3010000D3010000C4
:1000C00000F002F800F052F812A030C808382418E6
:1000D0002D18AC4201D100F049F80FCCA246AB4636
:1000E0000CA730CF2D1B083F3F197C427F1E544484
:1000F0002D090426F441641EAC4201D300F036F809
:100100000126334200D0FB1A3343984754465D46DC
:10011000DFE70000B4220000E4220000000000003D
:10012000103A02D378C878C1FAD8520701D330C840
:1001300030C101D504680C60704700000000000069
:100140007047000000000000002300240025002666
:10015000103A01D378C1FBD8520700D330C100D583
:100160000B6070471FB51FBD10B510BD00F002FD3C
:100170001146FFF7F7FF01F03BFF00F01AFD03B453
:10018000FFF7F2FF03BC00F021FD000070B505464B
:100190000C46164602E00FCC0FC5103E102EFAD2C8
:1001A000082E02D303CC03C5083E042E07D301CC8E
:1001B00001C5361F03E021782970641C6D1C761E72
:1001C000F9D270BD06480047FEE7FEE7FEE7FEE70E
:1001D000FEE7FEE703480449024A044B704700006B
:1001E000C1000000B8012020B8022020B801202062
:1001F000F8B5042A2CD3830712D00B78491C03705E
:10020000401C521E83070BD00B78491C0370401C06
:10021000521E830704D00B78491C0370401C521EE9
:100220008B079B0F05D0C91ADF002023DE1B08C9EE
:100230000AE0FFF7ABFFF8BD1D4608C9FD401C46AC
:10024000B4402C4310C0121F042AF5D2F308C91A77
:10025000521EF0D40B78491C0370401C521EEAD485
:100260000B78491C0370401C012AE4D40978017002
:10027000F8BD01E004C0091F0429FBD28B0701D59A
:100280000280801CC90700D00270704700290BD083
:10029000C30702D00270401C491E022904D3830701
:1002A00002D50280801C891EE3E70022EEE70022CF
:1002B000DFE70000002203098B4273D3030A8B425D
:1002C00058D3030B8B423CD3030C8B4221D312E057
:1002D00003460B437FD4002243088B4274D30309A7
:1002E0008B425FD3030A8B4244D3030B8B4228D348
:1002F000030C8B420DD30902FF2212BA030C8B426E
:1003000002D31212090265D0030B8B4219D300E00D
:10031000090AC30B8B4201D3CB03C01A5241830B92
:100320008B4201D38B03C01A5241430B8B4201D342
:100330004B03C01A5241030B8B4201D30B03C01A6B
:100340005241C30A8B4201D3CB02C01A5241830AE5
:100350008B4201D38B02C01A5241430A8B4201D314
:100360004B02C01A5241030A8B4201D30B02C01A3E
:100370005241CDD2C3098B4201D3CB01C01A5241A5
:1003800083098B4201D38B01C01A524143098B422E
:1003900001D34B01C01A524103098B4201D30B0117
:1003A000C01A5241C3088B4201D3CB00C01A52413C
:1003B00083088B4201D38B00C01A524143088B4201
:1003C00001D34B00C01A5241411A00D2014652419A
:1003D000104670475DE0CA0F00D04942031000D3B9
:1003E000404253409C46002203098B422DD3030A0E
:1003F0008B4212D38901FC2212BA030A8B420CD31E
:10040000890192118B4208D3890192118B4204D346
:1004100089013AD0921100E08909C3098B4201D3C6
:10042000CB01C01A524183098B4201D38B01C01A00
:10043000524143098B4201D34B01C01A5241030977
:100440008B4201D30B01C01A5241C3088B4201D326
:10045000CB00C01A524183088B4201D38B00C01AD3
:100460005241D9D243088B4201D34B00C01A5241AA
:10047000411A00D201465241104663465B1001D337
:100480004042002B00D54942704763465B1000D3C1
:10049000404201B50449002802DC491C084000E044
:1004A0000846C046C04602BDFFFFFF7F7047704749
:1004B000704700000246C80FC00781434B0030B5AB
:1004C0004B405B009B0D20D01923DB06C91801238C
:1004D0001B05994220DB0324A40704251346AB40E7
:1004E0000BD3002B04D1EB0613409B00E34204D452
:1004F00001246407002312195941FF231B05994267
:100500000BD2C9000143500F09E0CB0204D50143CF
:100510000803024305D0054830BDFF21C905084343
:1005200030BD084607210905884330BD0000C07F63
:10053000F0B50C46871A9C410D46861A9D4103D2A0
:10054000C01BA141D21963410D0D1F0DC94EEC1BFB
:10055000AE435CD07F057F0D0026002F51D02D05C6
:10056000AC46A943DD020123ED0A1B051D432023F0
:100570001B1B24D41746E740381871412F46E7402B
:10058000CC199D402818314661410C0D27D161449A
:100590009A4013D50023401C594152000ED1400807
:1005A000400001224B005205D34207D305204007EB
:1005B000C14201D5B04900E0B0493046F0BD6B0002
:1005C000002A00D001229A181F23203C1B1B01D5B2
:1005D000002302E0E540281871410C0DD7D001241A
:1005E00024050919C407CD0740084908E40F28432A
:1005F0006144002CD5D00024401C61419A40D0D1E8
:10060000CDE76A05520DD9D1C90FC907D5E79C4D71
:100610004E00002801D0012400E0002434195F00BE
:10062000002A01D0012600E00026BE19954FAC42F9
:100630000CD8AE420AD8B44206D001256D05EC4272
:10064000BCD010461946F0BD9942FCD00020394676
:10065000F0BDF0B51FB40C460F46811A9F412546E8
:10066000861A9D4106D20125ED076F40401ABC4114
:1006700052187B41210D1E0D8D1BAC467D4D8D43C7
:100680007ED075056D0D7CD00D05AE46AC431B03C9
:100690001B0B794D52429D41202366469B1B14D370
:1006A0001746F740381800260090744160462F46E0
:1006B0000741E41900989D402818664116D47146F8
:1006C00071189A4025D5012320E093182A466A41E3
:1006D0005200002B00D0521C1E23203E9B1B002BDF
:1006E00061DD3541EE1728186641E8D500187641DE
:1006F0005B1C9A4000D3401C4B05F3181524E340C3
:1007000010D3002B52D071467118D30FC01802D3EA
:10071000491C05B0F0BD0123DB079A42F9D140081E
:100720004000F6E701225205B21801D1002853D04B
:100730000123CC0ADB029943891E002A08D1020C4E
:1007400003D0020C0004103902E0024600202039D8
:100750000023550B05D112020823550B01D152017C
:100760000D23550C01D112011B1DD50C01D1920096
:100770009B1C150D01D152005B1C2025EE1A01E0D7
:100780002CE022E00546F54015439840CA1AE107DF
:1007900069181305C918002ABBDA03204007081896
:1007A000C10FC9070FE071466118B2E7F1074008B1
:1007B0000843711071444A000CD001235B059A4232
:1007C000A7D2C90FC9070020A3E74905490D26D1C3
:1007D000002001E00028F4D100219AE7284D6600AE
:1007E000002801D0012100E0002171185F00002ADB
:1007F00001D0012600E00026BE19224FA94210D8E0
:10080000AE420ED8B14208D001256D05E94206D0AE
:100810001946A802414010467BE79C4201D0214680
:1008200077E70020394674E710B50C465C4005D5E3
:100830000124E4076340FFF70CFF10BDFFF778FECB
:1008400010BD30B40C465C4004D50124E40763407D
:1008500030BC6DE630BCFCE670B50124E4076140B5
:100860000D465D4002D4FFF763FE70BD6340FFF7A5
:10087000F0FE70BDFF0700000000F0FF0000F07FF9
:100880000000E0FF0000F87F1F22030C02D10F22BE
:10089000000402D0030E03D004E00020014670479C
:1008A0000002083A030F01D10001121F830F01D18A
:1008B0008000921E002801DB4000521E12055118D4
:1008C0004205C012411810467047C10FC90700D039
:1008D0004042012292071143D6E701218907D3E75D
:1008E000F0B58B4C0F09254689B0BD437BD01D095F
:1008F0002646AE43FAD00E465E402740F60F3E43F2
:10090000254071D024012142FBD0FF24AD19A4045D
:100910002D1B039501252D05DB02DB0AC9022B43A4
:10092000C90A29431E010901040F130F05012143C0
:100930001701880B820391432D098C46A90B1E4396
:100940008A039543B30B9A0396433F09BA0B94036A
:10095000A74302962E467E430497B6464E19D719F2
:100960000C460196544305977E43371B7646BF1BC2
:100970003601B646BE0B361900967646BC043719CA
:10098000009C01D3641C00946400002F01D0012658
:100990003443029E049F754366467E430496760068
:1009A00034196E0034190094029C019E1C19664390
:1009B000751BAE46069465464519059C05956C4326
:1009C000594375460891691A0191049E01465143A5
:1009D000A41B0491611A009C0791E10605D06109EE
:1009E0000122114302E072E06EE06109089D0027D8
:1009F0002C0A2D066918049D7C412A0A2D066918C7
:100A0000019D6241AC0DAD026D185441079A910DE4
:100A1000920255196141029A644658435443069B19
:100A2000059A5A43121A131B9A0E9B015B187A41BE
:100A3000010B0005C3185141220A200644195A41EE
:100A40009A4200D2491C01204002814203D315235F
:100A50000226F64302E014230326F6432020C51A9B
:100A6000A9401746AF40DA400A4320460399D840D0
:100A70000914731819055118039A3843D2075140C5
:100A8000AC4009D00122944006D30022401C5141C1
:100A9000002C01D1400840001E4A934212D301228B
:100AA00003989206904207DB0520400709181A4870
:100AB0000143C012414004E0032040070818C10F61
:100AC000C907002009B0F0BD0020F107FAE70518BA
:100AD0000C464C4111486D42A04115D394181A465A
:100AE0005A410E48644290410ED301204A0040050D
:100AF000824209D35A00824206D35940C90F084A9C
:100B0000C90700201143DDE700200649DAE70000AD
:100B10000000FF07FE070000FFFFFF7F0000E0FF6F
:100B20000000F07F0000F87F10B501469E2400020F
:100B3000CA15A307002A02D01843002A04DBA21A10
:100B4000002A0CDDD04010BD1206120E01D140006B
:100B50004008A21A03D4D04040420028F3DDFF220F
:100B600048001206904201D9002010BDC817C043AA
:100B7000584010BD754600F025F8AE4605006946A0
:100B80005346C008C000854618B020B5FFF722FBC9
:100B900060BCB64600260027C0C5C0C5C0C5C0C5DC
:100BA000C0C5C0C5C0C5C0C5403D490849008D4647
:100BB000704710B50446C046C0462046FFF7DFFA2E
:100BC00010BD00000048704738002020014918205F
:100BD000ABBEFEE7260002007047F0B58FB006906E
:100BE0000CA900254D70122008703E2702243846BB
:100BF000224600F0D9FE204601F0DEF93C2001F04B
:100C0000DBF90CA94D709020087038460A972246EF
:100C100000F0CAFE204601F0CFF90820059001F04F
:100C2000CBF90CAE757135712D20F07080200190DC
:100C3000B0709220099070703420307004220392BA
:100C40003846314600F0B0FE204601F0B5F90EA955
:100C500006200490487070780C9A8018B27880183A
:100C6000F2788018C043087060200890224600F097
:100C70009BFE204601F0A0F90CAF7D713D71FD7027
:100C800001200290B870099E7E70372038700322D0
:100C90000B920A98394600F087FE204601F08CF945
:100CA0000EA905200790487078780C9A8018BA78B9
:100CB0008018C04308700898224600F075FE204650
:100CC00001F07AF90CAF7D713D71FD700D20B870A7
:100CD0007E70362038700A9E304639460B9A00F0F6
:100CE00063FE204601F068F90EA9079848707878ED
:100CF0000C9A8018BA788018C04308700898224669
:100D000000F052FE204601F057F90CAF7D713D71A5
:100D1000FD704220B87009987870FB20387030461A
:100D200039460B9A00F040FE204601F045F90EA925
:100D30000798487078780C9A8018BA788018C04361
:100D40000870089E3046224600F02EFE204601F034
:100D500033F9069F38460830039901F025F83846E4
:100D6000059901F0ABF80CAF7D713D71FD70BC20B1
:100D7000B87009987870612038700A9839460B9AD3
:100D800000F012FE204601F017F90EA907984870EE
:100D900078780C9A8018BA788018C043087030466A
:100DA000224600F001FE204601F006F90CAF7D71ED
:100DB0003D71FD70F720B870099E7E70622038701A
:100DC0000A9839460B9A00F0EFFD204601F0F4F83E
:100DD0000EA90798487078780C9A8018BA7880180D
:100DE000C04308700898224600F0DEFD204601F05E
:100DF000E3F80CAF7D713D71F820F870822000900F
:100E0000B8707E706D2038700A9E30463946039A5D
:100E100000F0CAFD204601F0CFF80EA904984870F2
:100E200078780C9A8018BA788018FA788018C043BD
:100E300008700898224600F0B7FD204601F0BCF883
:100E40000CAF7D713D71FD700B9ABA7093200390C9
:100E50007870352038703046394600F0A5FD2046C0
:100E600001F0AAF80EA9079E4E7078780C9A8018A7
:100E7000BA788018C04308700898224600F094FDA4
:100E8000204601F099F80698007D0CAF7D713D7108
:100E9000FD70B87009987870752038700A983946D6
:100EA0000B9A00F081FD204601F086F80EA94E70E5
:100EB00078780C9A8018BA788018C0430870089E19
:100EC0003046224600F070FD204601F075F8069885
:100ED000407D0CAF7D713D71FD70B87009987870E0
:100EE000782038700A9839460B9A00F05DFD20464C
:100EF00001F062F80EA90798487078780C9A80186B
:100F0000BA788018C04308703046224600F04CFD85
:100F1000204601F051F80CAF7D713D71FD700498D1
:100F2000B870039878700B9A3A700A98394600F0B6
:100F30003BFD204601F040F80EA9079E4E707878E0
:100F40000C9A8018BA788018C04308700898224616
:100F500000F02AFD204601F02FF80CAF7D713D71A5
:100F6000FD70BE7009987870019838700A983946FB
:100F70000B9A00F019FD204601F01EF80EA94E70E4
:100F800078780C9A8018BA788018C043087008984E
:100F9000224600F009FD204601F00EF80CAF7D71ED
:100FA0003D71FD700A20B87009987870009838700B
:100FB0000A9839460B9A00F0F7FC204600F0FCFF37
:100FC0000EA94E7078780C9A8018BA788018C043B1
:100FD00008700898224600F0E7FC204600F0ECFF7D
:100FE0000CAF7D713D71FD70BE70099878708620E0
:100FF00038700A9839460B9A00F0D6FC204600F06B
:10100000DBFF0EA94E7078780C9A8018BA78801899
:10101000C0430870089E3046224600F0C5FC2046BA
:1010200000F0CAFF0CAF7D713D71FD700B9ABA7074
:1010300009987870872038700A98394600F0B4FC17
:10104000204600F0B9FF0EA90798487078780C9AEE
:101050008018BA788018C04308703046224600F0E5
:10106000A3FC204600F0A8FF0CAF7D713D71FD7020
:101070000298B87009987870952038700A9E3046AA
:1010800039460B9A00F090FC204600F095FF0EA91F
:101090000798487078780C9A8018BA788018C043FE
:1010A00008700898224600F07FFC204600F084FF7C
:1010B000059F384600F080FF0CA94D700998087014
:1010C0003046224600F070FC204600F075FF38469E
:1010D00000F072FF0CA94D702220087030462246A5
:1010E00000F062FC204600F067FF384600F064FF25
:1010F0000CA94D70962008703046224600F054FC32
:10110000204600F059FF384600F056FF0CA94D70FC
:101110009A2008703046224600F046FC204600F037
:101120004BFF384600F048FF0FB0F0BDB0B562206D
:101130008E4C022521462A4600F0B4FB284600F0DA
:101140003BFF607821780002401801490880B0BD5B
:1011500098002020F0B581B06A20844C02252146F9
:101160002A4600F09FFB284600F026FF6078217891
:1011700000024018FFF7A9FB2C4F2D4B3A46FFF712
:10118000AFFB2C4A2C4BFFF74FFBFFF793F9A44E14
:1011900030606E2021462A4600F084FB284600F08D
:1011A0000BFF6078217800024018FFF78EFB3A466B
:1011B0001F4BFFF795FB1F4A1F4BFFF735FBFFF750
:1011C00079F97060742021462A4600F06BFB2846AE
:1011D00000F0F2FE6078217800024018FFF775FBFE
:1011E0003A46134BFFF77CFB124A134BFFF71CFBED
:1011F000FFF760F9B060762021462A4600F052FBE6
:10120000284600F0D9FE6078217800024018FFF7E8
:101210005CFB3A46064BFFF763FB064A064BFFF7BB
:1012200003FBFFF747F9F06001B0F0BD9A99999977
:101230009999B93F66666666661271C0B0B53A2084
:101240004A4C022521462A4600F02CFB284600F095
:10125000B3FE607821780002401873490880B0BD61
:10126000B0B57F20414C022521462A4600F01AFBEA
:10127000284600F0A1FE6078207801490870B0BDD2
:101280009A002020F0B581B00320384C0225214679
:101290002A4600F007FB284600F08EFE6078207892
:1012A0001D4E307020784007C00F1C490870207810
:1012B0000007C00F1A49087060780007C00F19496D
:1012C000087060788007C00F174908700520214614
:1012D0002A4600F0E7FA284600F06EFE6078207893
:1012E000124F3870072021462A4600F0DBFA2846C4
:1012F00000F062FE607820780D4908703178081897
:1013000039784018012801D8002000E0012009495F
:10131000087001B0F0BDC046B4012020F5002020C7
:101320009D002020D80020209C002020B5012020F6
:10133000B6012020CC00202070B504460B4D0226BB
:101340002946324600F0AEFA304600F035FE6878A5
:10135000297800024018143CE1B21F2903D30A2166
:10136000414388B270BD80B270BDC046CD00202020
:1013700070B5294800F03AF91420FFF7DDFF274D3A
:1013800028801620FFF7D8FF68801820FFF7D4FFC9
:10139000A8801A20FFF7D0FFE8801C20FFF7CCFFC1
:1013A00028811E20FFF7C8FF68813020FFF7C4FFA7
:1013B000A8813220FFF7C0FFE8813420FFF7BCFF8F
:1013C00028823820FFF7B8FF6882FFF7C3FE144E6B
:1013D0003068144C214600F073FFFFF7A5FBE8834B
:1013E0007068214600F06CFFFFF79EFB2884B06810
:1013F000214600F065FFFFF797FB6884F0682146FF
:1014000000F05EFFFFF790FBA884FFF717FF064888
:101410000088E88470BDC04600200F40A000202056
:10142000E4002020000020419E00202010B582B062
:1014300001A90870000A48703E200224224600F0EC
:10144000B3FA204600F0B8FD02B010BD811E091F9E
:1014500000BFFCD27047000070B50B01C318546880
:101460009568254394892C43156956692543D48989
:1014700024012C4335012543092464021D511378AE
:1014800052781A43BF231A40890040180249445831
:101490009C43A218425070BD1011000080B5022379
:1014A0001343034A83508218D16100F003FF80BDCB
:1014B0000411000070B511231B02C41801256560DA
:1014C000FF2610366662216211682163C55070BD27
:1014D000F0B583B002920E460190354C2068052786
:1014E000276007252840334B196820602268276051
:1014F0002A4018682260304B0096B60A89048A0F89
:10150000314609D02D490840511C00F0D7FD014655
:101510003046FEF7CFFE284B0198C0180190226894
:101520002760244803682A402260226827600368F5
:101530002A40226001229302029898420CD0530262
:10154000984210D10098C30B0FD1B24001980168A6
:101550009143016003B0F0BD1F210E40B2400198DD
:10156000016C9143016403B0F0BDFF2911D82368D9
:1015700027602B400F4D2D682360AB049B0F00D1DB
:101580002039C9088A40019841689143416003B0FD
:10159000F0BD1302FF339942E5D2FF23DB43C918A4
:1015A000C9088A40019881689143816003B0F0BD09
:1015B000001340401800C441D0110000FF0F00008C
:1015C00010B5002A0FD091235B01C3180020DC69FD
:1015D0002405240F05D00C5C1C60401C8242F6D10F
:1015E000104680B210BD002080B210BD0F4A835853
:1015F0000121C9030B438350801842681207FCD1B4
:1016000002688A4302607047084A835880210B436E
:10161000835080180F221202436813400122D20225
:101620009342F7D102688A43026070473812000083
:1016300070B50A780C231A400124240305196E683A
:101640009E43B2186A6049780722114003599343B8
:101650005918015170BD0000B0B5FF2204320E4987
:101660000B68934382780324144002781202121903
:101670001A430A60094A0A4B13600A4C25686D0533
:10168000FCD54078002803D00868102404430C607F
:10169000581C1060B0BDC04614010B4014030B4031
:1016A0000100009104020B40B0B54A68364BC250AD
:1016B000364A80180A78222A58D8930001A4E358A1
:1016C0009F46C046631700006D17000063170000B7
:1016D0006D1700006D1700006D1700006D170000FA
:1016E0006D1700006D1700006D1700006D170000EA
:1016F0006D1700006D1700006D1700006D170000DA
:101700006D170000511700006D1700005117000001
:101710006D1700006D1700006D1700006D170000B9
:101720006D1700006D1700006D1700006D170000A9
:101730006D1700006D1700006D1700006D17000099
:101740006D170000511700006D17000051170000C1
:1017500003231B0704689C4301235B07E318036012
:1017600004E003231B0704689C4304600B69C36007
:10177000CB68074C1C40C36A064D1D402B19C36241
:10178000097A11430160B0BD081800000418000078
:10179000777702008888FDFF10B5012212038318B5
:1017A0000C789C604B7883508978014A815010BD39
:1017B0000C11000010B5002A0CD0074BC3180020F4
:1017C0001C68240605D40C5C9C61401C8242F7D145
:1017D000104610BD002010BD08110000B0B5112248
:1017E000120283580124A34383500B888C781C4336
:1017F0008B882343094C1C408358094D1D406319B5
:1018000083508B79CC791C43097A21437E2319407C
:10181000801842689A4351184160B0BD18670000B3
:10182000E798FDFF10B50122120383180C789C6025
:101830004978815010BD000010B55A480078401E0C
:1018400041424141A74C6185FFF770FCFFF71AFD4B
:10185000FFF706FD07480088A08207480078E0826D
:1018600006480078208306480078608305480078A1
:10187000A08310BD98002020B4012020B5012020B5
:10188000B60120209A00202070470000044800681C
:10189000C0B2082802D14348012101707047C046F8
:1018A00020300F40F0B583B0144602AF387001917C
:1018B00008461146FEF7F9FCBB4839462246FFF7B9
:1018C0007FFE614F3868800608D43868800605D4EA
:1018D0003868800602D438688006F3D53E46083E54
:1018E00030685A490840103030603A1F1068584933
:1018F00008402B494018154610603868400612D53C
:10190000386840060FD5386840060CD53868400660
:10191000F3D408E03868800608D43868800605D417
:101920003868800602D438688006F3D59E48FFF7F1
:101930006BFE306845490840112101433160286839
:101940004349084021040143072008432860002C34
:1019500001991ED00025134A0BE0282C344601992A
:10196000104A18D200201070786848556D1CA542A6
:101970000FD0786A0007F5D1264600200446502093
:1019800000F028FB786A0007E7D1601C282CF5D30B
:10199000E3E703B0F0BD0120107003B0F0BDC04616
:1019A000070001009B002020B0B582B01446002241
:1019B00000926B4618700192002C04D06846401CBF
:1019C0002246FEF715FC651C774C694620462A46E0
:1019D000FFF7F6FD1C480168890608D401688906EE
:1019E00005D40168890602D401688906F3D5014649
:1019F00008390A68154B134010330B60011F0A6841
:101A0000134B13402A049A18D21D0A600168490634
:101A100012D5016849060FD5016849060CD5016841
:101A20004906F3D408E00168890608D401688906EC
:101A300005D40168890602D401688906F3D52046D9
:101A4000FFF7E2FD02B0B0BD18320F4000F8FFFF13
:101A5000F8FF00F0B0B51E4C2078072819D1E079C6
:101A60000A2816D1A078E1780002401815282DD850
:101A70006278002A11D0617801290AD1217962792E
:101A8000090289184000C64A11521248002101700B
:101A900019E0104801210170B0BD0F48C170002548
:101AA000857011224270072202700A22C27185716C
:101AB0004900BB4A515A4171090A0171082100F0DD
:101AC000D7F904480570002020606060B0BDC046B2
:101AD000D0002020F4002020D9002020B0487B2115
:101AE00081817047A000202080B503480021034A6F
:101AF000FFF7B2FC80BDC04600A04240702300004A
:101B000080B5FFF7F1FF80BD0F4801461C39002268
:101B10000A60014618390A600C49416001600121E0
:101B20004A064368134343600368134303608222F9
:101B30008261074AC261074881220260880506491E
:101B4000086008637047C0463C80424084000C0037
:101B500082000400C8804240A0320A4080B512488A
:101B60001249FFF765FD03204102114802680A434C
:101B7000026001210A0203681343036000224261EC
:101B80001F224262826B0A4306239A438263072222
:101B90001202836B93438363826A04231343836239
:101BA000826A0A43826280BD00200F4088230000C1
:101BB00000320F400120800206490A68024208D123
:101BC0000A68024205D10A68024202D10A6802424A
:101BD000F3D0704704020B40B0B50E4800210160FD
:101BE0000320C0430C4C214608390A6802400A60B1
:101BF00020680125A84320602802216881432160D4
:101C00000648FFF729FD2803211F0A6802430A60DE
:101C1000B0BDC04608030B4008010B408A230000FA
:101C200010B50B4C0B492046FFF7B6FD0A4920467C
:101C3000FFF73AFD09480168012211430160FF20C6
:101C4000000407490B6883430B600648026010BD1F
:101C5000000086408D23000090230000281086405D
:101C600010E400E008118640B0B5934C20492046AE
:101C7000FFF7D8FD1F492046FFF7B0FD0320C10341
:101C80007A4802688A43026001691B4A0A4011329D
:101C90000261416917220A4328218A43426142684E
:101CA00001210A4043688B439A184260CA03134BD0
:101CB0001C6814431C60FF221206114C25689543D2
:101CC0008A07AA1822608A021A634A040368134327
:101CD0000360C26870231343C360C26802231343C6
:101CE00005229343C36002680A430260B0BDC04648
:101CF000A4230000A62300000000FFFF289010404E
:101D00000CE400E080B500F015F8FFF7FDFEFFF7EA
:101D100063FFFFF785FFFFF721FFFFF7A5FFFFF741
:101D2000EFFEFFF747FFB820014900220A5480BDAB
:101D3000F8002020B0B50A480A4941600A4A5160BB
:101D40000A4B59600A4C61600A4D69600A4901609A
:101D500011601960216029601020FFF777FBB0BD8A
:101D600000080A40030000B100280A40000886402D
:101D700000280F4000881040010000260748006836
:101D8000C0B2012808D10648018D064A914201D00F
:101D9000491C00E0012101857047C04620108640A3
:101DA000A0002020FFFF0000F0B585B0002930D052
:101DB000054602A8C01C00900191288804AE0021AD
:101DC0003180009A91705170117002AF0721B97083
:101DD000010A797038703E2003223946FFF7E4FD8E
:101DE0000224204600F0E8F8052070707878029907
:101DF0004018B9784018C043307060203146224600
:101E0000FFF7D2FD204600F0D7F80199AD1C491E1E
:101E1000D2D105B0F0BD000080B504480068C0B262
:101E2000102801D1FFF716FE80BDC046209010405B
:101E300010B59A4B0020186058609648016802223D
:101E40009143016009490C462434446083600823AF
:101E5000C36001235B040C689C430C60046814435A
:101E6000046008681843086010BDC0460091104027
:101E7000F0B581B000291AD00C46054600260D4F5A
:101E800003E08019C6B2A64211D2A919A21B0A48C2
:101E9000FFF790FC3968C907F3D03968C907F0D05B
:101EA0003968C907EDD03968C907F3D1E9E70120DE
:101EB00001B0F0BD0891104000801040F0B587B02F
:101EC000002203910029134616464FD0032403999C
:101ED0000C40042905D2002635463346002C2CD16F
:101EE00044E001940292FC230399194003910025D8
:101EF0002B4647197E78143E74100122194613466A
:101F0000A340445D143C64101646A6408C19E318A7
:101F1000BC78143C64101646A6409B19FC78143C0F
:101F20006410A2409B182D1D0399A942E1D199B2DA
:101F30000E0A029A019C002C18D0415D14394E10F3
:101F400001210F46B740DB19012C0DD0401945780F
:101F5000143D6D100E46AE409B19022C04D08078C3
:101F60001438401081405B1898B2060A04AC6271C4
:101F70002271E670A37093206070042222703E20CC
:101F80002146FFF711FD0225284600F015F806A9A5
:101F9000062048706078049A8018A2788018E27849
:101FA0008018C043087060202A46FFF7FDFC2846D1
:101FB00000F002F807B0F0BDB0B5002809D0044623
:101FC00000257D200002FFF741FA6D1CE8B2A04217
:101FD000F7D3B0BDB0B5002808D0044600252020B6
:101FE000FFF734FA6D1CE8B2A042F8D3B0BD000090
:101FF000FFF788FE27482849416028498160082169
:10200000C160016802220A4302600124A00424493D
:102010000860E00308606006086025046702214E3E
:10202000304629463A46FFF753FA402230462946C1
:10203000FFF734FA304629463A46FFF749FA1A4A7A
:1020400030462946FFF736FA1848FEF7C6FD204607
:10205000FFF7B2FF2220FFF7E9F92046FFF7ACFFB8
:102060009A20FFF7E3F9FFF739FDFFF70DFC104861
:102070000168214301600F4D0F4EA0052860FFF756
:1020800077F9FFF7D9FB30780028F6D0FFF7D0FEBC
:10209000F3E7C04600B2424024911040D000202017
:1020A00000E100E000D00C4034002020B02300000C
:1020B00004188640B0320A40F400202043088B42C6
:1020C0001AD3002203098B4279D3030A8B425ED3D1
:1020D000030B8B4242D3030C8B4227D30902FF220E
:1020E00012BA030C8B4202D31212090203D0030B63
:1020F0008B4233D31AE0D3E0411A8041401C704731
:1021000003460B4371D443088B42F5D300220309E5
:102110008B4254D3030A8B4239D3030B8B421DD31A
:10212000030C8B4202D394466EE0090AC30B8B4228
:1021300001D3CB03C01A5241830B8B4201D38B03D3
:10214000C01A5241430B8B4201D34B03C01A524178
:10215000030B8B4201D30B03C01A5241C30A8B42BB
:1021600001D3CB02C01A5241830A8B4201D38B02A6
:10217000C01A5241430A8B4201D34B02C01A52414A
:10218000030A8B4201D30B02C01A5241CDD2C309BC
:102190008B4201D3CB01C01A524183098B4201D338
:1021A0008B01C01A524143098B4201D34B01C01A23
:1021B000524103098B4201D30B01C01A5241C3089B
:1021C0008B4201D3CB00C01A524183088B4201D30A
:1021D0008B00C01A524143088B4201D34B00C01AF6
:1021E0005241411A524110007047CA0F00D0494273
:1021F000031000D34042534000229C4603098B4207
:102200002DD3030A8B4212D38901FC2212BA030A8E
:102210008B420CD3890192118B4208D38901921110
:102220008B4204D3890137D0921100E08909C30998
:102230008B4201D3CB01C01A524183098B4201D397
:102240008B01C01A524143098B4201D34B01C01A82
:10225000524103098B4201D30B01C01A5241C308FA
:102260008B4201D3CB00C01A524183088B4201D369
:102270008B00C01A5241D9D243088B4201D34B0084
:10228000C01A5241411A00D20146524110466346DB
:102290005B1000D34042704763465B1000D340425E
:1022A00001B50021004201D0C9430846C046C046DE
:1022B00002BD000003B40148019001BD01002020CF
:1022C00070B5420064414B005C41120E39D01B0EC8
:1022D00038D0FF2A3CD0FF2B3AD0D2187F3A4002A8
:1022E0004902400A490A4518ED0106004E43000A1A
:1022F000090A48430104731A4019190C4318990F2D
:1023000004D05B08012149075B1A521CD80904D389
:10231000401CF50301D19D0607D0FF2A08D2D50540
:1023200006D0E4072043401970BD0125A843F4E717
:10233000002A01DCE00770BD2402FF202043C00515
:1023400070BD1B0EFF2A03D0FF2B01D0E00770BD2C
:10235000FF2636064500B54206D84D00B54203D8E3
:10236000D218FF2A00D0E7E7004870BD0000C07F08
:10237000110000000000002000000000000000002C
:102380000000000000000300080000000302070036
:1023900002000000FF070000000000000000000035
:1023A00000000000080000001800000000300000DD
:1023B0001416181A1C1E3032FC92FA92FF920093E7
:1023C0006A6E7476314B0000F82300000000202074
:1023D00034000000200100002C24000034002020E4
:1023E00004000000200100003024000038002020FC
:1023F000800200004801000081B011210902012281
:10240000425009494018016807220A400092009989
:10241000C9B2032903D00099C9B20129F3D10098A8
:10242000C0B201B07047C046D013000001201200B6
:04000005000000C136
:00000001FF
